{
  "abi": [
    {
      "inputs": [
        {
          "internalType": "contract ISanctis",
          "name": "newSanctis",
          "type": "address"
        },
        {
          "internalType": "uint256",
          "name": "speed_",
          "type": "uint256"
        },
        {
          "internalType": "uint256",
          "name": "offensivePower_",
          "type": "uint256"
        },
        {
          "internalType": "uint256",
          "name": "defensivePower_",
          "type": "uint256"
        },
        {
          "internalType": "uint256",
          "name": "capacity_",
          "type": "uint256"
        },
        {
          "internalType": "contract IResource[]",
          "name": "costsResources",
          "type": "address[]"
        },
        {
          "internalType": "uint256[]",
          "name": "costs",
          "type": "uint256[]"
        }
      ],
      "stateMutability": "nonpayable",
      "type": "constructor"
    },
    {
      "inputs": [
        {
          "internalType": "uint256",
          "name": "fleet",
          "type": "uint256"
        }
      ],
      "name": "InvalidFleet",
      "type": "error"
    },
    {
      "inputs": [
        {
          "internalType": "address",
          "name": "sender",
          "type": "address"
        }
      ],
      "name": "NotAllowed",
      "type": "error"
    },
    {
      "inputs": [
        {
          "internalType": "uint256",
          "name": "planet",
          "type": "uint256"
        },
        {
          "internalType": "uint256",
          "name": "amount",
          "type": "uint256"
        }
      ],
      "name": "NotEnoughReserve",
      "type": "error"
    },
    {
      "inputs": [
        {
          "internalType": "address",
          "name": "sender",
          "type": "address"
        }
      ],
      "name": "NotTheExecutor",
      "type": "error"
    },
    {
      "inputs": [
        {
          "internalType": "address",
          "name": "sender",
          "type": "address"
        }
      ],
      "name": "NotTheSanctis",
      "type": "error"
    },
    {
      "inputs": [
        {
          "internalType": "address",
          "name": "player",
          "type": "address"
        },
        {
          "internalType": "uint256",
          "name": "planet",
          "type": "uint256"
        }
      ],
      "name": "PlanetNotOwned",
      "type": "error"
    },
    {
      "inputs": [
        {
          "internalType": "address",
          "name": "operator",
          "type": "address"
        }
      ],
      "name": "UnallowedOperator",
      "type": "error"
    },
    {
      "inputs": [
        {
          "internalType": "address",
          "name": "player",
          "type": "address"
        },
        {
          "internalType": "uint256",
          "name": "planet",
          "type": "uint256"
        }
      ],
      "name": "UnauthorizedPlayer",
      "type": "error"
    },
    {
      "inputs": [
        {
          "internalType": "uint256",
          "name": "planetId",
          "type": "uint256"
        },
        {
          "internalType": "uint256",
          "name": "amount",
          "type": "uint256"
        }
      ],
      "name": "build",
      "outputs": [],
      "stateMutability": "nonpayable",
      "type": "function"
    },
    {
      "inputs": [
        {
          "internalType": "uint256",
          "name": "planetId",
          "type": "uint256"
        },
        {
          "internalType": "uint256",
          "name": "amount",
          "type": "uint256"
        }
      ],
      "name": "burn",
      "outputs": [],
      "stateMutability": "nonpayable",
      "type": "function"
    },
    {
      "inputs": [],
      "name": "capacity",
      "outputs": [
        {
          "internalType": "uint256",
          "name": "",
          "type": "uint256"
        }
      ],
      "stateMutability": "view",
      "type": "function"
    },
    {
      "inputs": [
        {
          "internalType": "contract ISanctis",
          "name": "newSanctis",
          "type": "address"
        }
      ],
      "name": "changeSanctis",
      "outputs": [],
      "stateMutability": "nonpayable",
      "type": "function"
    },
    {
      "inputs": [],
      "name": "defensivePower",
      "outputs": [
        {
          "internalType": "uint256",
          "name": "",
          "type": "uint256"
        }
      ],
      "stateMutability": "view",
      "type": "function"
    },
    {
      "inputs": [
        {
          "internalType": "uint256",
          "name": "planetId",
          "type": "uint256"
        },
        {
          "internalType": "uint256",
          "name": "amount",
          "type": "uint256"
        }
      ],
      "name": "destroy",
      "outputs": [],
      "stateMutability": "nonpayable",
      "type": "function"
    },
    {
      "inputs": [
        {
          "internalType": "uint256",
          "name": "planetId",
          "type": "uint256"
        },
        {
          "internalType": "uint256",
          "name": "amount",
          "type": "uint256"
        }
      ],
      "name": "mint",
      "outputs": [],
      "stateMutability": "nonpayable",
      "type": "function"
    },
    {
      "inputs": [],
      "name": "offensivePower",
      "outputs": [
        {
          "internalType": "uint256",
          "name": "",
          "type": "uint256"
        }
      ],
      "stateMutability": "view",
      "type": "function"
    },
    {
      "inputs": [
        {
          "internalType": "uint256",
          "name": "planetId",
          "type": "uint256"
        }
      ],
      "name": "reserve",
      "outputs": [
        {
          "internalType": "uint256",
          "name": "",
          "type": "uint256"
        }
      ],
      "stateMutability": "view",
      "type": "function"
    },
    {
      "inputs": [],
      "name": "sanctis",
      "outputs": [
        {
          "internalType": "contract ISanctis",
          "name": "",
          "type": "address"
        }
      ],
      "stateMutability": "view",
      "type": "function"
    },
    {
      "inputs": [],
      "name": "speed",
      "outputs": [
        {
          "internalType": "uint256",
          "name": "",
          "type": "uint256"
        }
      ],
      "stateMutability": "view",
      "type": "function"
    },
    {
      "inputs": [],
      "name": "unitCosts",
      "outputs": [
        {
          "internalType": "contract IResource[]",
          "name": "",
          "type": "address[]"
        },
        {
          "internalType": "uint256[]",
          "name": "",
          "type": "uint256[]"
        }
      ],
      "stateMutability": "view",
      "type": "function"
    }
  ],
  "bytecode": {
    "object": "0x60806040523480156200001157600080fd5b5060405162000c0a38038062000c0a833981016040819052620000349162000215565b600080546001600160a01b0319166001600160a01b03891617815560038790556004869055600585905560068490555b81518110156200010c57600783828151811062000085576200008562000326565b60209081029190910181015182546001810184556000938452919092200180546001600160a01b0319166001600160a01b039092169190911790558151600890839083908110620000da57620000da62000326565b6020908102919091018101518254600181018455600093845291909220015562000104816200033c565b905062000064565b505050505050505062000366565b6001600160a01b03811681146200013057600080fd5b50565b634e487b7160e01b600052604160045260246000fd5b604051601f8201601f191681016001600160401b038111828210171562000174576200017462000133565b604052919050565b60006001600160401b0382111562000198576200019862000133565b5060051b60200190565b600082601f830112620001b457600080fd5b81516020620001cd620001c7836200017c565b62000149565b82815260059290921b84018101918181019086841115620001ed57600080fd5b8286015b848110156200020a5780518352918301918301620001f1565b509695505050505050565b600080600080600080600060e0888a0312156200023157600080fd5b87516200023e816200011a565b60208981015160408b015160608c015160808d015160a08e0151959c50929a5090985096509450906001600160401b03808211156200027c57600080fd5b818b0191508b601f8301126200029157600080fd5b8151620002a2620001c7826200017c565b81815260059190911b8301840190848101908e831115620002c257600080fd5b938501935b82851015620002ed578451620002dd816200011a565b82529385019390850190620002c7565b60c08e015190975094505050808311156200030757600080fd5b5050620003178a828b01620001a2565b91505092959891949750929550565b634e487b7160e01b600052603260045260246000fd5b60006000198214156200035f57634e487b7160e01b600052601160045260246000fd5b5060010190565b61089480620003766000396000f3fe608060405234801561001057600080fd5b50600436106100b45760003560e01c8063b390c0ab11610071578063b390c0ab14610159578063bf206e451461016c578063c20906ac1461017f578063e3a9405114610187578063ec2799821461019a578063ffcc977d146101a257600080fd5b80631b2ef1ca146100b9578063271acaf3146100ce5780635087883f146100e15780635cfc1a5114610111578063819b25ba14610123578063b086b25114610143575b600080fd5b6100cc6100c736600461068f565b6101aa565b005b6100cc6100dc36600461068f565b610261565b6000546100f4906001600160a01b031681565b6040516001600160a01b0390911681526020015b60405180910390f35b6006545b604051908152602001610108565b6101156101313660046106b1565b60009081526001602052604090205490565b61014b6103d8565b6040516101089291906106ca565b6100cc61016736600461068f565b610495565b6100cc61017a366004610766565b61053e565b600354610115565b6100cc61019536600461068f565b6105f6565b600454610115565b600554610115565b60005460405163d63a8e1160e01b81523360048201526001600160a01b039091169063d63a8e1190602401602060405180830381865afa1580156101f2573d6000803e3d6000fd5b505050506040513d601f19601f82011682018060405250810190610216919061078a565b61023a5760405163fa5cd00f60e01b81523360048201526024015b60405180910390fd5b600082815260016020526040812080548392906102589084906107c2565b90915550505050565b60005460405163d63a8e1160e01b81523360048201526001600160a01b039091169063d63a8e1190602401602060405180830381865afa1580156102a9573d6000803e3d6000fd5b505050506040513d601f19601f820116820180604052508101906102cd919061078a565b6102ec5760405163fa5cd00f60e01b8152336004820152602401610231565b60005b6008548110156103c9576007818154811061030c5761030c6107da565b9060005260206000200160009054906101000a90046001600160a01b03166001600160a01b031663b390c0ab84846008858154811061034d5761034d6107da565b906000526020600020015461036291906107f0565b6040516001600160e01b031960e085901b16815260048101929092526024820152604401600060405180830381600087803b1580156103a057600080fd5b505af11580156103b4573d6000803e3d6000fd5b50505050806103c29061080f565b90506102ef565b6103d383836101aa565b505050565b606080600760088180548060200260200160405190810160405280929190818152602001828054801561043457602002820191906000526020600020905b81546001600160a01b03168152600190910190602001808311610416575b505050505091508080548060200260200160405190810160405280929190818152602001828054801561048657602002820191906000526020600020905b815481526020019060010190808311610472575b50505050509050915091509091565b60005460405163d63a8e1160e01b81523360048201526001600160a01b039091169063d63a8e1190602401602060405180830381865afa1580156104dd573d6000803e3d6000fd5b505050506040513d601f19601f82011682018060405250810190610501919061078a565b6105205760405163fa5cd00f60e01b8152336004820152602401610231565b6000828152600160205260408120805483929061025890849061082a565b600054604080516311d614c160e21b8152905133926001600160a01b03169163475853049160048083019260209291908290030181865afa158015610587573d6000803e3d6000fd5b505050506040513d601f19601f820116820180604052508101906105ab9190610841565b6001600160a01b0316146105d45760405163968c45d960e01b8152336004820152602401610231565b600080546001600160a01b0319166001600160a01b0392909216919091179055565b60005460405163d63a8e1160e01b81523360048201526001600160a01b039091169063d63a8e1190602401602060405180830381865afa15801561063e573d6000803e3d6000fd5b505050506040513d601f19601f82011682018060405250810190610662919061078a565b6106815760405163fa5cd00f60e01b8152336004820152602401610231565b61068b8282610495565b5050565b600080604083850312156106a257600080fd5b50508035926020909101359150565b6000602082840312156106c357600080fd5b5035919050565b604080825283519082018190526000906020906060840190828701845b8281101561070c5781516001600160a01b0316845292840192908401906001016106e7565b5050508381038285015284518082528583019183019060005b8181101561074157835183529284019291840191600101610725565b5090979650505050505050565b6001600160a01b038116811461076357600080fd5b50565b60006020828403121561077857600080fd5b81356107838161074e565b9392505050565b60006020828403121561079c57600080fd5b8151801515811461078357600080fd5b634e487b7160e01b600052601160045260246000fd5b600082198211156107d5576107d56107ac565b500190565b634e487b7160e01b600052603260045260246000fd5b600081600019048311821515161561080a5761080a6107ac565b500290565b6000600019821415610823576108236107ac565b5060010190565b60008282101561083c5761083c6107ac565b500390565b60006020828403121561085357600080fd5b81516107838161074e56fea26469706673582212205e4ebcbf75f24c3dfbb1a26a1683d8a491d46adb9f1a9d5bb2c89943ba73ad8e64736f6c634300080a0033",
    "linkReferences": {}
  }
}