{
  "abi": [
    {
      "inputs": [
        {
          "internalType": "contract ISanctis",
          "name": "newSanctis",
          "type": "address"
        },
        {
          "internalType": "uint256",
          "name": "speed_",
          "type": "uint256"
        },
        {
          "internalType": "uint256",
          "name": "offensivePower_",
          "type": "uint256"
        },
        {
          "internalType": "uint256",
          "name": "defensivePower_",
          "type": "uint256"
        },
        {
          "internalType": "uint256",
          "name": "capacity_",
          "type": "uint256"
        },
        {
          "internalType": "contract IResource[]",
          "name": "costsResources",
          "type": "address[]"
        },
        {
          "internalType": "uint256[]",
          "name": "costs",
          "type": "uint256[]"
        }
      ],
      "stateMutability": "nonpayable",
      "type": "constructor"
    },
    {
      "inputs": [
        {
          "internalType": "uint256",
          "name": "fleet",
          "type": "uint256"
        }
      ],
      "name": "InvalidFleet",
      "type": "error"
    },
    {
      "inputs": [
        {
          "internalType": "address",
          "name": "sender",
          "type": "address"
        }
      ],
      "name": "NotAllowed",
      "type": "error"
    },
    {
      "inputs": [
        {
          "internalType": "uint256",
          "name": "planet",
          "type": "uint256"
        },
        {
          "internalType": "uint256",
          "name": "amount",
          "type": "uint256"
        }
      ],
      "name": "NotEnoughReserve",
      "type": "error"
    },
    {
      "inputs": [
        {
          "internalType": "address",
          "name": "sender",
          "type": "address"
        }
      ],
      "name": "NotTheExecutor",
      "type": "error"
    },
    {
      "inputs": [
        {
          "internalType": "address",
          "name": "sender",
          "type": "address"
        }
      ],
      "name": "NotTheSanctis",
      "type": "error"
    },
    {
      "inputs": [
        {
          "internalType": "address",
          "name": "player",
          "type": "address"
        },
        {
          "internalType": "uint256",
          "name": "planet",
          "type": "uint256"
        }
      ],
      "name": "PlanetNotOwned",
      "type": "error"
    },
    {
      "inputs": [
        {
          "internalType": "address",
          "name": "operator",
          "type": "address"
        }
      ],
      "name": "UnallowedOperator",
      "type": "error"
    },
    {
      "inputs": [
        {
          "internalType": "address",
          "name": "player",
          "type": "address"
        },
        {
          "internalType": "uint256",
          "name": "planet",
          "type": "uint256"
        }
      ],
      "name": "UnauthorizedPlayer",
      "type": "error"
    },
    {
      "inputs": [
        {
          "internalType": "uint256",
          "name": "planetId",
          "type": "uint256"
        },
        {
          "internalType": "uint256",
          "name": "amount",
          "type": "uint256"
        }
      ],
      "name": "burn",
      "outputs": [],
      "stateMutability": "nonpayable",
      "type": "function"
    },
    {
      "inputs": [],
      "name": "capacity",
      "outputs": [
        {
          "internalType": "uint256",
          "name": "",
          "type": "uint256"
        }
      ],
      "stateMutability": "view",
      "type": "function"
    },
    {
      "inputs": [
        {
          "internalType": "contract ISanctis",
          "name": "newSanctis",
          "type": "address"
        }
      ],
      "name": "changeSanctis",
      "outputs": [],
      "stateMutability": "nonpayable",
      "type": "function"
    },
    {
      "inputs": [],
      "name": "defensivePower",
      "outputs": [
        {
          "internalType": "uint256",
          "name": "",
          "type": "uint256"
        }
      ],
      "stateMutability": "view",
      "type": "function"
    },
    {
      "inputs": [
        {
          "internalType": "uint256",
          "name": "planetId",
          "type": "uint256"
        },
        {
          "internalType": "uint256",
          "name": "amount",
          "type": "uint256"
        }
      ],
      "name": "mint",
      "outputs": [],
      "stateMutability": "nonpayable",
      "type": "function"
    },
    {
      "inputs": [],
      "name": "offensivePower",
      "outputs": [
        {
          "internalType": "uint256",
          "name": "",
          "type": "uint256"
        }
      ],
      "stateMutability": "view",
      "type": "function"
    },
    {
      "inputs": [
        {
          "internalType": "uint256",
          "name": "planetId",
          "type": "uint256"
        }
      ],
      "name": "reserve",
      "outputs": [
        {
          "internalType": "uint256",
          "name": "",
          "type": "uint256"
        }
      ],
      "stateMutability": "view",
      "type": "function"
    },
    {
      "inputs": [],
      "name": "s_sanctis",
      "outputs": [
        {
          "internalType": "contract ISanctis",
          "name": "",
          "type": "address"
        }
      ],
      "stateMutability": "view",
      "type": "function"
    },
    {
      "inputs": [],
      "name": "sanctis",
      "outputs": [
        {
          "internalType": "contract ISanctis",
          "name": "",
          "type": "address"
        }
      ],
      "stateMutability": "view",
      "type": "function"
    },
    {
      "inputs": [],
      "name": "speed",
      "outputs": [
        {
          "internalType": "uint256",
          "name": "",
          "type": "uint256"
        }
      ],
      "stateMutability": "view",
      "type": "function"
    },
    {
      "inputs": [],
      "name": "unitCosts",
      "outputs": [
        {
          "internalType": "contract IResource[]",
          "name": "",
          "type": "address[]"
        },
        {
          "internalType": "uint256[]",
          "name": "",
          "type": "uint256[]"
        }
      ],
      "stateMutability": "view",
      "type": "function"
    }
  ],
  "bytecode": {
    "object": "0x60806040523480156200001157600080fd5b5060405162000bec38038062000bec833981016040819052620000349162000217565b600080546001600160a01b0319166001600160a01b03891617815560038790556004869055600585905560068490555b81518110156200010e57600783828151811062000085576200008562000328565b60209081029190910181015182546001810184556000938452919092200180546001600160a01b0319166001600160a01b039092169190911790558151600890839083908110620000da57620000da62000328565b602090810291909101810151825460018101845560009384529190922001558062000105816200033e565b91505062000064565b505050505050505062000368565b6001600160a01b03811681146200013257600080fd5b50565b634e487b7160e01b600052604160045260246000fd5b604051601f8201601f191681016001600160401b038111828210171562000176576200017662000135565b604052919050565b60006001600160401b038211156200019a576200019a62000135565b5060051b60200190565b600082601f830112620001b657600080fd5b81516020620001cf620001c9836200017e565b6200014b565b82815260059290921b84018101918181019086841115620001ef57600080fd5b8286015b848110156200020c5780518352918301918301620001f3565b509695505050505050565b600080600080600080600060e0888a0312156200023357600080fd5b875162000240816200011c565b60208981015160408b015160608c015160808d015160a08e0151959c50929a5090985096509450906001600160401b03808211156200027e57600080fd5b818b0191508b601f8301126200029357600080fd5b8151620002a4620001c9826200017e565b81815260059190911b8301840190848101908e831115620002c457600080fd5b938501935b82851015620002ef578451620002df816200011c565b82529385019390850190620002c9565b60c08e015190975094505050808311156200030957600080fd5b5050620003198a828b01620001a4565b91505092959891949750929550565b634e487b7160e01b600052603260045260246000fd5b60006000198214156200036157634e487b7160e01b600052601160045260246000fd5b5060010190565b61087480620003786000396000f3fe608060405234801561001057600080fd5b50600436106100c95760003560e01c8063b086b25111610081578063c20906ac1161005b578063c20906ac146101a3578063ec279982146101ab578063ffcc977d146101b357600080fd5b8063b086b25114610167578063b390c0ab1461017d578063bf206e451461019057600080fd5b80635cfc1a51116100b25780635cfc1a5114610115578063819b25ba146101275780639797efda1461014757600080fd5b80631b2ef1ca146100ce5780635087883f146100e3575b600080fd5b6100e16100dc36600461068c565b6101bb565b005b6100eb6102b1565b60405173ffffffffffffffffffffffffffffffffffffffff90911681526020015b60405180910390f35b6006545b60405190815260200161010c565b6101196101353660046106ae565b60009081526001602052604090205490565b6000546100eb9073ffffffffffffffffffffffffffffffffffffffff1681565b61016f6103b1565b60405161010c9291906106c7565b6100e161018b36600461068c565b61047b565b6100e161019e36600461077d565b610563565b600354610119565b600454610119565b600554610119565b6000546040517fd63a8e1100000000000000000000000000000000000000000000000000000000815233600482015273ffffffffffffffffffffffffffffffffffffffff9091169063d63a8e1190602401602060405180830381865afa158015610229573d6000803e3d6000fd5b505050506040513d601f19601f8201168201806040525081019061024d91906107a1565b61028a576040517ffa5cd00f0000000000000000000000000000000000000000000000000000000081523360048201526024015b60405180910390fd5b600082815260016020526040812080548392906102a89084906107f2565b90915550505050565b60008054604080517f475853040000000000000000000000000000000000000000000000000000000081529051339273ffffffffffffffffffffffffffffffffffffffff169163475853049160048083019260209291908290030181865afa158015610321573d6000803e3d6000fd5b505050506040513d601f19601f82011682018060405250810190610345919061080a565b73ffffffffffffffffffffffffffffffffffffffff1614610394576040517f968c45d9000000000000000000000000000000000000000000000000000000008152336004820152602401610281565b5060005473ffffffffffffffffffffffffffffffffffffffff1690565b606080600760088180548060200260200160405190810160405280929190818152602001828054801561041a57602002820191906000526020600020905b815473ffffffffffffffffffffffffffffffffffffffff1681526001909101906020018083116103ef575b505050505091508080548060200260200160405190810160405280929190818152602001828054801561046c57602002820191906000526020600020905b815481526020019060010190808311610458575b50505050509050915091509091565b6000546040517fd63a8e1100000000000000000000000000000000000000000000000000000000815233600482015273ffffffffffffffffffffffffffffffffffffffff9091169063d63a8e1190602401602060405180830381865afa1580156104e9573d6000803e3d6000fd5b505050506040513d601f19601f8201168201806040525081019061050d91906107a1565b610545576040517ffa5cd00f000000000000000000000000000000000000000000000000000000008152336004820152602401610281565b600082815260016020526040812080548392906102a8908490610827565b600054604080517f475853040000000000000000000000000000000000000000000000000000000081529051339273ffffffffffffffffffffffffffffffffffffffff169163475853049160048083019260209291908290030181865afa1580156105d2573d6000803e3d6000fd5b505050506040513d601f19601f820116820180604052508101906105f6919061080a565b73ffffffffffffffffffffffffffffffffffffffff1614610645576040517f968c45d9000000000000000000000000000000000000000000000000000000008152336004820152602401610281565b600080547fffffffffffffffffffffffff00000000000000000000000000000000000000001673ffffffffffffffffffffffffffffffffffffffff92909216919091179055565b6000806040838503121561069f57600080fd5b50508035926020909101359150565b6000602082840312156106c057600080fd5b5035919050565b604080825283519082018190526000906020906060840190828701845b8281101561071657815173ffffffffffffffffffffffffffffffffffffffff16845292840192908401906001016106e4565b5050508381038285015284518082528583019183019060005b8181101561074b5783518352928401929184019160010161072f565b5090979650505050505050565b73ffffffffffffffffffffffffffffffffffffffff8116811461077a57600080fd5b50565b60006020828403121561078f57600080fd5b813561079a81610758565b9392505050565b6000602082840312156107b357600080fd5b8151801515811461079a57600080fd5b7f4e487b7100000000000000000000000000000000000000000000000000000000600052601160045260246000fd5b60008219821115610805576108056107c3565b500190565b60006020828403121561081c57600080fd5b815161079a81610758565b600082821015610839576108396107c3565b50039056fea26469706673582212203ab8080c0be27d8a34b2acea6932387b2e0d748ebcf1d40a22e4f3318fe0298264736f6c634300080a0033",
    "linkReferences": {}
  }
}