{
  "abi": [
    {
      "inputs": [
        {
          "internalType": "contract ISanctis",
          "name": "newSanctis",
          "type": "address"
        },
        {
          "internalType": "uint256",
          "name": "speed_",
          "type": "uint256"
        },
        {
          "internalType": "uint256",
          "name": "offensivePower_",
          "type": "uint256"
        },
        {
          "internalType": "uint256",
          "name": "defensivePower_",
          "type": "uint256"
        },
        {
          "internalType": "uint256",
          "name": "capacity_",
          "type": "uint256"
        },
        {
          "internalType": "contract IResource[]",
          "name": "costsResources",
          "type": "address[]"
        },
        {
          "internalType": "uint256[]",
          "name": "costs",
          "type": "uint256[]"
        }
      ],
      "stateMutability": "nonpayable",
      "type": "constructor"
    },
    {
      "inputs": [
        {
          "internalType": "uint256",
          "name": "planetId",
          "type": "uint256"
        },
        {
          "internalType": "uint256",
          "name": "amount",
          "type": "uint256"
        }
      ],
      "name": "burn",
      "outputs": [],
      "stateMutability": "nonpayable",
      "type": "function"
    },
    {
      "inputs": [],
      "name": "capacity",
      "outputs": [
        {
          "internalType": "uint256",
          "name": "",
          "type": "uint256"
        }
      ],
      "stateMutability": "view",
      "type": "function"
    },
    {
      "inputs": [
        {
          "internalType": "contract ISanctis",
          "name": "newSanctis",
          "type": "address"
        }
      ],
      "name": "changeSanctis",
      "outputs": [],
      "stateMutability": "nonpayable",
      "type": "function"
    },
    {
      "inputs": [],
      "name": "defensivePower",
      "outputs": [
        {
          "internalType": "uint256",
          "name": "",
          "type": "uint256"
        }
      ],
      "stateMutability": "view",
      "type": "function"
    },
    {
      "inputs": [
        {
          "internalType": "uint256",
          "name": "planetId",
          "type": "uint256"
        },
        {
          "internalType": "uint256",
          "name": "amount",
          "type": "uint256"
        }
      ],
      "name": "mint",
      "outputs": [],
      "stateMutability": "nonpayable",
      "type": "function"
    },
    {
      "inputs": [],
      "name": "offensivePower",
      "outputs": [
        {
          "internalType": "uint256",
          "name": "",
          "type": "uint256"
        }
      ],
      "stateMutability": "view",
      "type": "function"
    },
    {
      "inputs": [
        {
          "internalType": "uint256",
          "name": "planetId",
          "type": "uint256"
        }
      ],
      "name": "reserve",
      "outputs": [
        {
          "internalType": "uint256",
          "name": "",
          "type": "uint256"
        }
      ],
      "stateMutability": "view",
      "type": "function"
    },
    {
      "inputs": [],
      "name": "s_sanctis",
      "outputs": [
        {
          "internalType": "contract ISanctis",
          "name": "",
          "type": "address"
        }
      ],
      "stateMutability": "view",
      "type": "function"
    },
    {
      "inputs": [],
      "name": "sanctis",
      "outputs": [
        {
          "internalType": "contract ISanctis",
          "name": "",
          "type": "address"
        }
      ],
      "stateMutability": "view",
      "type": "function"
    },
    {
      "inputs": [],
      "name": "speed",
      "outputs": [
        {
          "internalType": "uint256",
          "name": "",
          "type": "uint256"
        }
      ],
      "stateMutability": "view",
      "type": "function"
    },
    {
      "inputs": [],
      "name": "unitCosts",
      "outputs": [
        {
          "internalType": "contract IResource[]",
          "name": "",
          "type": "address[]"
        },
        {
          "internalType": "uint256[]",
          "name": "",
          "type": "uint256[]"
        }
      ],
      "stateMutability": "view",
      "type": "function"
    }
  ],
  "bytecode": {
    "object": "0x60806040523480156200001157600080fd5b5060405162000ca438038062000ca4833981016040819052620000349162000217565b600080546001600160a01b0319166001600160a01b03891617815560038790556004869055600585905560068490555b81518110156200010e57600783828151811062000085576200008562000328565b60209081029190910181015182546001810184556000938452919092200180546001600160a01b0319166001600160a01b039092169190911790558151600890839083908110620000da57620000da62000328565b602090810291909101810151825460018101845560009384529190922001558062000105816200033e565b91505062000064565b505050505050505062000368565b6001600160a01b03811681146200013257600080fd5b50565b634e487b7160e01b600052604160045260246000fd5b604051601f8201601f191681016001600160401b038111828210171562000176576200017662000135565b604052919050565b60006001600160401b038211156200019a576200019a62000135565b5060051b60200190565b600082601f830112620001b657600080fd5b81516020620001cf620001c9836200017e565b6200014b565b82815260059290921b84018101918181019086841115620001ef57600080fd5b8286015b848110156200020c5780518352918301918301620001f3565b509695505050505050565b600080600080600080600060e0888a0312156200023357600080fd5b875162000240816200011c565b60208981015160408b015160608c015160808d015160a08e0151959c50929a5090985096509450906001600160401b03808211156200027e57600080fd5b818b0191508b601f8301126200029357600080fd5b8151620002a4620001c9826200017e565b81815260059190911b8301840190848101908e831115620002c457600080fd5b938501935b82851015620002ef578451620002df816200011c565b82529385019390850190620002c9565b60c08e015190975094505050808311156200030957600080fd5b5050620003198a828b01620001a4565b91505092959891949750929550565b634e487b7160e01b600052603260045260246000fd5b60006000198214156200036157634e487b7160e01b600052601160045260246000fd5b5060010190565b61092c80620003786000396000f3fe608060405234801561001057600080fd5b50600436106100c95760003560e01c8063b086b25111610081578063c20906ac1161005b578063c20906ac146101a3578063ec279982146101ab578063ffcc977d146101b357600080fd5b8063b086b25114610167578063b390c0ab1461017d578063bf206e451461019057600080fd5b80635cfc1a51116100b25780635cfc1a5114610115578063819b25ba146101275780639797efda1461014757600080fd5b80631b2ef1ca146100ce5780635087883f146100e3575b600080fd5b6100e16100dc366004610744565b6101bb565b005b6100eb6102df565b60405173ffffffffffffffffffffffffffffffffffffffff90911681526020015b60405180910390f35b6006545b60405190815260200161010c565b610119610135366004610766565b60009081526001602052604090205490565b6000546100eb9073ffffffffffffffffffffffffffffffffffffffff1681565b61016f61040d565b60405161010c92919061077f565b6100e161018b366004610744565b6104d7565b6100e161019e366004610835565b6105ed565b600354610119565b600454610119565b600554610119565b6000546040517fd63a8e1100000000000000000000000000000000000000000000000000000000815233600482015273ffffffffffffffffffffffffffffffffffffffff9091169063d63a8e1190602401602060405180830381865afa158015610229573d6000803e3d6000fd5b505050506040513d601f19601f8201168201806040525081019061024d9190610859565b6102b8576040517f08c379a000000000000000000000000000000000000000000000000000000000815260206004820152600f60248201527f4d6f64756c653a20416c6c6f776564000000000000000000000000000000000060448201526064015b60405180910390fd5b600082815260016020526040812080548392906102d69084906108aa565b90915550505050565b60008054604080517f475853040000000000000000000000000000000000000000000000000000000081529051339273ffffffffffffffffffffffffffffffffffffffff169163475853049160048083019260209291908290030181865afa15801561034f573d6000803e3d6000fd5b505050506040513d601f19601f8201168201806040525081019061037391906108c2565b73ffffffffffffffffffffffffffffffffffffffff16146103f0576040517f08c379a000000000000000000000000000000000000000000000000000000000815260206004820152601060248201527f4d6f64756c653a204578656375746f720000000000000000000000000000000060448201526064016102af565b5060005473ffffffffffffffffffffffffffffffffffffffff1690565b606080600760088180548060200260200160405190810160405280929190818152602001828054801561047657602002820191906000526020600020905b815473ffffffffffffffffffffffffffffffffffffffff16815260019091019060200180831161044b575b50505050509150808054806020026020016040519081016040528092919081815260200182805480156104c857602002820191906000526020600020905b8154815260200190600101908083116104b4575b50505050509050915091509091565b6000546040517fd63a8e1100000000000000000000000000000000000000000000000000000000815233600482015273ffffffffffffffffffffffffffffffffffffffff9091169063d63a8e1190602401602060405180830381865afa158015610545573d6000803e3d6000fd5b505050506040513d601f19601f820116820180604052508101906105699190610859565b6105cf576040517f08c379a000000000000000000000000000000000000000000000000000000000815260206004820152600f60248201527f4d6f64756c653a20416c6c6f776564000000000000000000000000000000000060448201526064016102af565b600082815260016020526040812080548392906102d69084906108df565b600054604080517f475853040000000000000000000000000000000000000000000000000000000081529051339273ffffffffffffffffffffffffffffffffffffffff169163475853049160048083019260209291908290030181865afa15801561065c573d6000803e3d6000fd5b505050506040513d601f19601f8201168201806040525081019061068091906108c2565b73ffffffffffffffffffffffffffffffffffffffff16146106fd576040517f08c379a000000000000000000000000000000000000000000000000000000000815260206004820152601060248201527f4d6f64756c653a204578656375746f720000000000000000000000000000000060448201526064016102af565b600080547fffffffffffffffffffffffff00000000000000000000000000000000000000001673ffffffffffffffffffffffffffffffffffffffff92909216919091179055565b6000806040838503121561075757600080fd5b50508035926020909101359150565b60006020828403121561077857600080fd5b5035919050565b604080825283519082018190526000906020906060840190828701845b828110156107ce57815173ffffffffffffffffffffffffffffffffffffffff168452928401929084019060010161079c565b5050508381038285015284518082528583019183019060005b81811015610803578351835292840192918401916001016107e7565b5090979650505050505050565b73ffffffffffffffffffffffffffffffffffffffff8116811461083257600080fd5b50565b60006020828403121561084757600080fd5b813561085281610810565b9392505050565b60006020828403121561086b57600080fd5b8151801515811461085257600080fd5b7f4e487b7100000000000000000000000000000000000000000000000000000000600052601160045260246000fd5b600082198211156108bd576108bd61087b565b500190565b6000602082840312156108d457600080fd5b815161085281610810565b6000828210156108f1576108f161087b565b50039056fea2646970667358221220e5957565c2f3b55c21ab18a0dfa44d7cd7bdee36ca70263de39244ad44c4b36064736f6c634300080a0033",
    "linkReferences": {}
  }
}