{
  "abi": [
    {
      "inputs": [
        {
          "internalType": "contract ISanctis",
          "name": "newSanctis",
          "type": "address"
        },
        {
          "internalType": "uint256",
          "name": "cost",
          "type": "uint256"
        }
      ],
      "stateMutability": "nonpayable",
      "type": "constructor"
    },
    {
      "inputs": [
        {
          "internalType": "uint256",
          "name": "planet",
          "type": "uint256"
        }
      ],
      "name": "InvalidPlanet",
      "type": "error"
    },
    {
      "inputs": [
        {
          "internalType": "address",
          "name": "sender",
          "type": "address"
        }
      ],
      "name": "NotAllowed",
      "type": "error"
    },
    {
      "inputs": [
        {
          "internalType": "address",
          "name": "sender",
          "type": "address"
        }
      ],
      "name": "NotTheExecutor",
      "type": "error"
    },
    {
      "inputs": [
        {
          "internalType": "uint256",
          "name": "ruler",
          "type": "uint256"
        }
      ],
      "name": "NotTheOwner",
      "type": "error"
    },
    {
      "inputs": [
        {
          "internalType": "address",
          "name": "sender",
          "type": "address"
        }
      ],
      "name": "NotTheSanctis",
      "type": "error"
    },
    {
      "inputs": [
        {
          "internalType": "uint256",
          "name": "planet",
          "type": "uint256"
        },
        {
          "internalType": "uint8",
          "name": "status",
          "type": "uint8"
        }
      ],
      "name": "PlanetAlreadyColonized",
      "type": "error"
    },
    {
      "inputs": [
        {
          "internalType": "uint256",
          "name": "planet",
          "type": "uint256"
        }
      ],
      "name": "PlanetAlreadyExists",
      "type": "error"
    },
    {
      "inputs": [
        {
          "internalType": "contract ISanctis",
          "name": "newSanctis",
          "type": "address"
        }
      ],
      "name": "changeSanctis",
      "outputs": [],
      "stateMutability": "nonpayable",
      "type": "function"
    },
    {
      "inputs": [],
      "name": "colonizationCost",
      "outputs": [
        {
          "internalType": "uint256",
          "name": "",
          "type": "uint256"
        }
      ],
      "stateMutability": "view",
      "type": "function"
    },
    {
      "inputs": [
        {
          "internalType": "uint256",
          "name": "ruler",
          "type": "uint256"
        },
        {
          "internalType": "uint256",
          "name": "planetId",
          "type": "uint256"
        }
      ],
      "name": "colonize",
      "outputs": [],
      "stateMutability": "nonpayable",
      "type": "function"
    },
    {
      "inputs": [
        {
          "internalType": "uint256",
          "name": "commanderId",
          "type": "uint256"
        },
        {
          "internalType": "uint256",
          "name": "index",
          "type": "uint256"
        }
      ],
      "name": "commanderPlanetByIndex",
      "outputs": [
        {
          "internalType": "uint256",
          "name": "",
          "type": "uint256"
        }
      ],
      "stateMutability": "view",
      "type": "function"
    },
    {
      "inputs": [
        {
          "internalType": "uint256",
          "name": "planetId",
          "type": "uint256"
        }
      ],
      "name": "create",
      "outputs": [],
      "stateMutability": "nonpayable",
      "type": "function"
    },
    {
      "inputs": [
        {
          "internalType": "uint256",
          "name": "from",
          "type": "uint256"
        },
        {
          "internalType": "uint256",
          "name": "to",
          "type": "uint256"
        }
      ],
      "name": "distance",
      "outputs": [
        {
          "internalType": "uint256",
          "name": "",
          "type": "uint256"
        }
      ],
      "stateMutability": "view",
      "type": "function"
    },
    {
      "inputs": [
        {
          "internalType": "uint256",
          "name": "commanderId",
          "type": "uint256"
        }
      ],
      "name": "empireSize",
      "outputs": [
        {
          "internalType": "uint256",
          "name": "",
          "type": "uint256"
        }
      ],
      "stateMutability": "view",
      "type": "function"
    },
    {
      "inputs": [],
      "name": "key",
      "outputs": [
        {
          "internalType": "bytes32",
          "name": "",
          "type": "bytes32"
        }
      ],
      "stateMutability": "view",
      "type": "function"
    },
    {
      "inputs": [
        {
          "internalType": "uint256",
          "name": "planetId",
          "type": "uint256"
        }
      ],
      "name": "planet",
      "outputs": [
        {
          "components": [
            {
              "internalType": "uint256",
              "name": "ruler",
              "type": "uint256"
            },
            {
              "internalType": "int80",
              "name": "x",
              "type": "int80"
            },
            {
              "internalType": "int80",
              "name": "y",
              "type": "int80"
            },
            {
              "internalType": "int80",
              "name": "z",
              "type": "int80"
            },
            {
              "internalType": "uint8",
              "name": "humidity",
              "type": "uint8"
            },
            {
              "internalType": "uint8",
              "name": "status",
              "type": "uint8"
            }
          ],
          "internalType": "struct IPlanets.Planet",
          "name": "",
          "type": "tuple"
        }
      ],
      "stateMutability": "view",
      "type": "function"
    },
    {
      "inputs": [],
      "name": "s_sanctis",
      "outputs": [
        {
          "internalType": "contract ISanctis",
          "name": "",
          "type": "address"
        }
      ],
      "stateMutability": "view",
      "type": "function"
    },
    {
      "inputs": [],
      "name": "sanctis",
      "outputs": [
        {
          "internalType": "contract ISanctis",
          "name": "",
          "type": "address"
        }
      ],
      "stateMutability": "view",
      "type": "function"
    },
    {
      "inputs": [
        {
          "internalType": "uint256",
          "name": "newCost",
          "type": "uint256"
        }
      ],
      "name": "setColonizationCost",
      "outputs": [],
      "stateMutability": "nonpayable",
      "type": "function"
    },
    {
      "inputs": [
        {
          "internalType": "uint256",
          "name": "planetId",
          "type": "uint256"
        },
        {
          "internalType": "uint256",
          "name": "ruler",
          "type": "uint256"
        },
        {
          "internalType": "uint8",
          "name": "status",
          "type": "uint8"
        }
      ],
      "name": "setPlanet",
      "outputs": [],
      "stateMutability": "nonpayable",
      "type": "function"
    }
  ],
  "bytecode": {
    "object": "0x608060405234801561001057600080fd5b5060405161181538038061181583398101604081905261002f91610167565b600080546001600160a01b039093166001600160a01b031993841617815566504c414e45545360c81b6001556004919091556040805160c081018252828152602080820184815292820184815260608301858152607d60808501908152600360a08601908152968052600290935292517fac33ff75c19e70fe83507db0d683fd3465c996598dc972688b7ace676c89077b5592517fac33ff75c19e70fe83507db0d683fd3465c996598dc972688b7ace676c89077c8054945193519251955160ff908116600160f81b026001600160f81b0397909116600160f01b0260ff60f01b196001600160501b03958616600160a01b0216600160a01b600160f81b03199686166a01000000000000000000000297909916949093169390931794909417929092169490941717919091169190911790556101a1565b6000806040838503121561017a57600080fd5b82516001600160a01b038116811461019157600080fd5b6020939093015192949293505050565b611665806101b06000396000f3fe608060405234801561001057600080fd5b50600436106100df5760003560e01c8063780900dc1161008c5780639797efda116100665780639797efda146102f3578063bf206e4514610313578063ce89f06314610326578063f3dc9bbd1461033957600080fd5b8063780900dc146102ba5780637a08face146102cd5780638172b989146102e057600080fd5b80633943380c116100bd5780633943380c146102725780635087883f1461027a57806367ad59d5146102a757600080fd5b80630904b2ac146100e4578063181c1bc4146101005780632794ff701461025d575b600080fd5b6100ed60045481565b6040519081526020015b60405180910390f35b61020261010e3660046112e2565b6040805160c081018252600080825260208201819052918101829052606081018290526080810182905260a081019190915250600090815260026020908152604091829020825160c08101845281548152600190910154600981810b938301939093526a01000000000000000000008104830b9382019390935274010000000000000000000000000000000000000000830490910b606082015260ff7e010000000000000000000000000000000000000000000000000000000000008304811660808301527f010000000000000000000000000000000000000000000000000000000000000090920490911660a082015290565b6040516100f79190600060c08201905082518252602083015160090b6020830152604083015160090b6040830152606083015160090b606083015260ff608084015116608083015260ff60a08401511660a083015292915050565b61027061026b3660046112fb565b61034c565b005b6001546100ed565b610282610830565b60405173ffffffffffffffffffffffffffffffffffffffff90911681526020016100f7565b6102706102b53660046112e2565b610930565b6102706102c83660046112e2565b610a17565b6102706102db36600461131d565b610cc4565b6100ed6102ee3660046112fb565b610df7565b6000546102829073ffffffffffffffffffffffffffffffffffffffff1681565b610270610321366004611381565b610e18565b6100ed6103343660046112fb565b610f41565b6100ed6103473660046112e2565b61114a565b6000818152600260205260409020600101547f0100000000000000000000000000000000000000000000000000000000000000900460ff166103965761039181610a17565b61044e565b60008181526002602052604090206001908101547f0100000000000000000000000000000000000000000000000000000000000000900460ff161461044e57600081815260026020526040908190206001015490517f8f6a0477000000000000000000000000000000000000000000000000000000008152600481018390527f010000000000000000000000000000000000000000000000000000000000000090910460ff1660248201526044015b60405180910390fd5b6000546040517f8a5cde0a0000000000000000000000000000000000000000000000000000000081527f434f4d4d414e44455253000000000000000000000000000000000000000000006004820152339173ffffffffffffffffffffffffffffffffffffffff1690638a5cde0a90602401602060405180830381865afa1580156104dc573d6000803e3d6000fd5b505050506040513d601f19601f8201168201806040525081019061050091906113a5565b73ffffffffffffffffffffffffffffffffffffffff16636352211e846040518263ffffffff1660e01b815260040161053a91815260200190565b602060405180830381865afa158015610557573d6000803e3d6000fd5b505050506040513d601f19601f8201168201806040525081019061057b91906113a5565b73ffffffffffffffffffffffffffffffffffffffff16146105cb576040517ff820e49b00000000000000000000000000000000000000000000000000000000815260048101829052602401610445565b600081815260026020908152604080832085815560010180547effffffffffffffffffffffffffffffffffffffffffffffffffffffffffffff167f02000000000000000000000000000000000000000000000000000000000000001790558483526003909152902061063d9082611161565b506000546040517f8a5cde0a0000000000000000000000000000000000000000000000000000000081527f4352454449545300000000000000000000000000000000000000000000000000600482015273ffffffffffffffffffffffffffffffffffffffff90911690638a5cde0a90602401602060405180830381865afa1580156106cc573d6000803e3d6000fd5b505050506040513d601f19601f820116820180604052508101906106f091906113a5565b73ffffffffffffffffffffffffffffffffffffffff166323b872dd3360008054906101000a900473ffffffffffffffffffffffffffffffffffffffff1673ffffffffffffffffffffffffffffffffffffffff1663475853046040518163ffffffff1660e01b8152600401602060405180830381865afa158015610777573d6000803e3d6000fd5b505050506040513d601f19601f8201168201806040525081019061079b91906113a5565b6004546040518463ffffffff1660e01b81526004016107e89392919073ffffffffffffffffffffffffffffffffffffffff9384168152919092166020820152604081019190915260600190565b6020604051808303816000875af1158015610807573d6000803e3d6000fd5b505050506040513d601f19601f8201168201806040525081019061082b91906113c2565b505050565b60008054604080517f475853040000000000000000000000000000000000000000000000000000000081529051339273ffffffffffffffffffffffffffffffffffffffff169163475853049160048083019260209291908290030181865afa1580156108a0573d6000803e3d6000fd5b505050506040513d601f19601f820116820180604052508101906108c491906113a5565b73ffffffffffffffffffffffffffffffffffffffff1614610913576040517f968c45d9000000000000000000000000000000000000000000000000000000008152336004820152602401610445565b5060005473ffffffffffffffffffffffffffffffffffffffff1690565b600054604080517f475853040000000000000000000000000000000000000000000000000000000081529051339273ffffffffffffffffffffffffffffffffffffffff169163475853049160048083019260209291908290030181865afa15801561099f573d6000803e3d6000fd5b505050506040513d601f19601f820116820180604052508101906109c391906113a5565b73ffffffffffffffffffffffffffffffffffffffff1614610a12576040517f968c45d9000000000000000000000000000000000000000000000000000000008152336004820152602401610445565b600455565b7dffffffffffffffffffffffffffffffffffffffffffffffffffffffffffff811115610a72576040517fb455751f00000000000000000000000000000000000000000000000000000000815260048101829052602401610445565b6000818152600260205260409020600101547f0100000000000000000000000000000000000000000000000000000000000000900460ff1615610ae4576040517f2b2c2f7900000000000000000000000000000000000000000000000000000000815260048101829052602401610445565b600081604051602001610af991815260200190565b604080517fffffffffffffffffffffffffffffffffffffffffffffffffffffffffffffffe0818403018152828252805160209182012060c0840183526000808552620fffff808816600990810b87860190815260508a901c8316820b88880190815260a08b811c90941690920b6060890190815260ff95861660808a019081526001948a018581529b865260029097529690932096518755915195018054915194519351975183167f0100000000000000000000000000000000000000000000000000000000000000027effffffffffffffffffffffffffffffffffffffffffffffffffffffffffffff989093167e01000000000000000000000000000000000000000000000000000000000000027fff00ffffffffffffffffffffffffffffffffffffffffffffffffffffffffffff69ffffffffffffffffffff9586167401000000000000000000000000000000000000000002167fff0000000000000000000000ffffffffffffffffffffffffffffffffffffffff9686166a0100000000000000000000027fffffffffffffffffffffffff0000000000000000000000000000000000000000909416959097169490941791909117939093169390931717939093161790915550565b6000546040517fd63a8e1100000000000000000000000000000000000000000000000000000000815233600482015273ffffffffffffffffffffffffffffffffffffffff9091169063d63a8e1190602401602060405180830381865afa158015610d32573d6000803e3d6000fd5b505050506040513d601f19601f82011682018060405250810190610d5691906113c2565b610d8e576040517ffa5cd00f000000000000000000000000000000000000000000000000000000008152336004820152602401610445565b600092835260026020526040909220908155600101805460ff9092167f0100000000000000000000000000000000000000000000000000000000000000027effffffffffffffffffffffffffffffffffffffffffffffffffffffffffffff909216919091179055565b6000828152600360205260408120610e0f908361116d565b90505b92915050565b600054604080517f475853040000000000000000000000000000000000000000000000000000000081529051339273ffffffffffffffffffffffffffffffffffffffff169163475853049160048083019260209291908290030181865afa158015610e87573d6000803e3d6000fd5b505050506040513d601f19601f82011682018060405250810190610eab91906113a5565b73ffffffffffffffffffffffffffffffffffffffff1614610efa576040517f968c45d9000000000000000000000000000000000000000000000000000000008152336004820152602401610445565b600080547fffffffffffffffffffffffff00000000000000000000000000000000000000001673ffffffffffffffffffffffffffffffffffffffff92909216919091179055565b600080600260008581526020019081526020016000206040518060c0016040529081600082015481526020016001820160009054906101000a900460090b60090b60090b815260200160018201600a9054906101000a900460090b60090b60090b81526020016001820160149054906101000a900460090b60090b60090b815260200160018201601e9054906101000a900460ff1660ff1660ff16815260200160018201601f9054906101000a900460ff1660ff1660ff168152505090506000600260008581526020019081526020016000206040518060c0016040529081600082015481526020016001820160009054906101000a900460090b60090b60090b815260200160018201600a9054906101000a900460090b60090b60090b81526020016001820160149054906101000a900460090b60090b60090b815260200160018201601e9054906101000a900460ff1660ff1660ff16815260200160018201601f9054906101000a900460ff1660ff1660ff168152505090506111416002836060015183606001516110d59190611413565b6110df91906115d6565b60090b6002846040015184604001516110f89190611413565b61110291906115d6565b60090b60028560200151856020015161111b9190611413565b61112591906115d6565b60090b61113291906115e8565b61113c91906115e8565b611179565b95945050505050565b6000818152600360205260408120610e129061125f565b6000610e0f8383611269565b6000610e0f83836112b8565b600181700100000000000000000000000000000000811061119f5760409190911b9060801c5b6801000000000000000081106111ba5760209190911b9060401c5b64010000000081106111d15760109190911b9060201c5b6201000081106111e65760089190911b9060101c5b61010081106111fa5760049190911b9060081c5b6010811061120d5760029190911b9060041c5b6008811061121c578160011b91505b5080820401600190811c80830401811c80830401811c80830401811c80830401811c80830401811c80830401901c80820481811015611259578091505b50919050565b6000610e12825490565b60008181526001830160205260408120546112b057508154600181810184556000848152602080822090930184905584548482528286019093526040902091909155610e12565b506000610e12565b60008260000182815481106112cf576112cf611600565b9060005260206000200154905092915050565b6000602082840312156112f457600080fd5b5035919050565b6000806040838503121561130e57600080fd5b50508035926020909101359150565b60008060006060848603121561133257600080fd5b8335925060208401359150604084013560ff8116811461135157600080fd5b809150509250925092565b73ffffffffffffffffffffffffffffffffffffffff8116811461137e57600080fd5b50565b60006020828403121561139357600080fd5b813561139e8161135c565b9392505050565b6000602082840312156113b757600080fd5b815161139e8161135c565b6000602082840312156113d457600080fd5b8151801515811461139e57600080fd5b7f4e487b7100000000000000000000000000000000000000000000000000000000600052601160045260246000fd5b60008160090b8360090b60008112817fffffffffffffffffffffffffffffffffffffffffffff8000000000000000000001831281151615611456576114566113e4565b81697fffffffffffffffffff018313811615611474576114746113e4565b5090039392505050565b80825b600180861161149057506114c5565b81697fffffffffffffffffff048211156114ac576114ac6113e4565b808616156114b957918102915b9490941c938002611481565b935093915050565b60008280156114e357600181146114ed576114f6565b6001915050610e12565b82915050610e12565b508161150457506000610e12565b5060016000821380821461151d57801561153e5761155a565b82697fffffffffffffffffff04831115611539576115396113e4565b61155a565b82697fffffffffffffffffff0583121561155a5761155a6113e4565b50808316156115665750805b6115768360011c8384028361147e565b80697fffffffffffffffffff048211600083131615611597576115976113e4565b807fffffffffffffffffffffffffffffffffffffffffffff800000000000000000000582126000831216156115ce576115ce6113e4565b029392505050565b6000610e0f60ff84168360090b6114cd565b600082198211156115fb576115fb6113e4565b500190565b7f4e487b7100000000000000000000000000000000000000000000000000000000600052603260045260246000fdfea264697066735822122001e6ff101dc04eb83021081480dd5cbb03d97d520e315076533a8ca02c431b2b64736f6c634300080a0033",
    "linkReferences": {}
  }
}