{
  "abi": [
    {
      "inputs": [
        {
          "internalType": "contract ISanctis",
          "name": "newSanctis",
          "type": "address"
        },
        {
          "internalType": "uint256",
          "name": "cost",
          "type": "uint256"
        }
      ],
      "stateMutability": "nonpayable",
      "type": "constructor"
    },
    {
      "inputs": [
        {
          "internalType": "uint256",
          "name": "planet",
          "type": "uint256"
        }
      ],
      "name": "InvalidPlanet",
      "type": "error"
    },
    {
      "inputs": [
        {
          "internalType": "address",
          "name": "sender",
          "type": "address"
        }
      ],
      "name": "NotAllowed",
      "type": "error"
    },
    {
      "inputs": [
        {
          "internalType": "address",
          "name": "sender",
          "type": "address"
        }
      ],
      "name": "NotTheExecutor",
      "type": "error"
    },
    {
      "inputs": [
        {
          "internalType": "uint256",
          "name": "ruler",
          "type": "uint256"
        }
      ],
      "name": "NotTheOwner",
      "type": "error"
    },
    {
      "inputs": [
        {
          "internalType": "address",
          "name": "sender",
          "type": "address"
        }
      ],
      "name": "NotTheSanctis",
      "type": "error"
    },
    {
      "inputs": [
        {
          "internalType": "uint256",
          "name": "planet",
          "type": "uint256"
        },
        {
          "internalType": "uint8",
          "name": "status",
          "type": "uint8"
        }
      ],
      "name": "PlanetAlreadyColonized",
      "type": "error"
    },
    {
      "inputs": [
        {
          "internalType": "uint256",
          "name": "planet",
          "type": "uint256"
        }
      ],
      "name": "PlanetAlreadyExists",
      "type": "error"
    },
    {
      "anonymous": false,
      "inputs": [
        {
          "indexed": false,
          "internalType": "int80",
          "name": "x",
          "type": "int80"
        },
        {
          "indexed": false,
          "internalType": "int80",
          "name": "y",
          "type": "int80"
        },
        {
          "indexed": false,
          "internalType": "int80",
          "name": "z",
          "type": "int80"
        },
        {
          "indexed": false,
          "internalType": "uint8",
          "name": "status",
          "type": "uint8"
        }
      ],
      "name": "Changed",
      "type": "event"
    },
    {
      "inputs": [
        {
          "internalType": "contract ISanctis",
          "name": "newSanctis",
          "type": "address"
        }
      ],
      "name": "changeSanctis",
      "outputs": [],
      "stateMutability": "nonpayable",
      "type": "function"
    },
    {
      "inputs": [],
      "name": "colonizationCost",
      "outputs": [
        {
          "internalType": "uint256",
          "name": "",
          "type": "uint256"
        }
      ],
      "stateMutability": "view",
      "type": "function"
    },
    {
      "inputs": [
        {
          "internalType": "uint256",
          "name": "ruler",
          "type": "uint256"
        },
        {
          "internalType": "uint256",
          "name": "planetId",
          "type": "uint256"
        }
      ],
      "name": "colonize",
      "outputs": [],
      "stateMutability": "nonpayable",
      "type": "function"
    },
    {
      "inputs": [
        {
          "internalType": "uint256",
          "name": "commanderId",
          "type": "uint256"
        },
        {
          "internalType": "uint256",
          "name": "index",
          "type": "uint256"
        }
      ],
      "name": "commanderPlanetByIndex",
      "outputs": [
        {
          "internalType": "uint256",
          "name": "",
          "type": "uint256"
        }
      ],
      "stateMutability": "view",
      "type": "function"
    },
    {
      "inputs": [
        {
          "internalType": "uint256",
          "name": "planetId",
          "type": "uint256"
        }
      ],
      "name": "create",
      "outputs": [],
      "stateMutability": "nonpayable",
      "type": "function"
    },
    {
      "inputs": [
        {
          "internalType": "uint256",
          "name": "from",
          "type": "uint256"
        },
        {
          "internalType": "uint256",
          "name": "to",
          "type": "uint256"
        }
      ],
      "name": "distance",
      "outputs": [
        {
          "internalType": "uint256",
          "name": "",
          "type": "uint256"
        }
      ],
      "stateMutability": "view",
      "type": "function"
    },
    {
      "inputs": [
        {
          "internalType": "uint256",
          "name": "commanderId",
          "type": "uint256"
        }
      ],
      "name": "empireSize",
      "outputs": [
        {
          "internalType": "uint256",
          "name": "",
          "type": "uint256"
        }
      ],
      "stateMutability": "view",
      "type": "function"
    },
    {
      "inputs": [],
      "name": "key",
      "outputs": [
        {
          "internalType": "bytes32",
          "name": "",
          "type": "bytes32"
        }
      ],
      "stateMutability": "view",
      "type": "function"
    },
    {
      "inputs": [
        {
          "internalType": "uint256",
          "name": "planetId",
          "type": "uint256"
        }
      ],
      "name": "planet",
      "outputs": [
        {
          "components": [
            {
              "internalType": "uint256",
              "name": "ruler",
              "type": "uint256"
            },
            {
              "internalType": "int80",
              "name": "x",
              "type": "int80"
            },
            {
              "internalType": "int80",
              "name": "y",
              "type": "int80"
            },
            {
              "internalType": "int80",
              "name": "z",
              "type": "int80"
            },
            {
              "internalType": "uint8",
              "name": "humidity",
              "type": "uint8"
            },
            {
              "internalType": "uint8",
              "name": "status",
              "type": "uint8"
            }
          ],
          "internalType": "struct IPlanets.Planet",
          "name": "",
          "type": "tuple"
        }
      ],
      "stateMutability": "view",
      "type": "function"
    },
    {
      "inputs": [],
      "name": "s_sanctis",
      "outputs": [
        {
          "internalType": "contract ISanctis",
          "name": "",
          "type": "address"
        }
      ],
      "stateMutability": "view",
      "type": "function"
    },
    {
      "inputs": [],
      "name": "sanctis",
      "outputs": [
        {
          "internalType": "contract ISanctis",
          "name": "",
          "type": "address"
        }
      ],
      "stateMutability": "view",
      "type": "function"
    },
    {
      "inputs": [
        {
          "internalType": "uint256",
          "name": "newCost",
          "type": "uint256"
        }
      ],
      "name": "setColonizationCost",
      "outputs": [],
      "stateMutability": "nonpayable",
      "type": "function"
    },
    {
      "inputs": [
        {
          "internalType": "uint256",
          "name": "planetId",
          "type": "uint256"
        },
        {
          "internalType": "uint256",
          "name": "ruler",
          "type": "uint256"
        },
        {
          "internalType": "uint8",
          "name": "status",
          "type": "uint8"
        }
      ],
      "name": "setPlanet",
      "outputs": [],
      "stateMutability": "nonpayable",
      "type": "function"
    }
  ],
  "bytecode": {
    "object": "0x608060405234801561001057600080fd5b506040516118a03803806118a083398101604081905261002f91610167565b600080546001600160a01b039093166001600160a01b031993841617815566504c414e45545360c81b6001556004919091556040805160c081018252828152602080820184815292820184815260608301858152607d60808501908152600360a08601908152968052600290935292517fac33ff75c19e70fe83507db0d683fd3465c996598dc972688b7ace676c89077b5592517fac33ff75c19e70fe83507db0d683fd3465c996598dc972688b7ace676c89077c8054945193519251955160ff908116600160f81b026001600160f81b0397909116600160f01b0260ff60f01b196001600160501b03958616600160a01b0216600160a01b600160f81b03199686166a01000000000000000000000297909916949093169390931794909417929092169490941717919091169190911790556101a1565b6000806040838503121561017a57600080fd5b82516001600160a01b038116811461019157600080fd5b6020939093015192949293505050565b6116f0806101b06000396000f3fe608060405234801561001057600080fd5b50600436106100df5760003560e01c8063780900dc1161008c5780639797efda116100665780639797efda146102f3578063bf206e4514610313578063ce89f06314610326578063f3dc9bbd1461033957600080fd5b8063780900dc146102ba5780637a08face146102cd5780638172b989146102e057600080fd5b80633943380c116100bd5780633943380c146102725780635087883f1461027a57806367ad59d5146102a757600080fd5b80630904b2ac146100e4578063181c1bc4146101005780632794ff701461025d575b600080fd5b6100ed60045481565b6040519081526020015b60405180910390f35b61020261010e36600461136d565b6040805160c081018252600080825260208201819052918101829052606081018290526080810182905260a081019190915250600090815260026020908152604091829020825160c08101845281548152600190910154600981810b938301939093526a01000000000000000000008104830b9382019390935274010000000000000000000000000000000000000000830490910b606082015260ff7e010000000000000000000000000000000000000000000000000000000000008304811660808301527f010000000000000000000000000000000000000000000000000000000000000090920490911660a082015290565b6040516100f79190600060c08201905082518252602083015160090b6020830152604083015160090b6040830152606083015160090b606083015260ff608084015116608083015260ff60a08401511660a083015292915050565b61027061026b366004611386565b61034c565b005b6001546100ed565b610282610891565b60405173ffffffffffffffffffffffffffffffffffffffff90911681526020016100f7565b6102706102b536600461136d565b610991565b6102706102c836600461136d565b610a78565b6102706102db3660046113a8565b610d4f565b6100ed6102ee366004611386565b610e82565b6000546102829073ffffffffffffffffffffffffffffffffffffffff1681565b61027061032136600461140c565b610ea3565b6100ed610334366004611386565b610fcc565b6100ed61034736600461136d565b6111d5565b6000818152600260205260409020600101547f0100000000000000000000000000000000000000000000000000000000000000900460ff166103965761039181610a78565b61044e565b60008181526002602052604090206001908101547f0100000000000000000000000000000000000000000000000000000000000000900460ff161461044e57600081815260026020526040908190206001015490517f8f6a0477000000000000000000000000000000000000000000000000000000008152600481018390527f010000000000000000000000000000000000000000000000000000000000000090910460ff1660248201526044015b60405180910390fd5b6000546040517f8a5cde0a0000000000000000000000000000000000000000000000000000000081527f434f4d4d414e44455253000000000000000000000000000000000000000000006004820152339173ffffffffffffffffffffffffffffffffffffffff1690638a5cde0a90602401602060405180830381865afa1580156104dc573d6000803e3d6000fd5b505050506040513d601f19601f820116820180604052508101906105009190611430565b73ffffffffffffffffffffffffffffffffffffffff16636352211e846040518263ffffffff1660e01b815260040161053a91815260200190565b602060405180830381865afa158015610557573d6000803e3d6000fd5b505050506040513d601f19601f8201168201806040525081019061057b9190611430565b73ffffffffffffffffffffffffffffffffffffffff16146105cb576040517ff820e49b00000000000000000000000000000000000000000000000000000000815260048101829052602401610445565b600081815260026020908152604080832085815560010180547effffffffffffffffffffffffffffffffffffffffffffffffffffffffffffff167f02000000000000000000000000000000000000000000000000000000000000001790558483526003909152902061063d90826111ec565b506000546040517f8a5cde0a0000000000000000000000000000000000000000000000000000000081527f4352454449545300000000000000000000000000000000000000000000000000600482015273ffffffffffffffffffffffffffffffffffffffff90911690638a5cde0a90602401602060405180830381865afa1580156106cc573d6000803e3d6000fd5b505050506040513d601f19601f820116820180604052508101906106f09190611430565b73ffffffffffffffffffffffffffffffffffffffff166323b872dd3360008054906101000a900473ffffffffffffffffffffffffffffffffffffffff1673ffffffffffffffffffffffffffffffffffffffff1663475853046040518163ffffffff1660e01b8152600401602060405180830381865afa158015610777573d6000803e3d6000fd5b505050506040513d601f19601f8201168201806040525081019061079b9190611430565b6004546040518463ffffffff1660e01b81526004016107e89392919073ffffffffffffffffffffffffffffffffffffffff9384168152919092166020820152604081019190915260600190565b6020604051808303816000875af1158015610807573d6000803e3d6000fd5b505050506040513d601f19601f8201168201806040525081019061082b919061144d565b5060408051620fffff838116600990810b8352605085901c8216810b602084015260a085901c909116900b818301526002606082015290517f5709f3b5b9ced4a544630020f23487967f72b7286344d7dbe27dc91768f442dc9181900360800190a15050565b60008054604080517f475853040000000000000000000000000000000000000000000000000000000081529051339273ffffffffffffffffffffffffffffffffffffffff169163475853049160048083019260209291908290030181865afa158015610901573d6000803e3d6000fd5b505050506040513d601f19601f820116820180604052508101906109259190611430565b73ffffffffffffffffffffffffffffffffffffffff1614610974576040517f968c45d9000000000000000000000000000000000000000000000000000000008152336004820152602401610445565b5060005473ffffffffffffffffffffffffffffffffffffffff1690565b600054604080517f475853040000000000000000000000000000000000000000000000000000000081529051339273ffffffffffffffffffffffffffffffffffffffff169163475853049160048083019260209291908290030181865afa158015610a00573d6000803e3d6000fd5b505050506040513d601f19601f82011682018060405250810190610a249190611430565b73ffffffffffffffffffffffffffffffffffffffff1614610a73576040517f968c45d9000000000000000000000000000000000000000000000000000000008152336004820152602401610445565b600455565b7dffffffffffffffffffffffffffffffffffffffffffffffffffffffffffff811115610ad3576040517fb455751f00000000000000000000000000000000000000000000000000000000815260048101829052602401610445565b6000818152600260205260409020600101547f0100000000000000000000000000000000000000000000000000000000000000900460ff1615610b45576040517f2b2c2f7900000000000000000000000000000000000000000000000000000000815260048101829052602401610445565b600081604051602001610b5a91815260200190565b6040516020818303038152906040528051906020012060001c905060008190506040518060c001604052806000815260200184620fffff1660090b8152602001605085901c620fffff1660090b815260200160a085901c620fffff1660090b81526020018260ff168152602001600160ff16815250600260008581526020019081526020016000206000820151816000015560208201518160010160006101000a81548169ffffffffffffffffffff021916908360090b69ffffffffffffffffffff160217905550604082015181600101600a6101000a81548169ffffffffffffffffffff021916908360090b69ffffffffffffffffffff16021790555060608201518160010160146101000a81548169ffffffffffffffffffff021916908360090b69ffffffffffffffffffff160217905550608082015181600101601e6101000a81548160ff021916908360ff16021790555060a082015181600101601f6101000a81548160ff021916908360ff1602179055509050507f5709f3b5b9ced4a544630020f23487967f72b7286344d7dbe27dc91768f442dc83620fffff16605085901c620fffff1660a086901c620fffff166001604051610d429493929190600994850b815292840b6020840152920b604082015260ff91909116606082015260800190565b60405180910390a1505050565b6000546040517fd63a8e1100000000000000000000000000000000000000000000000000000000815233600482015273ffffffffffffffffffffffffffffffffffffffff9091169063d63a8e1190602401602060405180830381865afa158015610dbd573d6000803e3d6000fd5b505050506040513d601f19601f82011682018060405250810190610de1919061144d565b610e19576040517ffa5cd00f000000000000000000000000000000000000000000000000000000008152336004820152602401610445565b600092835260026020526040909220908155600101805460ff9092167f0100000000000000000000000000000000000000000000000000000000000000027effffffffffffffffffffffffffffffffffffffffffffffffffffffffffffff909216919091179055565b6000828152600360205260408120610e9a90836111f8565b90505b92915050565b600054604080517f475853040000000000000000000000000000000000000000000000000000000081529051339273ffffffffffffffffffffffffffffffffffffffff169163475853049160048083019260209291908290030181865afa158015610f12573d6000803e3d6000fd5b505050506040513d601f19601f82011682018060405250810190610f369190611430565b73ffffffffffffffffffffffffffffffffffffffff1614610f85576040517f968c45d9000000000000000000000000000000000000000000000000000000008152336004820152602401610445565b600080547fffffffffffffffffffffffff00000000000000000000000000000000000000001673ffffffffffffffffffffffffffffffffffffffff92909216919091179055565b600080600260008581526020019081526020016000206040518060c0016040529081600082015481526020016001820160009054906101000a900460090b60090b60090b815260200160018201600a9054906101000a900460090b60090b60090b81526020016001820160149054906101000a900460090b60090b60090b815260200160018201601e9054906101000a900460ff1660ff1660ff16815260200160018201601f9054906101000a900460ff1660ff1660ff168152505090506000600260008581526020019081526020016000206040518060c0016040529081600082015481526020016001820160009054906101000a900460090b60090b60090b815260200160018201600a9054906101000a900460090b60090b60090b81526020016001820160149054906101000a900460090b60090b60090b815260200160018201601e9054906101000a900460ff1660ff1660ff16815260200160018201601f9054906101000a900460ff1660ff1660ff168152505090506111cc600283606001518360600151611160919061149e565b61116a9190611661565b60090b600284604001518460400151611183919061149e565b61118d9190611661565b60090b6002856020015185602001516111a6919061149e565b6111b09190611661565b60090b6111bd9190611673565b6111c79190611673565b611204565b95945050505050565b6000818152600360205260408120610e9d906112ea565b6000610e9a83836112f4565b6000610e9a8383611343565b600181700100000000000000000000000000000000811061122a5760409190911b9060801c5b6801000000000000000081106112455760209190911b9060401c5b640100000000811061125c5760109190911b9060201c5b6201000081106112715760089190911b9060101c5b61010081106112855760049190911b9060081c5b601081106112985760029190911b9060041c5b600881106112a7578160011b91505b5080820401600190811c80830401811c80830401811c80830401811c80830401811c80830401811c80830401901c808204818110156112e4578091505b50919050565b6000610e9d825490565b600081815260018301602052604081205461133b57508154600181810184556000848152602080822090930184905584548482528286019093526040902091909155610e9d565b506000610e9d565b600082600001828154811061135a5761135a61168b565b9060005260206000200154905092915050565b60006020828403121561137f57600080fd5b5035919050565b6000806040838503121561139957600080fd5b50508035926020909101359150565b6000806000606084860312156113bd57600080fd5b8335925060208401359150604084013560ff811681146113dc57600080fd5b809150509250925092565b73ffffffffffffffffffffffffffffffffffffffff8116811461140957600080fd5b50565b60006020828403121561141e57600080fd5b8135611429816113e7565b9392505050565b60006020828403121561144257600080fd5b8151611429816113e7565b60006020828403121561145f57600080fd5b8151801515811461142957600080fd5b7f4e487b7100000000000000000000000000000000000000000000000000000000600052601160045260246000fd5b60008160090b8360090b60008112817fffffffffffffffffffffffffffffffffffffffffffff80000000000000000000018312811516156114e1576114e161146f565b81697fffffffffffffffffff0183138116156114ff576114ff61146f565b5090039392505050565b80825b600180861161151b5750611550565b81697fffffffffffffffffff048211156115375761153761146f565b8086161561154457918102915b9490941c93800261150c565b935093915050565b600082801561156e576001811461157857611581565b6001915050610e9d565b82915050610e9d565b508161158f57506000610e9d565b506001600082138082146115a85780156115c9576115e5565b82697fffffffffffffffffff048311156115c4576115c461146f565b6115e5565b82697fffffffffffffffffff058312156115e5576115e561146f565b50808316156115f15750805b6116018360011c83840283611509565b80697fffffffffffffffffff0482116000831316156116225761162261146f565b807fffffffffffffffffffffffffffffffffffffffffffff800000000000000000000582126000831216156116595761165961146f565b029392505050565b6000610e9a60ff84168360090b611558565b600082198211156116865761168661146f565b500190565b7f4e487b7100000000000000000000000000000000000000000000000000000000600052603260045260246000fdfea2646970667358221220e7fede0b60e8ee30b9f8bfe23f6035781a5b40ad55f3a50e350dda4b8c526a5364736f6c634300080a0033",
    "linkReferences": {}
  }
}