{
  "abi": [
    {
      "inputs": [
        {
          "internalType": "contract ISanctis",
          "name": "newSanctis",
          "type": "address"
        },
        {
          "internalType": "uint256",
          "name": "cost",
          "type": "uint256"
        }
      ],
      "stateMutability": "nonpayable",
      "type": "constructor"
    },
    {
      "inputs": [
        {
          "internalType": "uint256",
          "name": "planet",
          "type": "uint256"
        }
      ],
      "name": "InvalidPlanet",
      "type": "error"
    },
    {
      "inputs": [
        {
          "internalType": "address",
          "name": "sender",
          "type": "address"
        }
      ],
      "name": "NotAllowed",
      "type": "error"
    },
    {
      "inputs": [
        {
          "internalType": "address",
          "name": "sender",
          "type": "address"
        }
      ],
      "name": "NotTheExecutor",
      "type": "error"
    },
    {
      "inputs": [
        {
          "internalType": "uint256",
          "name": "ruler",
          "type": "uint256"
        }
      ],
      "name": "NotTheOwner",
      "type": "error"
    },
    {
      "inputs": [
        {
          "internalType": "address",
          "name": "sender",
          "type": "address"
        }
      ],
      "name": "NotTheSanctis",
      "type": "error"
    },
    {
      "inputs": [
        {
          "internalType": "uint256",
          "name": "planet",
          "type": "uint256"
        },
        {
          "internalType": "enum IPlanets.PlanetStatus",
          "name": "status",
          "type": "uint8"
        }
      ],
      "name": "PlanetAlreadyColonized",
      "type": "error"
    },
    {
      "inputs": [
        {
          "internalType": "uint256",
          "name": "planet",
          "type": "uint256"
        }
      ],
      "name": "PlanetAlreadyExists",
      "type": "error"
    },
    {
      "inputs": [
        {
          "internalType": "contract ISanctis",
          "name": "newSanctis",
          "type": "address"
        }
      ],
      "name": "changeSanctis",
      "outputs": [],
      "stateMutability": "nonpayable",
      "type": "function"
    },
    {
      "inputs": [],
      "name": "colonizationCost",
      "outputs": [
        {
          "internalType": "uint256",
          "name": "",
          "type": "uint256"
        }
      ],
      "stateMutability": "view",
      "type": "function"
    },
    {
      "inputs": [
        {
          "internalType": "uint256",
          "name": "ruler",
          "type": "uint256"
        },
        {
          "internalType": "uint256",
          "name": "planetId",
          "type": "uint256"
        }
      ],
      "name": "colonize",
      "outputs": [],
      "stateMutability": "nonpayable",
      "type": "function"
    },
    {
      "inputs": [
        {
          "internalType": "uint256",
          "name": "commanderId",
          "type": "uint256"
        },
        {
          "internalType": "uint256",
          "name": "index",
          "type": "uint256"
        }
      ],
      "name": "commanderPlanetByIndex",
      "outputs": [
        {
          "internalType": "uint256",
          "name": "",
          "type": "uint256"
        }
      ],
      "stateMutability": "view",
      "type": "function"
    },
    {
      "inputs": [
        {
          "internalType": "uint256",
          "name": "planetId",
          "type": "uint256"
        }
      ],
      "name": "create",
      "outputs": [],
      "stateMutability": "nonpayable",
      "type": "function"
    },
    {
      "inputs": [
        {
          "internalType": "uint256",
          "name": "from",
          "type": "uint256"
        },
        {
          "internalType": "uint256",
          "name": "to",
          "type": "uint256"
        }
      ],
      "name": "distance",
      "outputs": [
        {
          "internalType": "uint256",
          "name": "",
          "type": "uint256"
        }
      ],
      "stateMutability": "view",
      "type": "function"
    },
    {
      "inputs": [
        {
          "internalType": "uint256",
          "name": "commanderId",
          "type": "uint256"
        }
      ],
      "name": "empireSize",
      "outputs": [
        {
          "internalType": "uint256",
          "name": "",
          "type": "uint256"
        }
      ],
      "stateMutability": "view",
      "type": "function"
    },
    {
      "inputs": [],
      "name": "key",
      "outputs": [
        {
          "internalType": "string",
          "name": "",
          "type": "string"
        }
      ],
      "stateMutability": "view",
      "type": "function"
    },
    {
      "inputs": [
        {
          "internalType": "uint256",
          "name": "planetId",
          "type": "uint256"
        }
      ],
      "name": "planet",
      "outputs": [
        {
          "components": [
            {
              "internalType": "enum IPlanets.PlanetStatus",
              "name": "status",
              "type": "uint8"
            },
            {
              "internalType": "uint256",
              "name": "ruler",
              "type": "uint256"
            },
            {
              "internalType": "int80",
              "name": "x",
              "type": "int80"
            },
            {
              "internalType": "int80",
              "name": "y",
              "type": "int80"
            },
            {
              "internalType": "int80",
              "name": "z",
              "type": "int80"
            },
            {
              "internalType": "uint8",
              "name": "humidity",
              "type": "uint8"
            }
          ],
          "internalType": "struct IPlanets.Planet",
          "name": "",
          "type": "tuple"
        }
      ],
      "stateMutability": "view",
      "type": "function"
    },
    {
      "inputs": [],
      "name": "sanctis",
      "outputs": [
        {
          "internalType": "contract ISanctis",
          "name": "",
          "type": "address"
        }
      ],
      "stateMutability": "view",
      "type": "function"
    },
    {
      "inputs": [
        {
          "internalType": "uint256",
          "name": "newCost",
          "type": "uint256"
        }
      ],
      "name": "setColonizationCost",
      "outputs": [],
      "stateMutability": "nonpayable",
      "type": "function"
    },
    {
      "inputs": [
        {
          "internalType": "uint256",
          "name": "planetId",
          "type": "uint256"
        },
        {
          "internalType": "enum IPlanets.PlanetStatus",
          "name": "status",
          "type": "uint8"
        }
      ],
      "name": "setPlanetStatus",
      "outputs": [],
      "stateMutability": "nonpayable",
      "type": "function"
    }
  ],
  "bytecode": {
    "object": "0x60806040523480156200001157600080fd5b50604051620014e0380380620014e0833981016040819052620000349162000247565b60408051808201909152600780825266504c414e45545360c81b60208301908152600080546001600160a01b0319166001600160a01b03871617905584916200008091600191620001a1565b50505060048190556040805160c08101909152806003815260006020808301829052604083018290526060830182905260808301829052607d60a09093019290925280526002905280517fac33ff75c19e70fe83507db0d683fd3465c996598dc972688b7ace676c89077b8054909190829060ff191660018360038111156200010d576200010d62000283565b0217905550602082015160018201556040820151600290910180546060840151608085015160a09095015160ff16600160f01b0260ff60f01b196001600160501b03968716600160a01b0216600160a01b600160f81b03199287166a0100000000000000000000026001600160a01b0319909416969095169590951791909117169190911791909117905550620002d69050565b828054620001af9062000299565b90600052602060002090601f016020900481019282620001d357600085556200021e565b82601f10620001ee57805160ff19168380011785556200021e565b828001600101855582156200021e579182015b828111156200021e57825182559160200191906001019062000201565b506200022c92915062000230565b5090565b5b808211156200022c576000815560010162000231565b600080604083850312156200025b57600080fd5b82516001600160a01b03811681146200027357600080fd5b6020939093015192949293505050565b634e487b7160e01b600052602160045260246000fd5b600181811c90821680620002ae57607f821691505b60208210811415620002d057634e487b7160e01b600052602260045260246000fd5b50919050565b6111fa80620002e66000396000f3fe608060405234801561001057600080fd5b50600436106100b45760003560e01c806367ad59d51161007157806367ad59d51461015d578063780900dc146101705780638172b98914610183578063bf206e4514610196578063ce89f063146101a9578063f3dc9bbd146101bc57600080fd5b80630904b2ac146100b9578063125e14c7146100d5578063181c1bc4146100ea5780632794ff701461010a5780633943380c1461011d5780635087883f14610132575b600080fd5b6100c260045481565b6040519081526020015b60405180910390f35b6100e86100e3366004610dd3565b6101cf565b005b6100fd6100f8366004610e07565b610293565b6040516100cc9190610e58565b6100e8610118366004610eaf565b610355565b6101256106dd565b6040516100cc9190610ed1565b600054610145906001600160a01b031681565b6040516001600160a01b0390911681526020016100cc565b6100e861016b366004610e07565b61076f565b6100e861017e366004610e07565b61080a565b6100c2610191366004610eaf565b6109b2565b6100e86101a4366004610f3e565b6109d3565b6100c26101b7366004610eaf565b610a8b565b6100c26101ca366004610e07565b610c48565b60005460405163d63a8e1160e01b81523360048201526001600160a01b039091169063d63a8e1190602401602060405180830381865afa158015610217573d6000803e3d6000fd5b505050506040513d601f19601f8201168201806040525081019061023b9190610f62565b61025f5760405163fa5cd00f60e01b81523360048201526024015b60405180910390fd5b6000828152600260205260409020805482919060ff1916600183600381111561028a5761028a610e20565b02179055505050565b6040805160c081018252600080825260208201819052918101829052606081018290526080810182905260a081019190915260008281526002602052604090819020815160c081019092528054829060ff1660038111156102f6576102f6610e20565b600381111561030757610307610e20565b815260018201546020820152600290910154600981810b6040840152600160501b8204810b6060840152600160a01b8204900b6080830152600160f01b900460ff1660a09091015292915050565b60008181526002602052604081205460ff16600381111561037857610378610e20565b141561038c576103878161080a565b6103e7565b600160008281526002602052604090205460ff1660038111156103b1576103b1610e20565b146103e75760008181526002602052604090819020549051638f6a047760e01b815261025691839160ff90911690600401610f84565b600054604080518082018252600a815269434f4d4d414e4445525360b01b60208201529051633fde36b160e11b815233926001600160a01b031691637fbc6d62916104359190600401610ed1565b602060405180830381865afa158015610452573d6000803e3d6000fd5b505050506040513d601f19601f820116820180604052508101906104769190610f98565b6001600160a01b0316636352211e846040518263ffffffff1660e01b81526004016104a391815260200190565b602060405180830381865afa1580156104c0573d6000803e3d6000fd5b505050506040513d601f19601f820116820180604052508101906104e49190610f98565b6001600160a01b03161461050e5760405163f820e49b60e01b815260048101829052602401610256565b600081815260026020818152604080842060018101879055805460ff19169093179092558483526003905290206105459082610c5f565b5060005460408051808201825260078152664352454449545360c81b60208201529051633fde36b160e11b81526001600160a01b0390921691637fbc6d629161059091600401610ed1565b602060405180830381865afa1580156105ad573d6000803e3d6000fd5b505050506040513d601f19601f820116820180604052508101906105d19190610f98565b6001600160a01b03166323b872dd3360008054906101000a90046001600160a01b03166001600160a01b031663475853046040518163ffffffff1660e01b8152600401602060405180830381865afa158015610631573d6000803e3d6000fd5b505050506040513d601f19601f820116820180604052508101906106559190610f98565b6004546040518463ffffffff1660e01b8152600401610695939291906001600160a01b039384168152919092166020820152604081019190915260600190565b6020604051808303816000875af11580156106b4573d6000803e3d6000fd5b505050506040513d601f19601f820116820180604052508101906106d89190610f62565b505050565b6060600180546106ec90610fb5565b80601f016020809104026020016040519081016040528092919081815260200182805461071890610fb5565b80156107655780601f1061073a57610100808354040283529160200191610765565b820191906000526020600020905b81548152906001019060200180831161074857829003601f168201915b5050505050905090565b600054604080516311d614c160e21b8152905133926001600160a01b03169163475853049160048083019260209291908290030181865afa1580156107b8573d6000803e3d6000fd5b505050506040513d601f19601f820116820180604052508101906107dc9190610f98565b6001600160a01b0316146108055760405163968c45d960e01b8152336004820152602401610256565b600455565b6001600160f01b038111156108355760405163b455751f60e01b815260048101829052602401610256565b60008181526002602052604081205460ff16600381111561085857610858610e20565b1461087957604051632b2c2f7960e01b815260048101829052602401610256565b60008160405160200161088e91815260200190565b60408051601f19818403018152828252805160209091012060c0830190915291508190806001815260006020808301829052620fffff808816600990810b60408087019190915260508a901c8316820b606087015260a08a811c90931690910b608086015260ff87169190940152868252600290522081518154829060ff1916600183600381111561092257610922610e20565b0217905550602082015160018201556040820151600290910180546060840151608085015160a09095015160ff16600160f01b0260ff60f01b1969ffffffffffffffffffff968716600160a01b02166affffffffffffffffffffff60a01b19928716600160501b026001600160a01b03199094169690951695909517919091171691909117919091179055505050565b60008281526003602052604081206109ca9083610c6b565b90505b92915050565b600054604080516311d614c160e21b8152905133926001600160a01b03169163475853049160048083019260209291908290030181865afa158015610a1c573d6000803e3d6000fd5b505050506040513d601f19601f82011682018060405250810190610a409190610f98565b6001600160a01b031614610a695760405163968c45d960e01b8152336004820152602401610256565b600080546001600160a01b0319166001600160a01b0392909216919091179055565b600082815260026020526040808220815160c08101909252805483929190829060ff166003811115610abf57610abf610e20565b6003811115610ad057610ad0610e20565b81526001820154602080830191909152600292830154600981810b604080860191909152600160501b8304820b6060860152600160a01b830490910b608085015260ff600160f01b909204821660a090940193909352600088815293909152818320825160c08101909352805494955092939192918391166003811115610b5957610b59610e20565b6003811115610b6a57610b6a610e20565b815260018201546020820152600291820154600981810b6040840152600160501b8204810b6060840152600160a01b8204900b608080840191909152600160f01b90910460ff1660a0909201919091528481015190830151929350610c3f92610bd39190611000565b610bdd9190611184565b60090b600284606001518460600151610bf69190611000565b610c009190611184565b60090b600285604001518560400151610c199190611000565b610c239190611184565b60090b610c309190611196565b610c3a9190611196565b610c77565b95945050505050565b60008181526003602052604081206109cd90610d50565b60006109ca8383610d5a565b60006109ca8383610da9565b600181600160801b8110610c905760409190911b9060801c5b680100000000000000008110610cab5760209190911b9060401c5b6401000000008110610cc25760109190911b9060201c5b620100008110610cd75760089190911b9060101c5b6101008110610ceb5760049190911b9060081c5b60108110610cfe5760029190911b9060041c5b60088110610d0d578160011b91505b5080820401600190811c80830401811c80830401811c80830401811c80830401811c80830401811c80830401901c80820481811015610d4a578091505b50919050565b60006109cd825490565b6000818152600183016020526040812054610da1575081546001818101845560008481526020808220909301849055845484825282860190935260409020919091556109cd565b5060006109cd565b6000826000018281548110610dc057610dc06111ae565b9060005260206000200154905092915050565b60008060408385031215610de657600080fd5b82359150602083013560048110610dfc57600080fd5b809150509250929050565b600060208284031215610e1957600080fd5b5035919050565b634e487b7160e01b600052602160045260246000fd5b60048110610e5457634e487b7160e01b600052602160045260246000fd5b9052565b600060c082019050610e6b828451610e36565b60208301516020830152604083015160090b6040830152606083015160090b6060830152608083015160090b608083015260ff60a08401511660a083015292915050565b60008060408385031215610ec257600080fd5b50508035926020909101359150565b600060208083528351808285015260005b81811015610efe57858101830151858201604001528201610ee2565b81811115610f10576000604083870101525b50601f01601f1916929092016040019392505050565b6001600160a01b0381168114610f3b57600080fd5b50565b600060208284031215610f5057600080fd5b8135610f5b81610f26565b9392505050565b600060208284031215610f7457600080fd5b81518015158114610f5b57600080fd5b82815260408101610f5b6020830184610e36565b600060208284031215610faa57600080fd5b8151610f5b81610f26565b600181811c90821680610fc957607f821691505b60208210811415610d4a57634e487b7160e01b600052602260045260246000fd5b634e487b7160e01b600052601160045260246000fd5b60008160090b8360090b600081128160016001604f1b03190183128115161561102b5761102b610fea565b8160016001604f1b0301831381161561104657611046610fea565b5090039392505050565b80825b60018086116110625750611094565b8160016001604f1b030482111561107b5761107b610fea565b8086161561108857918102915b9490941c938002611053565b935093915050565b60008280156110b257600181146110bc576110c5565b60019150506109cd565b829150506109cd565b50816110d3575060006109cd565b506001600082138082146110ec57801561110a57611123565b8260016001604f1b030483111561110557611105610fea565b611123565b8260016001604f1b030583121561112357611123610fea565b508083161561112f5750805b61113f8360011c83840283611050565b8060016001604f1b0304821160008313161561115d5761115d610fea565b8060016001604f1b031905821260008312161561117c5761117c610fea565b029392505050565b60006109ca60ff84168360090b61109c565b600082198211156111a9576111a9610fea565b500190565b634e487b7160e01b600052603260045260246000fdfea264697066735822122055045f11a0123895334e52776835c37dcb1e2bd5b9e46b0d97e70a68ea64a6ab64736f6c634300080a0033",
    "linkReferences": {}
  }
}