{
  "abi": [
    {
      "inputs": [
        {
          "internalType": "contract ISanctis",
          "name": "newSanctis",
          "type": "address"
        }
      ],
      "stateMutability": "nonpayable",
      "type": "constructor"
    },
    {
      "anonymous": false,
      "inputs": [
        {
          "indexed": true,
          "internalType": "uint256",
          "name": "id",
          "type": "uint256"
        },
        {
          "indexed": true,
          "internalType": "uint256",
          "name": "ruler",
          "type": "uint256"
        },
        {
          "indexed": false,
          "internalType": "uint8",
          "name": "status",
          "type": "uint8"
        }
      ],
      "name": "Changed",
      "type": "event"
    },
    {
      "inputs": [
        {
          "internalType": "contract ISanctis",
          "name": "newSanctis",
          "type": "address"
        }
      ],
      "name": "changeSanctis",
      "outputs": [],
      "stateMutability": "nonpayable",
      "type": "function"
    },
    {
      "inputs": [
        {
          "internalType": "uint256",
          "name": "commanderId",
          "type": "uint256"
        },
        {
          "internalType": "uint256",
          "name": "index",
          "type": "uint256"
        }
      ],
      "name": "commanderPlanetByIndex",
      "outputs": [
        {
          "internalType": "uint256",
          "name": "",
          "type": "uint256"
        }
      ],
      "stateMutability": "view",
      "type": "function"
    },
    {
      "inputs": [
        {
          "internalType": "uint256",
          "name": "planetId",
          "type": "uint256"
        }
      ],
      "name": "create",
      "outputs": [],
      "stateMutability": "nonpayable",
      "type": "function"
    },
    {
      "inputs": [
        {
          "internalType": "uint256",
          "name": "from",
          "type": "uint256"
        },
        {
          "internalType": "uint256",
          "name": "to",
          "type": "uint256"
        }
      ],
      "name": "distance",
      "outputs": [
        {
          "internalType": "uint256",
          "name": "",
          "type": "uint256"
        }
      ],
      "stateMutability": "view",
      "type": "function"
    },
    {
      "inputs": [
        {
          "internalType": "uint256",
          "name": "commanderId",
          "type": "uint256"
        }
      ],
      "name": "empireSize",
      "outputs": [
        {
          "internalType": "uint256",
          "name": "",
          "type": "uint256"
        }
      ],
      "stateMutability": "view",
      "type": "function"
    },
    {
      "inputs": [],
      "name": "key",
      "outputs": [
        {
          "internalType": "bytes32",
          "name": "",
          "type": "bytes32"
        }
      ],
      "stateMutability": "view",
      "type": "function"
    },
    {
      "inputs": [
        {
          "internalType": "uint256",
          "name": "planetId",
          "type": "uint256"
        }
      ],
      "name": "planet",
      "outputs": [
        {
          "components": [
            {
              "internalType": "uint256",
              "name": "ruler",
              "type": "uint256"
            },
            {
              "internalType": "int80",
              "name": "x",
              "type": "int80"
            },
            {
              "internalType": "int80",
              "name": "y",
              "type": "int80"
            },
            {
              "internalType": "int80",
              "name": "z",
              "type": "int80"
            },
            {
              "internalType": "uint8",
              "name": "humidity",
              "type": "uint8"
            },
            {
              "internalType": "uint8",
              "name": "status",
              "type": "uint8"
            }
          ],
          "internalType": "struct IPlanets.Planet",
          "name": "",
          "type": "tuple"
        }
      ],
      "stateMutability": "view",
      "type": "function"
    },
    {
      "inputs": [],
      "name": "s_sanctis",
      "outputs": [
        {
          "internalType": "contract ISanctis",
          "name": "",
          "type": "address"
        }
      ],
      "stateMutability": "view",
      "type": "function"
    },
    {
      "inputs": [],
      "name": "sanctis",
      "outputs": [
        {
          "internalType": "contract ISanctis",
          "name": "",
          "type": "address"
        }
      ],
      "stateMutability": "view",
      "type": "function"
    },
    {
      "inputs": [
        {
          "internalType": "uint256",
          "name": "planetId",
          "type": "uint256"
        },
        {
          "internalType": "uint256",
          "name": "ruler",
          "type": "uint256"
        },
        {
          "internalType": "uint8",
          "name": "status",
          "type": "uint8"
        }
      ],
      "name": "setPlanet",
      "outputs": [],
      "stateMutability": "nonpayable",
      "type": "function"
    }
  ],
  "bytecode": {
    "object": "0x608060405234801561001057600080fd5b5060405161130e38038061130e83398101604081905261002f91610192565b600080546001600160a01b03199081166001600160a01b03841617825566504c414e45545360c81b6001556040805160c081018252838152602080820185815282840186815260608401878152607d60808601908152600260a087018181528a805281875296517fac33ff75c19e70fe83507db0d683fd3465c996598dc972688b7ace676c89077b5593517fac33ff75c19e70fe83507db0d683fd3465c996598dc972688b7ace676c89077c805494519351925197516001600160501b0392831695909a16949094176a01000000000000000000009382169390930292909217600160a01b600160f81b031916600160a01b929091169190910260ff60f01b191617600160f01b60ff95861602176001600160f81b0316600160f81b949096169390930294909417909155905191825282917f416a7f654100935e992f03c5a7603363c2721630aba3bed3cf64f02872b49403910160405180910390a3506101c2565b6000602082840312156101a457600080fd5b81516001600160a01b03811681146101bb57600080fd5b9392505050565b61113d806101d16000396000f3fe608060405234801561001057600080fd5b50600436106100be5760003560e01c80638172b98911610076578063bf206e451161005b578063bf206e45146102c3578063ce89f063146102d6578063f3dc9bbd146102e957600080fd5b80638172b989146102905780639797efda146102a357600080fd5b80635087883f116100a75780635087883f1461023b578063780900dc146102685780637a08face1461027d57600080fd5b8063181c1bc4146100c35780633943380c14610229575b600080fd5b6101c56100d1366004610dba565b6040805160c081018252600080825260208201819052918101829052606081018290526080810182905260a081019190915250600090815260026020908152604091829020825160c08101845281548152600190910154600981810b938301939093526a01000000000000000000008104830b9382019390935274010000000000000000000000000000000000000000830490910b606082015260ff7e010000000000000000000000000000000000000000000000000000000000008304811660808301527f010000000000000000000000000000000000000000000000000000000000000090920490911660a082015290565b6040516102209190600060c08201905082518252602083015160090b6020830152604083015160090b6040830152606083015160090b606083015260ff608084015116608083015260ff60a08401511660a083015292915050565b60405180910390f35b6001545b604051908152602001610220565b6102436102fc565b60405173ffffffffffffffffffffffffffffffffffffffff9091168152602001610220565b61027b610276366004610dba565b61042f565b005b61027b61028b366004610dd3565b61076e565b61022d61029e366004610e12565b6108fc565b6000546102439073ffffffffffffffffffffffffffffffffffffffff1681565b61027b6102d1366004610e59565b61091d565b61022d6102e4366004610e12565b610a74565b61022d6102f7366004610dba565b610c7d565b60008054604080517f475853040000000000000000000000000000000000000000000000000000000081529051339273ffffffffffffffffffffffffffffffffffffffff169163475853049160048083019260209291908290030181865afa15801561036c573d6000803e3d6000fd5b505050506040513d601f19601f820116820180604052508101906103909190610e7d565b73ffffffffffffffffffffffffffffffffffffffff1614610412576040517f08c379a000000000000000000000000000000000000000000000000000000000815260206004820152601060248201527f4d6f64756c653a204578656375746f720000000000000000000000000000000060448201526064015b60405180910390fd5b5060005473ffffffffffffffffffffffffffffffffffffffff1690565b7dffffffffffffffffffffffffffffffffffffffffffffffffffffffffffff8111156104b7576040517f08c379a000000000000000000000000000000000000000000000000000000000815260206004820152600b60248201527f506c616e6574733a2049440000000000000000000000000000000000000000006044820152606401610409565b6000818152600260205260409020600101547f0100000000000000000000000000000000000000000000000000000000000000900460ff1615610556576040517f08c379a000000000000000000000000000000000000000000000000000000000815260206004820152600f60248201527f506c616e6574733a2045786973747300000000000000000000000000000000006044820152606401610409565b60008160405160200161056b91815260200190565b604080517fffffffffffffffffffffffffffffffffffffffffffffffffffffffffffffffe0818403018152828252805160209182012060c0840183526000808552620fffff878116600990810b85880190815260508a901c8316820b88880190815260a08b811c90941690920b6060890190815260ff80871660808b019081526001958b018681528d885260028a528a88209b518c5593519a86018054955193519151945183167f0100000000000000000000000000000000000000000000000000000000000000027effffffffffffffffffffffffffffffffffffffffffffffffffffffffffffff959093167e01000000000000000000000000000000000000000000000000000000000000027fff00ffffffffffffffffffffffffffffffffffffffffffffffffffffffffffff69ffffffffffffffffffff9384167401000000000000000000000000000000000000000002167fff0000000000000000000000ffffffffffffffffffffffffffffffffffffffff9584166a0100000000000000000000027fffffffffffffffffffffffff000000000000000000000000000000000000000090981693909d169290921795909517929092169990991717169690961790955592519384529350839285917f416a7f654100935e992f03c5a7603363c2721630aba3bed3cf64f02872b4940391015b60405180910390a3505050565b6000546040517fd63a8e1100000000000000000000000000000000000000000000000000000000815233600482015273ffffffffffffffffffffffffffffffffffffffff9091169063d63a8e1190602401602060405180830381865afa1580156107dc573d6000803e3d6000fd5b505050506040513d601f19601f820116820180604052508101906108009190610e9a565b610866576040517f08c379a000000000000000000000000000000000000000000000000000000000815260206004820152600f60248201527f4d6f64756c653a20416c6c6f77656400000000000000000000000000000000006044820152606401610409565b60008381526002602090815260409182902084815560010180547effffffffffffffffffffffffffffffffffffffffffffffffffffffffffffff167f010000000000000000000000000000000000000000000000000000000000000060ff861602179055905160038152839185917f416a7f654100935e992f03c5a7603363c2721630aba3bed3cf64f02872b494039101610761565b60008281526003602052604081206109149083610c94565b90505b92915050565b600054604080517f475853040000000000000000000000000000000000000000000000000000000081529051339273ffffffffffffffffffffffffffffffffffffffff169163475853049160048083019260209291908290030181865afa15801561098c573d6000803e3d6000fd5b505050506040513d601f19601f820116820180604052508101906109b09190610e7d565b73ffffffffffffffffffffffffffffffffffffffff1614610a2d576040517f08c379a000000000000000000000000000000000000000000000000000000000815260206004820152601060248201527f4d6f64756c653a204578656375746f72000000000000000000000000000000006044820152606401610409565b600080547fffffffffffffffffffffffff00000000000000000000000000000000000000001673ffffffffffffffffffffffffffffffffffffffff92909216919091179055565b600080600260008581526020019081526020016000206040518060c0016040529081600082015481526020016001820160009054906101000a900460090b60090b60090b815260200160018201600a9054906101000a900460090b60090b60090b81526020016001820160149054906101000a900460090b60090b60090b815260200160018201601e9054906101000a900460ff1660ff1660ff16815260200160018201601f9054906101000a900460ff1660ff1660ff168152505090506000600260008581526020019081526020016000206040518060c0016040529081600082015481526020016001820160009054906101000a900460090b60090b60090b815260200160018201600a9054906101000a900460090b60090b60090b81526020016001820160149054906101000a900460090b60090b60090b815260200160018201601e9054906101000a900460ff1660ff1660ff16815260200160018201601f9054906101000a900460ff1660ff1660ff16815250509050610c74600283606001518360600151610c089190610eeb565b610c1291906110ae565b60090b600284604001518460400151610c2b9190610eeb565b610c3591906110ae565b60090b600285602001518560200151610c4e9190610eeb565b610c5891906110ae565b60090b610c6591906110c0565b610c6f91906110c0565b610ca0565b95945050505050565b600081815260036020526040812061091790610d86565b60006109148383610d90565b6001817001000000000000000000000000000000008110610cc65760409190911b9060801c5b680100000000000000008110610ce15760209190911b9060401c5b6401000000008110610cf85760109190911b9060201c5b620100008110610d0d5760089190911b9060101c5b6101008110610d215760049190911b9060081c5b60108110610d345760029190911b9060041c5b60088110610d43578160011b91505b5080820401600190811c80830401811c80830401811c80830401811c80830401811c80830401811c80830401901c80820481811015610d80578091505b50919050565b6000610917825490565b6000826000018281548110610da757610da76110d8565b9060005260206000200154905092915050565b600060208284031215610dcc57600080fd5b5035919050565b600080600060608486031215610de857600080fd5b8335925060208401359150604084013560ff81168114610e0757600080fd5b809150509250925092565b60008060408385031215610e2557600080fd5b50508035926020909101359150565b73ffffffffffffffffffffffffffffffffffffffff81168114610e5657600080fd5b50565b600060208284031215610e6b57600080fd5b8135610e7681610e34565b9392505050565b600060208284031215610e8f57600080fd5b8151610e7681610e34565b600060208284031215610eac57600080fd5b81518015158114610e7657600080fd5b7f4e487b7100000000000000000000000000000000000000000000000000000000600052601160045260246000fd5b60008160090b8360090b60008112817fffffffffffffffffffffffffffffffffffffffffffff8000000000000000000001831281151615610f2e57610f2e610ebc565b81697fffffffffffffffffff018313811615610f4c57610f4c610ebc565b5090039392505050565b80825b6001808611610f685750610f9d565b81697fffffffffffffffffff04821115610f8457610f84610ebc565b80861615610f9157918102915b9490941c938002610f59565b935093915050565b6000828015610fbb5760018114610fc557610fce565b6001915050610917565b82915050610917565b5081610fdc57506000610917565b50600160008213808214610ff557801561101657611032565b82697fffffffffffffffffff0483111561101157611011610ebc565b611032565b82697fffffffffffffffffff0583121561103257611032610ebc565b508083161561103e5750805b61104e8360011c83840283610f56565b80697fffffffffffffffffff04821160008313161561106f5761106f610ebc565b807fffffffffffffffffffffffffffffffffffffffffffff800000000000000000000582126000831216156110a6576110a6610ebc565b029392505050565b600061091460ff84168360090b610fa5565b600082198211156110d3576110d3610ebc565b500190565b7f4e487b7100000000000000000000000000000000000000000000000000000000600052603260045260246000fdfea2646970667358221220a374e834074a30f3cf69431efcaddf77ae95d7d7569b1303c94cdd33935fffc564736f6c634300080a0033",
    "linkReferences": {}
  }
}