{
  "abi": [
    {
      "inputs": [
        {
          "internalType": "contract ISanctis",
          "name": "_sanctis",
          "type": "address"
        }
      ],
      "stateMutability": "nonpayable",
      "type": "constructor"
    },
    {
      "inputs": [
        {
          "internalType": "address",
          "name": "sender",
          "type": "address"
        }
      ],
      "name": "NotAllowed",
      "type": "error"
    },
    {
      "inputs": [
        {
          "internalType": "address",
          "name": "sender",
          "type": "address"
        }
      ],
      "name": "NotTheExecutor",
      "type": "error"
    },
    {
      "inputs": [
        {
          "internalType": "address",
          "name": "sender",
          "type": "address"
        }
      ],
      "name": "NotTheSanctis",
      "type": "error"
    },
    {
      "anonymous": false,
      "inputs": [
        {
          "indexed": true,
          "internalType": "address",
          "name": "owner",
          "type": "address"
        },
        {
          "indexed": true,
          "internalType": "address",
          "name": "spender",
          "type": "address"
        },
        {
          "indexed": false,
          "internalType": "uint256",
          "name": "value",
          "type": "uint256"
        }
      ],
      "name": "Approval",
      "type": "event"
    },
    {
      "anonymous": false,
      "inputs": [
        {
          "indexed": true,
          "internalType": "address",
          "name": "delegator",
          "type": "address"
        },
        {
          "indexed": true,
          "internalType": "address",
          "name": "fromDelegate",
          "type": "address"
        },
        {
          "indexed": true,
          "internalType": "address",
          "name": "toDelegate",
          "type": "address"
        }
      ],
      "name": "DelegateChanged",
      "type": "event"
    },
    {
      "anonymous": false,
      "inputs": [
        {
          "indexed": true,
          "internalType": "address",
          "name": "delegate",
          "type": "address"
        },
        {
          "indexed": false,
          "internalType": "uint256",
          "name": "previousBalance",
          "type": "uint256"
        },
        {
          "indexed": false,
          "internalType": "uint256",
          "name": "newBalance",
          "type": "uint256"
        }
      ],
      "name": "DelegateVotesChanged",
      "type": "event"
    },
    {
      "anonymous": false,
      "inputs": [
        {
          "indexed": true,
          "internalType": "address",
          "name": "from",
          "type": "address"
        },
        {
          "indexed": true,
          "internalType": "address",
          "name": "to",
          "type": "address"
        },
        {
          "indexed": false,
          "internalType": "uint256",
          "name": "value",
          "type": "uint256"
        }
      ],
      "name": "Transfer",
      "type": "event"
    },
    {
      "inputs": [],
      "name": "DOMAIN_SEPARATOR",
      "outputs": [
        {
          "internalType": "bytes32",
          "name": "",
          "type": "bytes32"
        }
      ],
      "stateMutability": "view",
      "type": "function"
    },
    {
      "inputs": [
        {
          "internalType": "address",
          "name": "owner",
          "type": "address"
        },
        {
          "internalType": "address",
          "name": "spender",
          "type": "address"
        }
      ],
      "name": "allowance",
      "outputs": [
        {
          "internalType": "uint256",
          "name": "",
          "type": "uint256"
        }
      ],
      "stateMutability": "view",
      "type": "function"
    },
    {
      "inputs": [
        {
          "internalType": "address",
          "name": "spender",
          "type": "address"
        },
        {
          "internalType": "uint256",
          "name": "amount",
          "type": "uint256"
        }
      ],
      "name": "approve",
      "outputs": [
        {
          "internalType": "bool",
          "name": "",
          "type": "bool"
        }
      ],
      "stateMutability": "nonpayable",
      "type": "function"
    },
    {
      "inputs": [
        {
          "internalType": "address",
          "name": "account",
          "type": "address"
        }
      ],
      "name": "balanceOf",
      "outputs": [
        {
          "internalType": "uint256",
          "name": "",
          "type": "uint256"
        }
      ],
      "stateMutability": "view",
      "type": "function"
    },
    {
      "inputs": [
        {
          "internalType": "contract ISanctis",
          "name": "newSanctis",
          "type": "address"
        }
      ],
      "name": "changeSanctis",
      "outputs": [],
      "stateMutability": "nonpayable",
      "type": "function"
    },
    {
      "inputs": [
        {
          "internalType": "address",
          "name": "account",
          "type": "address"
        },
        {
          "internalType": "uint32",
          "name": "pos",
          "type": "uint32"
        }
      ],
      "name": "checkpoints",
      "outputs": [
        {
          "components": [
            {
              "internalType": "uint32",
              "name": "fromBlock",
              "type": "uint32"
            },
            {
              "internalType": "uint224",
              "name": "votes",
              "type": "uint224"
            }
          ],
          "internalType": "struct ERC20Votes.Checkpoint",
          "name": "",
          "type": "tuple"
        }
      ],
      "stateMutability": "view",
      "type": "function"
    },
    {
      "inputs": [],
      "name": "decimals",
      "outputs": [
        {
          "internalType": "uint8",
          "name": "",
          "type": "uint8"
        }
      ],
      "stateMutability": "view",
      "type": "function"
    },
    {
      "inputs": [
        {
          "internalType": "address",
          "name": "spender",
          "type": "address"
        },
        {
          "internalType": "uint256",
          "name": "subtractedValue",
          "type": "uint256"
        }
      ],
      "name": "decreaseAllowance",
      "outputs": [
        {
          "internalType": "bool",
          "name": "",
          "type": "bool"
        }
      ],
      "stateMutability": "nonpayable",
      "type": "function"
    },
    {
      "inputs": [
        {
          "internalType": "address",
          "name": "delegatee",
          "type": "address"
        }
      ],
      "name": "delegate",
      "outputs": [],
      "stateMutability": "nonpayable",
      "type": "function"
    },
    {
      "inputs": [
        {
          "internalType": "address",
          "name": "delegatee",
          "type": "address"
        },
        {
          "internalType": "uint256",
          "name": "nonce",
          "type": "uint256"
        },
        {
          "internalType": "uint256",
          "name": "expiry",
          "type": "uint256"
        },
        {
          "internalType": "uint8",
          "name": "v",
          "type": "uint8"
        },
        {
          "internalType": "bytes32",
          "name": "r",
          "type": "bytes32"
        },
        {
          "internalType": "bytes32",
          "name": "s",
          "type": "bytes32"
        }
      ],
      "name": "delegateBySig",
      "outputs": [],
      "stateMutability": "nonpayable",
      "type": "function"
    },
    {
      "inputs": [
        {
          "internalType": "address",
          "name": "account",
          "type": "address"
        }
      ],
      "name": "delegates",
      "outputs": [
        {
          "internalType": "address",
          "name": "",
          "type": "address"
        }
      ],
      "stateMutability": "view",
      "type": "function"
    },
    {
      "inputs": [
        {
          "internalType": "uint256",
          "name": "blockNumber",
          "type": "uint256"
        }
      ],
      "name": "getPastTotalSupply",
      "outputs": [
        {
          "internalType": "uint256",
          "name": "",
          "type": "uint256"
        }
      ],
      "stateMutability": "view",
      "type": "function"
    },
    {
      "inputs": [
        {
          "internalType": "address",
          "name": "account",
          "type": "address"
        },
        {
          "internalType": "uint256",
          "name": "blockNumber",
          "type": "uint256"
        }
      ],
      "name": "getPastVotes",
      "outputs": [
        {
          "internalType": "uint256",
          "name": "",
          "type": "uint256"
        }
      ],
      "stateMutability": "view",
      "type": "function"
    },
    {
      "inputs": [
        {
          "internalType": "address",
          "name": "account",
          "type": "address"
        }
      ],
      "name": "getVotes",
      "outputs": [
        {
          "internalType": "uint256",
          "name": "",
          "type": "uint256"
        }
      ],
      "stateMutability": "view",
      "type": "function"
    },
    {
      "inputs": [
        {
          "internalType": "address",
          "name": "spender",
          "type": "address"
        },
        {
          "internalType": "uint256",
          "name": "addedValue",
          "type": "uint256"
        }
      ],
      "name": "increaseAllowance",
      "outputs": [
        {
          "internalType": "bool",
          "name": "",
          "type": "bool"
        }
      ],
      "stateMutability": "nonpayable",
      "type": "function"
    },
    {
      "inputs": [],
      "name": "key",
      "outputs": [
        {
          "internalType": "string",
          "name": "",
          "type": "string"
        }
      ],
      "stateMutability": "view",
      "type": "function"
    },
    {
      "inputs": [
        {
          "internalType": "address",
          "name": "to",
          "type": "address"
        },
        {
          "internalType": "uint256",
          "name": "amount",
          "type": "uint256"
        }
      ],
      "name": "mint",
      "outputs": [],
      "stateMutability": "nonpayable",
      "type": "function"
    },
    {
      "inputs": [],
      "name": "name",
      "outputs": [
        {
          "internalType": "string",
          "name": "",
          "type": "string"
        }
      ],
      "stateMutability": "view",
      "type": "function"
    },
    {
      "inputs": [
        {
          "internalType": "address",
          "name": "owner",
          "type": "address"
        }
      ],
      "name": "nonces",
      "outputs": [
        {
          "internalType": "uint256",
          "name": "",
          "type": "uint256"
        }
      ],
      "stateMutability": "view",
      "type": "function"
    },
    {
      "inputs": [
        {
          "internalType": "address",
          "name": "account",
          "type": "address"
        }
      ],
      "name": "numCheckpoints",
      "outputs": [
        {
          "internalType": "uint32",
          "name": "",
          "type": "uint32"
        }
      ],
      "stateMutability": "view",
      "type": "function"
    },
    {
      "inputs": [
        {
          "internalType": "address",
          "name": "owner",
          "type": "address"
        },
        {
          "internalType": "address",
          "name": "spender",
          "type": "address"
        },
        {
          "internalType": "uint256",
          "name": "value",
          "type": "uint256"
        },
        {
          "internalType": "uint256",
          "name": "deadline",
          "type": "uint256"
        },
        {
          "internalType": "uint8",
          "name": "v",
          "type": "uint8"
        },
        {
          "internalType": "bytes32",
          "name": "r",
          "type": "bytes32"
        },
        {
          "internalType": "bytes32",
          "name": "s",
          "type": "bytes32"
        }
      ],
      "name": "permit",
      "outputs": [],
      "stateMutability": "nonpayable",
      "type": "function"
    },
    {
      "inputs": [],
      "name": "sanctis",
      "outputs": [
        {
          "internalType": "contract ISanctis",
          "name": "",
          "type": "address"
        }
      ],
      "stateMutability": "view",
      "type": "function"
    },
    {
      "inputs": [],
      "name": "symbol",
      "outputs": [
        {
          "internalType": "string",
          "name": "",
          "type": "string"
        }
      ],
      "stateMutability": "view",
      "type": "function"
    },
    {
      "inputs": [],
      "name": "totalSupply",
      "outputs": [
        {
          "internalType": "uint256",
          "name": "",
          "type": "uint256"
        }
      ],
      "stateMutability": "view",
      "type": "function"
    },
    {
      "inputs": [
        {
          "internalType": "address",
          "name": "to",
          "type": "address"
        },
        {
          "internalType": "uint256",
          "name": "amount",
          "type": "uint256"
        }
      ],
      "name": "transfer",
      "outputs": [
        {
          "internalType": "bool",
          "name": "",
          "type": "bool"
        }
      ],
      "stateMutability": "nonpayable",
      "type": "function"
    },
    {
      "inputs": [
        {
          "internalType": "address",
          "name": "from",
          "type": "address"
        },
        {
          "internalType": "address",
          "name": "to",
          "type": "address"
        },
        {
          "internalType": "uint256",
          "name": "amount",
          "type": "uint256"
        }
      ],
      "name": "transferFrom",
      "outputs": [
        {
          "internalType": "bool",
          "name": "",
          "type": "bool"
        }
      ],
      "stateMutability": "nonpayable",
      "type": "function"
    }
  ],
  "bytecode": {
    "object": "0x6101606040527f6e71edae12b1b97f4d1f60370fef10105fa2faae0126114a169c64845d6126c9610140523480156200003757600080fd5b50604051620021bb380380620021bb8339810160408190526200005a91620002a9565b604051806040016040528060078152602001664352454449545360c81b81525081806040518060400160405280600d81526020016c5370616365204372656469747360981b81525080604051806040016040528060018152602001603160f81b8152506040518060400160405280600d81526020016c5370616365204372656469747360981b8152506040518060400160405280600481526020016310d4915160e21b81525081600390805190602001906200011892919062000203565b5080516200012e90600490602084019062000203565b5050825160208085019190912083518483012060e08290526101008190524660a0818152604080517f8b73c3c69bb8fe3d512ecc4cf759cc79239f7b179b0ffacaa9a75d522b39400f81880181905281830187905260608201869052608082019490945230818401528151808203909301835260c0019052805194019390932091935091906080523060c052610120525050600980546001600160a01b0319166001600160a01b03959095169490941790935550508251620001f99150600a90602085019062000203565b5050505062000318565b8280546200021190620002db565b90600052602060002090601f01602090048101928262000235576000855562000280565b82601f106200025057805160ff191683800117855562000280565b8280016001018555821562000280579182015b828111156200028057825182559160200191906001019062000263565b506200028e92915062000292565b5090565b5b808211156200028e576000815560010162000293565b600060208284031215620002bc57600080fd5b81516001600160a01b0381168114620002d457600080fd5b9392505050565b600181811c90821680620002f057607f821691505b602082108114156200031257634e487b7160e01b600052602260045260246000fd5b50919050565b60805160a05160c05160e051610100516101205161014051611e48620003736000396000610a9901526000611041015260006110900152600061106b01526000610fc401526000610fee015260006110180152611e486000f3fe608060405234801561001057600080fd5b506004361061018e5760003560e01c80636fcfff45116100de578063a457c2d711610097578063c3cda52011610071578063c3cda52014610388578063d505accf1461039b578063dd62ed3e146103ae578063f1127ed8146103e757600080fd5b8063a457c2d71461034f578063a9059cbb14610362578063bf206e451461037557600080fd5b80636fcfff45146102bd57806370a08231146102e55780637ecebe001461030e5780638e539e8c1461032157806395d89b41146103345780639ab24eb01461033c57600080fd5b80633943380c1161014b57806340c10f191161012557806340c10f191461023e5780635087883f14610253578063587cde1e1461027e5780635c19a95c146102aa57600080fd5b80633943380c1461021057806339509351146102185780633a46b1a81461022b57600080fd5b806306fdde0314610193578063095ea7b3146101b157806318160ddd146101d457806323b872dd146101e6578063313ce567146101f95780633644e51514610208575b600080fd5b61019b610424565b6040516101a89190611ad2565b60405180910390f35b6101c46101bf366004611b3c565b6104b6565b60405190151581526020016101a8565b6002545b6040519081526020016101a8565b6101c46101f4366004611b68565b6104ce565b604051601281526020016101a8565b6101d86104f2565b61019b610501565b6101c4610226366004611b3c565b610510565b6101d8610239366004611b3c565b61054f565b61025161024c366004611b3c565b6105ce565b005b600954610266906001600160a01b031681565b6040516001600160a01b0390911681526020016101a8565b61026661028c366004611ba9565b6001600160a01b039081166000908152600660205260409020541690565b6102516102b8366004611ba9565b610672565b6102d06102cb366004611ba9565b61067f565b60405163ffffffff90911681526020016101a8565b6101d86102f3366004611ba9565b6001600160a01b031660009081526020819052604090205490565b6101d861031c366004611ba9565b6106a7565b6101d861032f366004611bc6565b6106c5565b61019b610721565b6101d861034a366004611ba9565b610730565b6101c461035d366004611b3c565b6107b7565b6101c4610370366004611b3c565b610849565b610251610383366004611ba9565b610857565b610251610396366004611bf5565b61090f565b6102516103a9366004611c4f565b610a45565b6101d86103bc366004611cbd565b6001600160a01b03918216600090815260016020908152604080832093909416825291909152205490565b6103fa6103f5366004611cf6565b610ba9565b60408051825163ffffffff1681526020928301516001600160e01b031692810192909252016101a8565b60606003805461043390611d2d565b80601f016020809104026020016040519081016040528092919081815260200182805461045f90611d2d565b80156104ac5780601f10610481576101008083540402835291602001916104ac565b820191906000526020600020905b81548152906001019060200180831161048f57829003601f168201915b5050505050905090565b6000336104c4818585610c2d565b5060019392505050565b6000336104dc858285610d51565b6104e7858585610de3565b506001949350505050565b60006104fc610fb7565b905090565b6060600a805461043390611d2d565b3360008181526001602090815260408083206001600160a01b03871684529091528120549091906104c4908290869061054a908790611d78565b610c2d565b60004382106105a55760405162461bcd60e51b815260206004820152601f60248201527f4552433230566f7465733a20626c6f636b206e6f7420796574206d696e65640060448201526064015b60405180910390fd5b6001600160a01b03831660009081526007602052604090206105c790836110de565b9392505050565b600954604080516311d614c160e21b8152905133926001600160a01b03169163475853049160048083019260209291908290030181865afa158015610617573d6000803e3d6000fd5b505050506040513d601f19601f8201168201806040525081019061063b9190611d90565b6001600160a01b0316146106645760405163968c45d960e01b815233600482015260240161059c565b61066e828261119b565b5050565b61067c33826111a5565b50565b6001600160a01b0381166000908152600760205260408120546106a19061121e565b92915050565b6001600160a01b0381166000908152600560205260408120546106a1565b60004382106107165760405162461bcd60e51b815260206004820152601f60248201527f4552433230566f7465733a20626c6f636b206e6f7420796574206d696e656400604482015260640161059c565b6106a16008836110de565b60606004805461043390611d2d565b6001600160a01b03811660009081526007602052604081205480156107a4576001600160a01b0383166000908152600760205260409020610772600183611dad565b8154811061078257610782611dc4565b60009182526020909120015464010000000090046001600160e01b03166107a7565b60005b6001600160e01b03169392505050565b3360008181526001602090815260408083206001600160a01b03871684529091528120549091908381101561083c5760405162461bcd60e51b815260206004820152602560248201527f45524332303a2064656372656173656420616c6c6f77616e63652062656c6f77604482015264207a65726f60d81b606482015260840161059c565b6104e78286868403610c2d565b6000336104c4818585610de3565b600954604080516311d614c160e21b8152905133926001600160a01b03169163475853049160048083019260209291908290030181865afa1580156108a0573d6000803e3d6000fd5b505050506040513d601f19601f820116820180604052508101906108c49190611d90565b6001600160a01b0316146108ed5760405163968c45d960e01b815233600482015260240161059c565b600980546001600160a01b0319166001600160a01b0392909216919091179055565b8342111561095f5760405162461bcd60e51b815260206004820152601d60248201527f4552433230566f7465733a207369676e61747572652065787069726564000000604482015260640161059c565b604080517fe48329057bfd03d55e49b547132e39cffd9c1820ad7b9d4c5307691425d15adf60208201526001600160a01b0388169181019190915260608101869052608081018590526000906109d9906109d19060a00160405160208183030381529060405280519060200120611287565b8585856112d5565b90506109e4816112fd565b8614610a325760405162461bcd60e51b815260206004820152601960248201527f4552433230566f7465733a20696e76616c6964206e6f6e636500000000000000604482015260640161059c565b610a3c81886111a5565b50505050505050565b83421115610a955760405162461bcd60e51b815260206004820152601d60248201527f45524332305065726d69743a206578706972656420646561646c696e65000000604482015260640161059c565b60007f0000000000000000000000000000000000000000000000000000000000000000888888610ac48c6112fd565b6040805160208101969096526001600160a01b0394851690860152929091166060840152608083015260a082015260c0810186905260e0016040516020818303038152906040528051906020012090506000610b1f82611287565b90506000610b2f828787876112d5565b9050896001600160a01b0316816001600160a01b031614610b925760405162461bcd60e51b815260206004820152601e60248201527f45524332305065726d69743a20696e76616c6964207369676e61747572650000604482015260640161059c565b610b9d8a8a8a610c2d565b50505050505050505050565b60408051808201909152600080825260208201526001600160a01b0383166000908152600760205260409020805463ffffffff8416908110610bed57610bed611dc4565b60009182526020918290206040805180820190915291015463ffffffff8116825264010000000090046001600160e01b0316918101919091529392505050565b6001600160a01b038316610c8f5760405162461bcd60e51b8152602060048201526024808201527f45524332303a20617070726f76652066726f6d20746865207a65726f206164646044820152637265737360e01b606482015260840161059c565b6001600160a01b038216610cf05760405162461bcd60e51b815260206004820152602260248201527f45524332303a20617070726f766520746f20746865207a65726f206164647265604482015261737360f01b606482015260840161059c565b6001600160a01b0383811660008181526001602090815260408083209487168084529482529182902085905590518481527f8c5be1e5ebec7d5bd14f71427d1e84f3dd0314c0f7b2291e5b200ac8c7c3b925910160405180910390a3505050565b6001600160a01b038381166000908152600160209081526040808320938616835292905220546000198114610ddd5781811015610dd05760405162461bcd60e51b815260206004820152601d60248201527f45524332303a20696e73756666696369656e7420616c6c6f77616e6365000000604482015260640161059c565b610ddd8484848403610c2d565b50505050565b6001600160a01b038316610e475760405162461bcd60e51b815260206004820152602560248201527f45524332303a207472616e736665722066726f6d20746865207a65726f206164604482015264647265737360d81b606482015260840161059c565b6001600160a01b038216610ea95760405162461bcd60e51b815260206004820152602360248201527f45524332303a207472616e7366657220746f20746865207a65726f206164647260448201526265737360e81b606482015260840161059c565b6001600160a01b03831660009081526020819052604090205481811015610f215760405162461bcd60e51b815260206004820152602660248201527f45524332303a207472616e7366657220616d6f756e7420657863656564732062604482015265616c616e636560d01b606482015260840161059c565b6001600160a01b03808516600090815260208190526040808220858503905591851681529081208054849290610f58908490611d78565b92505081905550826001600160a01b0316846001600160a01b03167fddf252ad1be2c89b69c2b068fc378daa952ba7f163c4a11628f55a4df523b3ef84604051610fa491815260200190565b60405180910390a3610ddd84848461132a565b6000306001600160a01b037f00000000000000000000000000000000000000000000000000000000000000001614801561101057507f000000000000000000000000000000000000000000000000000000000000000046145b1561103a57507f000000000000000000000000000000000000000000000000000000000000000090565b50604080517f00000000000000000000000000000000000000000000000000000000000000006020808301919091527f0000000000000000000000000000000000000000000000000000000000000000828401527f000000000000000000000000000000000000000000000000000000000000000060608301524660808301523060a0808401919091528351808403909101815260c0909201909252805191012090565b8154600090815b818110156111425760006110f98284611335565b90508486828154811061110e5761110e611dc4565b60009182526020909120015463ffffffff16111561112e5780925061113c565b611139816001611d78565b91505b506110e5565b81156111865784611154600184611dad565b8154811061116457611164611dc4565b60009182526020909120015464010000000090046001600160e01b0316611189565b60005b6001600160e01b031695945050505050565b61066e8282611350565b6001600160a01b038281166000818152600660208181526040808420805485845282862054949093528787166001600160a01b03198416811790915590519190951694919391928592917f3134e8a2e6d97e929a7e54011ea5485d7d196dd5f0ba4d4ef95803e8e3fc257f9190a4610ddd8284836113da565b600063ffffffff8211156112835760405162461bcd60e51b815260206004820152602660248201527f53616665436173743a2076616c756520646f65736e27742066697420696e203360448201526532206269747360d01b606482015260840161059c565b5090565b60006106a1611294610fb7565b8360405161190160f01b6020820152602281018390526042810182905260009060620160405160208183030381529060405280519060200120905092915050565b60008060006112e687878787611517565b915091506112f381611604565b5095945050505050565b6001600160a01b03811660009081526005602052604090208054600181018255905b50919050565b505050565b6113258383836117bf565b60006113446002848418611dda565b6105c790848416611d78565b61135a82826117f1565b6002546001600160e01b0310156113cc5760405162461bcd60e51b815260206004820152603060248201527f4552433230566f7465733a20746f74616c20737570706c79207269736b73206f60448201526f766572666c6f77696e6720766f74657360801b606482015260840161059c565b610ddd60086118d8836118e4565b816001600160a01b0316836001600160a01b0316141580156113fc5750600081115b15611325576001600160a01b0383161561148a576001600160a01b0383166000908152600760205260408120819061143790611a5d856118e4565b91509150846001600160a01b03167fdec2bacdd2f05b59de34da9b523dff8be42e5e38e818c82fdb0bae774387a724838360405161147f929190918252602082015260400190565b60405180910390a250505b6001600160a01b03821615611325576001600160a01b038216600090815260076020526040812081906114c0906118d8856118e4565b91509150836001600160a01b03167fdec2bacdd2f05b59de34da9b523dff8be42e5e38e818c82fdb0bae774387a7248383604051611508929190918252602082015260400190565b60405180910390a25050505050565b6000807f7fffffffffffffffffffffffffffffff5d576e7357a4501ddfe92f46681b20a083111561154e57506000905060036115fb565b8460ff16601b1415801561156657508460ff16601c14155b1561157757506000905060046115fb565b6040805160008082526020820180845289905260ff881692820192909252606081018690526080810185905260019060a0016020604051602081039080840390855afa1580156115cb573d6000803e3d6000fd5b5050604051601f1901519150506001600160a01b0381166115f4576000600192509250506115fb565b9150600090505b94509492505050565b600081600481111561161857611618611dfc565b14156116215750565b600181600481111561163557611635611dfc565b14156116835760405162461bcd60e51b815260206004820152601860248201527f45434453413a20696e76616c6964207369676e61747572650000000000000000604482015260640161059c565b600281600481111561169757611697611dfc565b14156116e55760405162461bcd60e51b815260206004820152601f60248201527f45434453413a20696e76616c6964207369676e6174757265206c656e67746800604482015260640161059c565b60038160048111156116f9576116f9611dfc565b14156117525760405162461bcd60e51b815260206004820152602260248201527f45434453413a20696e76616c6964207369676e6174757265202773272076616c604482015261756560f01b606482015260840161059c565b600481600481111561176657611766611dfc565b141561067c5760405162461bcd60e51b815260206004820152602260248201527f45434453413a20696e76616c6964207369676e6174757265202776272076616c604482015261756560f01b606482015260840161059c565b6001600160a01b03838116600090815260066020526040808220548584168352912054611325929182169116836113da565b6001600160a01b0382166118475760405162461bcd60e51b815260206004820152601f60248201527f45524332303a206d696e7420746f20746865207a65726f206164647265737300604482015260640161059c565b80600260008282546118599190611d78565b90915550506001600160a01b03821660009081526020819052604081208054839290611886908490611d78565b90915550506040518181526001600160a01b038316906000907fddf252ad1be2c89b69c2b068fc378daa952ba7f163c4a11628f55a4df523b3ef9060200160405180910390a361066e6000838361132a565b60006105c78284611d78565b82546000908190801561192f57856118fd600183611dad565b8154811061190d5761190d611dc4565b60009182526020909120015464010000000090046001600160e01b0316611932565b60005b6001600160e01b0316925061194b83858763ffffffff16565b915060008111801561198957504386611965600184611dad565b8154811061197557611975611dc4565b60009182526020909120015463ffffffff16145b156119e95761199782611a69565b866119a3600184611dad565b815481106119b3576119b3611dc4565b9060005260206000200160000160046101000a8154816001600160e01b0302191690836001600160e01b03160217905550611a54565b8560405180604001604052806119fe4361121e565b63ffffffff168152602001611a1285611a69565b6001600160e01b0390811690915282546001810184556000938452602093849020835194909301519091166401000000000263ffffffff909316929092179101555b50935093915050565b60006105c78284611dad565b60006001600160e01b038211156112835760405162461bcd60e51b815260206004820152602760248201527f53616665436173743a2076616c756520646f65736e27742066697420696e20326044820152663234206269747360c81b606482015260840161059c565b600060208083528351808285015260005b81811015611aff57858101830151858201604001528201611ae3565b81811115611b11576000604083870101525b50601f01601f1916929092016040019392505050565b6001600160a01b038116811461067c57600080fd5b60008060408385031215611b4f57600080fd5b8235611b5a81611b27565b946020939093013593505050565b600080600060608486031215611b7d57600080fd5b8335611b8881611b27565b92506020840135611b9881611b27565b929592945050506040919091013590565b600060208284031215611bbb57600080fd5b81356105c781611b27565b600060208284031215611bd857600080fd5b5035919050565b803560ff81168114611bf057600080fd5b919050565b60008060008060008060c08789031215611c0e57600080fd5b8635611c1981611b27565b95506020870135945060408701359350611c3560608801611bdf565b92506080870135915060a087013590509295509295509295565b600080600080600080600060e0888a031215611c6a57600080fd5b8735611c7581611b27565b96506020880135611c8581611b27565b95506040880135945060608801359350611ca160808901611bdf565b925060a0880135915060c0880135905092959891949750929550565b60008060408385031215611cd057600080fd5b8235611cdb81611b27565b91506020830135611ceb81611b27565b809150509250929050565b60008060408385031215611d0957600080fd5b8235611d1481611b27565b9150602083013563ffffffff81168114611ceb57600080fd5b600181811c90821680611d4157607f821691505b6020821081141561131f57634e487b7160e01b600052602260045260246000fd5b634e487b7160e01b600052601160045260246000fd5b60008219821115611d8b57611d8b611d62565b500190565b600060208284031215611da257600080fd5b81516105c781611b27565b600082821015611dbf57611dbf611d62565b500390565b634e487b7160e01b600052603260045260246000fd5b600082611df757634e487b7160e01b600052601260045260246000fd5b500490565b634e487b7160e01b600052602160045260246000fdfea26469706673582212204a8f92ef4944817f58ff24eb414afa85f89b50577efb41b43a21bcc7c3c48e8364736f6c634300080a0033",
    "linkReferences": {}
  }
}