{
  "abi": [
    {
      "inputs": [
        {
          "internalType": "contract ISanctis",
          "name": "newSanctis",
          "type": "address"
        }
      ],
      "stateMutability": "nonpayable",
      "type": "constructor"
    },
    {
      "anonymous": false,
      "inputs": [
        {
          "indexed": false,
          "internalType": "uint256",
          "name": "fleet",
          "type": "uint256"
        },
        {
          "indexed": false,
          "internalType": "uint256",
          "name": "from",
          "type": "uint256"
        },
        {
          "indexed": false,
          "internalType": "uint256",
          "name": "to",
          "type": "uint256"
        },
        {
          "indexed": false,
          "internalType": "uint256",
          "name": "status",
          "type": "uint256"
        }
      ],
      "name": "Moved",
      "type": "event"
    },
    {
      "inputs": [
        {
          "internalType": "uint256",
          "name": "fleetId",
          "type": "uint256"
        },
        {
          "internalType": "contract IShip",
          "name": "ship",
          "type": "address"
        },
        {
          "internalType": "uint256",
          "name": "amount",
          "type": "uint256"
        }
      ],
      "name": "addToFleet",
      "outputs": [],
      "stateMutability": "nonpayable",
      "type": "function"
    },
    {
      "inputs": [
        {
          "internalType": "uint256",
          "name": "fleetId",
          "type": "uint256"
        },
        {
          "internalType": "contract IResource",
          "name": "resource",
          "type": "address"
        },
        {
          "internalType": "uint256",
          "name": "amount",
          "type": "uint256"
        }
      ],
      "name": "allowedLoad",
      "outputs": [],
      "stateMutability": "nonpayable",
      "type": "function"
    },
    {
      "inputs": [
        {
          "internalType": "uint256",
          "name": "fleetId",
          "type": "uint256"
        },
        {
          "internalType": "contract IResource",
          "name": "resource",
          "type": "address"
        },
        {
          "internalType": "uint256",
          "name": "amount",
          "type": "uint256"
        }
      ],
      "name": "allowedUnload",
      "outputs": [],
      "stateMutability": "nonpayable",
      "type": "function"
    },
    {
      "inputs": [
        {
          "internalType": "contract ISanctis",
          "name": "newSanctis",
          "type": "address"
        }
      ],
      "name": "changeSanctis",
      "outputs": [],
      "stateMutability": "nonpayable",
      "type": "function"
    },
    {
      "inputs": [
        {
          "internalType": "uint256",
          "name": "commanderId",
          "type": "uint256"
        },
        {
          "internalType": "uint256",
          "name": "planetId",
          "type": "uint256"
        }
      ],
      "name": "createFleet",
      "outputs": [],
      "stateMutability": "nonpayable",
      "type": "function"
    },
    {
      "inputs": [
        {
          "internalType": "uint256",
          "name": "fleetId",
          "type": "uint256"
        }
      ],
      "name": "fleet",
      "outputs": [
        {
          "components": [
            {
              "internalType": "uint256",
              "name": "commander",
              "type": "uint256"
            },
            {
              "internalType": "uint256",
              "name": "fromPlanetId",
              "type": "uint256"
            },
            {
              "internalType": "uint256",
              "name": "toPlanetId",
              "type": "uint256"
            },
            {
              "internalType": "uint256",
              "name": "totalSpeed",
              "type": "uint256"
            },
            {
              "internalType": "uint256",
              "name": "totalOffensivePower",
              "type": "uint256"
            },
            {
              "internalType": "uint256",
              "name": "totalDefensivePower",
              "type": "uint256"
            },
            {
              "internalType": "uint256",
              "name": "capacity",
              "type": "uint256"
            },
            {
              "internalType": "uint256",
              "name": "ships",
              "type": "uint256"
            },
            {
              "internalType": "uint256",
              "name": "arrivalBlock",
              "type": "uint256"
            },
            {
              "internalType": "uint256",
              "name": "status",
              "type": "uint256"
            }
          ],
          "internalType": "struct IFleets.Fleet",
          "name": "",
          "type": "tuple"
        }
      ],
      "stateMutability": "view",
      "type": "function"
    },
    {
      "inputs": [
        {
          "internalType": "uint256",
          "name": "planetId",
          "type": "uint256"
        },
        {
          "internalType": "uint256",
          "name": "index",
          "type": "uint256"
        }
      ],
      "name": "fleetOnPlanetByIndex",
      "outputs": [
        {
          "internalType": "uint256",
          "name": "",
          "type": "uint256"
        }
      ],
      "stateMutability": "view",
      "type": "function"
    },
    {
      "inputs": [
        {
          "internalType": "uint256",
          "name": "planetId",
          "type": "uint256"
        }
      ],
      "name": "fleetsOnPlanet",
      "outputs": [
        {
          "internalType": "uint256",
          "name": "",
          "type": "uint256"
        }
      ],
      "stateMutability": "view",
      "type": "function"
    },
    {
      "inputs": [],
      "name": "key",
      "outputs": [
        {
          "internalType": "bytes32",
          "name": "",
          "type": "bytes32"
        }
      ],
      "stateMutability": "view",
      "type": "function"
    },
    {
      "inputs": [
        {
          "internalType": "uint256",
          "name": "fleetId",
          "type": "uint256"
        }
      ],
      "name": "land",
      "outputs": [],
      "stateMutability": "nonpayable",
      "type": "function"
    },
    {
      "inputs": [
        {
          "internalType": "uint256",
          "name": "fleetId",
          "type": "uint256"
        },
        {
          "internalType": "contract IResource",
          "name": "resource",
          "type": "address"
        },
        {
          "internalType": "uint256",
          "name": "amount",
          "type": "uint256"
        }
      ],
      "name": "load",
      "outputs": [],
      "stateMutability": "nonpayable",
      "type": "function"
    },
    {
      "inputs": [
        {
          "internalType": "uint256",
          "name": "fleetId",
          "type": "uint256"
        },
        {
          "internalType": "uint256",
          "name": "toPlanetId",
          "type": "uint256"
        }
      ],
      "name": "moveFleet",
      "outputs": [],
      "stateMutability": "nonpayable",
      "type": "function"
    },
    {
      "inputs": [
        {
          "internalType": "uint256",
          "name": "planetId",
          "type": "uint256"
        }
      ],
      "name": "planet",
      "outputs": [
        {
          "internalType": "uint256",
          "name": "",
          "type": "uint256"
        },
        {
          "internalType": "uint256",
          "name": "",
          "type": "uint256"
        }
      ],
      "stateMutability": "view",
      "type": "function"
    },
    {
      "inputs": [
        {
          "internalType": "uint256",
          "name": "fleetId",
          "type": "uint256"
        }
      ],
      "name": "putInOrbit",
      "outputs": [],
      "stateMutability": "nonpayable",
      "type": "function"
    },
    {
      "inputs": [
        {
          "internalType": "uint256",
          "name": "fleetId",
          "type": "uint256"
        },
        {
          "internalType": "contract IShip",
          "name": "ship",
          "type": "address"
        },
        {
          "internalType": "uint256",
          "name": "amount",
          "type": "uint256"
        }
      ],
      "name": "removeFromFleet",
      "outputs": [],
      "stateMutability": "nonpayable",
      "type": "function"
    },
    {
      "inputs": [
        {
          "internalType": "contract IResource",
          "name": "resource",
          "type": "address"
        },
        {
          "internalType": "uint256",
          "name": "fleetId",
          "type": "uint256"
        }
      ],
      "name": "resourceInFleet",
      "outputs": [
        {
          "internalType": "uint256",
          "name": "",
          "type": "uint256"
        }
      ],
      "stateMutability": "view",
      "type": "function"
    },
    {
      "inputs": [],
      "name": "s_sanctis",
      "outputs": [
        {
          "internalType": "contract ISanctis",
          "name": "",
          "type": "address"
        }
      ],
      "stateMutability": "view",
      "type": "function"
    },
    {
      "inputs": [],
      "name": "sanctis",
      "outputs": [
        {
          "internalType": "contract ISanctis",
          "name": "",
          "type": "address"
        }
      ],
      "stateMutability": "view",
      "type": "function"
    },
    {
      "inputs": [
        {
          "internalType": "uint256",
          "name": "fleetId",
          "type": "uint256"
        },
        {
          "components": [
            {
              "internalType": "uint256",
              "name": "commander",
              "type": "uint256"
            },
            {
              "internalType": "uint256",
              "name": "fromPlanetId",
              "type": "uint256"
            },
            {
              "internalType": "uint256",
              "name": "toPlanetId",
              "type": "uint256"
            },
            {
              "internalType": "uint256",
              "name": "totalSpeed",
              "type": "uint256"
            },
            {
              "internalType": "uint256",
              "name": "totalOffensivePower",
              "type": "uint256"
            },
            {
              "internalType": "uint256",
              "name": "totalDefensivePower",
              "type": "uint256"
            },
            {
              "internalType": "uint256",
              "name": "capacity",
              "type": "uint256"
            },
            {
              "internalType": "uint256",
              "name": "ships",
              "type": "uint256"
            },
            {
              "internalType": "uint256",
              "name": "arrivalBlock",
              "type": "uint256"
            },
            {
              "internalType": "uint256",
              "name": "status",
              "type": "uint256"
            }
          ],
          "internalType": "struct IFleets.Fleet",
          "name": "newFleet",
          "type": "tuple"
        }
      ],
      "name": "setFleet",
      "outputs": [],
      "stateMutability": "nonpayable",
      "type": "function"
    },
    {
      "inputs": [
        {
          "internalType": "uint256",
          "name": "fleetId",
          "type": "uint256"
        }
      ],
      "name": "settleFleet",
      "outputs": [],
      "stateMutability": "nonpayable",
      "type": "function"
    },
    {
      "inputs": [
        {
          "internalType": "contract IShip",
          "name": "ship",
          "type": "address"
        },
        {
          "internalType": "uint256",
          "name": "fleetId",
          "type": "uint256"
        }
      ],
      "name": "shipsInFleet",
      "outputs": [
        {
          "internalType": "uint256",
          "name": "",
          "type": "uint256"
        }
      ],
      "stateMutability": "view",
      "type": "function"
    },
    {
      "inputs": [
        {
          "internalType": "uint256",
          "name": "fleetId",
          "type": "uint256"
        },
        {
          "internalType": "contract IResource",
          "name": "resource",
          "type": "address"
        },
        {
          "internalType": "uint256",
          "name": "amount",
          "type": "uint256"
        }
      ],
      "name": "unload",
      "outputs": [],
      "stateMutability": "nonpayable",
      "type": "function"
    }
  ],
  "bytecode": {
    "object": "0x60806040523480156200001157600080fd5b506040516200340a3803806200340a833981016040819052620000349162000067565b600080546001600160a01b0319166001600160a01b039290921691909117905565464c4545545360d01b60015562000099565b6000602082840312156200007a57600080fd5b81516001600160a01b03811681146200009257600080fd5b9392505050565b61336180620000a96000396000f3fe608060405234801561001057600080fd5b50600436106101825760003560e01c8063861e4656116100d8578063bed660bc1161008c578063f5d9eafa11610066578063f5d9eafa14610429578063f8606e621461043c578063fce1ffe61461044f57600080fd5b8063bed660bc146103c0578063bf206e4514610403578063dbbd07351461041657600080fd5b80639b80fbf1116100bd5780639b80fbf114610387578063a090658c1461039a578063a0e0f099146103ad57600080fd5b8063861e4656146103545780639797efda1461036757600080fd5b80632b4070e31161013a5780635087883f116101145780635087883f146102885780637419e9a2146102b5578063755677b91461034157600080fd5b80632b4070e31461025a5780633943380c1461026d57806345e140661461027557600080fd5b80630f0cec7c1161016b5780630f0cec7c146101af57806312f41e15146101d5578063181c1bc41461021857600080fd5b806302e7a998146101875780630a2055a81461019c575b600080fd5b61019a610195366004612ea6565b610462565b005b61019a6101aa366004612ea6565b610621565b6101c26101bd366004612ede565b610c0f565b6040519081526020015b60405180910390f35b6101c26101e3366004612f00565b73ffffffffffffffffffffffffffffffffffffffff919091166000908152600860209081526040808320938352929052205490565b610245610226366004612f2c565b6000908152600560209081526040808320546006909252909120549091565b604080519283526020830191909152016101cc565b6101c2610268366004612f2c565b610c30565b6001546101c2565b61019a610283366004612f2c565b610c47565b610290610edc565b60405173ffffffffffffffffffffffffffffffffffffffff90911681526020016101cc565b6102c86102c3366004612f2c565b61100a565b6040516101cc9190600061014082019050825182526020830151602083015260408301516040830152606083015160608301526080830151608083015260a083015160a083015260c083015160c083015260e083015160e083015261010080840151818401525061012080840151818401525092915050565b61019a61034f366004612ea6565b6110e3565b61019a610362366004612f2c565b611273565b6000546102909073ffffffffffffffffffffffffffffffffffffffff1681565b61019a610395366004612ea6565b611492565b61019a6103a8366004612f2c565b611a4c565b61019a6103bb366004612ea6565b611c2e565b6101c26103ce366004612f00565b73ffffffffffffffffffffffffffffffffffffffff919091166000908152600760209081526040808320938352929052205490565b61019a610411366004612f45565b611d26565b61019a610424366004612ede565b611e7d565b61019a610437366004612ede565b61236e565b61019a61044a366004612fba565b6126ff565b61019a61045d366004612ea6565b612868565b60008381526003602052604090205461047b9033612960565b60008381526003602052604090206009015415806104aa57506000838152600360205260409020600901546001145b610515576040517f08c379a000000000000000000000000000000000000000000000000000000000815260206004820152600e60248201527f466c656574733a2053746174757300000000000000000000000000000000000060448201526064015b60405180910390fd5b600083815260036020526040812060060180548392906105369084906130ae565b909155505073ffffffffffffffffffffffffffffffffffffffff821660009081526007602090815260408083208684529091528120805483929061057b9084906130c6565b9091555050600083815260036020526040908190206001015490517f1b2ef1ca00000000000000000000000000000000000000000000000000000000815260048101919091526024810182905273ffffffffffffffffffffffffffffffffffffffff831690631b2ef1ca906044015b600060405180830381600087803b15801561060457600080fd5b505af1158015610618573d6000803e3d6000fd5b50505050505050565b6000838152600360208181526040808420815161014081018352815480825260018301548286015260028301549382019390935281850154606082015260048201546080820152600582015460a0820152600682015460c0820152600782015460e08201526008820154610100820152600990910154610120820152938790529190526106ae9033612960565b6106b784612b15565b61012081015115610724576040517f08c379a000000000000000000000000000000000000000000000000000000000815260206004820152600e60248201527f466c656574733a20537461747573000000000000000000000000000000000000604482015260640161050c565b8273ffffffffffffffffffffffffffffffffffffffff1663c20906ac6040518163ffffffff1660e01b8152600401602060405180830381865afa15801561076f573d6000803e3d6000fd5b505050506040513d601f19601f8201168201806040525081019061079391906130dd565b61079d90836130f6565b816060018181516107ae91906130c6565b915081815250508273ffffffffffffffffffffffffffffffffffffffff1663ec2799826040518163ffffffff1660e01b8152600401602060405180830381865afa158015610800573d6000803e3d6000fd5b505050506040513d601f19601f8201168201806040525081019061082491906130dd565b61082e90836130f6565b8160800181815161083f91906130c6565b915081815250508273ffffffffffffffffffffffffffffffffffffffff1663ec2799826040518163ffffffff1660e01b8152600401602060405180830381865afa158015610891573d6000803e3d6000fd5b505050506040513d601f19601f820116820180604052508101906108b591906130dd565b6108bf90836130f6565b600560008360200151815260200190815260200160002060008282546108e591906130c6565b925050819055508273ffffffffffffffffffffffffffffffffffffffff1663ffcc977d6040518163ffffffff1660e01b8152600401602060405180830381865afa158015610937573d6000803e3d6000fd5b505050506040513d601f19601f8201168201806040525081019061095b91906130dd565b61096590836130f6565b8160a00181815161097691906130c6565b915081815250508273ffffffffffffffffffffffffffffffffffffffff1663ffcc977d6040518163ffffffff1660e01b8152600401602060405180830381865afa1580156109c8573d6000803e3d6000fd5b505050506040513d601f19601f820116820180604052508101906109ec91906130dd565b6109f690836130f6565b60066000836020015181526020019081526020016000206000828254610a1c91906130c6565b925050819055508273ffffffffffffffffffffffffffffffffffffffff16635cfc1a516040518163ffffffff1660e01b8152600401602060405180830381865afa158015610a6e573d6000803e3d6000fd5b505050506040513d601f19601f82011682018060405250810190610a9291906130dd565b610a9c90836130f6565b8160c001818151610aad91906130c6565b90525060e081018051839190610ac49083906130c6565b9052506000848152600360208181526040808420855181558286015160018201558186015160028201556060860151938101939093556080850151600484015560a0850151600584015560c0850151600684015560e0850151600784015561010085015160088085019190915561012086015160099094019390935573ffffffffffffffffffffffffffffffffffffffff87168452918152818320878452905281208054849290610b769084906130c6565b909155505060208101516040517f1b2ef1ca00000000000000000000000000000000000000000000000000000000815260048101919091526024810183905273ffffffffffffffffffffffffffffffffffffffff841690631b2ef1ca906044015b600060405180830381600087803b158015610bf157600080fd5b505af1158015610c05573d6000803e3d6000fd5b5050505050505050565b6000828152600460205260408120610c279083612cea565b90505b92915050565b6000818152600460205260408120610c2a90612cf6565b6000818152600360208181526040808420815161014081018352815480825260018301548286015260028301549382019390935281850154606082015260048201546080820152600582015460a0820152600682015460c0820152600782015460e0820152600882015461010082015260099091015461012082015293859052919052610cd49033612960565b610cdd82612b15565b61012081015115610d4a576040517f08c379a000000000000000000000000000000000000000000000000000000000815260206004820152600e60248201527f466c656574733a20537461747573000000000000000000000000000000000000604482015260640161050c565b60008160e0015111610db8576040517f08c379a000000000000000000000000000000000000000000000000000000000815260206004820152601360248201527f466c656574733a20456d70747920666c65657400000000000000000000000000604482015260640161050c565b600161012082018181526000848152600360208181526040808420875181558288015196810187905581880151600282015560608801519381019390935560808701516004840181905560a088015160058086019190915560c0890151600686015560e089015160078601556101008901516008860155955160099094019390935594835292909252918220805491929091610e559084906130c6565b909155505060a081015160208083015160009081526006909152604081208054909190610e839084906130c6565b9091555050602081810151604080840151815186815293840192909252820152600160608201527f5e3428123447c999946b4eb1fc52841ddcadbb3dcf11ca6b42ccde0fe4eb0d7f906080015b60405180910390a15050565b60008054604080517f475853040000000000000000000000000000000000000000000000000000000081529051339273ffffffffffffffffffffffffffffffffffffffff169163475853049160048083019260209291908290030181865afa158015610f4c573d6000803e3d6000fd5b505050506040513d601f19601f82011682018060405250810190610f709190613133565b73ffffffffffffffffffffffffffffffffffffffff1614610fed576040517f08c379a000000000000000000000000000000000000000000000000000000000815260206004820152601060248201527f4d6f64756c653a204578656375746f7200000000000000000000000000000000604482015260640161050c565b5060005473ffffffffffffffffffffffffffffffffffffffff1690565b611060604051806101400160405280600081526020016000815260200160008152602001600081526020016000815260200160008152602001600081526020016000815260200160008152602001600081525090565b506000908152600360208181526040928390208351610140810185528154815260018201549281019290925260028101549382019390935290820154606082015260048201546080820152600582015460a0820152600682015460c0820152600782015460e0820152600882015461010082015260099091015461012082015290565b6000838152600360205260409020546110fc9033612960565b61110583612b15565b600083815260036020526040902060090154158061113457506000838152600360205260409020600901546001145b61119a576040517f08c379a000000000000000000000000000000000000000000000000000000000815260206004820152600e60248201527f466c656574733a20537461747573000000000000000000000000000000000000604482015260640161050c565b600083815260036020526040812060060180548392906111bb9084906130c6565b909155505073ffffffffffffffffffffffffffffffffffffffff82166000908152600760209081526040808320868452909152812080548392906112009084906130ae565b9091555050600083815260036020526040908190206001015490517fb390c0ab00000000000000000000000000000000000000000000000000000000815260048101919091526024810182905273ffffffffffffffffffffffffffffffffffffffff83169063b390c0ab906044016105ea565b6000818152600360208181526040808420815161014081018352815480825260018301548286015260028301549382019390935281850154606082015260048201546080820152600582015460a0820152600682015460c0820152600782015460e08201526008820154610100820152600990910154610120820152938590529190526113009033612960565b61130982612b15565b600181610120015114611378576040517f08c379a000000000000000000000000000000000000000000000000000000000815260206004820152600e60248201527f466c656574733a20537461747573000000000000000000000000000000000000604482015260640161050c565b6000610120820181815283825260036020818152604080852086518155828701516001820181905582880151600283015560608801519482019490945560808701516004820181905560a088015160058084019190915560c0890151600684015560e08901516007840155610100890151600884015595516009909201919091559285529290529082208054919290916114139084906130ae565b909155505060a0810151602080830151600090815260069091526040812080549091906114419084906130ae565b9091555050602081810151604080840151815186815293840192909252820152600060608201527f5e3428123447c999946b4eb1fc52841ddcadbb3dcf11ca6b42ccde0fe4eb0d7f90608001610ed0565b6000838152600360208181526040808420815161014081018352815480825260018301548286015260028301549382019390935281850154606082015260048201546080820152600582015460a0820152600682015460c0820152600782015460e082015260088201546101008201526009909101546101208201529387905291905261151f9033612960565b61152884612b15565b61012081015115611595576040517f08c379a000000000000000000000000000000000000000000000000000000000815260206004820152600e60248201527f466c656574733a20537461747573000000000000000000000000000000000000604482015260640161050c565b8273ffffffffffffffffffffffffffffffffffffffff1663c20906ac6040518163ffffffff1660e01b8152600401602060405180830381865afa1580156115e0573d6000803e3d6000fd5b505050506040513d601f19601f8201168201806040525081019061160491906130dd565b61160e90836130f6565b8160600181815161161f91906130ae565b915081815250508273ffffffffffffffffffffffffffffffffffffffff1663ec2799826040518163ffffffff1660e01b8152600401602060405180830381865afa158015611671573d6000803e3d6000fd5b505050506040513d601f19601f8201168201806040525081019061169591906130dd565b61169f90836130f6565b816080018181516116b091906130ae565b915081815250508273ffffffffffffffffffffffffffffffffffffffff1663ec2799826040518163ffffffff1660e01b8152600401602060405180830381865afa158015611702573d6000803e3d6000fd5b505050506040513d601f19601f8201168201806040525081019061172691906130dd565b61173090836130f6565b6005600083602001518152602001908152602001600020600082825461175691906130ae565b925050819055508273ffffffffffffffffffffffffffffffffffffffff1663ffcc977d6040518163ffffffff1660e01b8152600401602060405180830381865afa1580156117a8573d6000803e3d6000fd5b505050506040513d601f19601f820116820180604052508101906117cc91906130dd565b6117d690836130f6565b8160a0018181516117e791906130ae565b915081815250508273ffffffffffffffffffffffffffffffffffffffff1663ffcc977d6040518163ffffffff1660e01b8152600401602060405180830381865afa158015611839573d6000803e3d6000fd5b505050506040513d601f19601f8201168201806040525081019061185d91906130dd565b61186790836130f6565b6006600083602001518152602001908152602001600020600082825461188d91906130ae565b925050819055508273ffffffffffffffffffffffffffffffffffffffff16635cfc1a516040518163ffffffff1660e01b8152600401602060405180830381865afa1580156118df573d6000803e3d6000fd5b505050506040513d601f19601f8201168201806040525081019061190391906130dd565b61190d90836130f6565b8160c00181815161191e91906130ae565b90525060e0810180518391906119359083906130ae565b9052506000848152600360208181526040808420855181558286015160018201558186015160028201556060860151938101939093556080850151600484015560a0850151600584015560c0850151600684015560e0850151600784015561010085015160088085019190915561012086015160099094019390935573ffffffffffffffffffffffffffffffffffffffff871684529181528183208784529052812080548492906119e79084906130ae565b909155505060208101516040517fb390c0ab00000000000000000000000000000000000000000000000000000000815260048101919091526024810183905273ffffffffffffffffffffffffffffffffffffffff84169063b390c0ab90604401610bd7565b600081815260036020818152604092839020835161014081018552815481526001820154928101929092526002808201549483019490945291820154606082015260048201546080820152600582015460a0820152600682015460c0820152600782015460e0820152600882015461010082015260099091015461012082018190529091148015611ae257504381610100015111155b611b48576040517f08c379a000000000000000000000000000000000000000000000000000000000815260206004820152601360248201527f466c656574733a204e6f74206172726976656400000000000000000000000000604482015260640161050c565b600161012082018181526040808401805160208087019182526000888152600380835285822089518155935197840188905593516002840155606088015193830193909355608087015160048084019190915560a0880151600584015560c0880151600684015560e08801516007840155610100880151600884015594516009909201919091559381529190925220611be19083612d00565b50602080820151604080840151815186815293840192909252820152600160608201527f5e3428123447c999946b4eb1fc52841ddcadbb3dcf11ca6b42ccde0fe4eb0d7f90608001610ed0565b6000546040517fd63a8e1100000000000000000000000000000000000000000000000000000000815233600482015273ffffffffffffffffffffffffffffffffffffffff9091169063d63a8e1190602401602060405180830381865afa158015611c9c573d6000803e3d6000fd5b505050506040513d601f19601f82011682018060405250810190611cc09190613150565b61119a576040517f08c379a000000000000000000000000000000000000000000000000000000000815260206004820152600f60248201527f4d6f64756c653a20416c6c6f7765640000000000000000000000000000000000604482015260640161050c565b600054604080517f475853040000000000000000000000000000000000000000000000000000000081529051339273ffffffffffffffffffffffffffffffffffffffff169163475853049160048083019260209291908290030181865afa158015611d95573d6000803e3d6000fd5b505050506040513d601f19601f82011682018060405250810190611db99190613133565b73ffffffffffffffffffffffffffffffffffffffff1614611e36576040517f08c379a000000000000000000000000000000000000000000000000000000000815260206004820152601060248201527f4d6f64756c653a204578656375746f7200000000000000000000000000000000604482015260640161050c565b600080547fffffffffffffffffffffffff00000000000000000000000000000000000000001673ffffffffffffffffffffffffffffffffffffffff92909216919091179055565b6000828152600360208181526040808420815161014081018352815480825260018301548286015260028301549382019390935281850154606082015260048201546080820152600582015460a0820152600682015460c0820152600782015460e0820152600882015461010082015260099091015461012082015293869052919052611f0a9033612960565b600181610120015114611f79576040517f08c379a000000000000000000000000000000000000000000000000000000000815260206004820152600e60248201527f466c656574733a20537461747573000000000000000000000000000000000000604482015260640161050c565b600080546040517f8a5cde0a0000000000000000000000000000000000000000000000000000000081527f504c414e45545300000000000000000000000000000000000000000000000000600482015273ffffffffffffffffffffffffffffffffffffffff90911690638a5cde0a90602401602060405180830381865afa158015612008573d6000803e3d6000fd5b505050506040513d601f19601f8201168201806040525081019061202c9190613133565b73ffffffffffffffffffffffffffffffffffffffff1663181c1bc4846040518263ffffffff1660e01b815260040161206691815260200190565b60c060405180830381865afa158015612083573d6000803e3d6000fd5b505050506040513d601f19601f820116820180604052508101906120a7919061319a565b60a081015190915060ff16612118576040517f08c379a000000000000000000000000000000000000000000000000000000000815260206004820152600e60248201527f466c656574733a20506c616e6574000000000000000000000000000000000000604482015260640161050c565b60026101208301526040820183905260e0820151606083015161213b9190613259565b6000546040517f8a5cde0a0000000000000000000000000000000000000000000000000000000081527f504c414e45545300000000000000000000000000000000000000000000000000600482015273ffffffffffffffffffffffffffffffffffffffff90911690638a5cde0a90602401602060405180830381865afa1580156121c9573d6000803e3d6000fd5b505050506040513d601f19601f820116820180604052508101906121ed9190613133565b73ffffffffffffffffffffffffffffffffffffffff1663ce89f0638460200151866040518363ffffffff1660e01b8152600401612234929190918252602082015260400190565b602060405180830381865afa158015612251573d6000803e3d6000fd5b505050506040513d601f19601f8201168201806040525081019061227591906130dd565b61227f9190613259565b61228990436130ae565b61010083019081526000858152600360208181526040808420875181558288015160018201819055828901516002830155606089015194820194909455608088015160048083019190915560a0890151600583015560c0890151600683015560e089015160078301559551600882015561012088015160099091015591835292909252206123179085612d0c565b50602080830151604080850151815188815293840192909252820152600260608201527f5e3428123447c999946b4eb1fc52841ddcadbb3dcf11ca6b42ccde0fe4eb0d7f906080015b60405180910390a150505050565b600280546000918261237f83613294565b90915550600081815260036020818152604092839020835161014081018552815480825260018301549382019390935260028201549481019490945291820154606084015260048201546080840152600582015460a0840152600682015460c0840152600782015460e08401526008820154610100840152600990910154610120830152919250901561246e576040517f08c379a000000000000000000000000000000000000000000000000000000000815260206004820152600e60248201527f466c656574733a20457869737473000000000000000000000000000000000000604482015260640161050c565b6000546040517f8a5cde0a0000000000000000000000000000000000000000000000000000000081527f504c414e455453000000000000000000000000000000000000000000000000006004820152859173ffffffffffffffffffffffffffffffffffffffff1690638a5cde0a90602401602060405180830381865afa1580156124fc573d6000803e3d6000fd5b505050506040513d601f19601f820116820180604052508101906125209190613133565b73ffffffffffffffffffffffffffffffffffffffff1663181c1bc4856040518263ffffffff1660e01b815260040161255a91815260200190565b60c060405180830381865afa158015612577573d6000803e3d6000fd5b505050506040513d601f19601f8201168201806040525081019061259b919061319a565b5114612603576040517f08c379a000000000000000000000000000000000000000000000000000000000815260206004820152601460248201527f466c656574733a20506c616e65742072756c6572000000000000000000000000604482015260640161050c565b838152602080820184815260408084018681526000606086018181526080870182815260a0880183815260c0890184815260e08a018581526101008b018681526101208c018781528d88526003808d528a89208e5181559b5160018d0155985160028c01559551978a019790975592516004808a019190915591516005890155516006880155905160078701559251600886015551600990940193909355868352909252206126b29083612d00565b50602080820151604080840151815186815293840192909252820152600060608201527f5e3428123447c999946b4eb1fc52841ddcadbb3dcf11ca6b42ccde0fe4eb0d7f90608001612360565b6000546040517fd63a8e1100000000000000000000000000000000000000000000000000000000815233600482015273ffffffffffffffffffffffffffffffffffffffff9091169063d63a8e1190602401602060405180830381865afa15801561276d573d6000803e3d6000fd5b505050506040513d601f19601f820116820180604052508101906127919190613150565b6127f7576040517f08c379a000000000000000000000000000000000000000000000000000000000815260206004820152600f60248201527f4d6f64756c653a20416c6c6f7765640000000000000000000000000000000000604482015260640161050c565b600091825260036020818152604093849020835181559083015160018201559282015160028401556060820151908301556080810151600483015560a0810151600583015560c0810151600683015560e0810151600783015561010081015160088301556101200151600990910155565b6000546040517fd63a8e1100000000000000000000000000000000000000000000000000000000815233600482015273ffffffffffffffffffffffffffffffffffffffff9091169063d63a8e1190602401602060405180830381865afa1580156128d6573d6000803e3d6000fd5b505050506040513d601f19601f820116820180604052508101906128fa9190613150565b610515576040517f08c379a000000000000000000000000000000000000000000000000000000000815260206004820152600f60248201527f4d6f64756c653a20416c6c6f7765640000000000000000000000000000000000604482015260640161050c565b6000546040517f8a5cde0a0000000000000000000000000000000000000000000000000000000081527f434f4d4d414e4445525300000000000000000000000000000000000000000000600482015273ffffffffffffffffffffffffffffffffffffffff90911690638a5cde0a90602401602060405180830381865afa1580156129ee573d6000803e3d6000fd5b505050506040513d601f19601f82011682018060405250810190612a129190613133565b6040517f2a16cca400000000000000000000000000000000000000000000000000000000815273ffffffffffffffffffffffffffffffffffffffff8381166004830152602482018590529190911690632a16cca490604401602060405180830381865afa158015612a87573d6000803e3d6000fd5b505050506040513d601f19601f82011682018060405250810190612aab9190613150565b612b11576040517f08c379a000000000000000000000000000000000000000000000000000000000815260206004820152601160248201527f466c656574733a20436f6d6d616e646572000000000000000000000000000000604482015260640161050c565b5050565b60008181526003602052604080822054915490517f8a5cde0a0000000000000000000000000000000000000000000000000000000081527f504c414e45545300000000000000000000000000000000000000000000000000600482015273ffffffffffffffffffffffffffffffffffffffff90911690638a5cde0a90602401602060405180830381865afa158015612bb1573d6000803e3d6000fd5b505050506040513d601f19601f82011682018060405250810190612bd59190613133565b600083815260036020526040908190206001015490517f181c1bc400000000000000000000000000000000000000000000000000000000815273ffffffffffffffffffffffffffffffffffffffff929092169163181c1bc491612c3e9160040190815260200190565b60c060405180830381865afa158015612c5b573d6000803e3d6000fd5b505050506040513d601f19601f82011682018060405250810190612c7f919061319a565b5114612ce7576040517f08c379a000000000000000000000000000000000000000000000000000000000815260206004820152601060248201527f466c656574733a20417070726f76656400000000000000000000000000000000604482015260640161050c565b50565b6000610c278383612d18565b6000610c2a825490565b6000610c278383612d42565b6000610c278383612d91565b6000826000018281548110612d2f57612d2f6132cd565b9060005260206000200154905092915050565b6000818152600183016020526040812054612d8957508154600181810184556000848152602080822090930184905584548482528286019093526040902091909155610c2a565b506000610c2a565b60008181526001830160205260408120548015612e7a576000612db56001836130c6565b8554909150600090612dc9906001906130c6565b9050818114612e2e576000866000018281548110612de957612de96132cd565b9060005260206000200154905080876000018481548110612e0c57612e0c6132cd565b6000918252602080832090910192909255918252600188019052604090208390555b8554869080612e3f57612e3f6132fc565b600190038181906000526020600020016000905590558560010160008681526020019081526020016000206000905560019350505050610c2a565b6000915050610c2a565b73ffffffffffffffffffffffffffffffffffffffff81168114612ce757600080fd5b600080600060608486031215612ebb57600080fd5b833592506020840135612ecd81612e84565b929592945050506040919091013590565b60008060408385031215612ef157600080fd5b50508035926020909101359150565b60008060408385031215612f1357600080fd5b8235612f1e81612e84565b946020939093013593505050565b600060208284031215612f3e57600080fd5b5035919050565b600060208284031215612f5757600080fd5b8135612f6281612e84565b9392505050565b604051610140810167ffffffffffffffff81118282101715612fb4577f4e487b7100000000000000000000000000000000000000000000000000000000600052604160045260246000fd5b60405290565b600080828403610160811215612fcf57600080fd5b83359250610140807fffffffffffffffffffffffffffffffffffffffffffffffffffffffffffffffe08301121561300557600080fd5b61300d612f69565b91506020850135825260408501356020830152606085013560408301526080850135606083015260a0850135608083015260c085013560a083015260e085013560c08301526101008086013560e084015261012080870135828501528287013581850152505050809150509250929050565b7f4e487b7100000000000000000000000000000000000000000000000000000000600052601160045260246000fd5b600082198211156130c1576130c161307f565b500190565b6000828210156130d8576130d861307f565b500390565b6000602082840312156130ef57600080fd5b5051919050565b6000817fffffffffffffffffffffffffffffffffffffffffffffffffffffffffffffffff048311821515161561312e5761312e61307f565b500290565b60006020828403121561314557600080fd5b8151612f6281612e84565b60006020828403121561316257600080fd5b81518015158114612f6257600080fd5b8051600981900b811461318457600080fd5b919050565b805160ff8116811461318457600080fd5b600060c082840312156131ac57600080fd5b60405160c0810181811067ffffffffffffffff821117156131f6577f4e487b7100000000000000000000000000000000000000000000000000000000600052604160045260246000fd5b6040528251815261320960208401613172565b602082015261321a60408401613172565b604082015261322b60608401613172565b606082015261323c60808401613189565b608082015261324d60a08401613189565b60a08201529392505050565b60008261328f577f4e487b7100000000000000000000000000000000000000000000000000000000600052601260045260246000fd5b500490565b60007fffffffffffffffffffffffffffffffffffffffffffffffffffffffffffffffff8214156132c6576132c661307f565b5060010190565b7f4e487b7100000000000000000000000000000000000000000000000000000000600052603260045260246000fd5b7f4e487b7100000000000000000000000000000000000000000000000000000000600052603160045260246000fdfea264697066735822122068335938d5e36276fe4abcc9536a61e3f3756a36336b8b033371fa490b38a7a564736f6c634300080a0033",
    "linkReferences": {}
  }
}