{
  "abi": [
    {
      "inputs": [
        {
          "internalType": "contract ISanctis",
          "name": "newSanctis",
          "type": "address"
        },
        {
          "internalType": "uint256",
          "name": "plunderPeriod_",
          "type": "uint256"
        },
        {
          "internalType": "uint256",
          "name": "plunderRate_",
          "type": "uint256"
        }
      ],
      "stateMutability": "nonpayable",
      "type": "constructor"
    },
    {
      "inputs": [
        {
          "internalType": "uint256",
          "name": "fleetId",
          "type": "uint256"
        }
      ],
      "name": "AlreadyExists",
      "type": "error"
    },
    {
      "inputs": [
        {
          "internalType": "uint256",
          "name": "fleetId",
          "type": "uint256"
        }
      ],
      "name": "AlreadyMoving",
      "type": "error"
    },
    {
      "inputs": [
        {
          "internalType": "uint256",
          "name": "fleetId",
          "type": "uint256"
        }
      ],
      "name": "EmptyFleet",
      "type": "error"
    },
    {
      "inputs": [
        {
          "internalType": "uint256",
          "name": "fleetId",
          "type": "uint256"
        }
      ],
      "name": "FleetTooWeak",
      "type": "error"
    },
    {
      "inputs": [
        {
          "internalType": "uint256",
          "name": "fleetId",
          "type": "uint256"
        },
        {
          "internalType": "enum IFleets.FleetStatus",
          "name": "status",
          "type": "uint8"
        }
      ],
      "name": "InvalidFleetStatus",
      "type": "error"
    },
    {
      "inputs": [
        {
          "internalType": "uint256",
          "name": "planet",
          "type": "uint256"
        }
      ],
      "name": "InvalidPlanet",
      "type": "error"
    },
    {
      "inputs": [
        {
          "internalType": "address",
          "name": "sender",
          "type": "address"
        }
      ],
      "name": "NotAllowed",
      "type": "error"
    },
    {
      "inputs": [
        {
          "internalType": "uint256",
          "name": "fleetId",
          "type": "uint256"
        }
      ],
      "name": "NotArrivedYet",
      "type": "error"
    },
    {
      "inputs": [
        {
          "internalType": "uint256",
          "name": "commanderId",
          "type": "uint256"
        }
      ],
      "name": "NotCommanderOwner",
      "type": "error"
    },
    {
      "inputs": [
        {
          "internalType": "uint256",
          "name": "fleetId",
          "type": "uint256"
        },
        {
          "internalType": "uint256",
          "name": "capacity",
          "type": "uint256"
        }
      ],
      "name": "NotEnoughCapacity",
      "type": "error"
    },
    {
      "inputs": [
        {
          "internalType": "uint256",
          "name": "commanderId",
          "type": "uint256"
        },
        {
          "internalType": "uint256",
          "name": "planetId",
          "type": "uint256"
        }
      ],
      "name": "NotRuler",
      "type": "error"
    },
    {
      "inputs": [
        {
          "internalType": "address",
          "name": "sender",
          "type": "address"
        }
      ],
      "name": "NotTheExecutor",
      "type": "error"
    },
    {
      "inputs": [
        {
          "internalType": "address",
          "name": "sender",
          "type": "address"
        }
      ],
      "name": "NotTheSanctis",
      "type": "error"
    },
    {
      "inputs": [
        {
          "internalType": "uint256",
          "name": "planetId",
          "type": "uint256"
        },
        {
          "internalType": "uint256",
          "name": "received",
          "type": "uint256"
        },
        {
          "internalType": "uint256",
          "name": "required",
          "type": "uint256"
        }
      ],
      "name": "PlanetTooWeak",
      "type": "error"
    },
    {
      "inputs": [
        {
          "internalType": "uint256",
          "name": "planetId",
          "type": "uint256"
        }
      ],
      "name": "PlunderingTooEarly",
      "type": "error"
    },
    {
      "inputs": [
        {
          "internalType": "uint256",
          "name": "fleetId",
          "type": "uint256"
        },
        {
          "internalType": "contract IShip",
          "name": "ship",
          "type": "address"
        },
        {
          "internalType": "uint256",
          "name": "amount",
          "type": "uint256"
        }
      ],
      "name": "addToFleet",
      "outputs": [],
      "stateMutability": "nonpayable",
      "type": "function"
    },
    {
      "inputs": [
        {
          "internalType": "contract ISanctis",
          "name": "newSanctis",
          "type": "address"
        }
      ],
      "name": "changeSanctis",
      "outputs": [],
      "stateMutability": "nonpayable",
      "type": "function"
    },
    {
      "inputs": [
        {
          "internalType": "uint256",
          "name": "fleetId",
          "type": "uint256"
        },
        {
          "internalType": "uint256",
          "name": "commanderId",
          "type": "uint256"
        },
        {
          "internalType": "uint256",
          "name": "planetId",
          "type": "uint256"
        }
      ],
      "name": "createFleet",
      "outputs": [],
      "stateMutability": "nonpayable",
      "type": "function"
    },
    {
      "inputs": [
        {
          "internalType": "uint256",
          "name": "planetId",
          "type": "uint256"
        },
        {
          "internalType": "uint256",
          "name": "fleetId",
          "type": "uint256"
        }
      ],
      "name": "defendPlanet",
      "outputs": [],
      "stateMutability": "nonpayable",
      "type": "function"
    },
    {
      "inputs": [
        {
          "internalType": "uint256",
          "name": "fleetId",
          "type": "uint256"
        }
      ],
      "name": "fleet",
      "outputs": [
        {
          "components": [
            {
              "internalType": "uint256",
              "name": "commander",
              "type": "uint256"
            },
            {
              "internalType": "uint256",
              "name": "fromPlanetId",
              "type": "uint256"
            },
            {
              "internalType": "uint256",
              "name": "toPlanetId",
              "type": "uint256"
            },
            {
              "internalType": "uint256",
              "name": "totalSpeed",
              "type": "uint256"
            },
            {
              "internalType": "uint256",
              "name": "totalOffensivePower",
              "type": "uint256"
            },
            {
              "internalType": "uint256",
              "name": "totalDefensivePower",
              "type": "uint256"
            },
            {
              "internalType": "uint256",
              "name": "capacity",
              "type": "uint256"
            },
            {
              "internalType": "uint256",
              "name": "ships",
              "type": "uint256"
            },
            {
              "internalType": "uint256",
              "name": "arrivalBlock",
              "type": "uint256"
            },
            {
              "internalType": "enum IFleets.FleetStatus",
              "name": "status",
              "type": "uint8"
            }
          ],
          "internalType": "struct IFleets.Fleet",
          "name": "",
          "type": "tuple"
        }
      ],
      "stateMutability": "view",
      "type": "function"
    },
    {
      "inputs": [],
      "name": "key",
      "outputs": [
        {
          "internalType": "string",
          "name": "",
          "type": "string"
        }
      ],
      "stateMutability": "view",
      "type": "function"
    },
    {
      "inputs": [
        {
          "internalType": "uint256",
          "name": "fleetId",
          "type": "uint256"
        }
      ],
      "name": "land",
      "outputs": [],
      "stateMutability": "nonpayable",
      "type": "function"
    },
    {
      "inputs": [
        {
          "internalType": "uint256",
          "name": "fleetId",
          "type": "uint256"
        },
        {
          "internalType": "contract IResource",
          "name": "resource",
          "type": "address"
        },
        {
          "internalType": "uint256",
          "name": "amount",
          "type": "uint256"
        }
      ],
      "name": "load",
      "outputs": [],
      "stateMutability": "nonpayable",
      "type": "function"
    },
    {
      "inputs": [
        {
          "internalType": "uint256",
          "name": "fleetId",
          "type": "uint256"
        },
        {
          "internalType": "uint256",
          "name": "toPlanetId",
          "type": "uint256"
        }
      ],
      "name": "moveFleet",
      "outputs": [],
      "stateMutability": "nonpayable",
      "type": "function"
    },
    {
      "inputs": [
        {
          "internalType": "uint256",
          "name": "planetId",
          "type": "uint256"
        }
      ],
      "name": "nextPlundering",
      "outputs": [
        {
          "internalType": "uint256",
          "name": "",
          "type": "uint256"
        }
      ],
      "stateMutability": "view",
      "type": "function"
    },
    {
      "inputs": [
        {
          "internalType": "uint256",
          "name": "fleetId",
          "type": "uint256"
        },
        {
          "internalType": "contract IResource",
          "name": "resource",
          "type": "address"
        }
      ],
      "name": "plunder",
      "outputs": [],
      "stateMutability": "nonpayable",
      "type": "function"
    },
    {
      "inputs": [],
      "name": "plunderPeriod",
      "outputs": [
        {
          "internalType": "uint256",
          "name": "",
          "type": "uint256"
        }
      ],
      "stateMutability": "view",
      "type": "function"
    },
    {
      "inputs": [],
      "name": "plunderRate",
      "outputs": [
        {
          "internalType": "uint256",
          "name": "",
          "type": "uint256"
        }
      ],
      "stateMutability": "view",
      "type": "function"
    },
    {
      "inputs": [
        {
          "internalType": "uint256",
          "name": "fleetId",
          "type": "uint256"
        }
      ],
      "name": "putInOrbit",
      "outputs": [],
      "stateMutability": "nonpayable",
      "type": "function"
    },
    {
      "inputs": [
        {
          "internalType": "uint256",
          "name": "fleetId",
          "type": "uint256"
        },
        {
          "internalType": "contract IShip",
          "name": "ship",
          "type": "address"
        },
        {
          "internalType": "uint256",
          "name": "amount",
          "type": "uint256"
        }
      ],
      "name": "removeFromFleet",
      "outputs": [],
      "stateMutability": "nonpayable",
      "type": "function"
    },
    {
      "inputs": [],
      "name": "sanctis",
      "outputs": [
        {
          "internalType": "contract ISanctis",
          "name": "",
          "type": "address"
        }
      ],
      "stateMutability": "view",
      "type": "function"
    },
    {
      "inputs": [
        {
          "internalType": "uint256",
          "name": "fleetId",
          "type": "uint256"
        },
        {
          "components": [
            {
              "internalType": "uint256",
              "name": "commander",
              "type": "uint256"
            },
            {
              "internalType": "uint256",
              "name": "fromPlanetId",
              "type": "uint256"
            },
            {
              "internalType": "uint256",
              "name": "toPlanetId",
              "type": "uint256"
            },
            {
              "internalType": "uint256",
              "name": "totalSpeed",
              "type": "uint256"
            },
            {
              "internalType": "uint256",
              "name": "totalOffensivePower",
              "type": "uint256"
            },
            {
              "internalType": "uint256",
              "name": "totalDefensivePower",
              "type": "uint256"
            },
            {
              "internalType": "uint256",
              "name": "capacity",
              "type": "uint256"
            },
            {
              "internalType": "uint256",
              "name": "ships",
              "type": "uint256"
            },
            {
              "internalType": "uint256",
              "name": "arrivalBlock",
              "type": "uint256"
            },
            {
              "internalType": "enum IFleets.FleetStatus",
              "name": "status",
              "type": "uint8"
            }
          ],
          "internalType": "struct IFleets.Fleet",
          "name": "newFleet",
          "type": "tuple"
        }
      ],
      "name": "setFleet",
      "outputs": [],
      "stateMutability": "nonpayable",
      "type": "function"
    },
    {
      "inputs": [
        {
          "internalType": "uint256",
          "name": "plunderPeriod_",
          "type": "uint256"
        },
        {
          "internalType": "uint256",
          "name": "plunderRate_",
          "type": "uint256"
        }
      ],
      "name": "setParameters",
      "outputs": [],
      "stateMutability": "nonpayable",
      "type": "function"
    },
    {
      "inputs": [
        {
          "internalType": "uint256",
          "name": "fleetId",
          "type": "uint256"
        }
      ],
      "name": "settleFleet",
      "outputs": [],
      "stateMutability": "nonpayable",
      "type": "function"
    },
    {
      "inputs": [
        {
          "internalType": "contract IShip",
          "name": "ship",
          "type": "address"
        },
        {
          "internalType": "uint256",
          "name": "fleetId",
          "type": "uint256"
        }
      ],
      "name": "shipsInFleet",
      "outputs": [
        {
          "internalType": "uint256",
          "name": "",
          "type": "uint256"
        }
      ],
      "stateMutability": "view",
      "type": "function"
    },
    {
      "inputs": [
        {
          "internalType": "uint256",
          "name": "fleetId",
          "type": "uint256"
        },
        {
          "internalType": "contract IResource",
          "name": "resource",
          "type": "address"
        },
        {
          "internalType": "uint256",
          "name": "amount",
          "type": "uint256"
        }
      ],
      "name": "unload",
      "outputs": [],
      "stateMutability": "nonpayable",
      "type": "function"
    }
  ],
  "bytecode": {
    "object": "0x60806040523480156200001157600080fd5b50604051620031d5380380620031d5833981016040819052620000349162000138565b60408051808201909152600680825265464c4545545360d01b60208301908152600080546001600160a01b0319166001600160a01b03881617905585916200007f9160019162000092565b50505060089190915560095550620001ba565b828054620000a0906200017d565b90600052602060002090601f016020900481019282620000c457600085556200010f565b82601f10620000df57805160ff19168380011785556200010f565b828001600101855582156200010f579182015b828111156200010f578251825591602001919060010190620000f2565b506200011d92915062000121565b5090565b5b808211156200011d576000815560010162000122565b6000806000606084860312156200014e57600080fd5b83516001600160a01b03811681146200016657600080fd5b602085015160409095015190969495509392505050565b600181811c908216806200019257607f821691505b60208210811415620001b457634e487b7160e01b600052602260045260246000fd5b50919050565b61300b80620001ca6000396000f3fe608060405234801561001057600080fd5b50600436106101375760003560e01c8063755677b9116100b8578063a090658c1161007c578063a090658c146102a2578063a3dc0ed3146102b5578063b51ea3a9146102c8578063bf206e45146102db578063c0fae821146102ee578063dbbd07351461030157600080fd5b8063755677b914610243578063861e465614610256578063884870c7146102695780639b80fbf11461027c578063a00be7151461028f57600080fd5b80635087883f116100ff5780635087883f146101d557806367effd47146102005780636eca3fe71461021357806372e233a61461021b5780637419e9a21461022357600080fd5b806302e7a9981461013c5780630a2055a81461015157806312f41e15146101645780633943380c146101ad57806345e14066146101c2575b600080fd5b61014f61014a366004612abf565b610314565b005b61014f61015f366004612abf565b6104f0565b61019a610172366004612af7565b6001600160a01b03919091166000908152600660209081526040808320938352929052205490565b6040519081526020015b60405180910390f35b6101b5610a9b565b6040516101a49190612b23565b61014f6101d0366004612b78565b610b2d565b6000546101e8906001600160a01b031681565b6040516001600160a01b0390911681526020016101a4565b61019a61020e366004612b78565b610d6d565b60085461019a565b60095461019a565b610236610231366004612b78565b610d90565b6040516101a49190612bc9565b61014f610251366004612abf565b610e4f565b61014f610264366004612b78565b610fd4565b61014f610277366004612c43565b6111e6565b61014f61028a366004612abf565b611287565b61014f61029d366004612cba565b6117fe565b61014f6102b0366004612b78565b61192e565b61014f6102c3366004612d66565b611ac8565b61014f6102d6366004612c43565b611d89565b61014f6102e9366004612d92565b611e96565b61014f6102fc366004612db6565b611f4e565b61014f61030f366004612c43565b6123a5565b60008381526002602052604090205461032d90336127bb565b60008381526002602052604081206009015460ff16600381111561035357610353612b91565b141580156103875750600160008481526002602052604090206009015460ff16600381111561038457610384612b91565b14155b156103c9576000838152600260205260409081902060090154905163234965c960e11b81526103c091859160ff90911690600401612de6565b60405180910390fd5b6001600160a01b038216600090815260056020908152604080832086845290915290205481111561043d576001600160a01b0382166000908152600560209081526040808320868452909152908190205490516326fb55dd60e01b81526103c0918591600401918252602082015260400190565b6001600160a01b038216600090815260056020908152604080832086845290915281208054839290610470908490612e10565b909155505060008381526002602052604090819020600101549051630d9778e560e11b81526004810191909152602481018290526001600160a01b03831690631b2ef1ca906044015b600060405180830381600087803b1580156104d357600080fd5b505af11580156104e7573d6000803e3d6000fd5b50505050505050565b6000838152600260208181526040808420815161014081018352815481526001820154938101939093529283015490820152600380830154606083015260048301546080830152600583015460a0830152600683015460c0830152600783015460e08301526008830154610100830152600983015491929161012084019160ff9091169081111561058357610583612b91565b600381111561059457610594612b91565b9052506000858152600260205260409020549091506105b390336127bb565b6105bc846128e0565b600081610120015160038111156105d5576105d5612b91565b146105fb5761012081015160405163234965c960e11b81526103c0918691600401612de6565b826001600160a01b031663c20906ac6040518163ffffffff1660e01b8152600401602060405180830381865afa158015610639573d6000803e3d6000fd5b505050506040513d601f19601f8201168201806040525081019061065d9190612e27565b6106679083612e40565b816060018181516106789190612e10565b91508181525050826001600160a01b031663ec2799826040518163ffffffff1660e01b8152600401602060405180830381865afa1580156106bd573d6000803e3d6000fd5b505050506040513d601f19601f820116820180604052508101906106e19190612e27565b6106eb9083612e40565b816080018181516106fc9190612e10565b91508181525050826001600160a01b031663ec2799826040518163ffffffff1660e01b8152600401602060405180830381865afa158015610741573d6000803e3d6000fd5b505050506040513d601f19601f820116820180604052508101906107659190612e27565b61076f9083612e40565b600360008360200151815260200190815260200160002060008282546107959190612e10565b92505081905550826001600160a01b031663ffcc977d6040518163ffffffff1660e01b8152600401602060405180830381865afa1580156107da573d6000803e3d6000fd5b505050506040513d601f19601f820116820180604052508101906107fe9190612e27565b6108089083612e40565b8160a0018181516108199190612e10565b91508181525050826001600160a01b031663ffcc977d6040518163ffffffff1660e01b8152600401602060405180830381865afa15801561085e573d6000803e3d6000fd5b505050506040513d601f19601f820116820180604052508101906108829190612e27565b61088c9083612e40565b600460008360200151815260200190815260200160002060008282546108b29190612e10565b92505081905550826001600160a01b0316635cfc1a516040518163ffffffff1660e01b8152600401602060405180830381865afa1580156108f7573d6000803e3d6000fd5b505050506040513d601f19601f8201168201806040525081019061091b9190612e27565b6109259083612e40565b8160c0018181516109369190612e10565b90525060e08101805183919061094d908390612e10565b915081815250508060026000868152602001908152602001600020600082015181600001556020820151816001015560408201518160020155606082015181600301556080820151816004015560a0820151816005015560c0820151816006015560e0820151816007015561010082015181600801556101208201518160090160006101000a81548160ff021916908360038111156109ee576109ee612b91565b021790555050506001600160a01b038316600090815260066020908152604080832087845290915281208054849290610a28908490612e10565b90915550506020810151604051630d9778e560e11b81526004810191909152602481018390526001600160a01b03841690631b2ef1ca906044015b600060405180830381600087803b158015610a7d57600080fd5b505af1158015610a91573d6000803e3d6000fd5b5050505050505050565b606060018054610aaa90612e5f565b80601f0160208091040260200160405190810160405280929190818152602001828054610ad690612e5f565b8015610b235780601f10610af857610100808354040283529160200191610b23565b820191906000526020600020905b815481529060010190602001808311610b0657829003601f168201915b5050505050905090565b6000818152600260208181526040808420815161014081018352815481526001820154938101939093529283015490820152600380830154606083015260048301546080830152600583015460a0830152600683015460c0830152600783015460e08301526008830154610100830152600983015491929161012084019160ff90911690811115610bc057610bc0612b91565b6003811115610bd157610bd1612b91565b905250600083815260026020526040902054909150610bf090336127bb565b610bf9826128e0565b60008161012001516003811115610c1257610c12612b91565b14610c385761012081015160405163234965c960e11b81526103c0918491600401612de6565b60e0810151610c5d5760405163747ecb7360e11b8152600481018390526024016103c0565b6001610120820181815250508060026000848152602001908152602001600020600082015181600001556020820151816001015560408201518160020155606082015181600301556080820151816004015560a0820151816005015560c0820151816006015560e0820151816007015561010082015181600801556101208201518160090160006101000a81548160ff02191690836003811115610d0357610d03612b91565b0217905550905050806080015160036000836020015181526020019081526020016000206000828254610d369190612e10565b909155505060a081015160208083015160009081526004909152604081208054909190610d64908490612e10565b90915550505050565b6008546000828152600760205260408120549091610d8a91612e9a565b92915050565b610d98612a47565b60026000838152602001908152602001600020604051806101400160405290816000820154815260200160018201548152602001600282015481526020016003820154815260200160048201548152602001600582015481526020016006820154815260200160078201548152602001600882015481526020016009820160009054906101000a900460ff166003811115610e3557610e35612b91565b6003811115610e4657610e46612b91565b90525092915050565b600083815260026020526040902054610e6890336127bb565b610e71836128e0565b60008381526002602052604081206009015460ff166003811115610e9757610e97612b91565b14158015610ecb5750600160008481526002602052604090206009015460ff166003811115610ec857610ec8612b91565b14155b15610f04576000838152600260205260409081902060090154905163234965c960e11b81526103c091859160ff90911690600401612de6565b600083815260026020526040902060060154811115610f5457600083815260026020526040908190206006015490516326fb55dd60e01b81526103c0918591600401918252602082015260400190565b6001600160a01b038216600090815260056020908152604080832086845290915281208054839290610f87908490612e9a565b90915550506000838152600260205260409081902060010154905163b390c0ab60e01b81526004810191909152602481018290526001600160a01b0383169063b390c0ab906044016104b9565b6000818152600260208181526040808420815161014081018352815481526001820154938101939093529283015490820152600380830154606083015260048301546080830152600583015460a0830152600683015460c0830152600783015460e08301526008830154610100830152600983015491929161012084019160ff9091169081111561106757611067612b91565b600381111561107857611078612b91565b90525060008381526002602052604090205490915061109790336127bb565b6110a0826128e0565b600181610120015160038111156110b9576110b9612b91565b146110df5761012081015160405163234965c960e11b81526103c0918491600401612de6565b6000610120820181815250508060026000848152602001908152602001600020600082015181600001556020820151816001015560408201518160020155606082015181600301556080820151816004015560a0820151816005015560c0820151816006015560e0820151816007015561010082015181600801556101208201518160090160006101000a81548160ff0219169083600381111561118557611185612b91565b02179055509050508060800151600360008360200151815260200190815260200160002060008282546111b89190612e9a565b909155505060a081015160208083015160009081526004909152604081208054909190610d64908490612e9a565b600054604080516311d614c160e21b8152905133926001600160a01b03169163475853049160048083019260209291908290030181865afa15801561122f573d6000803e3d6000fd5b505050506040513d601f19601f820116820180604052508101906112539190612eb2565b6001600160a01b03161461127c5760405163968c45d960e01b81523360048201526024016103c0565b600891909155600955565b6000838152600260208181526040808420815161014081018352815481526001820154938101939093529283015490820152600380830154606083015260048301546080830152600583015460a0830152600683015460c0830152600783015460e08301526008830154610100830152600983015491929161012084019160ff9091169081111561131a5761131a612b91565b600381111561132b5761132b612b91565b90525060008581526002602052604090205490915061134a90336127bb565b611353846128e0565b6000816101200151600381111561136c5761136c612b91565b146113925761012081015160405163234965c960e11b81526103c0918691600401612de6565b826001600160a01b031663c20906ac6040518163ffffffff1660e01b8152600401602060405180830381865afa1580156113d0573d6000803e3d6000fd5b505050506040513d601f19601f820116820180604052508101906113f49190612e27565b6113fe9083612e40565b8160600181815161140f9190612e9a565b91508181525050826001600160a01b031663ec2799826040518163ffffffff1660e01b8152600401602060405180830381865afa158015611454573d6000803e3d6000fd5b505050506040513d601f19601f820116820180604052508101906114789190612e27565b6114829083612e40565b816080018181516114939190612e9a565b91508181525050826001600160a01b031663ec2799826040518163ffffffff1660e01b8152600401602060405180830381865afa1580156114d8573d6000803e3d6000fd5b505050506040513d601f19601f820116820180604052508101906114fc9190612e27565b6115069083612e40565b6003600083602001518152602001908152602001600020600082825461152c9190612e9a565b92505081905550826001600160a01b031663ffcc977d6040518163ffffffff1660e01b8152600401602060405180830381865afa158015611571573d6000803e3d6000fd5b505050506040513d601f19601f820116820180604052508101906115959190612e27565b61159f9083612e40565b8160a0018181516115b09190612e9a565b91508181525050826001600160a01b031663ffcc977d6040518163ffffffff1660e01b8152600401602060405180830381865afa1580156115f5573d6000803e3d6000fd5b505050506040513d601f19601f820116820180604052508101906116199190612e27565b6116239083612e40565b600460008360200151815260200190815260200160002060008282546116499190612e9a565b92505081905550826001600160a01b0316635cfc1a516040518163ffffffff1660e01b8152600401602060405180830381865afa15801561168e573d6000803e3d6000fd5b505050506040513d601f19601f820116820180604052508101906116b29190612e27565b6116bc9083612e40565b8160c0018181516116cd9190612e9a565b90525060e0810180518391906116e4908390612e9a565b915081815250508060026000868152602001908152602001600020600082015181600001556020820151816001015560408201518160020155606082015181600301556080820151816004015560a0820151816005015560c0820151816006015560e0820151816007015561010082015181600801556101208201518160090160006101000a81548160ff0219169083600381111561178557611785612b91565b021790555050506001600160a01b0383166000908152600660209081526040808320878452909152812080548492906117bf908490612e9a565b9091555050602081015160405163b390c0ab60e01b81526004810191909152602481018390526001600160a01b0384169063b390c0ab90604401610a63565b60005460405163d63a8e1160e01b81523360048201526001600160a01b039091169063d63a8e1190602401602060405180830381865afa158015611846573d6000803e3d6000fd5b505050506040513d601f19601f8201168201806040525081019061186a9190612ecf565b6118895760405163fa5cd00f60e01b81523360048201526024016103c0565b8060026000848152602001908152602001600020600082015181600001556020820151816001015560408201518160020155606082015181600301556080820151816004015560a0820151816005015560c0820151816006015560e0820151816007015561010082015181600801556101208201518160090160006101000a81548160ff0219169083600381111561192357611923612b91565b021790555050505050565b6000818152600260208181526040808420815161014081018352815481526001820154938101939093529283015490820152600380830154606083015260048301546080830152600583015460a0830152600683015460c0830152600783015460e08301526008830154610100830152600983015491929161012084019160ff909116908111156119c1576119c1612b91565b60038111156119d2576119d2612b91565b9052509050600281610120015160038111156119f0576119f0612b91565b14158015611a02575043816101000151115b15611a2357604051639d7f13fd60e01b8152600481018390526024016103c0565b600161012082018181526040808401805160208087019182526000888152600291829052939093208651815590518186015590519181019190915560608401516003808301919091556080850151600483015560a0850151600583015560c0850151600683015560e0850151600783015561010085015160088301559151600982018054869593949293919260ff199091169190849081111561192357611923612b91565b6000838152600260208181526040808420815161014081018352815481526001820154938101939093529283015490820152600380830154606083015260048301546080830152600583015460a0830152600683015460c0830152600783015460e08301526008830154610100830152600983015491929161012084019160ff90911690811115611b5b57611b5b612b91565b6003811115611b6c57611b6c612b91565b905250805190915015611b95576040516358318d9960e11b8152600481018590526024016103c0565b6000546040805180820182526007815266504c414e45545360c81b60208201529051633fde36b160e11b815285926001600160a01b031691637fbc6d6291611be09190600401612b23565b602060405180830381865afa158015611bfd573d6000803e3d6000fd5b505050506040513d601f19601f82011682018060405250810190611c219190612eb2565b6001600160a01b031663181c1bc4846040518263ffffffff1660e01b8152600401611c4e91815260200190565b60c060405180830381865afa158015611c6b573d6000803e3d6000fd5b505050506040513d601f19601f82011682018060405250810190611c8f9190612f03565b6020015114611cbb5760405163b1c2082b60e01b815260048101849052602481018390526044016103c0565b828152602080820183815260408084018581526000606086018181526080870182815260a0880183815260c0890184815260e08a018581526101008b018681526101208c018781528f885260029b8c9052989096208b51815598516001808b01919091559651998901999099559251600380890191909155915160048801555160058701559051600686015594516007850155516008840155905160098301805486959293919260ff199190911691908490811115611d7c57611d7c612b91565b0217905550505050505050565b600081815260026020526040902054611da290336127bb565b6000818152600260209081526040808320600501548584526003909252909120541015611e16576000828152600360209081526040808320548484526002909252918290206005015491516309d1134160e21b815260048101859052602481019190915260448101919091526064016103c0565b600160008281526002602052604090206009015460ff166003811115611e3e57611e3e612b91565b14611e77576000818152600260205260409081902060090154905163234965c960e11b81526103c091839160ff90911690600401612de6565b6000908152600260205260409020600901805460ff1916600317905550565b600054604080516311d614c160e21b8152905133926001600160a01b03169163475853049160048083019260209291908290030181865afa158015611edf573d6000803e3d6000fd5b505050506040513d601f19601f82011682018060405250810190611f039190612eb2565b6001600160a01b031614611f2c5760405163968c45d960e01b81523360048201526024016103c0565b600080546001600160a01b0319166001600160a01b0392909216919091179055565b6000828152600260208181526040808420815161014081018352815481526001820154938101939093529283015490820152600380830154606083015260048301546080830152600583015460a0830152600683015460c0830152600783015460e08301526008830154610100830152600983015491929161012084019160ff90911690811115611fe157611fe1612b91565b6003811115611ff257611ff2612b91565b90525060008481526002602052604090205490915061201190336127bb565b6001816101200151600381111561202a5761202a612b91565b146120505761012081015160405163234965c960e11b81526103c0918591600401612de6565b600080546040805180820182526007815266504c414e45545360c81b60208201529051633fde36b160e11b81526001600160a01b0390921691637fbc6d629161209b91600401612b23565b602060405180830381865afa1580156120b8573d6000803e3d6000fd5b505050506040513d601f19601f820116820180604052508101906120dc9190612eb2565b6001600160a01b031663181c1bc483602001516040518263ffffffff1660e01b815260040161210d91815260200190565b60c060405180830381865afa15801561212a573d6000803e3d6000fd5b505050506040513d601f19601f8201168201806040525081019061214e9190612f03565b905060028151600381111561216557612165612b91565b1461218b57816020015160405163b455751f60e01b81526004016103c091815260200190565b60085460208084015160009081526007909152604090205443916121ae91612e9a565b11156121d5578160200151604051636425bbf760e11b81526004016103c091815260200190565b60208083015160009081526003909152604090205460808301511161221057604051633ddf5cf760e01b8152600481018590526024016103c0565b60208083018051600090815260079092526040808320439055600954915190516340cd92dd60e11b815261271092916001600160a01b0388169163819b25ba916122609160040190815260200190565b602060405180830381865afa15801561227d573d6000803e3d6000fd5b505050506040513d601f19601f820116820180604052508101906122a19190612e27565b6122ab9190612e40565b6122b59190612fb3565b905060008360c001518210156122cb57816122d1565b8360c001515b9050806002600088815260200190815260200160002060060160008282546122f99190612e10565b90915550506001600160a01b038516600090815260056020908152604080832089845290915281208054839290612331908490612e9a565b9091555050602084015160405163b390c0ab60e01b81526004810191909152602481018390526001600160a01b0386169063b390c0ab90604401600060405180830381600087803b15801561238557600080fd5b505af1158015612399573d6000803e3d6000fd5b50505050505050505050565b6000828152600260208181526040808420815161014081018352815481526001820154938101939093529283015490820152600380830154606083015260048301546080830152600583015460a0830152600683015460c0830152600783015460e08301526008830154610100830152600983015491929161012084019160ff9091169081111561243857612438612b91565b600381111561244957612449612b91565b90525060008481526002602052604090205490915061246890336127bb565b6001816101200151600381111561248157612481612b91565b146124a75761012081015160405163234965c960e11b81526103c0918591600401612de6565b600080546040805180820182526007815266504c414e45545360c81b60208201529051633fde36b160e11b81526001600160a01b0390921691637fbc6d62916124f291600401612b23565b602060405180830381865afa15801561250f573d6000803e3d6000fd5b505050506040513d601f19601f820116820180604052508101906125339190612eb2565b6001600160a01b031663181c1bc4846040518263ffffffff1660e01b815260040161256091815260200190565b60c060405180830381865afa15801561257d573d6000803e3d6000fd5b505050506040513d601f19601f820116820180604052508101906125a19190612f03565b90506000815160038111156125b8576125b8612b91565b14156125da5760405163b455751f60e01b8152600481018490526024016103c0565b60026101208301526040820183905260e082015160608301516125fd9190612fb3565b6000546040805180820182526007815266504c414e45545360c81b60208201529051633fde36b160e11b81526001600160a01b0390921691637fbc6d629161264791600401612b23565b602060405180830381865afa158015612664573d6000803e3d6000fd5b505050506040513d601f19601f820116820180604052508101906126889190612eb2565b6001600160a01b031663ce89f0638460200151866040518363ffffffff1660e01b81526004016126c2929190918252602082015260400190565b602060405180830381865afa1580156126df573d6000803e3d6000fd5b505050506040513d601f19601f820116820180604052508101906127039190612e27565b61270d9190612fb3565b6127179043612e9a565b826101000181815250508160026000868152602001908152602001600020600082015181600001556020820151816001015560408201518160020155606082015181600301556080820151816004015560a0820151816005015560c0820151816006015560e0820151816007015561010082015181600801556101208201518160090160006101000a81548160ff02191690836003811115611d7c57611d7c612b91565b600054604080518082018252600a815269434f4d4d414e4445525360b01b60208201529051633fde36b160e11b81526001600160a01b0390921691637fbc6d629161280891600401612b23565b602060405180830381865afa158015612825573d6000803e3d6000fd5b505050506040513d601f19601f820116820180604052508101906128499190612eb2565b604051630a85b32960e21b81526001600160a01b038381166004830152602482018590529190911690632a16cca490604401602060405180830381865afa158015612898573d6000803e3d6000fd5b505050506040513d601f19601f820116820180604052508101906128bc9190612ecf565b6128dc5760405163d706d79f60e01b8152600481018390526024016103c0565b5050565b6000818152600260209081526040808320549254815180830183526007815266504c414e45545360c81b938101939093529051633fde36b160e11b81526001600160a01b0390911691637fbc6d629161293c9190600401612b23565b602060405180830381865afa158015612959573d6000803e3d6000fd5b505050506040513d601f19601f8201168201806040525081019061297d9190612eb2565b6000838152600260205260409081902060010154905163060706f160e21b81526001600160a01b03929092169163181c1bc4916129c09160040190815260200190565b60c060405180830381865afa1580156129dd573d6000803e3d6000fd5b505050506040513d601f19601f82011682018060405250810190612a019190612f03565b6020015114612a4457600081815260026020526040908190208054600190910154915163b1c2082b60e01b81526103c09290600401918252602082015260400190565b50565b60405180610140016040528060008152602001600081526020016000815260200160008152602001600081526020016000815260200160008152602001600081526020016000815260200160006003811115612aa557612aa5612b91565b905290565b6001600160a01b0381168114612a4457600080fd5b600080600060608486031215612ad457600080fd5b833592506020840135612ae681612aaa565b929592945050506040919091013590565b60008060408385031215612b0a57600080fd5b8235612b1581612aaa565b946020939093013593505050565b600060208083528351808285015260005b81811015612b5057858101830151858201604001528201612b34565b81811115612b62576000604083870101525b50601f01601f1916929092016040019392505050565b600060208284031215612b8a57600080fd5b5035919050565b634e487b7160e01b600052602160045260246000fd5b60048110612bc557634e487b7160e01b600052602160045260246000fd5b9052565b600061014082019050825182526020830151602083015260408301516040830152606083015160608301526080830151608083015260a083015160a083015260c083015160c083015260e083015160e083015261010080840151818401525061012080840151612c3b82850182612ba7565b505092915050565b60008060408385031215612c5657600080fd5b50508035926020909101359150565b604051610140810167ffffffffffffffff81118282101715612c9757634e487b7160e01b600052604160045260246000fd5b60405290565b60048110612a4457600080fd5b8035612cb581612c9d565b919050565b600080828403610160811215612ccf57600080fd5b8335925061014080601f1983011215612ce757600080fd5b612cef612c65565b91506020850135825260408501356020830152606085013560408301526080850135606083015260a0850135608083015260c085013560a083015260e085013560c08301526101008086013560e08401526101208087013582850152612d56838801612caa565b9084015250929590945092505050565b600080600060608486031215612d7b57600080fd5b505081359360208301359350604090920135919050565b600060208284031215612da457600080fd5b8135612daf81612aaa565b9392505050565b60008060408385031215612dc957600080fd5b823591506020830135612ddb81612aaa565b809150509250929050565b82815260408101612daf6020830184612ba7565b634e487b7160e01b600052601160045260246000fd5b600082821015612e2257612e22612dfa565b500390565b600060208284031215612e3957600080fd5b5051919050565b6000816000190483118215151615612e5a57612e5a612dfa565b500290565b600181811c90821680612e7357607f821691505b60208210811415612e9457634e487b7160e01b600052602260045260246000fd5b50919050565b60008219821115612ead57612ead612dfa565b500190565b600060208284031215612ec457600080fd5b8151612daf81612aaa565b600060208284031215612ee157600080fd5b81518015158114612daf57600080fd5b8051600981900b8114612cb557600080fd5b600060c08284031215612f1557600080fd5b60405160c0810181811067ffffffffffffffff82111715612f4657634e487b7160e01b600052604160045260246000fd5b6040528251612f5481612c9d565b815260208381015190820152612f6c60408401612ef1565b6040820152612f7d60608401612ef1565b6060820152612f8e60808401612ef1565b608082015260a083015160ff81168114612fa757600080fd5b60a08201529392505050565b600082612fd057634e487b7160e01b600052601260045260246000fd5b50049056fea2646970667358221220bf94d8db7ac6652da1a7fabe220d0baa8e3a83708eeaffcf2b00eaf8bef1108f64736f6c634300080a0033",
    "linkReferences": {}
  }
}