{
  "abi": [
    {
      "inputs": [
        {
          "internalType": "contract ISanctis",
          "name": "newSanctis",
          "type": "address"
        }
      ],
      "stateMutability": "nonpayable",
      "type": "constructor"
    },
    {
      "inputs": [
        {
          "internalType": "uint256",
          "name": "fleetId",
          "type": "uint256"
        }
      ],
      "name": "AlreadyExists",
      "type": "error"
    },
    {
      "inputs": [
        {
          "internalType": "uint256",
          "name": "fleetId",
          "type": "uint256"
        }
      ],
      "name": "AlreadyMoving",
      "type": "error"
    },
    {
      "inputs": [
        {
          "internalType": "uint256",
          "name": "fleetId",
          "type": "uint256"
        }
      ],
      "name": "EmptyFleet",
      "type": "error"
    },
    {
      "inputs": [
        {
          "internalType": "uint256",
          "name": "fleetId",
          "type": "uint256"
        },
        {
          "internalType": "uint256",
          "name": "status",
          "type": "uint256"
        }
      ],
      "name": "InvalidFleetStatus",
      "type": "error"
    },
    {
      "inputs": [
        {
          "internalType": "uint256",
          "name": "planet",
          "type": "uint256"
        }
      ],
      "name": "InvalidPlanet",
      "type": "error"
    },
    {
      "inputs": [
        {
          "internalType": "address",
          "name": "sender",
          "type": "address"
        }
      ],
      "name": "NotAllowed",
      "type": "error"
    },
    {
      "inputs": [
        {
          "internalType": "uint256",
          "name": "fleetId",
          "type": "uint256"
        }
      ],
      "name": "NotArrivedYet",
      "type": "error"
    },
    {
      "inputs": [
        {
          "internalType": "uint256",
          "name": "commanderId",
          "type": "uint256"
        }
      ],
      "name": "NotCommanderOwner",
      "type": "error"
    },
    {
      "inputs": [
        {
          "internalType": "uint256",
          "name": "fleetId",
          "type": "uint256"
        },
        {
          "internalType": "uint256",
          "name": "capacity",
          "type": "uint256"
        }
      ],
      "name": "NotEnoughCapacity",
      "type": "error"
    },
    {
      "inputs": [
        {
          "internalType": "uint256",
          "name": "commanderId",
          "type": "uint256"
        },
        {
          "internalType": "uint256",
          "name": "planetId",
          "type": "uint256"
        }
      ],
      "name": "NotRuler",
      "type": "error"
    },
    {
      "inputs": [
        {
          "internalType": "address",
          "name": "sender",
          "type": "address"
        }
      ],
      "name": "NotTheExecutor",
      "type": "error"
    },
    {
      "inputs": [
        {
          "internalType": "address",
          "name": "sender",
          "type": "address"
        }
      ],
      "name": "NotTheSanctis",
      "type": "error"
    },
    {
      "anonymous": false,
      "inputs": [
        {
          "indexed": false,
          "internalType": "uint256",
          "name": "fleet",
          "type": "uint256"
        },
        {
          "indexed": false,
          "internalType": "uint256",
          "name": "from",
          "type": "uint256"
        },
        {
          "indexed": false,
          "internalType": "uint256",
          "name": "to",
          "type": "uint256"
        },
        {
          "indexed": false,
          "internalType": "uint256",
          "name": "status",
          "type": "uint256"
        }
      ],
      "name": "Moved",
      "type": "event"
    },
    {
      "inputs": [
        {
          "internalType": "uint256",
          "name": "fleetId",
          "type": "uint256"
        },
        {
          "internalType": "contract IShip",
          "name": "ship",
          "type": "address"
        },
        {
          "internalType": "uint256",
          "name": "amount",
          "type": "uint256"
        }
      ],
      "name": "addToFleet",
      "outputs": [],
      "stateMutability": "nonpayable",
      "type": "function"
    },
    {
      "inputs": [
        {
          "internalType": "uint256",
          "name": "fleetId",
          "type": "uint256"
        },
        {
          "internalType": "contract IResource",
          "name": "resource",
          "type": "address"
        },
        {
          "internalType": "uint256",
          "name": "amount",
          "type": "uint256"
        }
      ],
      "name": "allowedLoad",
      "outputs": [],
      "stateMutability": "nonpayable",
      "type": "function"
    },
    {
      "inputs": [
        {
          "internalType": "uint256",
          "name": "fleetId",
          "type": "uint256"
        },
        {
          "internalType": "contract IResource",
          "name": "resource",
          "type": "address"
        },
        {
          "internalType": "uint256",
          "name": "amount",
          "type": "uint256"
        }
      ],
      "name": "allowedUnload",
      "outputs": [],
      "stateMutability": "nonpayable",
      "type": "function"
    },
    {
      "inputs": [
        {
          "internalType": "contract ISanctis",
          "name": "newSanctis",
          "type": "address"
        }
      ],
      "name": "changeSanctis",
      "outputs": [],
      "stateMutability": "nonpayable",
      "type": "function"
    },
    {
      "inputs": [
        {
          "internalType": "uint256",
          "name": "commanderId",
          "type": "uint256"
        },
        {
          "internalType": "uint256",
          "name": "planetId",
          "type": "uint256"
        }
      ],
      "name": "createFleet",
      "outputs": [],
      "stateMutability": "nonpayable",
      "type": "function"
    },
    {
      "inputs": [
        {
          "internalType": "uint256",
          "name": "fleetId",
          "type": "uint256"
        }
      ],
      "name": "fleet",
      "outputs": [
        {
          "components": [
            {
              "internalType": "uint256",
              "name": "commander",
              "type": "uint256"
            },
            {
              "internalType": "uint256",
              "name": "fromPlanetId",
              "type": "uint256"
            },
            {
              "internalType": "uint256",
              "name": "toPlanetId",
              "type": "uint256"
            },
            {
              "internalType": "uint256",
              "name": "totalSpeed",
              "type": "uint256"
            },
            {
              "internalType": "uint256",
              "name": "totalOffensivePower",
              "type": "uint256"
            },
            {
              "internalType": "uint256",
              "name": "totalDefensivePower",
              "type": "uint256"
            },
            {
              "internalType": "uint256",
              "name": "capacity",
              "type": "uint256"
            },
            {
              "internalType": "uint256",
              "name": "ships",
              "type": "uint256"
            },
            {
              "internalType": "uint256",
              "name": "arrivalBlock",
              "type": "uint256"
            },
            {
              "internalType": "uint256",
              "name": "status",
              "type": "uint256"
            }
          ],
          "internalType": "struct IFleets.Fleet",
          "name": "",
          "type": "tuple"
        }
      ],
      "stateMutability": "view",
      "type": "function"
    },
    {
      "inputs": [
        {
          "internalType": "uint256",
          "name": "planetId",
          "type": "uint256"
        },
        {
          "internalType": "uint256",
          "name": "index",
          "type": "uint256"
        }
      ],
      "name": "fleetOnPlanetByIndex",
      "outputs": [
        {
          "internalType": "uint256",
          "name": "",
          "type": "uint256"
        }
      ],
      "stateMutability": "view",
      "type": "function"
    },
    {
      "inputs": [
        {
          "internalType": "uint256",
          "name": "planetId",
          "type": "uint256"
        }
      ],
      "name": "fleetsOnPlanet",
      "outputs": [
        {
          "internalType": "uint256",
          "name": "",
          "type": "uint256"
        }
      ],
      "stateMutability": "view",
      "type": "function"
    },
    {
      "inputs": [],
      "name": "key",
      "outputs": [
        {
          "internalType": "bytes32",
          "name": "",
          "type": "bytes32"
        }
      ],
      "stateMutability": "view",
      "type": "function"
    },
    {
      "inputs": [
        {
          "internalType": "uint256",
          "name": "fleetId",
          "type": "uint256"
        }
      ],
      "name": "land",
      "outputs": [],
      "stateMutability": "nonpayable",
      "type": "function"
    },
    {
      "inputs": [
        {
          "internalType": "uint256",
          "name": "fleetId",
          "type": "uint256"
        },
        {
          "internalType": "contract IResource",
          "name": "resource",
          "type": "address"
        },
        {
          "internalType": "uint256",
          "name": "amount",
          "type": "uint256"
        }
      ],
      "name": "load",
      "outputs": [],
      "stateMutability": "nonpayable",
      "type": "function"
    },
    {
      "inputs": [
        {
          "internalType": "uint256",
          "name": "fleetId",
          "type": "uint256"
        },
        {
          "internalType": "uint256",
          "name": "toPlanetId",
          "type": "uint256"
        }
      ],
      "name": "moveFleet",
      "outputs": [],
      "stateMutability": "nonpayable",
      "type": "function"
    },
    {
      "inputs": [
        {
          "internalType": "uint256",
          "name": "planetId",
          "type": "uint256"
        }
      ],
      "name": "planet",
      "outputs": [
        {
          "internalType": "uint256",
          "name": "",
          "type": "uint256"
        },
        {
          "internalType": "uint256",
          "name": "",
          "type": "uint256"
        }
      ],
      "stateMutability": "view",
      "type": "function"
    },
    {
      "inputs": [
        {
          "internalType": "uint256",
          "name": "fleetId",
          "type": "uint256"
        }
      ],
      "name": "putInOrbit",
      "outputs": [],
      "stateMutability": "nonpayable",
      "type": "function"
    },
    {
      "inputs": [
        {
          "internalType": "uint256",
          "name": "fleetId",
          "type": "uint256"
        },
        {
          "internalType": "contract IShip",
          "name": "ship",
          "type": "address"
        },
        {
          "internalType": "uint256",
          "name": "amount",
          "type": "uint256"
        }
      ],
      "name": "removeFromFleet",
      "outputs": [],
      "stateMutability": "nonpayable",
      "type": "function"
    },
    {
      "inputs": [
        {
          "internalType": "contract IResource",
          "name": "resource",
          "type": "address"
        },
        {
          "internalType": "uint256",
          "name": "fleetId",
          "type": "uint256"
        }
      ],
      "name": "resourceInFleet",
      "outputs": [
        {
          "internalType": "uint256",
          "name": "",
          "type": "uint256"
        }
      ],
      "stateMutability": "view",
      "type": "function"
    },
    {
      "inputs": [],
      "name": "s_sanctis",
      "outputs": [
        {
          "internalType": "contract ISanctis",
          "name": "",
          "type": "address"
        }
      ],
      "stateMutability": "view",
      "type": "function"
    },
    {
      "inputs": [],
      "name": "sanctis",
      "outputs": [
        {
          "internalType": "contract ISanctis",
          "name": "",
          "type": "address"
        }
      ],
      "stateMutability": "view",
      "type": "function"
    },
    {
      "inputs": [
        {
          "internalType": "uint256",
          "name": "fleetId",
          "type": "uint256"
        },
        {
          "components": [
            {
              "internalType": "uint256",
              "name": "commander",
              "type": "uint256"
            },
            {
              "internalType": "uint256",
              "name": "fromPlanetId",
              "type": "uint256"
            },
            {
              "internalType": "uint256",
              "name": "toPlanetId",
              "type": "uint256"
            },
            {
              "internalType": "uint256",
              "name": "totalSpeed",
              "type": "uint256"
            },
            {
              "internalType": "uint256",
              "name": "totalOffensivePower",
              "type": "uint256"
            },
            {
              "internalType": "uint256",
              "name": "totalDefensivePower",
              "type": "uint256"
            },
            {
              "internalType": "uint256",
              "name": "capacity",
              "type": "uint256"
            },
            {
              "internalType": "uint256",
              "name": "ships",
              "type": "uint256"
            },
            {
              "internalType": "uint256",
              "name": "arrivalBlock",
              "type": "uint256"
            },
            {
              "internalType": "uint256",
              "name": "status",
              "type": "uint256"
            }
          ],
          "internalType": "struct IFleets.Fleet",
          "name": "newFleet",
          "type": "tuple"
        }
      ],
      "name": "setFleet",
      "outputs": [],
      "stateMutability": "nonpayable",
      "type": "function"
    },
    {
      "inputs": [
        {
          "internalType": "uint256",
          "name": "fleetId",
          "type": "uint256"
        }
      ],
      "name": "settleFleet",
      "outputs": [],
      "stateMutability": "nonpayable",
      "type": "function"
    },
    {
      "inputs": [
        {
          "internalType": "contract IShip",
          "name": "ship",
          "type": "address"
        },
        {
          "internalType": "uint256",
          "name": "fleetId",
          "type": "uint256"
        }
      ],
      "name": "shipsInFleet",
      "outputs": [
        {
          "internalType": "uint256",
          "name": "",
          "type": "uint256"
        }
      ],
      "stateMutability": "view",
      "type": "function"
    },
    {
      "inputs": [
        {
          "internalType": "uint256",
          "name": "fleetId",
          "type": "uint256"
        },
        {
          "internalType": "contract IResource",
          "name": "resource",
          "type": "address"
        },
        {
          "internalType": "uint256",
          "name": "amount",
          "type": "uint256"
        }
      ],
      "name": "unload",
      "outputs": [],
      "stateMutability": "nonpayable",
      "type": "function"
    }
  ],
  "bytecode": {
    "object": "0x60806040523480156200001157600080fd5b506040516200315938038062003159833981016040819052620000349162000067565b600080546001600160a01b0319166001600160a01b039290921691909117905565464c4545545360d01b60015562000099565b6000602082840312156200007a57600080fd5b81516001600160a01b03811681146200009257600080fd5b9392505050565b6130b080620000a96000396000f3fe608060405234801561001057600080fd5b50600436106101825760003560e01c8063861e4656116100d8578063bed660bc1161008c578063f5d9eafa11610066578063f5d9eafa14610429578063f8606e621461043c578063fce1ffe61461044f57600080fd5b8063bed660bc146103c0578063bf206e4514610403578063dbbd07351461041657600080fd5b80639b80fbf1116100bd5780639b80fbf114610387578063a090658c1461039a578063a0e0f099146103ad57600080fd5b8063861e4656146103545780639797efda1461036757600080fd5b80632b4070e31161013a5780635087883f116101145780635087883f146102885780637419e9a2146102b5578063755677b91461034157600080fd5b80632b4070e31461025a5780633943380c1461026d57806345e140661461027557600080fd5b80630f0cec7c1161016b5780630f0cec7c146101af57806312f41e15146101d5578063181c1bc41461021857600080fd5b806302e7a998146101875780630a2055a81461019c575b600080fd5b61019a610195366004612bf5565b610462565b005b61019a6101aa366004612bf5565b610617565b6101c26101bd366004612c2d565b610be6565b6040519081526020015b60405180910390f35b6101c26101e3366004612c4f565b73ffffffffffffffffffffffffffffffffffffffff919091166000908152600860209081526040808320938352929052205490565b610245610226366004612c7b565b6000908152600560209081526040808320546006909252909120549091565b604080519283526020830191909152016101cc565b6101c2610268366004612c7b565b610c07565b6001546101c2565b61019a610283366004612c7b565b610c1e565b610290610e64565b60405173ffffffffffffffffffffffffffffffffffffffff90911681526020016101cc565b6102c86102c3366004612c7b565b610f64565b6040516101cc9190600061014082019050825182526020830151602083015260408301516040830152606083015160608301526080830151608083015260a083015160a083015260c083015160c083015260e083015160e083015261010080840151818401525061012080840151818401525092915050565b61019a61034f366004612bf5565b61103d565b61019a610362366004612c7b565b6111bf565b6000546102909073ffffffffffffffffffffffffffffffffffffffff1681565b61019a610395366004612bf5565b6113bf565b61019a6103a8366004612c7b565b61195a565b61019a6103bb366004612bf5565b611b10565b6101c26103ce366004612c4f565b73ffffffffffffffffffffffffffffffffffffffff919091166000908152600760209081526040808320938352929052205490565b61019a610411366004612c94565b611bda565b61019a610424366004612c2d565b611d03565b61019a610437366004612c2d565b6121a8565b61019a61044a366004612d09565b6124e6565b61019a61045d366004612bf5565b612621565b60008381526003602052604090205461047b90336126eb565b600083815260036020526040902060090154158015906104ad5750600083815260036020526040902060090154600114155b1561050b57600083815260036020526040908190206009015490517ff0fec4f3000000000000000000000000000000000000000000000000000000008152610502918591600401918252602082015260400190565b60405180910390fd5b6000838152600360205260408120600601805483929061052c908490612dfd565b909155505073ffffffffffffffffffffffffffffffffffffffff8216600090815260076020908152604080832086845290915281208054839290610571908490612e15565b9091555050600083815260036020526040908190206001015490517f1b2ef1ca00000000000000000000000000000000000000000000000000000000815260048101919091526024810182905273ffffffffffffffffffffffffffffffffffffffff831690631b2ef1ca906044015b600060405180830381600087803b1580156105fa57600080fd5b505af115801561060e573d6000803e3d6000fd5b50505050505050565b6000838152600360208181526040808420815161014081018352815480825260018301548286015260028301549382019390935281850154606082015260048201546080820152600582015460a0820152600682015460c0820152600782015460e08201526008820154610100820152600990910154610120820152938790529190526106a490336126eb565b6106ad84612873565b610120810151156106fb576101208101516040517ff0fec4f3000000000000000000000000000000000000000000000000000000008152610502918691600401918252602082015260400190565b8273ffffffffffffffffffffffffffffffffffffffff1663c20906ac6040518163ffffffff1660e01b8152600401602060405180830381865afa158015610746573d6000803e3d6000fd5b505050506040513d601f19601f8201168201806040525081019061076a9190612e2c565b6107749083612e45565b816060018181516107859190612e15565b915081815250508273ffffffffffffffffffffffffffffffffffffffff1663ec2799826040518163ffffffff1660e01b8152600401602060405180830381865afa1580156107d7573d6000803e3d6000fd5b505050506040513d601f19601f820116820180604052508101906107fb9190612e2c565b6108059083612e45565b816080018181516108169190612e15565b915081815250508273ffffffffffffffffffffffffffffffffffffffff1663ec2799826040518163ffffffff1660e01b8152600401602060405180830381865afa158015610868573d6000803e3d6000fd5b505050506040513d601f19601f8201168201806040525081019061088c9190612e2c565b6108969083612e45565b600560008360200151815260200190815260200160002060008282546108bc9190612e15565b925050819055508273ffffffffffffffffffffffffffffffffffffffff1663ffcc977d6040518163ffffffff1660e01b8152600401602060405180830381865afa15801561090e573d6000803e3d6000fd5b505050506040513d601f19601f820116820180604052508101906109329190612e2c565b61093c9083612e45565b8160a00181815161094d9190612e15565b915081815250508273ffffffffffffffffffffffffffffffffffffffff1663ffcc977d6040518163ffffffff1660e01b8152600401602060405180830381865afa15801561099f573d6000803e3d6000fd5b505050506040513d601f19601f820116820180604052508101906109c39190612e2c565b6109cd9083612e45565b600660008360200151815260200190815260200160002060008282546109f39190612e15565b925050819055508273ffffffffffffffffffffffffffffffffffffffff16635cfc1a516040518163ffffffff1660e01b8152600401602060405180830381865afa158015610a45573d6000803e3d6000fd5b505050506040513d601f19601f82011682018060405250810190610a699190612e2c565b610a739083612e45565b8160c001818151610a849190612e15565b90525060e081018051839190610a9b908390612e15565b9052506000848152600360208181526040808420855181558286015160018201558186015160028201556060860151938101939093556080850151600484015560a0850151600584015560c0850151600684015560e0850151600784015561010085015160088085019190915561012086015160099094019390935573ffffffffffffffffffffffffffffffffffffffff87168452918152818320878452905281208054849290610b4d908490612e15565b909155505060208101516040517f1b2ef1ca00000000000000000000000000000000000000000000000000000000815260048101919091526024810183905273ffffffffffffffffffffffffffffffffffffffff841690631b2ef1ca906044015b600060405180830381600087803b158015610bc857600080fd5b505af1158015610bdc573d6000803e3d6000fd5b5050505050505050565b6000828152600460205260408120610bfe9083612a39565b90505b92915050565b6000818152600460205260408120610c0190612a45565b6000818152600360208181526040808420815161014081018352815480825260018301548286015260028301549382019390935281850154606082015260048201546080820152600582015460a0820152600682015460c0820152600782015460e0820152600882015461010082015260099091015461012082015293859052919052610cab90336126eb565b610cb482612873565b61012081015115610d02576101208101516040517ff0fec4f3000000000000000000000000000000000000000000000000000000008152610502918491600401918252602082015260400190565b60e0810151610d40576040517fe8fd96e600000000000000000000000000000000000000000000000000000000815260048101839052602401610502565b600161012082018181526000848152600360208181526040808420875181558288015196810187905581880151600282015560608801519381019390935560808701516004840181905560a088015160058086019190915560c0890151600686015560e089015160078601556101008901516008860155955160099094019390935594835292909252918220805491929091610ddd908490612e15565b909155505060a081015160208083015160009081526006909152604081208054909190610e0b908490612e15565b9091555050602081810151604080840151815186815293840192909252820152600160608201527f5e3428123447c999946b4eb1fc52841ddcadbb3dcf11ca6b42ccde0fe4eb0d7f906080015b60405180910390a15050565b60008054604080517f475853040000000000000000000000000000000000000000000000000000000081529051339273ffffffffffffffffffffffffffffffffffffffff169163475853049160048083019260209291908290030181865afa158015610ed4573d6000803e3d6000fd5b505050506040513d601f19601f82011682018060405250810190610ef89190612e82565b73ffffffffffffffffffffffffffffffffffffffff1614610f47576040517f968c45d9000000000000000000000000000000000000000000000000000000008152336004820152602401610502565b5060005473ffffffffffffffffffffffffffffffffffffffff1690565b610fba604051806101400160405280600081526020016000815260200160008152602001600081526020016000815260200160008152602001600081526020016000815260200160008152602001600081525090565b506000908152600360208181526040928390208351610140810185528154815260018201549281019290925260028101549382019390935290820154606082015260048201546080820152600582015460a0820152600682015460c0820152600782015460e0820152600882015461010082015260099091015461012082015290565b60008381526003602052604090205461105690336126eb565b61105f83612873565b600083815260036020526040902060090154158015906110915750600083815260036020526040902060090154600114155b156110e657600083815260036020526040908190206009015490517ff0fec4f3000000000000000000000000000000000000000000000000000000008152610502918591600401918252602082015260400190565b60008381526003602052604081206006018054839290611107908490612e15565b909155505073ffffffffffffffffffffffffffffffffffffffff821660009081526007602090815260408083208684529091528120805483929061114c908490612dfd565b9091555050600083815260036020526040908190206001015490517fb390c0ab00000000000000000000000000000000000000000000000000000000815260048101919091526024810182905273ffffffffffffffffffffffffffffffffffffffff83169063b390c0ab906044016105e0565b6000818152600360208181526040808420815161014081018352815480825260018301548286015260028301549382019390935281850154606082015260048201546080820152600582015460a0820152600682015460c0820152600782015460e082015260088201546101008201526009909101546101208201529385905291905261124c90336126eb565b61125582612873565b6001816101200151146112a5576101208101516040517ff0fec4f3000000000000000000000000000000000000000000000000000000008152610502918491600401918252602082015260400190565b6000610120820181815283825260036020818152604080852086518155828701516001820181905582880151600283015560608801519482019490945560808701516004820181905560a088015160058084019190915560c0890151600684015560e0890151600784015561010089015160088401559551600990920191909155928552929052908220805491929091611340908490612dfd565b909155505060a08101516020808301516000908152600690915260408120805490919061136e908490612dfd565b9091555050602081810151604080840151815186815293840192909252820152600060608201527f5e3428123447c999946b4eb1fc52841ddcadbb3dcf11ca6b42ccde0fe4eb0d7f90608001610e58565b6000838152600360208181526040808420815161014081018352815480825260018301548286015260028301549382019390935281850154606082015260048201546080820152600582015460a0820152600682015460c0820152600782015460e082015260088201546101008201526009909101546101208201529387905291905261144c90336126eb565b61145584612873565b610120810151156114a3576101208101516040517ff0fec4f3000000000000000000000000000000000000000000000000000000008152610502918691600401918252602082015260400190565b8273ffffffffffffffffffffffffffffffffffffffff1663c20906ac6040518163ffffffff1660e01b8152600401602060405180830381865afa1580156114ee573d6000803e3d6000fd5b505050506040513d601f19601f820116820180604052508101906115129190612e2c565b61151c9083612e45565b8160600181815161152d9190612dfd565b915081815250508273ffffffffffffffffffffffffffffffffffffffff1663ec2799826040518163ffffffff1660e01b8152600401602060405180830381865afa15801561157f573d6000803e3d6000fd5b505050506040513d601f19601f820116820180604052508101906115a39190612e2c565b6115ad9083612e45565b816080018181516115be9190612dfd565b915081815250508273ffffffffffffffffffffffffffffffffffffffff1663ec2799826040518163ffffffff1660e01b8152600401602060405180830381865afa158015611610573d6000803e3d6000fd5b505050506040513d601f19601f820116820180604052508101906116349190612e2c565b61163e9083612e45565b600560008360200151815260200190815260200160002060008282546116649190612dfd565b925050819055508273ffffffffffffffffffffffffffffffffffffffff1663ffcc977d6040518163ffffffff1660e01b8152600401602060405180830381865afa1580156116b6573d6000803e3d6000fd5b505050506040513d601f19601f820116820180604052508101906116da9190612e2c565b6116e49083612e45565b8160a0018181516116f59190612dfd565b915081815250508273ffffffffffffffffffffffffffffffffffffffff1663ffcc977d6040518163ffffffff1660e01b8152600401602060405180830381865afa158015611747573d6000803e3d6000fd5b505050506040513d601f19601f8201168201806040525081019061176b9190612e2c565b6117759083612e45565b6006600083602001518152602001908152602001600020600082825461179b9190612dfd565b925050819055508273ffffffffffffffffffffffffffffffffffffffff16635cfc1a516040518163ffffffff1660e01b8152600401602060405180830381865afa1580156117ed573d6000803e3d6000fd5b505050506040513d601f19601f820116820180604052508101906118119190612e2c565b61181b9083612e45565b8160c00181815161182c9190612dfd565b90525060e081018051839190611843908390612dfd565b9052506000848152600360208181526040808420855181558286015160018201558186015160028201556060860151938101939093556080850151600484015560a0850151600584015560c0850151600684015560e0850151600784015561010085015160088085019190915561012086015160099094019390935573ffffffffffffffffffffffffffffffffffffffff871684529181528183208784529052812080548492906118f5908490612dfd565b909155505060208101516040517fb390c0ab00000000000000000000000000000000000000000000000000000000815260048101919091526024810183905273ffffffffffffffffffffffffffffffffffffffff84169063b390c0ab90604401610bae565b600081815260036020818152604092839020835161014081018552815481526001820154928101929092526002808201549483019490945291820154606082015260048201546080820152600582015460a0820152600682015460c0820152600782015460e0820152600882015461010082015260099091015461012082018190529091148015906119f0575043816101000151115b15611a2a576040517f9d7f13fd00000000000000000000000000000000000000000000000000000000815260048101839052602401610502565b600161012082018181526040808401805160208087019182526000888152600380835285822089518155935197840188905593516002840155606088015193830193909355608087015160048084019190915560a0880151600584015560c0880151600684015560e08801516007840155610100880151600884015594516009909201919091559381529190925220611ac39083612a4f565b50602080820151604080840151815186815293840192909252820152600160608201527f5e3428123447c999946b4eb1fc52841ddcadbb3dcf11ca6b42ccde0fe4eb0d7f90608001610e58565b6000546040517fd63a8e1100000000000000000000000000000000000000000000000000000000815233600482015273ffffffffffffffffffffffffffffffffffffffff9091169063d63a8e1190602401602060405180830381865afa158015611b7e573d6000803e3d6000fd5b505050506040513d601f19601f82011682018060405250810190611ba29190612e9f565b6110e6576040517ffa5cd00f000000000000000000000000000000000000000000000000000000008152336004820152602401610502565b600054604080517f475853040000000000000000000000000000000000000000000000000000000081529051339273ffffffffffffffffffffffffffffffffffffffff169163475853049160048083019260209291908290030181865afa158015611c49573d6000803e3d6000fd5b505050506040513d601f19601f82011682018060405250810190611c6d9190612e82565b73ffffffffffffffffffffffffffffffffffffffff1614611cbc576040517f968c45d9000000000000000000000000000000000000000000000000000000008152336004820152602401610502565b600080547fffffffffffffffffffffffff00000000000000000000000000000000000000001673ffffffffffffffffffffffffffffffffffffffff92909216919091179055565b6000828152600360208181526040808420815161014081018352815480825260018301548286015260028301549382019390935281850154606082015260048201546080820152600582015460a0820152600682015460c0820152600782015460e0820152600882015461010082015260099091015461012082015293869052919052611d9090336126eb565b600181610120015114611de0576101208101516040517ff0fec4f3000000000000000000000000000000000000000000000000000000008152610502918591600401918252602082015260400190565b600080546040517f8a5cde0a0000000000000000000000000000000000000000000000000000000081527f504c414e45545300000000000000000000000000000000000000000000000000600482015273ffffffffffffffffffffffffffffffffffffffff90911690638a5cde0a90602401602060405180830381865afa158015611e6f573d6000803e3d6000fd5b505050506040513d601f19601f82011682018060405250810190611e939190612e82565b73ffffffffffffffffffffffffffffffffffffffff1663181c1bc4846040518263ffffffff1660e01b8152600401611ecd91815260200190565b60c060405180830381865afa158015611eea573d6000803e3d6000fd5b505050506040513d601f19601f82011682018060405250810190611f0e9190612ee9565b60a081015190915060ff16611f52576040517fb455751f00000000000000000000000000000000000000000000000000000000815260048101849052602401610502565b60026101208301526040820183905260e08201516060830151611f759190612fa8565b6000546040517f8a5cde0a0000000000000000000000000000000000000000000000000000000081527f504c414e45545300000000000000000000000000000000000000000000000000600482015273ffffffffffffffffffffffffffffffffffffffff90911690638a5cde0a90602401602060405180830381865afa158015612003573d6000803e3d6000fd5b505050506040513d601f19601f820116820180604052508101906120279190612e82565b73ffffffffffffffffffffffffffffffffffffffff1663ce89f0638460200151866040518363ffffffff1660e01b815260040161206e929190918252602082015260400190565b602060405180830381865afa15801561208b573d6000803e3d6000fd5b505050506040513d601f19601f820116820180604052508101906120af9190612e2c565b6120b99190612fa8565b6120c39043612dfd565b61010083019081526000858152600360208181526040808420875181558288015160018201819055828901516002830155606089015194820194909455608088015160048083019190915560a0890151600583015560c0890151600683015560e089015160078301559551600882015561012088015160099091015591835292909252206121519085612a5b565b50602080830151604080850151815188815293840192909252820152600260608201527f5e3428123447c999946b4eb1fc52841ddcadbb3dcf11ca6b42ccde0fe4eb0d7f906080015b60405180910390a150505050565b60028054600091826121b983612fe3565b90915550600081815260036020818152604092839020835161014081018552815480825260018301549382019390935260028201549481019490945291820154606084015260048201546080840152600582015460a0840152600682015460c0840152600782015460e08401526008820154610100840152600990910154610120830152919250901561227b576040517fb0631b3200000000000000000000000000000000000000000000000000000000815260048101839052602401610502565b6000546040517f8a5cde0a0000000000000000000000000000000000000000000000000000000081527f504c414e455453000000000000000000000000000000000000000000000000006004820152859173ffffffffffffffffffffffffffffffffffffffff1690638a5cde0a90602401602060405180830381865afa158015612309573d6000803e3d6000fd5b505050506040513d601f19601f8201168201806040525081019061232d9190612e82565b73ffffffffffffffffffffffffffffffffffffffff1663181c1bc4856040518263ffffffff1660e01b815260040161236791815260200190565b60c060405180830381865afa158015612384573d6000803e3d6000fd5b505050506040513d601f19601f820116820180604052508101906123a89190612ee9565b51146123ea576040517fb1c2082b0000000000000000000000000000000000000000000000000000000081526004810185905260248101849052604401610502565b838152602080820184815260408084018681526000606086018181526080870182815260a0880183815260c0890184815260e08a018581526101008b018681526101208c018781528d88526003808d528a89208e5181559b5160018d0155985160028c01559551978a019790975592516004808a019190915591516005890155516006880155905160078701559251600886015551600990940193909355868352909252206124999083612a4f565b50602080820151604080840151815186815293840192909252820152600060608201527f5e3428123447c999946b4eb1fc52841ddcadbb3dcf11ca6b42ccde0fe4eb0d7f9060800161219a565b6000546040517fd63a8e1100000000000000000000000000000000000000000000000000000000815233600482015273ffffffffffffffffffffffffffffffffffffffff9091169063d63a8e1190602401602060405180830381865afa158015612554573d6000803e3d6000fd5b505050506040513d601f19601f820116820180604052508101906125789190612e9f565b6125b0576040517ffa5cd00f000000000000000000000000000000000000000000000000000000008152336004820152602401610502565b600091825260036020818152604093849020835181559083015160018201559282015160028401556060820151908301556080810151600483015560a0810151600583015560c0810151600683015560e0810151600783015561010081015160088301556101200151600990910155565b6000546040517fd63a8e1100000000000000000000000000000000000000000000000000000000815233600482015273ffffffffffffffffffffffffffffffffffffffff9091169063d63a8e1190602401602060405180830381865afa15801561268f573d6000803e3d6000fd5b505050506040513d601f19601f820116820180604052508101906126b39190612e9f565b61050b576040517ffa5cd00f000000000000000000000000000000000000000000000000000000008152336004820152602401610502565b6000546040517f8a5cde0a0000000000000000000000000000000000000000000000000000000081527f434f4d4d414e4445525300000000000000000000000000000000000000000000600482015273ffffffffffffffffffffffffffffffffffffffff90911690638a5cde0a90602401602060405180830381865afa158015612779573d6000803e3d6000fd5b505050506040513d601f19601f8201168201806040525081019061279d9190612e82565b6040517f2a16cca400000000000000000000000000000000000000000000000000000000815273ffffffffffffffffffffffffffffffffffffffff8381166004830152602482018590529190911690632a16cca490604401602060405180830381865afa158015612812573d6000803e3d6000fd5b505050506040513d601f19601f820116820180604052508101906128369190612e9f565b61286f576040517fd706d79f00000000000000000000000000000000000000000000000000000000815260048101839052602401610502565b5050565b60008181526003602052604080822054915490517f8a5cde0a0000000000000000000000000000000000000000000000000000000081527f504c414e45545300000000000000000000000000000000000000000000000000600482015273ffffffffffffffffffffffffffffffffffffffff90911690638a5cde0a90602401602060405180830381865afa15801561290f573d6000803e3d6000fd5b505050506040513d601f19601f820116820180604052508101906129339190612e82565b600083815260036020526040908190206001015490517f181c1bc400000000000000000000000000000000000000000000000000000000815273ffffffffffffffffffffffffffffffffffffffff929092169163181c1bc49161299c9160040190815260200190565b60c060405180830381865afa1580156129b9573d6000803e3d6000fd5b505050506040513d601f19601f820116820180604052508101906129dd9190612ee9565b5114612a365760008181526003602052604090819020805460019091015491517fb1c2082b0000000000000000000000000000000000000000000000000000000081526105029290600401918252602082015260400190565b50565b6000610bfe8383612a67565b6000610c01825490565b6000610bfe8383612a91565b6000610bfe8383612ae0565b6000826000018281548110612a7e57612a7e61301c565b9060005260206000200154905092915050565b6000818152600183016020526040812054612ad857508154600181810184556000848152602080822090930184905584548482528286019093526040902091909155610c01565b506000610c01565b60008181526001830160205260408120548015612bc9576000612b04600183612e15565b8554909150600090612b1890600190612e15565b9050818114612b7d576000866000018281548110612b3857612b3861301c565b9060005260206000200154905080876000018481548110612b5b57612b5b61301c565b6000918252602080832090910192909255918252600188019052604090208390555b8554869080612b8e57612b8e61304b565b600190038181906000526020600020016000905590558560010160008681526020019081526020016000206000905560019350505050610c01565b6000915050610c01565b73ffffffffffffffffffffffffffffffffffffffff81168114612a3657600080fd5b600080600060608486031215612c0a57600080fd5b833592506020840135612c1c81612bd3565b929592945050506040919091013590565b60008060408385031215612c4057600080fd5b50508035926020909101359150565b60008060408385031215612c6257600080fd5b8235612c6d81612bd3565b946020939093013593505050565b600060208284031215612c8d57600080fd5b5035919050565b600060208284031215612ca657600080fd5b8135612cb181612bd3565b9392505050565b604051610140810167ffffffffffffffff81118282101715612d03577f4e487b7100000000000000000000000000000000000000000000000000000000600052604160045260246000fd5b60405290565b600080828403610160811215612d1e57600080fd5b83359250610140807fffffffffffffffffffffffffffffffffffffffffffffffffffffffffffffffe083011215612d5457600080fd5b612d5c612cb8565b91506020850135825260408501356020830152606085013560408301526080850135606083015260a0850135608083015260c085013560a083015260e085013560c08301526101008086013560e084015261012080870135828501528287013581850152505050809150509250929050565b7f4e487b7100000000000000000000000000000000000000000000000000000000600052601160045260246000fd5b60008219821115612e1057612e10612dce565b500190565b600082821015612e2757612e27612dce565b500390565b600060208284031215612e3e57600080fd5b5051919050565b6000817fffffffffffffffffffffffffffffffffffffffffffffffffffffffffffffffff0483118215151615612e7d57612e7d612dce565b500290565b600060208284031215612e9457600080fd5b8151612cb181612bd3565b600060208284031215612eb157600080fd5b81518015158114612cb157600080fd5b8051600981900b8114612ed357600080fd5b919050565b805160ff81168114612ed357600080fd5b600060c08284031215612efb57600080fd5b60405160c0810181811067ffffffffffffffff82111715612f45577f4e487b7100000000000000000000000000000000000000000000000000000000600052604160045260246000fd5b60405282518152612f5860208401612ec1565b6020820152612f6960408401612ec1565b6040820152612f7a60608401612ec1565b6060820152612f8b60808401612ed8565b6080820152612f9c60a08401612ed8565b60a08201529392505050565b600082612fde577f4e487b7100000000000000000000000000000000000000000000000000000000600052601260045260246000fd5b500490565b60007fffffffffffffffffffffffffffffffffffffffffffffffffffffffffffffffff82141561301557613015612dce565b5060010190565b7f4e487b7100000000000000000000000000000000000000000000000000000000600052603260045260246000fd5b7f4e487b7100000000000000000000000000000000000000000000000000000000600052603160045260246000fdfea264697066735822122045fa85ada7bfda712a2066627fae1229c529f2d03b5c3ba4fd2386e9327ce75864736f6c634300080a0033",
    "linkReferences": {}
  }
}