{
  "abi": [
    {
      "inputs": [
        {
          "internalType": "contract ISanctis",
          "name": "newSanctis",
          "type": "address"
        }
      ],
      "stateMutability": "nonpayable",
      "type": "constructor"
    },
    {
      "inputs": [
        {
          "internalType": "uint256",
          "name": "fleetId",
          "type": "uint256"
        }
      ],
      "name": "AlreadyExists",
      "type": "error"
    },
    {
      "inputs": [
        {
          "internalType": "uint256",
          "name": "fleetId",
          "type": "uint256"
        }
      ],
      "name": "AlreadyMoving",
      "type": "error"
    },
    {
      "inputs": [
        {
          "internalType": "uint256",
          "name": "fleetId",
          "type": "uint256"
        }
      ],
      "name": "EmptyFleet",
      "type": "error"
    },
    {
      "inputs": [
        {
          "internalType": "uint256",
          "name": "fleetId",
          "type": "uint256"
        },
        {
          "internalType": "uint256",
          "name": "status",
          "type": "uint256"
        }
      ],
      "name": "InvalidFleetStatus",
      "type": "error"
    },
    {
      "inputs": [
        {
          "internalType": "uint256",
          "name": "planet",
          "type": "uint256"
        }
      ],
      "name": "InvalidPlanet",
      "type": "error"
    },
    {
      "inputs": [
        {
          "internalType": "address",
          "name": "sender",
          "type": "address"
        }
      ],
      "name": "NotAllowed",
      "type": "error"
    },
    {
      "inputs": [
        {
          "internalType": "uint256",
          "name": "fleetId",
          "type": "uint256"
        }
      ],
      "name": "NotArrivedYet",
      "type": "error"
    },
    {
      "inputs": [
        {
          "internalType": "uint256",
          "name": "commanderId",
          "type": "uint256"
        }
      ],
      "name": "NotCommanderOwner",
      "type": "error"
    },
    {
      "inputs": [
        {
          "internalType": "uint256",
          "name": "fleetId",
          "type": "uint256"
        },
        {
          "internalType": "uint256",
          "name": "capacity",
          "type": "uint256"
        }
      ],
      "name": "NotEnoughCapacity",
      "type": "error"
    },
    {
      "inputs": [
        {
          "internalType": "uint256",
          "name": "commanderId",
          "type": "uint256"
        },
        {
          "internalType": "uint256",
          "name": "planetId",
          "type": "uint256"
        }
      ],
      "name": "NotRuler",
      "type": "error"
    },
    {
      "inputs": [
        {
          "internalType": "address",
          "name": "sender",
          "type": "address"
        }
      ],
      "name": "NotTheExecutor",
      "type": "error"
    },
    {
      "inputs": [
        {
          "internalType": "address",
          "name": "sender",
          "type": "address"
        }
      ],
      "name": "NotTheSanctis",
      "type": "error"
    },
    {
      "anonymous": false,
      "inputs": [
        {
          "indexed": false,
          "internalType": "uint256",
          "name": "fleet",
          "type": "uint256"
        },
        {
          "indexed": false,
          "internalType": "uint256",
          "name": "from",
          "type": "uint256"
        },
        {
          "indexed": false,
          "internalType": "uint256",
          "name": "to",
          "type": "uint256"
        }
      ],
      "name": "Moved",
      "type": "event"
    },
    {
      "inputs": [
        {
          "internalType": "uint256",
          "name": "fleetId",
          "type": "uint256"
        },
        {
          "internalType": "contract IShip",
          "name": "ship",
          "type": "address"
        },
        {
          "internalType": "uint256",
          "name": "amount",
          "type": "uint256"
        }
      ],
      "name": "addToFleet",
      "outputs": [],
      "stateMutability": "nonpayable",
      "type": "function"
    },
    {
      "inputs": [
        {
          "internalType": "uint256",
          "name": "fleetId",
          "type": "uint256"
        },
        {
          "internalType": "contract IResource",
          "name": "resource",
          "type": "address"
        },
        {
          "internalType": "uint256",
          "name": "amount",
          "type": "uint256"
        }
      ],
      "name": "allowedLoad",
      "outputs": [],
      "stateMutability": "nonpayable",
      "type": "function"
    },
    {
      "inputs": [
        {
          "internalType": "uint256",
          "name": "fleetId",
          "type": "uint256"
        },
        {
          "internalType": "contract IResource",
          "name": "resource",
          "type": "address"
        },
        {
          "internalType": "uint256",
          "name": "amount",
          "type": "uint256"
        }
      ],
      "name": "allowedUnload",
      "outputs": [],
      "stateMutability": "nonpayable",
      "type": "function"
    },
    {
      "inputs": [
        {
          "internalType": "contract ISanctis",
          "name": "newSanctis",
          "type": "address"
        }
      ],
      "name": "changeSanctis",
      "outputs": [],
      "stateMutability": "nonpayable",
      "type": "function"
    },
    {
      "inputs": [
        {
          "internalType": "uint256",
          "name": "fleetId",
          "type": "uint256"
        },
        {
          "internalType": "uint256",
          "name": "commanderId",
          "type": "uint256"
        },
        {
          "internalType": "uint256",
          "name": "planetId",
          "type": "uint256"
        }
      ],
      "name": "createFleet",
      "outputs": [],
      "stateMutability": "nonpayable",
      "type": "function"
    },
    {
      "inputs": [
        {
          "internalType": "uint256",
          "name": "fleetId",
          "type": "uint256"
        }
      ],
      "name": "fleet",
      "outputs": [
        {
          "components": [
            {
              "internalType": "uint256",
              "name": "commander",
              "type": "uint256"
            },
            {
              "internalType": "uint256",
              "name": "fromPlanetId",
              "type": "uint256"
            },
            {
              "internalType": "uint256",
              "name": "toPlanetId",
              "type": "uint256"
            },
            {
              "internalType": "uint256",
              "name": "totalSpeed",
              "type": "uint256"
            },
            {
              "internalType": "uint256",
              "name": "totalOffensivePower",
              "type": "uint256"
            },
            {
              "internalType": "uint256",
              "name": "totalDefensivePower",
              "type": "uint256"
            },
            {
              "internalType": "uint256",
              "name": "capacity",
              "type": "uint256"
            },
            {
              "internalType": "uint256",
              "name": "ships",
              "type": "uint256"
            },
            {
              "internalType": "uint256",
              "name": "arrivalBlock",
              "type": "uint256"
            },
            {
              "internalType": "uint256",
              "name": "status",
              "type": "uint256"
            }
          ],
          "internalType": "struct IFleets.Fleet",
          "name": "",
          "type": "tuple"
        }
      ],
      "stateMutability": "view",
      "type": "function"
    },
    {
      "inputs": [
        {
          "internalType": "uint256",
          "name": "planetId",
          "type": "uint256"
        },
        {
          "internalType": "uint256",
          "name": "index",
          "type": "uint256"
        }
      ],
      "name": "fleetOnPlanetByIndex",
      "outputs": [
        {
          "internalType": "uint256",
          "name": "",
          "type": "uint256"
        }
      ],
      "stateMutability": "view",
      "type": "function"
    },
    {
      "inputs": [
        {
          "internalType": "uint256",
          "name": "planetId",
          "type": "uint256"
        }
      ],
      "name": "fleetsOnPlanet",
      "outputs": [
        {
          "internalType": "uint256",
          "name": "",
          "type": "uint256"
        }
      ],
      "stateMutability": "view",
      "type": "function"
    },
    {
      "inputs": [],
      "name": "key",
      "outputs": [
        {
          "internalType": "bytes32",
          "name": "",
          "type": "bytes32"
        }
      ],
      "stateMutability": "view",
      "type": "function"
    },
    {
      "inputs": [
        {
          "internalType": "uint256",
          "name": "fleetId",
          "type": "uint256"
        }
      ],
      "name": "land",
      "outputs": [],
      "stateMutability": "nonpayable",
      "type": "function"
    },
    {
      "inputs": [
        {
          "internalType": "uint256",
          "name": "fleetId",
          "type": "uint256"
        },
        {
          "internalType": "contract IResource",
          "name": "resource",
          "type": "address"
        },
        {
          "internalType": "uint256",
          "name": "amount",
          "type": "uint256"
        }
      ],
      "name": "load",
      "outputs": [],
      "stateMutability": "nonpayable",
      "type": "function"
    },
    {
      "inputs": [
        {
          "internalType": "uint256",
          "name": "fleetId",
          "type": "uint256"
        },
        {
          "internalType": "uint256",
          "name": "toPlanetId",
          "type": "uint256"
        }
      ],
      "name": "moveFleet",
      "outputs": [],
      "stateMutability": "nonpayable",
      "type": "function"
    },
    {
      "inputs": [
        {
          "internalType": "uint256",
          "name": "planetId",
          "type": "uint256"
        }
      ],
      "name": "planet",
      "outputs": [
        {
          "internalType": "uint256",
          "name": "",
          "type": "uint256"
        },
        {
          "internalType": "uint256",
          "name": "",
          "type": "uint256"
        }
      ],
      "stateMutability": "view",
      "type": "function"
    },
    {
      "inputs": [
        {
          "internalType": "uint256",
          "name": "fleetId",
          "type": "uint256"
        }
      ],
      "name": "putInOrbit",
      "outputs": [],
      "stateMutability": "nonpayable",
      "type": "function"
    },
    {
      "inputs": [
        {
          "internalType": "uint256",
          "name": "fleetId",
          "type": "uint256"
        },
        {
          "internalType": "contract IShip",
          "name": "ship",
          "type": "address"
        },
        {
          "internalType": "uint256",
          "name": "amount",
          "type": "uint256"
        }
      ],
      "name": "removeFromFleet",
      "outputs": [],
      "stateMutability": "nonpayable",
      "type": "function"
    },
    {
      "inputs": [
        {
          "internalType": "contract IResource",
          "name": "resource",
          "type": "address"
        },
        {
          "internalType": "uint256",
          "name": "fleetId",
          "type": "uint256"
        }
      ],
      "name": "resourceInFleet",
      "outputs": [
        {
          "internalType": "uint256",
          "name": "",
          "type": "uint256"
        }
      ],
      "stateMutability": "view",
      "type": "function"
    },
    {
      "inputs": [],
      "name": "s_sanctis",
      "outputs": [
        {
          "internalType": "contract ISanctis",
          "name": "",
          "type": "address"
        }
      ],
      "stateMutability": "view",
      "type": "function"
    },
    {
      "inputs": [],
      "name": "sanctis",
      "outputs": [
        {
          "internalType": "contract ISanctis",
          "name": "",
          "type": "address"
        }
      ],
      "stateMutability": "view",
      "type": "function"
    },
    {
      "inputs": [
        {
          "internalType": "uint256",
          "name": "fleetId",
          "type": "uint256"
        },
        {
          "components": [
            {
              "internalType": "uint256",
              "name": "commander",
              "type": "uint256"
            },
            {
              "internalType": "uint256",
              "name": "fromPlanetId",
              "type": "uint256"
            },
            {
              "internalType": "uint256",
              "name": "toPlanetId",
              "type": "uint256"
            },
            {
              "internalType": "uint256",
              "name": "totalSpeed",
              "type": "uint256"
            },
            {
              "internalType": "uint256",
              "name": "totalOffensivePower",
              "type": "uint256"
            },
            {
              "internalType": "uint256",
              "name": "totalDefensivePower",
              "type": "uint256"
            },
            {
              "internalType": "uint256",
              "name": "capacity",
              "type": "uint256"
            },
            {
              "internalType": "uint256",
              "name": "ships",
              "type": "uint256"
            },
            {
              "internalType": "uint256",
              "name": "arrivalBlock",
              "type": "uint256"
            },
            {
              "internalType": "uint256",
              "name": "status",
              "type": "uint256"
            }
          ],
          "internalType": "struct IFleets.Fleet",
          "name": "newFleet",
          "type": "tuple"
        }
      ],
      "name": "setFleet",
      "outputs": [],
      "stateMutability": "nonpayable",
      "type": "function"
    },
    {
      "inputs": [
        {
          "internalType": "uint256",
          "name": "fleetId",
          "type": "uint256"
        }
      ],
      "name": "settleFleet",
      "outputs": [],
      "stateMutability": "nonpayable",
      "type": "function"
    },
    {
      "inputs": [
        {
          "internalType": "contract IShip",
          "name": "ship",
          "type": "address"
        },
        {
          "internalType": "uint256",
          "name": "fleetId",
          "type": "uint256"
        }
      ],
      "name": "shipsInFleet",
      "outputs": [
        {
          "internalType": "uint256",
          "name": "",
          "type": "uint256"
        }
      ],
      "stateMutability": "view",
      "type": "function"
    },
    {
      "inputs": [
        {
          "internalType": "uint256",
          "name": "fleetId",
          "type": "uint256"
        },
        {
          "internalType": "contract IResource",
          "name": "resource",
          "type": "address"
        },
        {
          "internalType": "uint256",
          "name": "amount",
          "type": "uint256"
        }
      ],
      "name": "unload",
      "outputs": [],
      "stateMutability": "nonpayable",
      "type": "function"
    }
  ],
  "bytecode": {
    "object": "0x60806040523480156200001157600080fd5b5060405162002fa338038062002fa3833981016040819052620000349162000067565b600080546001600160a01b0319166001600160a01b039290921691909117905565464c4545545360d01b60015562000099565b6000602082840312156200007a57600080fd5b81516001600160a01b03811681146200009257600080fd5b9392505050565b612efa80620000a96000396000f3fe608060405234801561001057600080fd5b50600436106101825760003560e01c8063861e4656116100d8578063a3dc0ed31161008c578063dbbd073511610066578063dbbd073514610429578063f8606e621461043c578063fce1ffe61461044f57600080fd5b8063a3dc0ed3146103c0578063bed660bc146103d3578063bf206e451461041657600080fd5b80639b80fbf1116100bd5780639b80fbf114610387578063a090658c1461039a578063a0e0f099146103ad57600080fd5b8063861e4656146103545780639797efda1461036757600080fd5b80632b4070e31161013a5780635087883f116101145780635087883f146102885780637419e9a2146102b5578063755677b91461034157600080fd5b80632b4070e31461025a5780633943380c1461026d57806345e140661461027557600080fd5b80630f0cec7c1161016b5780630f0cec7c146101af57806312f41e15146101d5578063181c1bc41461021857600080fd5b806302e7a998146101875780630a2055a81461019c575b600080fd5b61019a610195366004612a4c565b610462565b005b61019a6101aa366004612a4c565b610617565b6101c26101bd366004612a84565b610be6565b6040519081526020015b60405180910390f35b6101c26101e3366004612aa6565b73ffffffffffffffffffffffffffffffffffffffff919091166000908152600760209081526040808320938352929052205490565b610245610226366004612ad2565b6000908152600460209081526040808320546005909252909120549091565b604080519283526020830191909152016101cc565b6101c2610268366004612ad2565b610c07565b6001546101c2565b61019a610283366004612ad2565b610c1e565b610290610e11565b60405173ffffffffffffffffffffffffffffffffffffffff90911681526020016101cc565b6102c86102c3366004612ad2565b610f11565b6040516101cc9190600061014082019050825182526020830151602083015260408301516040830152606083015160608301526080830151608083015260a083015160a083015260c083015160c083015260e083015160e083015261010080840151818401525061012080840151818401525092915050565b61019a61034f366004612a4c565b610fe8565b61019a610362366004612ad2565b61116a565b6000546102909073ffffffffffffffffffffffffffffffffffffffff1681565b61019a610395366004612a4c565b611316565b61019a6103a8366004612ad2565b6118b1565b61019a6103bb366004612a4c565b611a1c565b61019a6103ce366004612aeb565b611ae6565b6101c26103e1366004612aa6565b73ffffffffffffffffffffffffffffffffffffffff919091166000908152600660209081526040808320938352929052205490565b61019a610424366004612b17565b611dc6565b61019a610437366004612a84565b611eef565b61019a61044a366004612b8c565b61233d565b61019a61045d366004612a4c565b612478565b60008381526002602052604090205461047b9033612542565b600083815260026020526040902060090154158015906104ad5750600083815260026020526040902060090154600114155b1561050b57600083815260026020526040908190206009015490517ff0fec4f3000000000000000000000000000000000000000000000000000000008152610502918591600401918252602082015260400190565b60405180910390fd5b6000838152600260205260408120600601805483929061052c908490612c80565b909155505073ffffffffffffffffffffffffffffffffffffffff8216600090815260066020908152604080832086845290915281208054839290610571908490612c98565b9091555050600083815260026020526040908190206001015490517f1b2ef1ca00000000000000000000000000000000000000000000000000000000815260048101919091526024810182905273ffffffffffffffffffffffffffffffffffffffff831690631b2ef1ca906044015b600060405180830381600087803b1580156105fa57600080fd5b505af115801561060e573d6000803e3d6000fd5b50505050505050565b6000838152600260208181526040808420815161014081018352815480825260018301548286015282860154938201939093526003820154606082015260048201546080820152600582015460a0820152600682015460c0820152600782015460e08201526008820154610100820152600990910154610120820152938790529190526106a49033612542565b6106ad846126ca565b610120810151156106fb576101208101516040517ff0fec4f3000000000000000000000000000000000000000000000000000000008152610502918691600401918252602082015260400190565b8273ffffffffffffffffffffffffffffffffffffffff1663c20906ac6040518163ffffffff1660e01b8152600401602060405180830381865afa158015610746573d6000803e3d6000fd5b505050506040513d601f19601f8201168201806040525081019061076a9190612caf565b6107749083612cc8565b816060018181516107859190612c98565b915081815250508273ffffffffffffffffffffffffffffffffffffffff1663ec2799826040518163ffffffff1660e01b8152600401602060405180830381865afa1580156107d7573d6000803e3d6000fd5b505050506040513d601f19601f820116820180604052508101906107fb9190612caf565b6108059083612cc8565b816080018181516108169190612c98565b915081815250508273ffffffffffffffffffffffffffffffffffffffff1663ec2799826040518163ffffffff1660e01b8152600401602060405180830381865afa158015610868573d6000803e3d6000fd5b505050506040513d601f19601f8201168201806040525081019061088c9190612caf565b6108969083612cc8565b600460008360200151815260200190815260200160002060008282546108bc9190612c98565b925050819055508273ffffffffffffffffffffffffffffffffffffffff1663ffcc977d6040518163ffffffff1660e01b8152600401602060405180830381865afa15801561090e573d6000803e3d6000fd5b505050506040513d601f19601f820116820180604052508101906109329190612caf565b61093c9083612cc8565b8160a00181815161094d9190612c98565b915081815250508273ffffffffffffffffffffffffffffffffffffffff1663ffcc977d6040518163ffffffff1660e01b8152600401602060405180830381865afa15801561099f573d6000803e3d6000fd5b505050506040513d601f19601f820116820180604052508101906109c39190612caf565b6109cd9083612cc8565b600560008360200151815260200190815260200160002060008282546109f39190612c98565b925050819055508273ffffffffffffffffffffffffffffffffffffffff16635cfc1a516040518163ffffffff1660e01b8152600401602060405180830381865afa158015610a45573d6000803e3d6000fd5b505050506040513d601f19601f82011682018060405250810190610a699190612caf565b610a739083612cc8565b8160c001818151610a849190612c98565b90525060e081018051839190610a9b908390612c98565b9052506000848152600260208181526040808420855181558286015160018201558186015193810193909355606085015160038401556080850151600484015560a0850151600584015560c0850151600684015560e0850151600780850191909155610100860151600885015561012086015160099094019390935573ffffffffffffffffffffffffffffffffffffffff87168452918152818320878452905281208054849290610b4d908490612c98565b909155505060208101516040517f1b2ef1ca00000000000000000000000000000000000000000000000000000000815260048101919091526024810183905273ffffffffffffffffffffffffffffffffffffffff841690631b2ef1ca906044015b600060405180830381600087803b158015610bc857600080fd5b505af1158015610bdc573d6000803e3d6000fd5b5050505050505050565b6000828152600360205260408120610bfe9083612890565b90505b92915050565b6000818152600360205260408120610c019061289c565b6000818152600260208181526040808420815161014081018352815480825260018301548286015282860154938201939093526003820154606082015260048201546080820152600582015460a0820152600682015460c0820152600782015460e0820152600882015461010082015260099091015461012082015293859052919052610cab9033612542565b610cb4826126ca565b61012081015115610d02576101208101516040517ff0fec4f3000000000000000000000000000000000000000000000000000000008152610502918491600401918252602082015260400190565b60e0810151610d40576040517fe8fd96e600000000000000000000000000000000000000000000000000000000815260048101839052602401610502565b60016101208201818152600084815260026020818152604080842087518155828801519681018790558188015193810193909355606087015160038401556080870151600480850182905560a0890151600586015560c0890151600686015560e089015160078601556101008901516008860155955160099094019390935594835292909252918220805491929091610dda908490612c98565b909155505060a081015160208083015160009081526005909152604081208054909190610e08908490612c98565b90915550505050565b60008054604080517f475853040000000000000000000000000000000000000000000000000000000081529051339273ffffffffffffffffffffffffffffffffffffffff169163475853049160048083019260209291908290030181865afa158015610e81573d6000803e3d6000fd5b505050506040513d601f19601f82011682018060405250810190610ea59190612d05565b73ffffffffffffffffffffffffffffffffffffffff1614610ef4576040517f968c45d9000000000000000000000000000000000000000000000000000000008152336004820152602401610502565b5060005473ffffffffffffffffffffffffffffffffffffffff1690565b610f67604051806101400160405280600081526020016000815260200160008152602001600081526020016000815260200160008152602001600081526020016000815260200160008152602001600081525090565b506000908152600260208181526040928390208351610140810185528154815260018201549281019290925291820154928101929092526003810154606083015260048101546080830152600581015460a0830152600681015460c0830152600781015460e083015260088101546101008301526009015461012082015290565b6000838152600260205260409020546110019033612542565b61100a836126ca565b6000838152600260205260409020600901541580159061103c5750600083815260026020526040902060090154600114155b1561109157600083815260026020526040908190206009015490517ff0fec4f3000000000000000000000000000000000000000000000000000000008152610502918591600401918252602082015260400190565b600083815260026020526040812060060180548392906110b2908490612c98565b909155505073ffffffffffffffffffffffffffffffffffffffff82166000908152600660209081526040808320868452909152812080548392906110f7908490612c80565b9091555050600083815260026020526040908190206001015490517fb390c0ab00000000000000000000000000000000000000000000000000000000815260048101919091526024810182905273ffffffffffffffffffffffffffffffffffffffff83169063b390c0ab906044016105e0565b6000818152600260208181526040808420815161014081018352815480825260018301548286015282860154938201939093526003820154606082015260048201546080820152600582015460a0820152600682015460c0820152600782015460e08201526008820154610100820152600990910154610120820152938590529190526111f79033612542565b611200826126ca565b600181610120015114611250576101208101516040517ff0fec4f3000000000000000000000000000000000000000000000000000000008152610502918491600401918252602082015260400190565b600061012082018181528382526002602081815260408085208651815582870151600182018190558288015194820194909455606087015160038201556080870151600480830182905560a0890151600584015560c0890151600684015560e08901516007840155610100890151600884015595516009909201919091559285529290529082208054919290916112e8908490612c80565b909155505060a081015160208083015160009081526005909152604081208054909190610e08908490612c80565b6000838152600260208181526040808420815161014081018352815480825260018301548286015282860154938201939093526003820154606082015260048201546080820152600582015460a0820152600682015460c0820152600782015460e08201526008820154610100820152600990910154610120820152938790529190526113a39033612542565b6113ac846126ca565b610120810151156113fa576101208101516040517ff0fec4f3000000000000000000000000000000000000000000000000000000008152610502918691600401918252602082015260400190565b8273ffffffffffffffffffffffffffffffffffffffff1663c20906ac6040518163ffffffff1660e01b8152600401602060405180830381865afa158015611445573d6000803e3d6000fd5b505050506040513d601f19601f820116820180604052508101906114699190612caf565b6114739083612cc8565b816060018181516114849190612c80565b915081815250508273ffffffffffffffffffffffffffffffffffffffff1663ec2799826040518163ffffffff1660e01b8152600401602060405180830381865afa1580156114d6573d6000803e3d6000fd5b505050506040513d601f19601f820116820180604052508101906114fa9190612caf565b6115049083612cc8565b816080018181516115159190612c80565b915081815250508273ffffffffffffffffffffffffffffffffffffffff1663ec2799826040518163ffffffff1660e01b8152600401602060405180830381865afa158015611567573d6000803e3d6000fd5b505050506040513d601f19601f8201168201806040525081019061158b9190612caf565b6115959083612cc8565b600460008360200151815260200190815260200160002060008282546115bb9190612c80565b925050819055508273ffffffffffffffffffffffffffffffffffffffff1663ffcc977d6040518163ffffffff1660e01b8152600401602060405180830381865afa15801561160d573d6000803e3d6000fd5b505050506040513d601f19601f820116820180604052508101906116319190612caf565b61163b9083612cc8565b8160a00181815161164c9190612c80565b915081815250508273ffffffffffffffffffffffffffffffffffffffff1663ffcc977d6040518163ffffffff1660e01b8152600401602060405180830381865afa15801561169e573d6000803e3d6000fd5b505050506040513d601f19601f820116820180604052508101906116c29190612caf565b6116cc9083612cc8565b600560008360200151815260200190815260200160002060008282546116f29190612c80565b925050819055508273ffffffffffffffffffffffffffffffffffffffff16635cfc1a516040518163ffffffff1660e01b8152600401602060405180830381865afa158015611744573d6000803e3d6000fd5b505050506040513d601f19601f820116820180604052508101906117689190612caf565b6117729083612cc8565b8160c0018181516117839190612c80565b90525060e08101805183919061179a908390612c80565b9052506000848152600260208181526040808420855181558286015160018201558186015193810193909355606085015160038401556080850151600484015560a0850151600584015560c0850151600684015560e0850151600780850191909155610100860151600885015561012086015160099094019390935573ffffffffffffffffffffffffffffffffffffffff8716845291815281832087845290528120805484929061184c908490612c80565b909155505060208101516040517fb390c0ab00000000000000000000000000000000000000000000000000000000815260048101919091526024810183905273ffffffffffffffffffffffffffffffffffffffff84169063b390c0ab90604401610bae565b6000818152600260208181526040928390208351610140810185528154815260018201549281019290925280830154938201939093526003830154606082015260048301546080820152600583015460a0820152600683015460c0820152600783015460e08201526008830154610100820152600990920154610120830181905214801590611944575043816101000151115b1561197e576040517f9d7f13fd00000000000000000000000000000000000000000000000000000000815260048101839052602401610502565b600161012082018181526040808401805160208087019182526000888152600280835285822089518155935197840188905593519383019390935560608701516003808401919091556080880151600484015560a0880151600584015560c0880151600684015560e08801516007840155610100880151600884015594516009909201919091559381529190925220611a1790836128a6565b505050565b6000546040517fd63a8e1100000000000000000000000000000000000000000000000000000000815233600482015273ffffffffffffffffffffffffffffffffffffffff9091169063d63a8e1190602401602060405180830381865afa158015611a8a573d6000803e3d6000fd5b505050506040513d601f19601f82011682018060405250810190611aae9190612d22565b611091576040517ffa5cd00f000000000000000000000000000000000000000000000000000000008152336004820152602401610502565b600083815260026020818152604092839020835161014081018552815480825260018301549382019390935292810154938301939093526003830154606083015260048301546080830152600583015460a0830152600683015460c0830152600783015460e083015260088301546101008301526009909201546101208201529015611ba1576040517fb0631b3200000000000000000000000000000000000000000000000000000000815260048101859052602401610502565b6000546040517f8a5cde0a0000000000000000000000000000000000000000000000000000000081527f504c414e455453000000000000000000000000000000000000000000000000006004820152849173ffffffffffffffffffffffffffffffffffffffff1690638a5cde0a90602401602060405180830381865afa158015611c2f573d6000803e3d6000fd5b505050506040513d601f19601f82011682018060405250810190611c539190612d05565b73ffffffffffffffffffffffffffffffffffffffff1663181c1bc4846040518263ffffffff1660e01b8152600401611c8d91815260200190565b60c060405180830381865afa158015611caa573d6000803e3d6000fd5b505050506040513d601f19601f82011682018060405250810190611cce9190612d6c565b5114611d10576040517fb1c2082b0000000000000000000000000000000000000000000000000000000081526004810184905260248101839052604401610502565b828152602080820183815260408084018581526000606086018181526080870182815260a0880183815260c0890184815260e08a018581526101008b018681526101208c018781528f88526002808d528a89208e5181559b5160018d01559851988b019890985594516003808b0191909155935160048a01559151600589015551600688015551600787015590516008860155915160099094019390935585835290925220611dbf90856128a6565b5050505050565b600054604080517f475853040000000000000000000000000000000000000000000000000000000081529051339273ffffffffffffffffffffffffffffffffffffffff169163475853049160048083019260209291908290030181865afa158015611e35573d6000803e3d6000fd5b505050506040513d601f19601f82011682018060405250810190611e599190612d05565b73ffffffffffffffffffffffffffffffffffffffff1614611ea8576040517f968c45d9000000000000000000000000000000000000000000000000000000008152336004820152602401610502565b600080547fffffffffffffffffffffffff00000000000000000000000000000000000000001673ffffffffffffffffffffffffffffffffffffffff92909216919091179055565b6000828152600260208181526040808420815161014081018352815480825260018301548286015282860154938201939093526003820154606082015260048201546080820152600582015460a0820152600682015460c0820152600782015460e0820152600882015461010082015260099091015461012082015293869052919052611f7c9033612542565b600181610120015114611fcc576101208101516040517ff0fec4f3000000000000000000000000000000000000000000000000000000008152610502918591600401918252602082015260400190565b600080546040517f8a5cde0a0000000000000000000000000000000000000000000000000000000081527f504c414e45545300000000000000000000000000000000000000000000000000600482015273ffffffffffffffffffffffffffffffffffffffff90911690638a5cde0a90602401602060405180830381865afa15801561205b573d6000803e3d6000fd5b505050506040513d601f19601f8201168201806040525081019061207f9190612d05565b73ffffffffffffffffffffffffffffffffffffffff1663181c1bc4846040518263ffffffff1660e01b81526004016120b991815260200190565b60c060405180830381865afa1580156120d6573d6000803e3d6000fd5b505050506040513d601f19601f820116820180604052508101906120fa9190612d6c565b60a081015190915060ff1661213e576040517fb455751f00000000000000000000000000000000000000000000000000000000815260048101849052602401610502565b60026101208301526040820183905260e082015160608301516121619190612e2b565b6000546040517f8a5cde0a0000000000000000000000000000000000000000000000000000000081527f504c414e45545300000000000000000000000000000000000000000000000000600482015273ffffffffffffffffffffffffffffffffffffffff90911690638a5cde0a90602401602060405180830381865afa1580156121ef573d6000803e3d6000fd5b505050506040513d601f19601f820116820180604052508101906122139190612d05565b73ffffffffffffffffffffffffffffffffffffffff1663ce89f0638460200151866040518363ffffffff1660e01b815260040161225a929190918252602082015260400190565b602060405180830381865afa158015612277573d6000803e3d6000fd5b505050506040513d601f19601f8201168201806040525081019061229b9190612caf565b6122a59190612e2b565b6122af9043612c80565b61010083019081526000858152600260208181526040808420875181558288015160018201819055828901519482019490945560608801516003808301919091556080890151600483015560a0890151600583015560c0890151600683015560e08901516007830155955160088201556101208801516009909101559183529290925220611dbf90856128b2565b6000546040517fd63a8e1100000000000000000000000000000000000000000000000000000000815233600482015273ffffffffffffffffffffffffffffffffffffffff9091169063d63a8e1190602401602060405180830381865afa1580156123ab573d6000803e3d6000fd5b505050506040513d601f19601f820116820180604052508101906123cf9190612d22565b612407576040517ffa5cd00f000000000000000000000000000000000000000000000000000000008152336004820152602401610502565b600091825260026020818152604093849020835181559083015160018201559282015190830155606081015160038301556080810151600483015560a0810151600583015560c0810151600683015560e0810151600783015561010081015160088301556101200151600990910155565b6000546040517fd63a8e1100000000000000000000000000000000000000000000000000000000815233600482015273ffffffffffffffffffffffffffffffffffffffff9091169063d63a8e1190602401602060405180830381865afa1580156124e6573d6000803e3d6000fd5b505050506040513d601f19601f8201168201806040525081019061250a9190612d22565b61050b576040517ffa5cd00f000000000000000000000000000000000000000000000000000000008152336004820152602401610502565b6000546040517f8a5cde0a0000000000000000000000000000000000000000000000000000000081527f434f4d4d414e4445525300000000000000000000000000000000000000000000600482015273ffffffffffffffffffffffffffffffffffffffff90911690638a5cde0a90602401602060405180830381865afa1580156125d0573d6000803e3d6000fd5b505050506040513d601f19601f820116820180604052508101906125f49190612d05565b6040517f2a16cca400000000000000000000000000000000000000000000000000000000815273ffffffffffffffffffffffffffffffffffffffff8381166004830152602482018590529190911690632a16cca490604401602060405180830381865afa158015612669573d6000803e3d6000fd5b505050506040513d601f19601f8201168201806040525081019061268d9190612d22565b6126c6576040517fd706d79f00000000000000000000000000000000000000000000000000000000815260048101839052602401610502565b5050565b60008181526002602052604080822054915490517f8a5cde0a0000000000000000000000000000000000000000000000000000000081527f504c414e45545300000000000000000000000000000000000000000000000000600482015273ffffffffffffffffffffffffffffffffffffffff90911690638a5cde0a90602401602060405180830381865afa158015612766573d6000803e3d6000fd5b505050506040513d601f19601f8201168201806040525081019061278a9190612d05565b600083815260026020526040908190206001015490517f181c1bc400000000000000000000000000000000000000000000000000000000815273ffffffffffffffffffffffffffffffffffffffff929092169163181c1bc4916127f39160040190815260200190565b60c060405180830381865afa158015612810573d6000803e3d6000fd5b505050506040513d601f19601f820116820180604052508101906128349190612d6c565b511461288d5760008181526002602052604090819020805460019091015491517fb1c2082b0000000000000000000000000000000000000000000000000000000081526105029290600401918252602082015260400190565b50565b6000610bfe83836128be565b6000610c01825490565b6000610bfe83836128e8565b6000610bfe8383612937565b60008260000182815481106128d5576128d5612e66565b9060005260206000200154905092915050565b600081815260018301602052604081205461292f57508154600181810184556000848152602080822090930184905584548482528286019093526040902091909155610c01565b506000610c01565b60008181526001830160205260408120548015612a2057600061295b600183612c98565b855490915060009061296f90600190612c98565b90508181146129d457600086600001828154811061298f5761298f612e66565b90600052602060002001549050808760000184815481106129b2576129b2612e66565b6000918252602080832090910192909255918252600188019052604090208390555b85548690806129e5576129e5612e95565b600190038181906000526020600020016000905590558560010160008681526020019081526020016000206000905560019350505050610c01565b6000915050610c01565b73ffffffffffffffffffffffffffffffffffffffff8116811461288d57600080fd5b600080600060608486031215612a6157600080fd5b833592506020840135612a7381612a2a565b929592945050506040919091013590565b60008060408385031215612a9757600080fd5b50508035926020909101359150565b60008060408385031215612ab957600080fd5b8235612ac481612a2a565b946020939093013593505050565b600060208284031215612ae457600080fd5b5035919050565b600080600060608486031215612b0057600080fd5b505081359360208301359350604090920135919050565b600060208284031215612b2957600080fd5b8135612b3481612a2a565b9392505050565b604051610140810167ffffffffffffffff81118282101715612b86577f4e487b7100000000000000000000000000000000000000000000000000000000600052604160045260246000fd5b60405290565b600080828403610160811215612ba157600080fd5b83359250610140807fffffffffffffffffffffffffffffffffffffffffffffffffffffffffffffffe083011215612bd757600080fd5b612bdf612b3b565b91506020850135825260408501356020830152606085013560408301526080850135606083015260a0850135608083015260c085013560a083015260e085013560c08301526101008086013560e084015261012080870135828501528287013581850152505050809150509250929050565b7f4e487b7100000000000000000000000000000000000000000000000000000000600052601160045260246000fd5b60008219821115612c9357612c93612c51565b500190565b600082821015612caa57612caa612c51565b500390565b600060208284031215612cc157600080fd5b5051919050565b6000817fffffffffffffffffffffffffffffffffffffffffffffffffffffffffffffffff0483118215151615612d0057612d00612c51565b500290565b600060208284031215612d1757600080fd5b8151612b3481612a2a565b600060208284031215612d3457600080fd5b81518015158114612b3457600080fd5b8051600981900b8114612d5657600080fd5b919050565b805160ff81168114612d5657600080fd5b600060c08284031215612d7e57600080fd5b60405160c0810181811067ffffffffffffffff82111715612dc8577f4e487b7100000000000000000000000000000000000000000000000000000000600052604160045260246000fd5b60405282518152612ddb60208401612d44565b6020820152612dec60408401612d44565b6040820152612dfd60608401612d44565b6060820152612e0e60808401612d5b565b6080820152612e1f60a08401612d5b565b60a08201529392505050565b600082612e61577f4e487b7100000000000000000000000000000000000000000000000000000000600052601260045260246000fd5b500490565b7f4e487b7100000000000000000000000000000000000000000000000000000000600052603260045260246000fd5b7f4e487b7100000000000000000000000000000000000000000000000000000000600052603160045260246000fdfea2646970667358221220d4c85643722f277a2acd3dfbf33880723ebd4ea01b33e8533524a534519bf69464736f6c634300080a0033",
    "linkReferences": {}
  }
}