{
  "abi": [
    {
      "inputs": [
        {
          "internalType": "contract ISanctis",
          "name": "_sanctis",
          "type": "address"
        }
      ],
      "stateMutability": "nonpayable",
      "type": "constructor"
    },
    {
      "inputs": [
        {
          "internalType": "address",
          "name": "sender",
          "type": "address"
        }
      ],
      "name": "NotAllowed",
      "type": "error"
    },
    {
      "inputs": [
        {
          "internalType": "address",
          "name": "sender",
          "type": "address"
        }
      ],
      "name": "NotTheExecutor",
      "type": "error"
    },
    {
      "inputs": [
        {
          "internalType": "address",
          "name": "sender",
          "type": "address"
        }
      ],
      "name": "NotTheSanctis",
      "type": "error"
    },
    {
      "inputs": [
        {
          "internalType": "contract ISanctis",
          "name": "newSanctis",
          "type": "address"
        }
      ],
      "name": "changeSanctis",
      "outputs": [],
      "stateMutability": "nonpayable",
      "type": "function"
    },
    {
      "inputs": [],
      "name": "name",
      "outputs": [
        {
          "internalType": "string",
          "name": "",
          "type": "string"
        }
      ],
      "stateMutability": "view",
      "type": "function"
    },
    {
      "inputs": [],
      "name": "s_sanctis",
      "outputs": [
        {
          "internalType": "contract ISanctis",
          "name": "",
          "type": "address"
        }
      ],
      "stateMutability": "view",
      "type": "function"
    },
    {
      "inputs": [],
      "name": "sanctis",
      "outputs": [
        {
          "internalType": "contract ISanctis",
          "name": "",
          "type": "address"
        }
      ],
      "stateMutability": "view",
      "type": "function"
    }
  ],
  "bytecode": {
    "object": "0x608060405234801561001057600080fd5b5060405161068938038061068983398101604081905261002f9161011b565b6040805180820190915260068082526548756d616e7360d01b60208301908152600080546001600160a01b0319166001600160a01b03861617905583929161007991600191610082565b50505050610186565b82805461008e9061014b565b90600052602060002090601f0160209004810192826100b057600085556100f6565b82601f106100c957805160ff19168380011785556100f6565b828001600101855582156100f6579182015b828111156100f65782518255916020019190600101906100db565b50610102929150610106565b5090565b5b808211156101025760008155600101610107565b60006020828403121561012d57600080fd5b81516001600160a01b038116811461014457600080fd5b9392505050565b600181811c9082168061015f57607f821691505b6020821081141561018057634e487b7160e01b600052602260045260246000fd5b50919050565b6104f4806101956000396000f3fe608060405234801561001057600080fd5b506004361061004c5760003560e01c806306fdde03146100515780635087883f1461006f5780639797efda1461009c578063bf206e45146100bc575b600080fd5b6100596100d1565b6040516100669190610391565b60405180910390f35b610077610163565b60405173ffffffffffffffffffffffffffffffffffffffff9091168152602001610066565b6000546100779073ffffffffffffffffffffffffffffffffffffffff1681565b6100cf6100ca366004610429565b610268565b005b6060600180546100e09061044d565b80601f016020809104026020016040519081016040528092919081815260200182805461010c9061044d565b80156101595780601f1061012e57610100808354040283529160200191610159565b820191906000526020600020905b81548152906001019060200180831161013c57829003601f168201915b5050505050905090565b60008054604080517f475853040000000000000000000000000000000000000000000000000000000081529051339273ffffffffffffffffffffffffffffffffffffffff169163475853049160048083019260209291908290030181865afa1580156101d3573d6000803e3d6000fd5b505050506040513d601f19601f820116820180604052508101906101f791906104a1565b73ffffffffffffffffffffffffffffffffffffffff161461024b576040517f968c45d90000000000000000000000000000000000000000000000000000000081523360048201526024015b60405180910390fd5b5060005473ffffffffffffffffffffffffffffffffffffffff1690565b600054604080517f475853040000000000000000000000000000000000000000000000000000000081529051339273ffffffffffffffffffffffffffffffffffffffff169163475853049160048083019260209291908290030181865afa1580156102d7573d6000803e3d6000fd5b505050506040513d601f19601f820116820180604052508101906102fb91906104a1565b73ffffffffffffffffffffffffffffffffffffffff161461034a576040517f968c45d9000000000000000000000000000000000000000000000000000000008152336004820152602401610242565b600080547fffffffffffffffffffffffff00000000000000000000000000000000000000001673ffffffffffffffffffffffffffffffffffffffff92909216919091179055565b600060208083528351808285015260005b818110156103be578581018301518582016040015282016103a2565b818111156103d0576000604083870101525b50601f017fffffffffffffffffffffffffffffffffffffffffffffffffffffffffffffffe016929092016040019392505050565b73ffffffffffffffffffffffffffffffffffffffff8116811461042657600080fd5b50565b60006020828403121561043b57600080fd5b813561044681610404565b9392505050565b600181811c9082168061046157607f821691505b6020821081141561049b577f4e487b7100000000000000000000000000000000000000000000000000000000600052602260045260246000fd5b50919050565b6000602082840312156104b357600080fd5b81516104468161040456fea2646970667358221220d980ae4af908a4c994cb42fa334689dad50521e30a114fb520973dcd790e698e64736f6c634300080a0033",
    "linkReferences": {}
  }
}