{
  "abi": [
    {
      "inputs": [
        {
          "internalType": "contract ISanctis",
          "name": "_sanctis",
          "type": "address"
        }
      ],
      "stateMutability": "nonpayable",
      "type": "constructor"
    },
    {
      "inputs": [
        {
          "internalType": "address",
          "name": "sender",
          "type": "address"
        }
      ],
      "name": "NotAllowed",
      "type": "error"
    },
    {
      "inputs": [
        {
          "internalType": "address",
          "name": "sender",
          "type": "address"
        }
      ],
      "name": "NotTheExecutor",
      "type": "error"
    },
    {
      "inputs": [
        {
          "internalType": "address",
          "name": "sender",
          "type": "address"
        }
      ],
      "name": "NotTheSanctis",
      "type": "error"
    },
    {
      "inputs": [
        {
          "internalType": "contract ISanctis",
          "name": "newSanctis",
          "type": "address"
        }
      ],
      "name": "changeSanctis",
      "outputs": [],
      "stateMutability": "nonpayable",
      "type": "function"
    },
    {
      "inputs": [],
      "name": "name",
      "outputs": [
        {
          "internalType": "string",
          "name": "",
          "type": "string"
        }
      ],
      "stateMutability": "view",
      "type": "function"
    },
    {
      "inputs": [],
      "name": "sanctis",
      "outputs": [
        {
          "internalType": "contract ISanctis",
          "name": "",
          "type": "address"
        }
      ],
      "stateMutability": "view",
      "type": "function"
    }
  ],
  "bytecode": {
    "object": "0x608060405234801561001057600080fd5b506040516104a63803806104a683398101604081905261002f9161011b565b6040805180820190915260068082526548756d616e7360d01b60208301908152600080546001600160a01b0319166001600160a01b03861617905583929161007991600191610082565b50505050610186565b82805461008e9061014b565b90600052602060002090601f0160209004810192826100b057600085556100f6565b82601f106100c957805160ff19168380011785556100f6565b828001600101855582156100f6579182015b828111156100f65782518255916020019190600101906100db565b50610102929150610106565b5090565b5b808211156101025760008155600101610107565b60006020828403121561012d57600080fd5b81516001600160a01b038116811461014457600080fd5b9392505050565b600181811c9082168061015f57607f821691505b6020821081141561018057634e487b7160e01b600052602260045260246000fd5b50919050565b610311806101956000396000f3fe608060405234801561001057600080fd5b50600436106100415760003560e01c806306fdde03146100465780635087883f14610064578063bf206e451461008f575b600080fd5b61004e6100a4565b60405161005b91906101f2565b60405180910390f35b600054610077906001600160a01b031681565b6040516001600160a01b03909116815260200161005b565b6100a261009d36600461025f565b610136565b005b6060600180546100b390610283565b80601f01602080910402602001604051908101604052809291908181526020018280546100df90610283565b801561012c5780601f106101015761010080835404028352916020019161012c565b820191906000526020600020905b81548152906001019060200180831161010f57829003601f168201915b5050505050905090565b600054604080516311d614c160e21b8152905133926001600160a01b03169163475853049160048083019260209291908290030181865afa15801561017f573d6000803e3d6000fd5b505050506040513d601f19601f820116820180604052508101906101a391906102be565b6001600160a01b0316146101d05760405163968c45d960e01b815233600482015260240160405180910390fd5b600080546001600160a01b0319166001600160a01b0392909216919091179055565b600060208083528351808285015260005b8181101561021f57858101830151858201604001528201610203565b81811115610231576000604083870101525b50601f01601f1916929092016040019392505050565b6001600160a01b038116811461025c57600080fd5b50565b60006020828403121561027157600080fd5b813561027c81610247565b9392505050565b600181811c9082168061029757607f821691505b602082108114156102b857634e487b7160e01b600052602260045260246000fd5b50919050565b6000602082840312156102d057600080fd5b815161027c8161024756fea2646970667358221220f5964360b331457412bf1441e2be6f1d776781f5379ebd46820947bc3b16a1e964736f6c634300080a0033",
    "linkReferences": {}
  }
}