{
  "abi": [
    {
      "inputs": [
        {
          "internalType": "contract ISanctis",
          "name": "_sanctis",
          "type": "address"
        }
      ],
      "stateMutability": "nonpayable",
      "type": "constructor"
    },
    {
      "inputs": [
        {
          "internalType": "contract ISanctis",
          "name": "newSanctis",
          "type": "address"
        }
      ],
      "name": "changeSanctis",
      "outputs": [],
      "stateMutability": "nonpayable",
      "type": "function"
    },
    {
      "inputs": [],
      "name": "name",
      "outputs": [
        {
          "internalType": "string",
          "name": "",
          "type": "string"
        }
      ],
      "stateMutability": "view",
      "type": "function"
    },
    {
      "inputs": [],
      "name": "s_sanctis",
      "outputs": [
        {
          "internalType": "contract ISanctis",
          "name": "",
          "type": "address"
        }
      ],
      "stateMutability": "view",
      "type": "function"
    },
    {
      "inputs": [],
      "name": "sanctis",
      "outputs": [
        {
          "internalType": "contract ISanctis",
          "name": "",
          "type": "address"
        }
      ],
      "stateMutability": "view",
      "type": "function"
    }
  ],
  "bytecode": {
    "object": "0x608060405234801561001057600080fd5b506040516106e53803806106e583398101604081905261002f9161011b565b6040805180820190915260068082526548756d616e7360d01b60208301908152600080546001600160a01b0319166001600160a01b03861617905583929161007991600191610082565b50505050610186565b82805461008e9061014b565b90600052602060002090601f0160209004810192826100b057600085556100f6565b82601f106100c957805160ff19168380011785556100f6565b828001600101855582156100f6579182015b828111156100f65782518255916020019190600101906100db565b50610102929150610106565b5090565b5b808211156101025760008155600101610107565b60006020828403121561012d57600080fd5b81516001600160a01b038116811461014457600080fd5b9392505050565b600181811c9082168061015f57607f821691505b6020821081141561018057634e487b7160e01b600052602260045260246000fd5b50919050565b610550806101956000396000f3fe608060405234801561001057600080fd5b506004361061004c5760003560e01c806306fdde03146100515780635087883f1461006f5780639797efda1461009c578063bf206e45146100bc575b600080fd5b6100596100d1565b60405161006691906103ed565b60405180910390f35b610077610163565b60405173ffffffffffffffffffffffffffffffffffffffff9091168152602001610066565b6000546100779073ffffffffffffffffffffffffffffffffffffffff1681565b6100cf6100ca366004610485565b610296565b005b6060600180546100e0906104a9565b80601f016020809104026020016040519081016040528092919081815260200182805461010c906104a9565b80156101595780601f1061012e57610100808354040283529160200191610159565b820191906000526020600020905b81548152906001019060200180831161013c57829003601f168201915b5050505050905090565b60008054604080517f475853040000000000000000000000000000000000000000000000000000000081529051339273ffffffffffffffffffffffffffffffffffffffff169163475853049160048083019260209291908290030181865afa1580156101d3573d6000803e3d6000fd5b505050506040513d601f19601f820116820180604052508101906101f791906104fd565b73ffffffffffffffffffffffffffffffffffffffff1614610279576040517f08c379a000000000000000000000000000000000000000000000000000000000815260206004820152601060248201527f4d6f64756c653a204578656375746f720000000000000000000000000000000060448201526064015b60405180910390fd5b5060005473ffffffffffffffffffffffffffffffffffffffff1690565b600054604080517f475853040000000000000000000000000000000000000000000000000000000081529051339273ffffffffffffffffffffffffffffffffffffffff169163475853049160048083019260209291908290030181865afa158015610305573d6000803e3d6000fd5b505050506040513d601f19601f8201168201806040525081019061032991906104fd565b73ffffffffffffffffffffffffffffffffffffffff16146103a6576040517f08c379a000000000000000000000000000000000000000000000000000000000815260206004820152601060248201527f4d6f64756c653a204578656375746f72000000000000000000000000000000006044820152606401610270565b600080547fffffffffffffffffffffffff00000000000000000000000000000000000000001673ffffffffffffffffffffffffffffffffffffffff92909216919091179055565b600060208083528351808285015260005b8181101561041a578581018301518582016040015282016103fe565b8181111561042c576000604083870101525b50601f017fffffffffffffffffffffffffffffffffffffffffffffffffffffffffffffffe016929092016040019392505050565b73ffffffffffffffffffffffffffffffffffffffff8116811461048257600080fd5b50565b60006020828403121561049757600080fd5b81356104a281610460565b9392505050565b600181811c908216806104bd57607f821691505b602082108114156104f7577f4e487b7100000000000000000000000000000000000000000000000000000000600052602260045260246000fd5b50919050565b60006020828403121561050f57600080fd5b81516104a28161046056fea2646970667358221220c7a25d8fe5fdb4b9d4ea374cc7df6e32c4c020c015cc7a6ea848afa71db437f764736f6c634300080a0033",
    "linkReferences": {}
  }
}