{
  "abi": [
    {
      "inputs": [
        {
          "internalType": "contract ISanctis",
          "name": "_sanctis",
          "type": "address"
        },
        {
          "internalType": "uint256",
          "name": "delay",
          "type": "uint256"
        },
        {
          "internalType": "contract IResource[]",
          "name": "costResources",
          "type": "address[]"
        },
        {
          "internalType": "uint256[]",
          "name": "costsBase",
          "type": "uint256[]"
        },
        {
          "internalType": "uint256[]",
          "name": "costsRates",
          "type": "uint256[]"
        }
      ],
      "stateMutability": "nonpayable",
      "type": "constructor"
    },
    {
      "inputs": [
        {
          "internalType": "contract ISanctis",
          "name": "newSanctis",
          "type": "address"
        }
      ],
      "name": "changeSanctis",
      "outputs": [],
      "stateMutability": "nonpayable",
      "type": "function"
    },
    {
      "inputs": [
        {
          "internalType": "uint256",
          "name": "planetId",
          "type": "uint256"
        }
      ],
      "name": "costs",
      "outputs": [
        {
          "internalType": "contract IResource[]",
          "name": "",
          "type": "address[]"
        },
        {
          "internalType": "uint256[]",
          "name": "",
          "type": "uint256[]"
        }
      ],
      "stateMutability": "view",
      "type": "function"
    },
    {
      "inputs": [
        {
          "internalType": "uint256",
          "name": "planetId",
          "type": "uint256"
        }
      ],
      "name": "create",
      "outputs": [],
      "stateMutability": "nonpayable",
      "type": "function"
    },
    {
      "inputs": [
        {
          "internalType": "uint256",
          "name": "planetId",
          "type": "uint256"
        }
      ],
      "name": "level",
      "outputs": [
        {
          "internalType": "uint256",
          "name": "",
          "type": "uint256"
        }
      ],
      "stateMutability": "view",
      "type": "function"
    },
    {
      "inputs": [
        {
          "internalType": "uint256",
          "name": "planetId",
          "type": "uint256"
        }
      ],
      "name": "nextUpgrade",
      "outputs": [
        {
          "internalType": "uint256",
          "name": "",
          "type": "uint256"
        }
      ],
      "stateMutability": "view",
      "type": "function"
    },
    {
      "inputs": [],
      "name": "s_sanctis",
      "outputs": [
        {
          "internalType": "contract ISanctis",
          "name": "",
          "type": "address"
        }
      ],
      "stateMutability": "view",
      "type": "function"
    },
    {
      "inputs": [],
      "name": "sanctis",
      "outputs": [
        {
          "internalType": "contract ISanctis",
          "name": "",
          "type": "address"
        }
      ],
      "stateMutability": "view",
      "type": "function"
    },
    {
      "inputs": [
        {
          "internalType": "uint256",
          "name": "planetId",
          "type": "uint256"
        }
      ],
      "name": "upgrade",
      "outputs": [],
      "stateMutability": "nonpayable",
      "type": "function"
    }
  ],
  "bytecode": {
    "object": "0x60806040523480156200001157600080fd5b50604051620013c1380380620013c183398101604081905262000034916200023d565b600080546001600160a01b0319166001600160a01b03871617815560028590555b82518110156200013657600384828151811062000076576200007662000357565b60209081029190910181015182546001810184556000938452919092200180546001600160a01b0319166001600160a01b039092169190911790558251600490849083908110620000cb57620000cb62000357565b60209081029190910181015182546001810184556000938452919092200155815160059083908390811062000104576200010462000357565b602090810291909101810151825460018101845560009384529190922001556200012e816200036d565b905062000055565b50505050505062000397565b6001600160a01b03811681146200015857600080fd5b50565b634e487b7160e01b600052604160045260246000fd5b604051601f8201601f191681016001600160401b03811182821017156200019c576200019c6200015b565b604052919050565b60006001600160401b03821115620001c057620001c06200015b565b5060051b60200190565b600082601f830112620001dc57600080fd5b81516020620001f5620001ef83620001a4565b62000171565b82815260059290921b840181019181810190868411156200021557600080fd5b8286015b8481101562000232578051835291830191830162000219565b509695505050505050565b600080600080600060a086880312156200025657600080fd5b8551620002638162000142565b60208781015160408901519297509550906001600160401b03808211156200028a57600080fd5b818901915089601f8301126200029f57600080fd5b8151620002b0620001ef82620001a4565b81815260059190911b8301840190848101908c831115620002d057600080fd5b938501935b82851015620002fb578451620002eb8162000142565b82529385019390850190620002d5565b60608c015190985094505050808311156200031557600080fd5b620003238a848b01620001ca565b945060808901519250808311156200033a57600080fd5b50506200034a88828901620001ca565b9150509295509295909350565b634e487b7160e01b600052603260045260246000fd5b60006000198214156200039057634e487b7160e01b600052601160045260246000fd5b5060010190565b61101a80620003a76000396000f3fe608060405234801561001057600080fd5b50600436106100885760003560e01c8063780900dc1161005b578063780900dc146101235780639797efda14610136578063bf206e4514610156578063f8cd14261461016957600080fd5b806305c58df21461008d57806345977d03146100c057806349b3b29f146100d55780635087883f146100f6575b600080fd5b6100ad61009b366004610ca7565b60009081526001602052604090205490565b6040519081526020015b60405180910390f35b6100d36100ce366004610ca7565b61017c565b005b6100e86100e3366004610ca7565b6102e2565b6040516100b7929190610cc0565b6100fe610370565b60405173ffffffffffffffffffffffffffffffffffffffff90911681526020016100b7565b6100d3610131366004610ca7565b6104a3565b6000546100fe9073ffffffffffffffffffffffffffffffffffffffff1681565b6100d3610164366004610d73565b61068c565b6100ad610177366004610ca7565b6107e3565b61018633826107f4565b61018f81610adb565b61019d816000526001602052565b6000818152600160205260408120546101b590610b50565b9050600180600084815260200190815260200160002060000160008282546101dd9190610dc6565b909155505060008281526001602081905260408220439101555b81518110156102dd576003818154811061021357610213610dde565b9060005260206000200160009054906101000a900473ffffffffffffffffffffffffffffffffffffffff1673ffffffffffffffffffffffffffffffffffffffff1663b390c0ab8484848151811061026c5761026c610dde565b60200260200101516040518363ffffffff1660e01b815260040161029a929190918252602082015260400190565b600060405180830381600087803b1580156102b457600080fd5b505af11580156102c8573d6000803e3d6000fd5b50505050806102d690610e0d565b90506101f7565b505050565b600081815260016020526040902054606090819060039061030290610b50565b81546040805160208084028201810190925282815291849183018282801561036057602002820191906000526020600020905b815473ffffffffffffffffffffffffffffffffffffffff168152600190910190602001808311610335575b5050505050915091509150915091565b60008054604080517f475853040000000000000000000000000000000000000000000000000000000081529051339273ffffffffffffffffffffffffffffffffffffffff169163475853049160048083019260209291908290030181865afa1580156103e0573d6000803e3d6000fd5b505050506040513d601f19601f820116820180604052508101906104049190610e46565b73ffffffffffffffffffffffffffffffffffffffff1614610486576040517f08c379a000000000000000000000000000000000000000000000000000000000815260206004820152601060248201527f4d6f64756c653a204578656375746f720000000000000000000000000000000060448201526064015b60405180910390fd5b5060005473ffffffffffffffffffffffffffffffffffffffff1690565b60008181526001602052604090205415610519576040517f08c379a000000000000000000000000000000000000000000000000000000000815260206004820152600e60248201527f416c726561647920657869737473000000000000000000000000000000000000604482015260640161047d565b61052333826107f4565b60408051808201825260018082524360208084019182526000868152838252858120945185559151939092019290925560048054845181840281018401909552808552929392909183018282801561059a57602002820191906000526020600020905b815481526020019060010190808311610586575b5050505050905060005b81518110156102dd57600381815481106105c0576105c0610dde565b9060005260206000200160009054906101000a900473ffffffffffffffffffffffffffffffffffffffff1673ffffffffffffffffffffffffffffffffffffffff1663b390c0ab8484848151811061061957610619610dde565b60200260200101516040518363ffffffff1660e01b8152600401610647929190918252602082015260400190565b600060405180830381600087803b15801561066157600080fd5b505af1158015610675573d6000803e3d6000fd5b50505050808061068490610e0d565b9150506105a4565b600054604080517f475853040000000000000000000000000000000000000000000000000000000081529051339273ffffffffffffffffffffffffffffffffffffffff169163475853049160048083019260209291908290030181865afa1580156106fb573d6000803e3d6000fd5b505050506040513d601f19601f8201168201806040525081019061071f9190610e46565b73ffffffffffffffffffffffffffffffffffffffff161461079c576040517f08c379a000000000000000000000000000000000000000000000000000000000815260206004820152601060248201527f4d6f64756c653a204578656375746f7200000000000000000000000000000000604482015260640161047d565b600080547fffffffffffffffffffffffff00000000000000000000000000000000000000001673ffffffffffffffffffffffffffffffffffffffff92909216919091179055565b60006107ee82610c6e565b92915050565b6000546040517f8a5cde0a0000000000000000000000000000000000000000000000000000000081527f434f4d4d414e4445525300000000000000000000000000000000000000000000600482015273ffffffffffffffffffffffffffffffffffffffff90911690638a5cde0a90602401602060405180830381865afa158015610882573d6000803e3d6000fd5b505050506040513d601f19601f820116820180604052508101906108a69190610e46565b6000546040517f8a5cde0a0000000000000000000000000000000000000000000000000000000081527f504c414e45545300000000000000000000000000000000000000000000000000600482015273ffffffffffffffffffffffffffffffffffffffff92831692632a16cca4928692911690638a5cde0a90602401602060405180830381865afa15801561093f573d6000803e3d6000fd5b505050506040513d601f19601f820116820180604052508101906109639190610e46565b73ffffffffffffffffffffffffffffffffffffffff1663181c1bc4856040518263ffffffff1660e01b815260040161099d91815260200190565b60c060405180830381865afa1580156109ba573d6000803e3d6000fd5b505050506040513d601f19601f820116820180604052508101906109de9190610e8b565b5160405160e084901b7fffffffff0000000000000000000000000000000000000000000000000000000016815273ffffffffffffffffffffffffffffffffffffffff90921660048301526024820152604401602060405180830381865afa158015610a4d573d6000803e3d6000fd5b505050506040513d601f19601f82011682018060405250810190610a719190610f4a565b610ad7576040517f08c379a000000000000000000000000000000000000000000000000000000000815260206004820152601560248201527f496e6672617374727563747572653a204f776e65640000000000000000000000604482015260640161047d565b5050565b610ae481610c6e565b431015610b4d576040517f08c379a000000000000000000000000000000000000000000000000000000000815260206004820152601860248201527f496e6672617374727563747572653a20546f6f20736f6f6e0000000000000000604482015260640161047d565b50565b606060006004805480602002602001604051908101604052809291908181526020018280548015610ba057602002820191906000526020600020905b815481526020019060010190808311610b8c575b5050505050905060005b8151811015610c675760028460058381548110610bc957610bc9610dde565b9060005260206000200154610bde9190610f6c565b610be89190610fa9565b828281518110610bfa57610bfa610dde565b6020026020010151610c0c9190610dc6565b610c169085610f6c565b828281518110610c2857610c28610dde565b6020026020010151610c3a9190610dc6565b828281518110610c4c57610c4c610dde565b6020908102919091010152610c6081610e0d565b9050610baa565b5092915050565b600081815260016020526040812054600254610c8a9190610f6c565b600083815260016020819052604090912001546107ee9190610dc6565b600060208284031215610cb957600080fd5b5035919050565b604080825283519082018190526000906020906060840190828701845b82811015610d0f57815173ffffffffffffffffffffffffffffffffffffffff1684529284019290840190600101610cdd565b5050508381038285015284518082528583019183019060005b81811015610d4457835183529284019291840191600101610d28565b5090979650505050505050565b73ffffffffffffffffffffffffffffffffffffffff81168114610b4d57600080fd5b600060208284031215610d8557600080fd5b8135610d9081610d51565b9392505050565b7f4e487b7100000000000000000000000000000000000000000000000000000000600052601160045260246000fd5b60008219821115610dd957610dd9610d97565b500190565b7f4e487b7100000000000000000000000000000000000000000000000000000000600052603260045260246000fd5b60007fffffffffffffffffffffffffffffffffffffffffffffffffffffffffffffffff821415610e3f57610e3f610d97565b5060010190565b600060208284031215610e5857600080fd5b8151610d9081610d51565b8051600981900b8114610e7557600080fd5b919050565b805160ff81168114610e7557600080fd5b600060c08284031215610e9d57600080fd5b60405160c0810181811067ffffffffffffffff82111715610ee7577f4e487b7100000000000000000000000000000000000000000000000000000000600052604160045260246000fd5b60405282518152610efa60208401610e63565b6020820152610f0b60408401610e63565b6040820152610f1c60608401610e63565b6060820152610f2d60808401610e7a565b6080820152610f3e60a08401610e7a565b60a08201529392505050565b600060208284031215610f5c57600080fd5b81518015158114610d9057600080fd5b6000817fffffffffffffffffffffffffffffffffffffffffffffffffffffffffffffffff0483118215151615610fa457610fa4610d97565b500290565b600082610fdf577f4e487b7100000000000000000000000000000000000000000000000000000000600052601260045260246000fd5b50049056fea2646970667358221220a71e38b89fc9f69eca5a8b5091c57b3fb41c03b0f9019accd77dd3a9ef0f5d2b64736f6c634300080a0033",
    "linkReferences": {}
  }
}