{
  "abi": [
    {
      "inputs": [
        {
          "internalType": "contract ISanctis",
          "name": "_sanctis",
          "type": "address"
        },
        {
          "internalType": "uint256",
          "name": "delay",
          "type": "uint256"
        },
        {
          "internalType": "contract IResource[]",
          "name": "costResources",
          "type": "address[]"
        },
        {
          "internalType": "uint256[]",
          "name": "costsBase",
          "type": "uint256[]"
        },
        {
          "internalType": "uint256[]",
          "name": "costsRates",
          "type": "uint256[]"
        }
      ],
      "stateMutability": "nonpayable",
      "type": "constructor"
    },
    {
      "inputs": [
        {
          "internalType": "address",
          "name": "infrastructure",
          "type": "address"
        },
        {
          "internalType": "uint256",
          "name": "planetId",
          "type": "uint256"
        }
      ],
      "name": "InfrastructureDoesNotExist",
      "type": "error"
    },
    {
      "inputs": [
        {
          "internalType": "address",
          "name": "sender",
          "type": "address"
        }
      ],
      "name": "NotAllowed",
      "type": "error"
    },
    {
      "inputs": [
        {
          "internalType": "uint256",
          "name": "planetId",
          "type": "uint256"
        },
        {
          "internalType": "contract IResource",
          "name": "resource",
          "type": "address"
        }
      ],
      "name": "NotEnoughResource",
      "type": "error"
    },
    {
      "inputs": [
        {
          "internalType": "address",
          "name": "sender",
          "type": "address"
        }
      ],
      "name": "NotTheExecutor",
      "type": "error"
    },
    {
      "inputs": [
        {
          "internalType": "address",
          "name": "sender",
          "type": "address"
        }
      ],
      "name": "NotTheSanctis",
      "type": "error"
    },
    {
      "inputs": [
        {
          "internalType": "uint256",
          "name": "planetId",
          "type": "uint256"
        }
      ],
      "name": "PlanetNotOwned",
      "type": "error"
    },
    {
      "inputs": [
        {
          "internalType": "uint256",
          "name": "planetId",
          "type": "uint256"
        },
        {
          "internalType": "contract IResource",
          "name": "resource",
          "type": "address"
        }
      ],
      "name": "ResourceNotOnPlanet",
      "type": "error"
    },
    {
      "inputs": [
        {
          "internalType": "uint256",
          "name": "planetId",
          "type": "uint256"
        },
        {
          "internalType": "uint256",
          "name": "soonestUpgrade",
          "type": "uint256"
        }
      ],
      "name": "TooSoonToUpgrade",
      "type": "error"
    },
    {
      "inputs": [
        {
          "internalType": "contract ISanctis",
          "name": "newSanctis",
          "type": "address"
        }
      ],
      "name": "changeSanctis",
      "outputs": [],
      "stateMutability": "nonpayable",
      "type": "function"
    },
    {
      "inputs": [
        {
          "internalType": "uint256",
          "name": "planetId",
          "type": "uint256"
        }
      ],
      "name": "costs",
      "outputs": [
        {
          "internalType": "contract IResource[]",
          "name": "",
          "type": "address[]"
        },
        {
          "internalType": "uint256[]",
          "name": "",
          "type": "uint256[]"
        }
      ],
      "stateMutability": "view",
      "type": "function"
    },
    {
      "inputs": [
        {
          "internalType": "uint256",
          "name": "planetId",
          "type": "uint256"
        }
      ],
      "name": "create",
      "outputs": [],
      "stateMutability": "nonpayable",
      "type": "function"
    },
    {
      "inputs": [
        {
          "internalType": "uint256",
          "name": "planetId",
          "type": "uint256"
        }
      ],
      "name": "level",
      "outputs": [
        {
          "internalType": "uint256",
          "name": "",
          "type": "uint256"
        }
      ],
      "stateMutability": "view",
      "type": "function"
    },
    {
      "inputs": [
        {
          "internalType": "uint256",
          "name": "planetId",
          "type": "uint256"
        }
      ],
      "name": "nextUpgrade",
      "outputs": [
        {
          "internalType": "uint256",
          "name": "",
          "type": "uint256"
        }
      ],
      "stateMutability": "view",
      "type": "function"
    },
    {
      "inputs": [],
      "name": "s_sanctis",
      "outputs": [
        {
          "internalType": "contract ISanctis",
          "name": "",
          "type": "address"
        }
      ],
      "stateMutability": "view",
      "type": "function"
    },
    {
      "inputs": [],
      "name": "sanctis",
      "outputs": [
        {
          "internalType": "contract ISanctis",
          "name": "",
          "type": "address"
        }
      ],
      "stateMutability": "view",
      "type": "function"
    },
    {
      "inputs": [
        {
          "internalType": "uint256",
          "name": "planetId",
          "type": "uint256"
        }
      ],
      "name": "upgrade",
      "outputs": [],
      "stateMutability": "nonpayable",
      "type": "function"
    }
  ],
  "bytecode": {
    "object": "0x60806040523480156200001157600080fd5b50604051620013603803806200136083398101604081905262000034916200023d565b600080546001600160a01b0319166001600160a01b03871617815560028590555b82518110156200013657600384828151811062000076576200007662000357565b60209081029190910181015182546001810184556000938452919092200180546001600160a01b0319166001600160a01b039092169190911790558251600490849083908110620000cb57620000cb62000357565b60209081029190910181015182546001810184556000938452919092200155815160059083908390811062000104576200010462000357565b602090810291909101810151825460018101845560009384529190922001556200012e816200036d565b905062000055565b50505050505062000397565b6001600160a01b03811681146200015857600080fd5b50565b634e487b7160e01b600052604160045260246000fd5b604051601f8201601f191681016001600160401b03811182821017156200019c576200019c6200015b565b604052919050565b60006001600160401b03821115620001c057620001c06200015b565b5060051b60200190565b600082601f830112620001dc57600080fd5b81516020620001f5620001ef83620001a4565b62000171565b82815260059290921b840181019181810190868411156200021557600080fd5b8286015b8481101562000232578051835291830191830162000219565b509695505050505050565b600080600080600060a086880312156200025657600080fd5b8551620002638162000142565b60208781015160408901519297509550906001600160401b03808211156200028a57600080fd5b818901915089601f8301126200029f57600080fd5b8151620002b0620001ef82620001a4565b81815260059190911b8301840190848101908c831115620002d057600080fd5b938501935b82851015620002fb578451620002eb8162000142565b82529385019390850190620002d5565b60608c015190985094505050808311156200031557600080fd5b620003238a848b01620001ca565b945060808901519250808311156200033a57600080fd5b50506200034a88828901620001ca565b9150509295509295909350565b634e487b7160e01b600052603260045260246000fd5b60006000198214156200039057634e487b7160e01b600052601160045260246000fd5b5060010190565b610fb980620003a76000396000f3fe608060405234801561001057600080fd5b50600436106100885760003560e01c8063780900dc1161005b578063780900dc146101235780639797efda14610136578063bf206e4514610156578063f8cd14261461016957600080fd5b806305c58df21461008d57806345977d03146100c057806349b3b29f146100d55780635087883f146100f6575b600080fd5b6100ad61009b366004610c46565b60009081526001602052604090205490565b6040519081526020015b60405180910390f35b6100d36100ce366004610c46565b61017c565b005b6100e86100e3366004610c46565b6102dd565b6040516100b7929190610c5f565b6100fe61036b565b60405173ffffffffffffffffffffffffffffffffffffffff90911681526020016100b7565b6100d3610131366004610c46565b610470565b6000546100fe9073ffffffffffffffffffffffffffffffffffffffff1681565b6100d3610164366004610d12565b610659565b6100ad610177366004610c46565b610782565b6101863382610793565b61018f81610a4d565b61019881610a9e565b6000818152600160205260408120546101b090610aef565b9050600180600084815260200190815260200160002060000160008282546101d89190610d65565b909155505060008281526001602081905260408220439101555b81518110156102d8576003818154811061020e5761020e610d7d565b9060005260206000200160009054906101000a900473ffffffffffffffffffffffffffffffffffffffff1673ffffffffffffffffffffffffffffffffffffffff1663b390c0ab8484848151811061026757610267610d7d565b60200260200101516040518363ffffffff1660e01b8152600401610295929190918252602082015260400190565b600060405180830381600087803b1580156102af57600080fd5b505af11580156102c3573d6000803e3d6000fd5b50505050806102d190610dac565b90506101f2565b505050565b60008181526001602052604090205460609081906003906102fd90610aef565b81546040805160208084028201810190925282815291849183018282801561035b57602002820191906000526020600020905b815473ffffffffffffffffffffffffffffffffffffffff168152600190910190602001808311610330575b5050505050915091509150915091565b60008054604080517f475853040000000000000000000000000000000000000000000000000000000081529051339273ffffffffffffffffffffffffffffffffffffffff169163475853049160048083019260209291908290030181865afa1580156103db573d6000803e3d6000fd5b505050506040513d601f19601f820116820180604052508101906103ff9190610de5565b73ffffffffffffffffffffffffffffffffffffffff1614610453576040517f968c45d90000000000000000000000000000000000000000000000000000000081523360048201526024015b60405180910390fd5b5060005473ffffffffffffffffffffffffffffffffffffffff1690565b600081815260016020526040902054156104e6576040517f08c379a000000000000000000000000000000000000000000000000000000000815260206004820152600e60248201527f416c726561647920657869737473000000000000000000000000000000000000604482015260640161044a565b6104f03382610793565b60408051808201825260018082524360208084019182526000868152838252858120945185559151939092019290925560048054845181840281018401909552808552929392909183018282801561056757602002820191906000526020600020905b815481526020019060010190808311610553575b5050505050905060005b81518110156102d8576003818154811061058d5761058d610d7d565b9060005260206000200160009054906101000a900473ffffffffffffffffffffffffffffffffffffffff1673ffffffffffffffffffffffffffffffffffffffff1663b390c0ab848484815181106105e6576105e6610d7d565b60200260200101516040518363ffffffff1660e01b8152600401610614929190918252602082015260400190565b600060405180830381600087803b15801561062e57600080fd5b505af1158015610642573d6000803e3d6000fd5b50505050808061065190610dac565b915050610571565b600054604080517f475853040000000000000000000000000000000000000000000000000000000081529051339273ffffffffffffffffffffffffffffffffffffffff169163475853049160048083019260209291908290030181865afa1580156106c8573d6000803e3d6000fd5b505050506040513d601f19601f820116820180604052508101906106ec9190610de5565b73ffffffffffffffffffffffffffffffffffffffff161461073b576040517f968c45d900000000000000000000000000000000000000000000000000000000815233600482015260240161044a565b600080547fffffffffffffffffffffffff00000000000000000000000000000000000000001673ffffffffffffffffffffffffffffffffffffffff92909216919091179055565b600061078d82610c0d565b92915050565b6000546040517f8a5cde0a0000000000000000000000000000000000000000000000000000000081527f434f4d4d414e4445525300000000000000000000000000000000000000000000600482015273ffffffffffffffffffffffffffffffffffffffff90911690638a5cde0a90602401602060405180830381865afa158015610821573d6000803e3d6000fd5b505050506040513d601f19601f820116820180604052508101906108459190610de5565b6000546040517f8a5cde0a0000000000000000000000000000000000000000000000000000000081527f504c414e45545300000000000000000000000000000000000000000000000000600482015273ffffffffffffffffffffffffffffffffffffffff92831692632a16cca4928692911690638a5cde0a90602401602060405180830381865afa1580156108de573d6000803e3d6000fd5b505050506040513d601f19601f820116820180604052508101906109029190610de5565b73ffffffffffffffffffffffffffffffffffffffff1663181c1bc4856040518263ffffffff1660e01b815260040161093c91815260200190565b60c060405180830381865afa158015610959573d6000803e3d6000fd5b505050506040513d601f19601f8201168201806040525081019061097d9190610e2a565b5160405160e084901b7fffffffff0000000000000000000000000000000000000000000000000000000016815273ffffffffffffffffffffffffffffffffffffffff90921660048301526024820152604401602060405180830381865afa1580156109ec573d6000803e3d6000fd5b505050506040513d601f19601f82011682018060405250810190610a109190610ee9565b610a49576040517f9ea83e560000000000000000000000000000000000000000000000000000000081526004810182905260240161044a565b5050565b6000610a5882610c0d565b905080431015610a49576040517fe0512699000000000000000000000000000000000000000000000000000000008152600481018390526024810182905260440161044a565b600081815260016020526040902054610aec576040517f2a857f6c0000000000000000000000000000000000000000000000000000000081523060048201526024810182905260440161044a565b50565b606060006004805480602002602001604051908101604052809291908181526020018280548015610b3f57602002820191906000526020600020905b815481526020019060010190808311610b2b575b5050505050905060005b8151811015610c065760028460058381548110610b6857610b68610d7d565b9060005260206000200154610b7d9190610f0b565b610b879190610f48565b828281518110610b9957610b99610d7d565b6020026020010151610bab9190610d65565b610bb59085610f0b565b828281518110610bc757610bc7610d7d565b6020026020010151610bd99190610d65565b828281518110610beb57610beb610d7d565b6020908102919091010152610bff81610dac565b9050610b49565b5092915050565b600081815260016020526040812054600254610c299190610f0b565b6000838152600160208190526040909120015461078d9190610d65565b600060208284031215610c5857600080fd5b5035919050565b604080825283519082018190526000906020906060840190828701845b82811015610cae57815173ffffffffffffffffffffffffffffffffffffffff1684529284019290840190600101610c7c565b5050508381038285015284518082528583019183019060005b81811015610ce357835183529284019291840191600101610cc7565b5090979650505050505050565b73ffffffffffffffffffffffffffffffffffffffff81168114610aec57600080fd5b600060208284031215610d2457600080fd5b8135610d2f81610cf0565b9392505050565b7f4e487b7100000000000000000000000000000000000000000000000000000000600052601160045260246000fd5b60008219821115610d7857610d78610d36565b500190565b7f4e487b7100000000000000000000000000000000000000000000000000000000600052603260045260246000fd5b60007fffffffffffffffffffffffffffffffffffffffffffffffffffffffffffffffff821415610dde57610dde610d36565b5060010190565b600060208284031215610df757600080fd5b8151610d2f81610cf0565b8051600981900b8114610e1457600080fd5b919050565b805160ff81168114610e1457600080fd5b600060c08284031215610e3c57600080fd5b60405160c0810181811067ffffffffffffffff82111715610e86577f4e487b7100000000000000000000000000000000000000000000000000000000600052604160045260246000fd5b60405282518152610e9960208401610e02565b6020820152610eaa60408401610e02565b6040820152610ebb60608401610e02565b6060820152610ecc60808401610e19565b6080820152610edd60a08401610e19565b60a08201529392505050565b600060208284031215610efb57600080fd5b81518015158114610d2f57600080fd5b6000817fffffffffffffffffffffffffffffffffffffffffffffffffffffffffffffffff0483118215151615610f4357610f43610d36565b500290565b600082610f7e577f4e487b7100000000000000000000000000000000000000000000000000000000600052601260045260246000fd5b50049056fea264697066735822122016f3c7195e15915520ea534aa8f638d0f731364bce4fd3e63b2949bba367782a64736f6c634300080a0033",
    "linkReferences": {}
  }
}