{
  "abi": [
    {
      "inputs": [
        {
          "internalType": "contract ISanctis",
          "name": "sanctis",
          "type": "address"
        },
        {
          "internalType": "uint256",
          "name": "delay",
          "type": "uint256"
        },
        {
          "internalType": "contract IResource[]",
          "name": "costResources",
          "type": "address[]"
        },
        {
          "internalType": "uint256[]",
          "name": "costsBase",
          "type": "uint256[]"
        },
        {
          "internalType": "uint256[]",
          "name": "costsRates",
          "type": "uint256[]"
        }
      ],
      "stateMutability": "nonpayable",
      "type": "constructor"
    },
    {
      "inputs": [
        {
          "internalType": "address",
          "name": "infrastructure",
          "type": "address"
        },
        {
          "internalType": "uint256",
          "name": "planetId",
          "type": "uint256"
        }
      ],
      "name": "InfrastructureDoesNotExist",
      "type": "error"
    },
    {
      "inputs": [
        {
          "internalType": "address",
          "name": "sender",
          "type": "address"
        }
      ],
      "name": "NotAllowed",
      "type": "error"
    },
    {
      "inputs": [
        {
          "internalType": "uint256",
          "name": "planetId",
          "type": "uint256"
        },
        {
          "internalType": "contract IResource",
          "name": "resource",
          "type": "address"
        }
      ],
      "name": "NotEnoughResource",
      "type": "error"
    },
    {
      "inputs": [
        {
          "internalType": "address",
          "name": "sender",
          "type": "address"
        }
      ],
      "name": "NotTheExecutor",
      "type": "error"
    },
    {
      "inputs": [
        {
          "internalType": "address",
          "name": "sender",
          "type": "address"
        }
      ],
      "name": "NotTheSanctis",
      "type": "error"
    },
    {
      "inputs": [
        {
          "internalType": "uint256",
          "name": "planetId",
          "type": "uint256"
        }
      ],
      "name": "PlanetNotOwned",
      "type": "error"
    },
    {
      "inputs": [
        {
          "internalType": "uint256",
          "name": "planetId",
          "type": "uint256"
        },
        {
          "internalType": "contract IResource",
          "name": "resource",
          "type": "address"
        }
      ],
      "name": "ResourceNotOnPlanet",
      "type": "error"
    },
    {
      "inputs": [
        {
          "internalType": "uint256",
          "name": "planetId",
          "type": "uint256"
        },
        {
          "internalType": "uint256",
          "name": "soonestUpgrade",
          "type": "uint256"
        }
      ],
      "name": "TooSoonToUpgrade",
      "type": "error"
    },
    {
      "inputs": [
        {
          "internalType": "contract ISanctis",
          "name": "newSanctis",
          "type": "address"
        }
      ],
      "name": "changeSanctis",
      "outputs": [],
      "stateMutability": "nonpayable",
      "type": "function"
    },
    {
      "inputs": [
        {
          "internalType": "uint256",
          "name": "planetId",
          "type": "uint256"
        }
      ],
      "name": "costsNextLevel",
      "outputs": [
        {
          "internalType": "contract IResource[]",
          "name": "",
          "type": "address[]"
        },
        {
          "internalType": "uint256[]",
          "name": "",
          "type": "uint256[]"
        }
      ],
      "stateMutability": "view",
      "type": "function"
    },
    {
      "inputs": [
        {
          "internalType": "uint256",
          "name": "planetId",
          "type": "uint256"
        }
      ],
      "name": "create",
      "outputs": [],
      "stateMutability": "nonpayable",
      "type": "function"
    },
    {
      "inputs": [
        {
          "internalType": "uint256",
          "name": "planetId",
          "type": "uint256"
        }
      ],
      "name": "level",
      "outputs": [
        {
          "internalType": "uint256",
          "name": "",
          "type": "uint256"
        }
      ],
      "stateMutability": "view",
      "type": "function"
    },
    {
      "inputs": [],
      "name": "sanctis",
      "outputs": [
        {
          "internalType": "contract ISanctis",
          "name": "",
          "type": "address"
        }
      ],
      "stateMutability": "view",
      "type": "function"
    },
    {
      "inputs": [
        {
          "internalType": "uint256",
          "name": "planetId",
          "type": "uint256"
        }
      ],
      "name": "upgrade",
      "outputs": [],
      "stateMutability": "nonpayable",
      "type": "function"
    }
  ],
  "bytecode": {
    "object": "0x60806040523480156200001157600080fd5b50604051620011213803806200112183398101604081905262000034916200023d565b600080546001600160a01b0319166001600160a01b03871617815560028590555b82518110156200013657600384828151811062000076576200007662000357565b60209081029190910181015182546001810184556000938452919092200180546001600160a01b0319166001600160a01b039092169190911790558251600490849083908110620000cb57620000cb62000357565b60209081029190910181015182546001810184556000938452919092200155815160059083908390811062000104576200010462000357565b602090810291909101810151825460018101845560009384529190922001556200012e816200036d565b905062000055565b50505050505062000397565b6001600160a01b03811681146200015857600080fd5b50565b634e487b7160e01b600052604160045260246000fd5b604051601f8201601f191681016001600160401b03811182821017156200019c576200019c6200015b565b604052919050565b60006001600160401b03821115620001c057620001c06200015b565b5060051b60200190565b600082601f830112620001dc57600080fd5b81516020620001f5620001ef83620001a4565b62000171565b82815260059290921b840181019181810190868411156200021557600080fd5b8286015b8481101562000232578051835291830191830162000219565b509695505050505050565b600080600080600060a086880312156200025657600080fd5b8551620002638162000142565b60208781015160408901519297509550906001600160401b03808211156200028a57600080fd5b818901915089601f8301126200029f57600080fd5b8151620002b0620001ef82620001a4565b81815260059190911b8301840190848101908c831115620002d057600080fd5b938501935b82851015620002fb578451620002eb8162000142565b82529385019390850190620002d5565b60608c015190985094505050808311156200031557600080fd5b620003238a848b01620001ca565b945060808901519250808311156200033a57600080fd5b50506200034a88828901620001ca565b9150509295509295909350565b634e487b7160e01b600052603260045260246000fd5b60006000198214156200039057634e487b7160e01b600052601160045260246000fd5b5060010190565b610d7a80620003a76000396000f3fe608060405234801561001057600080fd5b50600436106100625760003560e01c806305c58df21461006757806345977d031461009a5780635087883f146100af578063780900dc146100da5780637ffc0dc7146100ed578063bf206e451461010e575b600080fd5b610087610075366004610a52565b60009081526001602052604090205490565b6040519081526020015b60405180910390f35b6100ad6100a8366004610a52565b610121565b005b6000546100c2906001600160a01b031681565b6040516001600160a01b039091168152602001610091565b6100ad6100e8366004610a52565b610285565b6101006100fb366004610a52565b6103ea565b604051610091929190610a6b565b6100ad61011c366004610b04565b61046b565b61012b3382610528565b61013481610858565b61013d816108be565b6000818152600160208190526040822080549192909161015e908490610b3e565b909155505060008181526001602081905260408220439101555b600454811015610281576003818154811061019557610195610b56565b60009182526020808320909101548483526001909152604090912054600580546001600160a01b039093169263b390c0ab9286929091869081106101db576101db610b56565b90600052602060002001546101f09190610b6c565b6004858154811061020357610203610b56565b90600052602060002001546102189190610b3e565b6040516001600160e01b031960e085901b16815260048101929092526024820152604401600060405180830381600087803b15801561025657600080fd5b505af115801561026a573d6000803e3d6000fd5b50505050808061027990610b8b565b915050610178565b5050565b61028f3382610528565b61029881610858565b6040805180820182526001808252600060208084018281528683528382528583209451855551939092019290925560048054845181840281018401909552808552929392909183018282801561030d57602002820191906000526020600020905b8154815260200190600101908083116102f9575b5050505050905060005b81518110156103e5576003818154811061033357610333610b56565b9060005260206000200160009054906101000a90046001600160a01b03166001600160a01b031663b390c0ab8484848151811061037257610372610b56565b60200260200101516040518363ffffffff1660e01b81526004016103a0929190918252602082015260400190565b600060405180830381600087803b1580156103ba57600080fd5b505af11580156103ce573d6000803e3d6000fd5b5050505080806103dd90610b8b565b915050610317565b505050565b600081815260016020526040902054606090819060039061040a906108f6565b81546040805160208084028201810190925282815291849183018282801561045b57602002820191906000526020600020905b81546001600160a01b0316815260019091019060200180831161043d575b5050505050915091509150915091565b600054604080516311d614c160e21b8152905133926001600160a01b03169163475853049160048083019260209291908290030181865afa1580156104b4573d6000803e3d6000fd5b505050506040513d601f19601f820116820180604052508101906104d89190610ba6565b6001600160a01b0316146105065760405163968c45d960e01b81523360048201526024015b60405180910390fd5b600080546001600160a01b0319166001600160a01b0392909216919091179055565b600054604080518082018252600a815269434f4d4d414e4445525360b01b60208201529051633fde36b160e11b81526001600160a01b0390921691637fbc6d629161057591600401610bc3565b602060405180830381865afa158015610592573d6000803e3d6000fd5b505050506040513d601f19601f820116820180604052508101906105b69190610ba6565b6000546040805180820182526007815266504c414e45545360c81b60208201529051633fde36b160e11b81526001600160a01b0393841693636352211e931691637fbc6d62916106099190600401610bc3565b602060405180830381865afa158015610626573d6000803e3d6000fd5b505050506040513d601f19601f8201168201806040525081019061064a9190610ba6565b6001600160a01b031663181c1bc4846040518263ffffffff1660e01b815260040161067791815260200190565b60c060405180830381865afa158015610694573d6000803e3d6000fd5b505050506040513d601f19601f820116820180604052508101906106b89190610c65565b602001516040518263ffffffff1660e01b81526004016106da91815260200190565b602060405180830381865afa1580156106f7573d6000803e3d6000fd5b505050506040513d601f19601f8201168201806040525081019061071b9190610ba6565b6001600160a01b0316826001600160a01b0316141580156108375750600054604080518082018252600a815269434f4d4d414e4445525360b01b60208201529051633fde36b160e11b81526001600160a01b0390921691637fbc6d629161078491600401610bc3565b602060405180830381865afa1580156107a1573d6000803e3d6000fd5b505050506040513d601f19601f820116820180604052508101906107c59190610ba6565b60405163e985e9c560e01b81526001600160a01b038481166004830152306024830152919091169063e985e9c590604401602060405180830381865afa158015610813573d6000803e3d6000fd5b505050506040513d601f19601f820116820180604052508101906108379190610d0b565b1561028157604051634f541f2b60e11b8152600481018290526024016104fd565b6000818152600160205260408120546002546108749190610b6c565b600083815260016020819052604090912001546108919190610b3e565b9050804310156102815760405163e051269960e01b815260048101839052602481018290526044016104fd565b6000818152600160205260409020546108f357604051630aa15fdb60e21b8152306004820152602481018290526044016104fd565b50565b60606000600480548060200260200160405190810160405280929190818152602001828054801561094657602002820191906000526020600020905b815481526020019060010190808311610932575b5050505050905060008360001461096f5761096a610965600186610d2d565b6108f6565b6109b4565b815167ffffffffffffffff81111561098957610989610c18565b6040519080825280602002602001820160405280156109b2578160200160208202803683370190505b505b905060005b8251811015610a4957816000815181106109d5576109d5610b56565b6020026020010151600582815481106109f0576109f0610b56565b906000526020600020015486610a069190610b6c565b610a109190610b3e565b838281518110610a2257610a22610b56565b60200260200101818151610a369190610b3e565b905250610a4281610b8b565b90506109b9565b50909392505050565b600060208284031215610a6457600080fd5b5035919050565b604080825283519082018190526000906020906060840190828701845b82811015610aad5781516001600160a01b031684529284019290840190600101610a88565b5050508381038285015284518082528583019183019060005b81811015610ae257835183529284019291840191600101610ac6565b5090979650505050505050565b6001600160a01b03811681146108f357600080fd5b600060208284031215610b1657600080fd5b8135610b2181610aef565b9392505050565b634e487b7160e01b600052601160045260246000fd5b60008219821115610b5157610b51610b28565b500190565b634e487b7160e01b600052603260045260246000fd5b6000816000190483118215151615610b8657610b86610b28565b500290565b6000600019821415610b9f57610b9f610b28565b5060010190565b600060208284031215610bb857600080fd5b8151610b2181610aef565b600060208083528351808285015260005b81811015610bf057858101830151858201604001528201610bd4565b81811115610c02576000604083870101525b50601f01601f1916929092016040019392505050565b634e487b7160e01b600052604160045260246000fd5b805160048110610c3d57600080fd5b919050565b8051600981900b8114610c3d57600080fd5b805160ff81168114610c3d57600080fd5b600060c08284031215610c7757600080fd5b60405160c0810181811067ffffffffffffffff82111715610ca857634e487b7160e01b600052604160045260246000fd5b604052610cb483610c2e565b815260208301516020820152610ccc60408401610c42565b6040820152610cdd60608401610c42565b6060820152610cee60808401610c42565b6080820152610cff60a08401610c54565b60a08201529392505050565b600060208284031215610d1d57600080fd5b81518015158114610b2157600080fd5b600082821015610d3f57610d3f610b28565b50039056fea2646970667358221220a6d013256a4219e40ec90f892c63e2bc7d0eb2d6b4aac3ca5c03eae043db512164736f6c634300080a0033",
    "linkReferences": {}
  }
}