{
  "abi": [
    {
      "inputs": [
        {
          "internalType": "contract ISanctis",
          "name": "newSanctis",
          "type": "address"
        },
        {
          "internalType": "uint256",
          "name": "cost",
          "type": "uint256"
        }
      ],
      "stateMutability": "nonpayable",
      "type": "constructor"
    },
    {
      "inputs": [
        {
          "internalType": "contract ISanctis",
          "name": "newSanctis",
          "type": "address"
        }
      ],
      "name": "changeSanctis",
      "outputs": [],
      "stateMutability": "nonpayable",
      "type": "function"
    },
    {
      "inputs": [],
      "name": "colonizationCost",
      "outputs": [
        {
          "internalType": "uint256",
          "name": "",
          "type": "uint256"
        }
      ],
      "stateMutability": "view",
      "type": "function"
    },
    {
      "inputs": [
        {
          "internalType": "uint256",
          "name": "ruler",
          "type": "uint256"
        },
        {
          "internalType": "uint256",
          "name": "planetId",
          "type": "uint256"
        }
      ],
      "name": "colonize",
      "outputs": [],
      "stateMutability": "nonpayable",
      "type": "function"
    },
    {
      "inputs": [],
      "name": "s_sanctis",
      "outputs": [
        {
          "internalType": "contract ISanctis",
          "name": "",
          "type": "address"
        }
      ],
      "stateMutability": "view",
      "type": "function"
    },
    {
      "inputs": [],
      "name": "sanctis",
      "outputs": [
        {
          "internalType": "contract ISanctis",
          "name": "",
          "type": "address"
        }
      ],
      "stateMutability": "view",
      "type": "function"
    },
    {
      "inputs": [
        {
          "internalType": "uint256",
          "name": "newCost",
          "type": "uint256"
        }
      ],
      "name": "setColonizationCost",
      "outputs": [],
      "stateMutability": "nonpayable",
      "type": "function"
    }
  ],
  "bytecode": {
    "object": "0x608060405234801561001057600080fd5b5060405161101938038061101983398101604081905261002f91610058565b600080546001600160a01b0319166001600160a01b039390931692909217909155600155610092565b6000806040838503121561006b57600080fd5b82516001600160a01b038116811461008257600080fd5b6020939093015192949293505050565b610f78806100a16000396000f3fe608060405234801561001057600080fd5b50600436106100725760003560e01c806367ad59d51161005057806367ad59d5146100cf5780639797efda146100e2578063bf206e451461010257600080fd5b80630904b2ac146100775780632794ff701461008d5780635087883f146100a2575b600080fd5b6001546040519081526020015b60405180910390f35b6100a061009b366004610d98565b610115565b005b6100aa6109fe565b60405173ffffffffffffffffffffffffffffffffffffffff9091168152602001610084565b6100a06100dd366004610dba565b610b2c565b6000546100aa9073ffffffffffffffffffffffffffffffffffffffff1681565b6100a0610110366004610df8565b610c41565b600080546040517f8a5cde0a0000000000000000000000000000000000000000000000000000000081527f504c414e45545300000000000000000000000000000000000000000000000000600482015273ffffffffffffffffffffffffffffffffffffffff90911690638a5cde0a90602401602060405180830381865afa1580156101a4573d6000803e3d6000fd5b505050506040513d601f19601f820116820180604052508101906101c89190610e1c565b73ffffffffffffffffffffffffffffffffffffffff1663181c1bc4836040518263ffffffff1660e01b815260040161020291815260200190565b60c060405180830381865afa15801561021f573d6000803e3d6000fd5b505050506040513d601f19601f820116820180604052508101906102439190610e61565b60a0015160ff16141561036f576000546040517f8a5cde0a0000000000000000000000000000000000000000000000000000000081527f504c414e45545300000000000000000000000000000000000000000000000000600482015273ffffffffffffffffffffffffffffffffffffffff90911690638a5cde0a90602401602060405180830381865afa1580156102de573d6000803e3d6000fd5b505050506040513d601f19601f820116820180604052508101906103029190610e1c565b73ffffffffffffffffffffffffffffffffffffffff1663780900dc826040518263ffffffff1660e01b815260040161033c91815260200190565b600060405180830381600087803b15801561035657600080fd5b505af115801561036a573d6000803e3d6000fd5b505050505b6000546040517f8a5cde0a0000000000000000000000000000000000000000000000000000000081527f504c414e45545300000000000000000000000000000000000000000000000000600482015260019173ffffffffffffffffffffffffffffffffffffffff1690638a5cde0a90602401602060405180830381865afa1580156103fe573d6000803e3d6000fd5b505050506040513d601f19601f820116820180604052508101906104229190610e1c565b73ffffffffffffffffffffffffffffffffffffffff1663181c1bc4836040518263ffffffff1660e01b815260040161045c91815260200190565b60c060405180830381865afa158015610479573d6000803e3d6000fd5b505050506040513d601f19601f8201168201806040525081019061049d9190610e61565b60a0015160ff1614610510576040517f08c379a000000000000000000000000000000000000000000000000000000000815260206004820152601160248201527f436f6c6f6e697a65643a2053746174757300000000000000000000000000000060448201526064015b60405180910390fd5b6000546040517f8a5cde0a0000000000000000000000000000000000000000000000000000000081527f434f4d4d414e44455253000000000000000000000000000000000000000000006004820152339173ffffffffffffffffffffffffffffffffffffffff1690638a5cde0a90602401602060405180830381865afa15801561059e573d6000803e3d6000fd5b505050506040513d601f19601f820116820180604052508101906105c29190610e1c565b73ffffffffffffffffffffffffffffffffffffffff16636352211e846040518263ffffffff1660e01b81526004016105fc91815260200190565b602060405180830381865afa158015610619573d6000803e3d6000fd5b505050506040513d601f19601f8201168201806040525081019061063d9190610e1c565b73ffffffffffffffffffffffffffffffffffffffff16146106ba576040517f08c379a000000000000000000000000000000000000000000000000000000000815260206004820152601060248201527f436f6c6f6e697a65643a204f776e6572000000000000000000000000000000006044820152606401610507565b6000546040517f8a5cde0a0000000000000000000000000000000000000000000000000000000081527f504c414e45545300000000000000000000000000000000000000000000000000600482015273ffffffffffffffffffffffffffffffffffffffff90911690638a5cde0a90602401602060405180830381865afa158015610748573d6000803e3d6000fd5b505050506040513d601f19601f8201168201806040525081019061076c9190610e1c565b6040517f7a08face00000000000000000000000000000000000000000000000000000000815260048101839052602481018490526003604482015273ffffffffffffffffffffffffffffffffffffffff9190911690637a08face90606401600060405180830381600087803b1580156107e457600080fd5b505af11580156107f8573d6000803e3d6000fd5b50506000546040517f8a5cde0a0000000000000000000000000000000000000000000000000000000081527f4352454449545300000000000000000000000000000000000000000000000000600482015273ffffffffffffffffffffffffffffffffffffffff9091169250638a5cde0a9150602401602060405180830381865afa15801561088a573d6000803e3d6000fd5b505050506040513d601f19601f820116820180604052508101906108ae9190610e1c565b73ffffffffffffffffffffffffffffffffffffffff166323b872dd3360008054906101000a900473ffffffffffffffffffffffffffffffffffffffff1673ffffffffffffffffffffffffffffffffffffffff1663475853046040518163ffffffff1660e01b8152600401602060405180830381865afa158015610935573d6000803e3d6000fd5b505050506040513d601f19601f820116820180604052508101906109599190610e1c565b6001546040517fffffffff0000000000000000000000000000000000000000000000000000000060e086901b16815273ffffffffffffffffffffffffffffffffffffffff938416600482015292909116602483015260448201526064016020604051808303816000875af11580156109d5573d6000803e3d6000fd5b505050506040513d601f19601f820116820180604052508101906109f99190610f20565b505050565b60008054604080517f475853040000000000000000000000000000000000000000000000000000000081529051339273ffffffffffffffffffffffffffffffffffffffff169163475853049160048083019260209291908290030181865afa158015610a6e573d6000803e3d6000fd5b505050506040513d601f19601f82011682018060405250810190610a929190610e1c565b73ffffffffffffffffffffffffffffffffffffffff1614610b0f576040517f08c379a000000000000000000000000000000000000000000000000000000000815260206004820152601060248201527f4d6f64756c653a204578656375746f72000000000000000000000000000000006044820152606401610507565b5060005473ffffffffffffffffffffffffffffffffffffffff1690565b600054604080517f475853040000000000000000000000000000000000000000000000000000000081529051339273ffffffffffffffffffffffffffffffffffffffff169163475853049160048083019260209291908290030181865afa158015610b9b573d6000803e3d6000fd5b505050506040513d601f19601f82011682018060405250810190610bbf9190610e1c565b73ffffffffffffffffffffffffffffffffffffffff1614610c3c576040517f08c379a000000000000000000000000000000000000000000000000000000000815260206004820152601060248201527f4d6f64756c653a204578656375746f72000000000000000000000000000000006044820152606401610507565b600155565b600054604080517f475853040000000000000000000000000000000000000000000000000000000081529051339273ffffffffffffffffffffffffffffffffffffffff169163475853049160048083019260209291908290030181865afa158015610cb0573d6000803e3d6000fd5b505050506040513d601f19601f82011682018060405250810190610cd49190610e1c565b73ffffffffffffffffffffffffffffffffffffffff1614610d51576040517f08c379a000000000000000000000000000000000000000000000000000000000815260206004820152601060248201527f4d6f64756c653a204578656375746f72000000000000000000000000000000006044820152606401610507565b600080547fffffffffffffffffffffffff00000000000000000000000000000000000000001673ffffffffffffffffffffffffffffffffffffffff92909216919091179055565b60008060408385031215610dab57600080fd5b50508035926020909101359150565b600060208284031215610dcc57600080fd5b5035919050565b73ffffffffffffffffffffffffffffffffffffffff81168114610df557600080fd5b50565b600060208284031215610e0a57600080fd5b8135610e1581610dd3565b9392505050565b600060208284031215610e2e57600080fd5b8151610e1581610dd3565b8051600981900b8114610e4b57600080fd5b919050565b805160ff81168114610e4b57600080fd5b600060c08284031215610e7357600080fd5b60405160c0810181811067ffffffffffffffff82111715610ebd577f4e487b7100000000000000000000000000000000000000000000000000000000600052604160045260246000fd5b60405282518152610ed060208401610e39565b6020820152610ee160408401610e39565b6040820152610ef260608401610e39565b6060820152610f0360808401610e50565b6080820152610f1460a08401610e50565b60a08201529392505050565b600060208284031215610f3257600080fd5b81518015158114610e1557600080fdfea2646970667358221220cef891a13f1bba6d33ac66f36320de272b364c3fdf4c997be2095cbe1e1a63de64736f6c634300080a0033",
    "linkReferences": {}
  }
}