{
  "abi": [
    {
      "inputs": [
        {
          "internalType": "contract ISanctis",
          "name": "newSanctis",
          "type": "address"
        },
        {
          "internalType": "uint256",
          "name": "plunderPeriod_",
          "type": "uint256"
        },
        {
          "internalType": "uint256",
          "name": "plunderRate_",
          "type": "uint256"
        }
      ],
      "stateMutability": "nonpayable",
      "type": "constructor"
    },
    {
      "inputs": [
        {
          "internalType": "contract ISanctis",
          "name": "newSanctis",
          "type": "address"
        }
      ],
      "name": "changeSanctis",
      "outputs": [],
      "stateMutability": "nonpayable",
      "type": "function"
    },
    {
      "inputs": [
        {
          "internalType": "uint256",
          "name": "fleetId",
          "type": "uint256"
        }
      ],
      "name": "defendPlanet",
      "outputs": [],
      "stateMutability": "nonpayable",
      "type": "function"
    },
    {
      "inputs": [
        {
          "internalType": "uint256",
          "name": "planetId",
          "type": "uint256"
        }
      ],
      "name": "nextPlundering",
      "outputs": [
        {
          "internalType": "uint256",
          "name": "",
          "type": "uint256"
        }
      ],
      "stateMutability": "view",
      "type": "function"
    },
    {
      "inputs": [
        {
          "internalType": "uint256",
          "name": "fleetId",
          "type": "uint256"
        },
        {
          "internalType": "contract IResource",
          "name": "resource",
          "type": "address"
        }
      ],
      "name": "plunder",
      "outputs": [],
      "stateMutability": "nonpayable",
      "type": "function"
    },
    {
      "inputs": [],
      "name": "plunderPeriod",
      "outputs": [
        {
          "internalType": "uint256",
          "name": "",
          "type": "uint256"
        }
      ],
      "stateMutability": "view",
      "type": "function"
    },
    {
      "inputs": [],
      "name": "plunderRate",
      "outputs": [
        {
          "internalType": "uint256",
          "name": "",
          "type": "uint256"
        }
      ],
      "stateMutability": "view",
      "type": "function"
    },
    {
      "inputs": [],
      "name": "s_sanctis",
      "outputs": [
        {
          "internalType": "contract ISanctis",
          "name": "",
          "type": "address"
        }
      ],
      "stateMutability": "view",
      "type": "function"
    },
    {
      "inputs": [],
      "name": "sanctis",
      "outputs": [
        {
          "internalType": "contract ISanctis",
          "name": "",
          "type": "address"
        }
      ],
      "stateMutability": "view",
      "type": "function"
    },
    {
      "inputs": [
        {
          "internalType": "uint256",
          "name": "plunderPeriod_",
          "type": "uint256"
        },
        {
          "internalType": "uint256",
          "name": "plunderRate_",
          "type": "uint256"
        }
      ],
      "name": "setParameters",
      "outputs": [],
      "stateMutability": "nonpayable",
      "type": "function"
    }
  ],
  "bytecode": {
    "object": "0x608060405234801561001057600080fd5b5060405161183638038061183683398101604081905261002f9161005b565b600080546001600160a01b0319166001600160a01b03949094169390931790925560025560035561009e565b60008060006060848603121561007057600080fd5b83516001600160a01b038116811461008757600080fd5b602085015160409095015190969495509392505050565b611789806100ad6000396000f3fe608060405234801561001057600080fd5b50600436106100a35760003560e01c806372e233a6116100765780639797efda1161005b5780639797efda14610133578063bf206e4514610153578063c0fae8211461016657600080fd5b806372e233a614610118578063884870c71461012057600080fd5b806349953d8b146100a85780635087883f146100bd57806367effd47146100ef5780636eca3fe714610110575b600080fd5b6100bb6100b63660046113a5565b610179565b005b6100c5610679565b60405173ffffffffffffffffffffffffffffffffffffffff90911681526020015b60405180910390f35b6101026100fd3660046113a5565b6107a7565b6040519081526020016100e6565b600254610102565b600354610102565b6100bb61012e3660046113be565b6107ca565b6000546100c59073ffffffffffffffffffffffffffffffffffffffff1681565b6100bb610161366004611405565b6108e5565b6100bb610174366004611429565b610a3c565b600080546040517f8a5cde0a0000000000000000000000000000000000000000000000000000000081527f464c454554530000000000000000000000000000000000000000000000000000600482015273ffffffffffffffffffffffffffffffffffffffff90911690638a5cde0a90602401602060405180830381865afa158015610208573d6000803e3d6000fd5b505050506040513d601f19601f8201168201806040525081019061022c9190611459565b73ffffffffffffffffffffffffffffffffffffffff16637419e9a2836040518263ffffffff1660e01b815260040161026691815260200190565b61014060405180830381865afa158015610284573d6000803e3d6000fd5b505050506040513d601f19601f820116820180604052508101906102a891906114c7565b600080546040517f8a5cde0a0000000000000000000000000000000000000000000000000000000081527f464c4545545300000000000000000000000000000000000000000000000000006004820152929350909173ffffffffffffffffffffffffffffffffffffffff90911690638a5cde0a90602401602060405180830381865afa15801561033c573d6000803e3d6000fd5b505050506040513d601f19601f820116820180604052508101906103609190611459565b73ffffffffffffffffffffffffffffffffffffffff1663181c1bc483602001516040518263ffffffff1660e01b815260040161039e91815260200190565b6040805180830381865afa1580156103ba573d6000803e3d6000fd5b505050506040513d601f19601f820116820180604052508101906103de919061154e565b5090506103ef8260000151336111f0565b8160a00151811015610462576040517f08c379a000000000000000000000000000000000000000000000000000000000815260206004820152601760248201527f506c756e646572696e673a20506c616e6574207765616b00000000000000000060448201526064015b60405180910390fd5b6001826101200151146104d1576040517f08c379a000000000000000000000000000000000000000000000000000000000815260206004820152601260248201527f506c756e646572696e673a2053746174757300000000000000000000000000006044820152606401610459565b60036101208301526000546040517f8a5cde0a0000000000000000000000000000000000000000000000000000000081527f464c454554530000000000000000000000000000000000000000000000000000600482015273ffffffffffffffffffffffffffffffffffffffff90911690638a5cde0a90602401602060405180830381865afa158015610567573d6000803e3d6000fd5b505050506040513d601f19601f8201168201806040525081019061058b9190611459565b604080517ff8606e6200000000000000000000000000000000000000000000000000000000815260048101869052845160248201526020850151604482015290840151606482015260608401516084820152608084015160a482015260a084015160c482015260c084015160e482015260e084015161010482015261010084015161012482015261012084015161014482015273ffffffffffffffffffffffffffffffffffffffff919091169063f8606e629061016401600060405180830381600087803b15801561065c57600080fd5b505af1158015610670573d6000803e3d6000fd5b50505050505050565b60008054604080517f475853040000000000000000000000000000000000000000000000000000000081529051339273ffffffffffffffffffffffffffffffffffffffff169163475853049160048083019260209291908290030181865afa1580156106e9573d6000803e3d6000fd5b505050506040513d601f19601f8201168201806040525081019061070d9190611459565b73ffffffffffffffffffffffffffffffffffffffff161461078a576040517f08c379a000000000000000000000000000000000000000000000000000000000815260206004820152601060248201527f4d6f64756c653a204578656375746f72000000000000000000000000000000006044820152606401610459565b5060005473ffffffffffffffffffffffffffffffffffffffff1690565b60025460008281526001602052604081205490916107c4916115a1565b92915050565b600054604080517f475853040000000000000000000000000000000000000000000000000000000081529051339273ffffffffffffffffffffffffffffffffffffffff169163475853049160048083019260209291908290030181865afa158015610839573d6000803e3d6000fd5b505050506040513d601f19601f8201168201806040525081019061085d9190611459565b73ffffffffffffffffffffffffffffffffffffffff16146108da576040517f08c379a000000000000000000000000000000000000000000000000000000000815260206004820152601060248201527f4d6f64756c653a204578656375746f72000000000000000000000000000000006044820152606401610459565b600291909155600355565b600054604080517f475853040000000000000000000000000000000000000000000000000000000081529051339273ffffffffffffffffffffffffffffffffffffffff169163475853049160048083019260209291908290030181865afa158015610954573d6000803e3d6000fd5b505050506040513d601f19601f820116820180604052508101906109789190611459565b73ffffffffffffffffffffffffffffffffffffffff16146109f5576040517f08c379a000000000000000000000000000000000000000000000000000000000815260206004820152601060248201527f4d6f64756c653a204578656375746f72000000000000000000000000000000006044820152606401610459565b600080547fffffffffffffffffffffffff00000000000000000000000000000000000000001673ffffffffffffffffffffffffffffffffffffffff92909216919091179055565b600080546040517f8a5cde0a0000000000000000000000000000000000000000000000000000000081527f464c454554530000000000000000000000000000000000000000000000000000600482015273ffffffffffffffffffffffffffffffffffffffff90911690638a5cde0a90602401602060405180830381865afa158015610acb573d6000803e3d6000fd5b505050506040513d601f19601f82011682018060405250810190610aef9190611459565b73ffffffffffffffffffffffffffffffffffffffff16637419e9a2846040518263ffffffff1660e01b8152600401610b2991815260200190565b61014060405180830381865afa158015610b47573d6000803e3d6000fd5b505050506040513d601f19601f82011682018060405250810190610b6b91906114c7565b9050610b7b8160000151336111f0565b600181610120015114610bea576040517f08c379a000000000000000000000000000000000000000000000000000000000815260206004820152601260248201527f506c756e646572696e673a2053746174757300000000000000000000000000006044820152606401610459565b600080546040517f8a5cde0a0000000000000000000000000000000000000000000000000000000081527f504c414e45545300000000000000000000000000000000000000000000000000600482015273ffffffffffffffffffffffffffffffffffffffff90911690638a5cde0a90602401602060405180830381865afa158015610c79573d6000803e3d6000fd5b505050506040513d601f19601f82011682018060405250810190610c9d9190611459565b73ffffffffffffffffffffffffffffffffffffffff1663181c1bc483602001516040518263ffffffff1660e01b8152600401610cdb91815260200190565b60c060405180830381865afa158015610cf8573d6000803e3d6000fd5b505050506040513d601f19601f82011682018060405250810190610d1c91906115e1565b60a081015190915060ff16600314610d90576040517f08c379a000000000000000000000000000000000000000000000000000000000815260206004820152601260248201527f506c756e646572696e673a2053746174757300000000000000000000000000006044820152606401610459565b6002546020808401516000908152600190915260409020544391610db3916115a1565b1115610e1b576040517f08c379a000000000000000000000000000000000000000000000000000000000815260206004820152601460248201527f506c756e646572696e673a20546f6f20736f6f6e0000000000000000000000006044820152606401610459565b600080546040517f8a5cde0a0000000000000000000000000000000000000000000000000000000081527f464c454554530000000000000000000000000000000000000000000000000000600482015273ffffffffffffffffffffffffffffffffffffffff90911690638a5cde0a90602401602060405180830381865afa158015610eaa573d6000803e3d6000fd5b505050506040513d601f19601f82011682018060405250810190610ece9190611459565b73ffffffffffffffffffffffffffffffffffffffff1663181c1bc484602001516040518263ffffffff1660e01b8152600401610f0c91815260200190565b6040805180830381865afa158015610f28573d6000803e3d6000fd5b505050506040513d601f19601f82011682018060405250810190610f4c919061154e565b91505080836080015111610fbc576040517f08c379a000000000000000000000000000000000000000000000000000000000815260206004820152601660248201527f506c756e646572696e673a20466c656574207765616b000000000000000000006044820152606401610459565b60208084018051600090815260019092526040808320439055600354915190517f819b25ba000000000000000000000000000000000000000000000000000000008152612710929173ffffffffffffffffffffffffffffffffffffffff89169163819b25ba916110329160040190815260200190565b602060405180830381865afa15801561104f573d6000803e3d6000fd5b505050506040513d601f19601f8201168201806040525081019061107391906116a0565b61107d91906116b9565b61108791906116f6565b905060008460c0015182101561109d57816110a3565b8460c001515b6000546040517f8a5cde0a0000000000000000000000000000000000000000000000000000000081527f464c454554530000000000000000000000000000000000000000000000000000600482015291925073ffffffffffffffffffffffffffffffffffffffff1690638a5cde0a90602401602060405180830381865afa158015611132573d6000803e3d6000fd5b505050506040513d601f19601f820116820180604052508101906111569190611459565b6040517fa0e0f0990000000000000000000000000000000000000000000000000000000081526004810189905273ffffffffffffffffffffffffffffffffffffffff888116602483015260448201849052919091169063a0e0f09990606401600060405180830381600087803b1580156111cf57600080fd5b505af11580156111e3573d6000803e3d6000fd5b5050505050505050505050565b6000546040517f8a5cde0a0000000000000000000000000000000000000000000000000000000081527f434f4d4d414e4445525300000000000000000000000000000000000000000000600482015273ffffffffffffffffffffffffffffffffffffffff90911690638a5cde0a90602401602060405180830381865afa15801561127e573d6000803e3d6000fd5b505050506040513d601f19601f820116820180604052508101906112a29190611459565b6040517f2a16cca400000000000000000000000000000000000000000000000000000000815273ffffffffffffffffffffffffffffffffffffffff8381166004830152602482018590529190911690632a16cca490604401602060405180830381865afa158015611317573d6000803e3d6000fd5b505050506040513d601f19601f8201168201806040525081019061133b9190611731565b6113a1576040517f08c379a000000000000000000000000000000000000000000000000000000000815260206004820152601860248201527f506c756e646572696e673a204e6f7420617070726f76656400000000000000006044820152606401610459565b5050565b6000602082840312156113b757600080fd5b5035919050565b600080604083850312156113d157600080fd5b50508035926020909101359150565b73ffffffffffffffffffffffffffffffffffffffff8116811461140257600080fd5b50565b60006020828403121561141757600080fd5b8135611422816113e0565b9392505050565b6000806040838503121561143c57600080fd5b82359150602083013561144e816113e0565b809150509250929050565b60006020828403121561146b57600080fd5b8151611422816113e0565b604051610140810167ffffffffffffffff811182821017156114c1577f4e487b7100000000000000000000000000000000000000000000000000000000600052604160045260246000fd5b60405290565b600061014082840312156114da57600080fd5b6114e2611476565b825181526020830151602082015260408301516040820152606083015160608201526080830151608082015260a083015160a082015260c083015160c082015260e083015160e08201526101008084015181830152506101208084015181830152508091505092915050565b6000806040838503121561156157600080fd5b505080516020909101519092909150565b7f4e487b7100000000000000000000000000000000000000000000000000000000600052601160045260246000fd5b600082198211156115b4576115b4611572565b500190565b8051600981900b81146115cb57600080fd5b919050565b805160ff811681146115cb57600080fd5b600060c082840312156115f357600080fd5b60405160c0810181811067ffffffffffffffff8211171561163d577f4e487b7100000000000000000000000000000000000000000000000000000000600052604160045260246000fd5b60405282518152611650602084016115b9565b6020820152611661604084016115b9565b6040820152611672606084016115b9565b6060820152611683608084016115d0565b608082015261169460a084016115d0565b60a08201529392505050565b6000602082840312156116b257600080fd5b5051919050565b6000817fffffffffffffffffffffffffffffffffffffffffffffffffffffffffffffffff04831182151516156116f1576116f1611572565b500290565b60008261172c577f4e487b7100000000000000000000000000000000000000000000000000000000600052601260045260246000fd5b500490565b60006020828403121561174357600080fd5b8151801515811461142257600080fdfea2646970667358221220c890919e1d96b7fc8d38b0a37d306f92afe49a42e4166e8945efaf44e8e6f9fe64736f6c634300080a0033",
    "linkReferences": {}
  }
}