{
  "abi": [
    {
      "inputs": [
        {
          "internalType": "contract ISanctis",
          "name": "newSanctis",
          "type": "address"
        },
        {
          "internalType": "uint256",
          "name": "plunderPeriod_",
          "type": "uint256"
        },
        {
          "internalType": "uint256",
          "name": "plunderRate_",
          "type": "uint256"
        }
      ],
      "stateMutability": "nonpayable",
      "type": "constructor"
    },
    {
      "inputs": [
        {
          "internalType": "uint256",
          "name": "fleetId",
          "type": "uint256"
        }
      ],
      "name": "FleetTooWeak",
      "type": "error"
    },
    {
      "inputs": [
        {
          "internalType": "uint256",
          "name": "fleetId",
          "type": "uint256"
        },
        {
          "internalType": "uint256",
          "name": "status",
          "type": "uint256"
        }
      ],
      "name": "InvalidFleetStatus",
      "type": "error"
    },
    {
      "inputs": [
        {
          "internalType": "uint256",
          "name": "planet",
          "type": "uint256"
        }
      ],
      "name": "InvalidPlanet",
      "type": "error"
    },
    {
      "inputs": [
        {
          "internalType": "address",
          "name": "sender",
          "type": "address"
        }
      ],
      "name": "NotAllowed",
      "type": "error"
    },
    {
      "inputs": [
        {
          "internalType": "uint256",
          "name": "commanderId",
          "type": "uint256"
        }
      ],
      "name": "NotCommanderOwner",
      "type": "error"
    },
    {
      "inputs": [
        {
          "internalType": "address",
          "name": "sender",
          "type": "address"
        }
      ],
      "name": "NotTheExecutor",
      "type": "error"
    },
    {
      "inputs": [
        {
          "internalType": "address",
          "name": "sender",
          "type": "address"
        }
      ],
      "name": "NotTheSanctis",
      "type": "error"
    },
    {
      "inputs": [
        {
          "internalType": "uint256",
          "name": "planetId",
          "type": "uint256"
        },
        {
          "internalType": "uint256",
          "name": "received",
          "type": "uint256"
        },
        {
          "internalType": "uint256",
          "name": "required",
          "type": "uint256"
        }
      ],
      "name": "PlanetTooWeak",
      "type": "error"
    },
    {
      "inputs": [
        {
          "internalType": "uint256",
          "name": "planetId",
          "type": "uint256"
        }
      ],
      "name": "PlunderingTooEarly",
      "type": "error"
    },
    {
      "inputs": [
        {
          "internalType": "contract ISanctis",
          "name": "newSanctis",
          "type": "address"
        }
      ],
      "name": "changeSanctis",
      "outputs": [],
      "stateMutability": "nonpayable",
      "type": "function"
    },
    {
      "inputs": [
        {
          "internalType": "uint256",
          "name": "planetId",
          "type": "uint256"
        },
        {
          "internalType": "uint256",
          "name": "fleetId",
          "type": "uint256"
        }
      ],
      "name": "defendPlanet",
      "outputs": [],
      "stateMutability": "nonpayable",
      "type": "function"
    },
    {
      "inputs": [
        {
          "internalType": "uint256",
          "name": "planetId",
          "type": "uint256"
        }
      ],
      "name": "nextPlundering",
      "outputs": [
        {
          "internalType": "uint256",
          "name": "",
          "type": "uint256"
        }
      ],
      "stateMutability": "view",
      "type": "function"
    },
    {
      "inputs": [
        {
          "internalType": "uint256",
          "name": "fleetId",
          "type": "uint256"
        },
        {
          "internalType": "contract IResource",
          "name": "resource",
          "type": "address"
        }
      ],
      "name": "plunder",
      "outputs": [],
      "stateMutability": "nonpayable",
      "type": "function"
    },
    {
      "inputs": [],
      "name": "plunderPeriod",
      "outputs": [
        {
          "internalType": "uint256",
          "name": "",
          "type": "uint256"
        }
      ],
      "stateMutability": "view",
      "type": "function"
    },
    {
      "inputs": [],
      "name": "plunderRate",
      "outputs": [
        {
          "internalType": "uint256",
          "name": "",
          "type": "uint256"
        }
      ],
      "stateMutability": "view",
      "type": "function"
    },
    {
      "inputs": [],
      "name": "s_sanctis",
      "outputs": [
        {
          "internalType": "contract ISanctis",
          "name": "",
          "type": "address"
        }
      ],
      "stateMutability": "view",
      "type": "function"
    },
    {
      "inputs": [],
      "name": "sanctis",
      "outputs": [
        {
          "internalType": "contract ISanctis",
          "name": "",
          "type": "address"
        }
      ],
      "stateMutability": "view",
      "type": "function"
    },
    {
      "inputs": [
        {
          "internalType": "uint256",
          "name": "plunderPeriod_",
          "type": "uint256"
        },
        {
          "internalType": "uint256",
          "name": "plunderRate_",
          "type": "uint256"
        }
      ],
      "name": "setParameters",
      "outputs": [],
      "stateMutability": "nonpayable",
      "type": "function"
    }
  ],
  "bytecode": {
    "object": "0x608060405234801561001057600080fd5b506040516116ac3803806116ac83398101604081905261002f9161005b565b600080546001600160a01b0319166001600160a01b03949094169390931790925560025560035561009e565b60008060006060848603121561007057600080fd5b83516001600160a01b038116811461008757600080fd5b602085015160409095015190969495509392505050565b6115ff806100ad6000396000f3fe608060405234801561001057600080fd5b50600436106100a35760003560e01c8063884870c711610076578063b51ea3a91161005b578063b51ea3a914610140578063bf206e4514610153578063c0fae8211461016657600080fd5b8063884870c71461010b5780639797efda1461012057600080fd5b80635087883f146100a857806367effd47146100da5780636eca3fe7146100fb57806372e233a614610103575b600080fd5b6100b0610179565b60405173ffffffffffffffffffffffffffffffffffffffff90911681526020015b60405180910390f35b6100ed6100e836600461121b565b61027e565b6040519081526020016100d1565b6002546100ed565b6003546100ed565b61011e610119366004611234565b6102a1565b005b6000546100b09073ffffffffffffffffffffffffffffffffffffffff1681565b61011e61014e366004611234565b61038e565b61011e61016136600461127b565b610852565b61011e61017436600461129f565b61097b565b60008054604080517f475853040000000000000000000000000000000000000000000000000000000081529051339273ffffffffffffffffffffffffffffffffffffffff169163475853049160048083019260209291908290030181865afa1580156101e9573d6000803e3d6000fd5b505050506040513d601f19601f8201168201806040525081019061020d91906112cf565b73ffffffffffffffffffffffffffffffffffffffff1614610261576040517f968c45d90000000000000000000000000000000000000000000000000000000081523360048201526024015b60405180910390fd5b5060005473ffffffffffffffffffffffffffffffffffffffff1690565b600254600082815260016020526040812054909161029b9161131b565b92915050565b600054604080517f475853040000000000000000000000000000000000000000000000000000000081529051339273ffffffffffffffffffffffffffffffffffffffff169163475853049160048083019260209291908290030181865afa158015610310573d6000803e3d6000fd5b505050506040513d601f19601f8201168201806040525081019061033491906112cf565b73ffffffffffffffffffffffffffffffffffffffff1614610383576040517f968c45d9000000000000000000000000000000000000000000000000000000008152336004820152602401610258565b600291909155600355565b600080546040517f8a5cde0a0000000000000000000000000000000000000000000000000000000081527f464c454554530000000000000000000000000000000000000000000000000000600482015273ffffffffffffffffffffffffffffffffffffffff90911690638a5cde0a90602401602060405180830381865afa15801561041d573d6000803e3d6000fd5b505050506040513d601f19601f8201168201806040525081019061044191906112cf565b73ffffffffffffffffffffffffffffffffffffffff16637419e9a2836040518263ffffffff1660e01b815260040161047b91815260200190565b61014060405180830381865afa158015610499573d6000803e3d6000fd5b505050506040513d601f19601f820116820180604052508101906104bd9190611384565b600080546040517f8a5cde0a0000000000000000000000000000000000000000000000000000000081527f464c4545545300000000000000000000000000000000000000000000000000006004820152929350909173ffffffffffffffffffffffffffffffffffffffff90911690638a5cde0a90602401602060405180830381865afa158015610551573d6000803e3d6000fd5b505050506040513d601f19601f8201168201806040525081019061057591906112cf565b73ffffffffffffffffffffffffffffffffffffffff1663181c1bc483602001516040518263ffffffff1660e01b81526004016105b391815260200190565b6040805180830381865afa1580156105cf573d6000803e3d6000fd5b505050506040513d601f19601f820116820180604052508101906105f3919061140b565b509050610604826000015133611093565b8160a001518110156106595760a08201516040517f27444d0400000000000000000000000000000000000000000000000000000000815260048101869052602481018390526044810191909152606401610258565b6001826101200151146106a9576101208201516040517ff0fec4f3000000000000000000000000000000000000000000000000000000008152610258918591600401918252602082015260400190565b60036101208301526000546040517f8a5cde0a0000000000000000000000000000000000000000000000000000000081527f464c454554530000000000000000000000000000000000000000000000000000600482015273ffffffffffffffffffffffffffffffffffffffff90911690638a5cde0a90602401602060405180830381865afa15801561073f573d6000803e3d6000fd5b505050506040513d601f19601f8201168201806040525081019061076391906112cf565b604080517ff8606e6200000000000000000000000000000000000000000000000000000000815260048101869052845160248201526020850151604482015290840151606482015260608401516084820152608084015160a482015260a084015160c482015260c084015160e482015260e084015161010482015261010084015161012482015261012084015161014482015273ffffffffffffffffffffffffffffffffffffffff919091169063f8606e629061016401600060405180830381600087803b15801561083457600080fd5b505af1158015610848573d6000803e3d6000fd5b5050505050505050565b600054604080517f475853040000000000000000000000000000000000000000000000000000000081529051339273ffffffffffffffffffffffffffffffffffffffff169163475853049160048083019260209291908290030181865afa1580156108c1573d6000803e3d6000fd5b505050506040513d601f19601f820116820180604052508101906108e591906112cf565b73ffffffffffffffffffffffffffffffffffffffff1614610934576040517f968c45d9000000000000000000000000000000000000000000000000000000008152336004820152602401610258565b600080547fffffffffffffffffffffffff00000000000000000000000000000000000000001673ffffffffffffffffffffffffffffffffffffffff92909216919091179055565b600080546040517f8a5cde0a0000000000000000000000000000000000000000000000000000000081527f464c454554530000000000000000000000000000000000000000000000000000600482015273ffffffffffffffffffffffffffffffffffffffff90911690638a5cde0a90602401602060405180830381865afa158015610a0a573d6000803e3d6000fd5b505050506040513d601f19601f82011682018060405250810190610a2e91906112cf565b73ffffffffffffffffffffffffffffffffffffffff16637419e9a2846040518263ffffffff1660e01b8152600401610a6891815260200190565b61014060405180830381865afa158015610a86573d6000803e3d6000fd5b505050506040513d601f19601f82011682018060405250810190610aaa9190611384565b9050610aba816000015133611093565b600181610120015114610b0a576101208101516040517ff0fec4f3000000000000000000000000000000000000000000000000000000008152610258918591600401918252602082015260400190565b600080546040517f8a5cde0a0000000000000000000000000000000000000000000000000000000081527f504c414e45545300000000000000000000000000000000000000000000000000600482015273ffffffffffffffffffffffffffffffffffffffff90911690638a5cde0a90602401602060405180830381865afa158015610b99573d6000803e3d6000fd5b505050506040513d601f19601f82011682018060405250810190610bbd91906112cf565b73ffffffffffffffffffffffffffffffffffffffff1663181c1bc483602001516040518263ffffffff1660e01b8152600401610bfb91815260200190565b60c060405180830381865afa158015610c18573d6000803e3d6000fd5b505050506040513d601f19601f82011682018060405250810190610c3c9190611457565b60a081015190915060ff16600214610c885781602001516040517fb455751f00000000000000000000000000000000000000000000000000000000815260040161025891815260200190565b6002546020808401516000908152600190915260409020544391610cab9161131b565b1115610ceb5781602001516040517fc84b77ee00000000000000000000000000000000000000000000000000000000815260040161025891815260200190565b600080546040517f8a5cde0a0000000000000000000000000000000000000000000000000000000081527f464c454554530000000000000000000000000000000000000000000000000000600482015273ffffffffffffffffffffffffffffffffffffffff90911690638a5cde0a90602401602060405180830381865afa158015610d7a573d6000803e3d6000fd5b505050506040513d601f19601f82011682018060405250810190610d9e91906112cf565b73ffffffffffffffffffffffffffffffffffffffff1663181c1bc484602001516040518263ffffffff1660e01b8152600401610ddc91815260200190565b6040805180830381865afa158015610df8573d6000803e3d6000fd5b505050506040513d601f19601f82011682018060405250810190610e1c919061140b565b91505080836080015111610e5f576040517f3ddf5cf700000000000000000000000000000000000000000000000000000000815260048101869052602401610258565b60208084018051600090815260019092526040808320439055600354915190517f819b25ba000000000000000000000000000000000000000000000000000000008152612710929173ffffffffffffffffffffffffffffffffffffffff89169163819b25ba91610ed59160040190815260200190565b602060405180830381865afa158015610ef2573d6000803e3d6000fd5b505050506040513d601f19601f82011682018060405250810190610f169190611516565b610f20919061152f565b610f2a919061156c565b905060008460c00151821015610f405781610f46565b8460c001515b6000546040517f8a5cde0a0000000000000000000000000000000000000000000000000000000081527f464c454554530000000000000000000000000000000000000000000000000000600482015291925073ffffffffffffffffffffffffffffffffffffffff1690638a5cde0a90602401602060405180830381865afa158015610fd5573d6000803e3d6000fd5b505050506040513d601f19601f82011682018060405250810190610ff991906112cf565b6040517fa0e0f0990000000000000000000000000000000000000000000000000000000081526004810189905273ffffffffffffffffffffffffffffffffffffffff888116602483015260448201849052919091169063a0e0f09990606401600060405180830381600087803b15801561107257600080fd5b505af1158015611086573d6000803e3d6000fd5b5050505050505050505050565b6000546040517f8a5cde0a0000000000000000000000000000000000000000000000000000000081527f434f4d4d414e4445525300000000000000000000000000000000000000000000600482015273ffffffffffffffffffffffffffffffffffffffff90911690638a5cde0a90602401602060405180830381865afa158015611121573d6000803e3d6000fd5b505050506040513d601f19601f8201168201806040525081019061114591906112cf565b6040517f2a16cca400000000000000000000000000000000000000000000000000000000815273ffffffffffffffffffffffffffffffffffffffff8381166004830152602482018590529190911690632a16cca490604401602060405180830381865afa1580156111ba573d6000803e3d6000fd5b505050506040513d601f19601f820116820180604052508101906111de91906115a7565b611217576040517fd706d79f00000000000000000000000000000000000000000000000000000000815260048101839052602401610258565b5050565b60006020828403121561122d57600080fd5b5035919050565b6000806040838503121561124757600080fd5b50508035926020909101359150565b73ffffffffffffffffffffffffffffffffffffffff8116811461127857600080fd5b50565b60006020828403121561128d57600080fd5b813561129881611256565b9392505050565b600080604083850312156112b257600080fd5b8235915060208301356112c481611256565b809150509250929050565b6000602082840312156112e157600080fd5b815161129881611256565b7f4e487b7100000000000000000000000000000000000000000000000000000000600052601160045260246000fd5b6000821982111561132e5761132e6112ec565b500190565b604051610140810167ffffffffffffffff8111828210171561137e577f4e487b7100000000000000000000000000000000000000000000000000000000600052604160045260246000fd5b60405290565b6000610140828403121561139757600080fd5b61139f611333565b825181526020830151602082015260408301516040820152606083015160608201526080830151608082015260a083015160a082015260c083015160c082015260e083015160e08201526101008084015181830152506101208084015181830152508091505092915050565b6000806040838503121561141e57600080fd5b505080516020909101519092909150565b8051600981900b811461144157600080fd5b919050565b805160ff8116811461144157600080fd5b600060c0828403121561146957600080fd5b60405160c0810181811067ffffffffffffffff821117156114b3577f4e487b7100000000000000000000000000000000000000000000000000000000600052604160045260246000fd5b604052825181526114c66020840161142f565b60208201526114d76040840161142f565b60408201526114e86060840161142f565b60608201526114f960808401611446565b608082015261150a60a08401611446565b60a08201529392505050565b60006020828403121561152857600080fd5b5051919050565b6000817fffffffffffffffffffffffffffffffffffffffffffffffffffffffffffffffff0483118215151615611567576115676112ec565b500290565b6000826115a2577f4e487b7100000000000000000000000000000000000000000000000000000000600052601260045260246000fd5b500490565b6000602082840312156115b957600080fd5b8151801515811461129857600080fdfea26469706673582212208ca04f7d1c5b569616bba31be824da368a3d09c524e970108abd5c89b39e059664736f6c634300080a0033",
    "linkReferences": {}
  }
}