{
  "abi": [
    {
      "inputs": [
        {
          "internalType": "contract ERC20Votes",
          "name": "_token",
          "type": "address"
        },
        {
          "internalType": "contract TimelockController",
          "name": "_timelock",
          "type": "address"
        }
      ],
      "stateMutability": "nonpayable",
      "type": "constructor"
    },
    {
      "inputs": [],
      "name": "Empty",
      "type": "error"
    },
    {
      "anonymous": false,
      "inputs": [
        {
          "indexed": false,
          "internalType": "uint256",
          "name": "proposalId",
          "type": "uint256"
        }
      ],
      "name": "ProposalCanceled",
      "type": "event"
    },
    {
      "anonymous": false,
      "inputs": [
        {
          "indexed": false,
          "internalType": "uint256",
          "name": "proposalId",
          "type": "uint256"
        },
        {
          "indexed": false,
          "internalType": "address",
          "name": "proposer",
          "type": "address"
        },
        {
          "indexed": false,
          "internalType": "address[]",
          "name": "targets",
          "type": "address[]"
        },
        {
          "indexed": false,
          "internalType": "uint256[]",
          "name": "values",
          "type": "uint256[]"
        },
        {
          "indexed": false,
          "internalType": "string[]",
          "name": "signatures",
          "type": "string[]"
        },
        {
          "indexed": false,
          "internalType": "bytes[]",
          "name": "calldatas",
          "type": "bytes[]"
        },
        {
          "indexed": false,
          "internalType": "uint256",
          "name": "startBlock",
          "type": "uint256"
        },
        {
          "indexed": false,
          "internalType": "uint256",
          "name": "endBlock",
          "type": "uint256"
        },
        {
          "indexed": false,
          "internalType": "string",
          "name": "description",
          "type": "string"
        }
      ],
      "name": "ProposalCreated",
      "type": "event"
    },
    {
      "anonymous": false,
      "inputs": [
        {
          "indexed": false,
          "internalType": "uint256",
          "name": "proposalId",
          "type": "uint256"
        }
      ],
      "name": "ProposalExecuted",
      "type": "event"
    },
    {
      "anonymous": false,
      "inputs": [
        {
          "indexed": false,
          "internalType": "uint256",
          "name": "proposalId",
          "type": "uint256"
        },
        {
          "indexed": false,
          "internalType": "uint256",
          "name": "eta",
          "type": "uint256"
        }
      ],
      "name": "ProposalQueued",
      "type": "event"
    },
    {
      "anonymous": false,
      "inputs": [
        {
          "indexed": false,
          "internalType": "uint256",
          "name": "oldQuorumNumerator",
          "type": "uint256"
        },
        {
          "indexed": false,
          "internalType": "uint256",
          "name": "newQuorumNumerator",
          "type": "uint256"
        }
      ],
      "name": "QuorumNumeratorUpdated",
      "type": "event"
    },
    {
      "anonymous": false,
      "inputs": [
        {
          "indexed": false,
          "internalType": "address",
          "name": "oldTimelock",
          "type": "address"
        },
        {
          "indexed": false,
          "internalType": "address",
          "name": "newTimelock",
          "type": "address"
        }
      ],
      "name": "TimelockChange",
      "type": "event"
    },
    {
      "anonymous": false,
      "inputs": [
        {
          "indexed": true,
          "internalType": "address",
          "name": "voter",
          "type": "address"
        },
        {
          "indexed": false,
          "internalType": "uint256",
          "name": "proposalId",
          "type": "uint256"
        },
        {
          "indexed": false,
          "internalType": "uint8",
          "name": "support",
          "type": "uint8"
        },
        {
          "indexed": false,
          "internalType": "uint256",
          "name": "weight",
          "type": "uint256"
        },
        {
          "indexed": false,
          "internalType": "string",
          "name": "reason",
          "type": "string"
        }
      ],
      "name": "VoteCast",
      "type": "event"
    },
    {
      "inputs": [],
      "name": "BALLOT_TYPEHASH",
      "outputs": [
        {
          "internalType": "bytes32",
          "name": "",
          "type": "bytes32"
        }
      ],
      "stateMutability": "view",
      "type": "function"
    },
    {
      "inputs": [],
      "name": "COUNTING_MODE",
      "outputs": [
        {
          "internalType": "string",
          "name": "",
          "type": "string"
        }
      ],
      "stateMutability": "pure",
      "type": "function"
    },
    {
      "inputs": [
        {
          "internalType": "uint256",
          "name": "proposalId",
          "type": "uint256"
        }
      ],
      "name": "cancel",
      "outputs": [],
      "stateMutability": "nonpayable",
      "type": "function"
    },
    {
      "inputs": [
        {
          "internalType": "uint256",
          "name": "proposalId",
          "type": "uint256"
        },
        {
          "internalType": "uint8",
          "name": "support",
          "type": "uint8"
        }
      ],
      "name": "castVote",
      "outputs": [
        {
          "internalType": "uint256",
          "name": "",
          "type": "uint256"
        }
      ],
      "stateMutability": "nonpayable",
      "type": "function"
    },
    {
      "inputs": [
        {
          "internalType": "uint256",
          "name": "proposalId",
          "type": "uint256"
        },
        {
          "internalType": "uint8",
          "name": "support",
          "type": "uint8"
        },
        {
          "internalType": "uint8",
          "name": "v",
          "type": "uint8"
        },
        {
          "internalType": "bytes32",
          "name": "r",
          "type": "bytes32"
        },
        {
          "internalType": "bytes32",
          "name": "s",
          "type": "bytes32"
        }
      ],
      "name": "castVoteBySig",
      "outputs": [
        {
          "internalType": "uint256",
          "name": "",
          "type": "uint256"
        }
      ],
      "stateMutability": "nonpayable",
      "type": "function"
    },
    {
      "inputs": [
        {
          "internalType": "uint256",
          "name": "proposalId",
          "type": "uint256"
        },
        {
          "internalType": "uint8",
          "name": "support",
          "type": "uint8"
        },
        {
          "internalType": "string",
          "name": "reason",
          "type": "string"
        }
      ],
      "name": "castVoteWithReason",
      "outputs": [
        {
          "internalType": "uint256",
          "name": "",
          "type": "uint256"
        }
      ],
      "stateMutability": "nonpayable",
      "type": "function"
    },
    {
      "inputs": [
        {
          "internalType": "address[]",
          "name": "targets",
          "type": "address[]"
        },
        {
          "internalType": "uint256[]",
          "name": "values",
          "type": "uint256[]"
        },
        {
          "internalType": "bytes[]",
          "name": "calldatas",
          "type": "bytes[]"
        },
        {
          "internalType": "bytes32",
          "name": "descriptionHash",
          "type": "bytes32"
        }
      ],
      "name": "execute",
      "outputs": [
        {
          "internalType": "uint256",
          "name": "",
          "type": "uint256"
        }
      ],
      "stateMutability": "payable",
      "type": "function"
    },
    {
      "inputs": [
        {
          "internalType": "uint256",
          "name": "proposalId",
          "type": "uint256"
        }
      ],
      "name": "execute",
      "outputs": [],
      "stateMutability": "payable",
      "type": "function"
    },
    {
      "inputs": [
        {
          "internalType": "uint256",
          "name": "proposalId",
          "type": "uint256"
        }
      ],
      "name": "getActions",
      "outputs": [
        {
          "internalType": "address[]",
          "name": "targets",
          "type": "address[]"
        },
        {
          "internalType": "uint256[]",
          "name": "values",
          "type": "uint256[]"
        },
        {
          "internalType": "string[]",
          "name": "signatures",
          "type": "string[]"
        },
        {
          "internalType": "bytes[]",
          "name": "calldatas",
          "type": "bytes[]"
        }
      ],
      "stateMutability": "view",
      "type": "function"
    },
    {
      "inputs": [
        {
          "internalType": "uint256",
          "name": "proposalId",
          "type": "uint256"
        },
        {
          "internalType": "address",
          "name": "voter",
          "type": "address"
        }
      ],
      "name": "getReceipt",
      "outputs": [
        {
          "components": [
            {
              "internalType": "bool",
              "name": "hasVoted",
              "type": "bool"
            },
            {
              "internalType": "uint8",
              "name": "support",
              "type": "uint8"
            },
            {
              "internalType": "uint96",
              "name": "votes",
              "type": "uint96"
            }
          ],
          "internalType": "struct IGovernorCompatibilityBravo.Receipt",
          "name": "",
          "type": "tuple"
        }
      ],
      "stateMutability": "view",
      "type": "function"
    },
    {
      "inputs": [
        {
          "internalType": "address",
          "name": "account",
          "type": "address"
        },
        {
          "internalType": "uint256",
          "name": "blockNumber",
          "type": "uint256"
        }
      ],
      "name": "getVotes",
      "outputs": [
        {
          "internalType": "uint256",
          "name": "",
          "type": "uint256"
        }
      ],
      "stateMutability": "view",
      "type": "function"
    },
    {
      "inputs": [
        {
          "internalType": "uint256",
          "name": "proposalId",
          "type": "uint256"
        },
        {
          "internalType": "address",
          "name": "account",
          "type": "address"
        }
      ],
      "name": "hasVoted",
      "outputs": [
        {
          "internalType": "bool",
          "name": "",
          "type": "bool"
        }
      ],
      "stateMutability": "view",
      "type": "function"
    },
    {
      "inputs": [
        {
          "internalType": "address[]",
          "name": "targets",
          "type": "address[]"
        },
        {
          "internalType": "uint256[]",
          "name": "values",
          "type": "uint256[]"
        },
        {
          "internalType": "bytes[]",
          "name": "calldatas",
          "type": "bytes[]"
        },
        {
          "internalType": "bytes32",
          "name": "descriptionHash",
          "type": "bytes32"
        }
      ],
      "name": "hashProposal",
      "outputs": [
        {
          "internalType": "uint256",
          "name": "",
          "type": "uint256"
        }
      ],
      "stateMutability": "pure",
      "type": "function"
    },
    {
      "inputs": [],
      "name": "name",
      "outputs": [
        {
          "internalType": "string",
          "name": "",
          "type": "string"
        }
      ],
      "stateMutability": "view",
      "type": "function"
    },
    {
      "inputs": [
        {
          "internalType": "uint256",
          "name": "proposalId",
          "type": "uint256"
        }
      ],
      "name": "proposalDeadline",
      "outputs": [
        {
          "internalType": "uint256",
          "name": "",
          "type": "uint256"
        }
      ],
      "stateMutability": "view",
      "type": "function"
    },
    {
      "inputs": [
        {
          "internalType": "uint256",
          "name": "proposalId",
          "type": "uint256"
        }
      ],
      "name": "proposalEta",
      "outputs": [
        {
          "internalType": "uint256",
          "name": "",
          "type": "uint256"
        }
      ],
      "stateMutability": "view",
      "type": "function"
    },
    {
      "inputs": [
        {
          "internalType": "uint256",
          "name": "proposalId",
          "type": "uint256"
        }
      ],
      "name": "proposalSnapshot",
      "outputs": [
        {
          "internalType": "uint256",
          "name": "",
          "type": "uint256"
        }
      ],
      "stateMutability": "view",
      "type": "function"
    },
    {
      "inputs": [],
      "name": "proposalThreshold",
      "outputs": [
        {
          "internalType": "uint256",
          "name": "",
          "type": "uint256"
        }
      ],
      "stateMutability": "pure",
      "type": "function"
    },
    {
      "inputs": [
        {
          "internalType": "uint256",
          "name": "proposalId",
          "type": "uint256"
        }
      ],
      "name": "proposals",
      "outputs": [
        {
          "internalType": "uint256",
          "name": "id",
          "type": "uint256"
        },
        {
          "internalType": "address",
          "name": "proposer",
          "type": "address"
        },
        {
          "internalType": "uint256",
          "name": "eta",
          "type": "uint256"
        },
        {
          "internalType": "uint256",
          "name": "startBlock",
          "type": "uint256"
        },
        {
          "internalType": "uint256",
          "name": "endBlock",
          "type": "uint256"
        },
        {
          "internalType": "uint256",
          "name": "forVotes",
          "type": "uint256"
        },
        {
          "internalType": "uint256",
          "name": "againstVotes",
          "type": "uint256"
        },
        {
          "internalType": "uint256",
          "name": "abstainVotes",
          "type": "uint256"
        },
        {
          "internalType": "bool",
          "name": "canceled",
          "type": "bool"
        },
        {
          "internalType": "bool",
          "name": "executed",
          "type": "bool"
        }
      ],
      "stateMutability": "view",
      "type": "function"
    },
    {
      "inputs": [
        {
          "internalType": "address[]",
          "name": "targets",
          "type": "address[]"
        },
        {
          "internalType": "uint256[]",
          "name": "values",
          "type": "uint256[]"
        },
        {
          "internalType": "bytes[]",
          "name": "calldatas",
          "type": "bytes[]"
        },
        {
          "internalType": "string",
          "name": "description",
          "type": "string"
        }
      ],
      "name": "propose",
      "outputs": [
        {
          "internalType": "uint256",
          "name": "",
          "type": "uint256"
        }
      ],
      "stateMutability": "nonpayable",
      "type": "function"
    },
    {
      "inputs": [
        {
          "internalType": "address[]",
          "name": "targets",
          "type": "address[]"
        },
        {
          "internalType": "uint256[]",
          "name": "values",
          "type": "uint256[]"
        },
        {
          "internalType": "string[]",
          "name": "signatures",
          "type": "string[]"
        },
        {
          "internalType": "bytes[]",
          "name": "calldatas",
          "type": "bytes[]"
        },
        {
          "internalType": "string",
          "name": "description",
          "type": "string"
        }
      ],
      "name": "propose",
      "outputs": [
        {
          "internalType": "uint256",
          "name": "",
          "type": "uint256"
        }
      ],
      "stateMutability": "nonpayable",
      "type": "function"
    },
    {
      "inputs": [
        {
          "internalType": "address[]",
          "name": "targets",
          "type": "address[]"
        },
        {
          "internalType": "uint256[]",
          "name": "values",
          "type": "uint256[]"
        },
        {
          "internalType": "bytes[]",
          "name": "calldatas",
          "type": "bytes[]"
        },
        {
          "internalType": "bytes32",
          "name": "descriptionHash",
          "type": "bytes32"
        }
      ],
      "name": "queue",
      "outputs": [
        {
          "internalType": "uint256",
          "name": "",
          "type": "uint256"
        }
      ],
      "stateMutability": "nonpayable",
      "type": "function"
    },
    {
      "inputs": [
        {
          "internalType": "uint256",
          "name": "proposalId",
          "type": "uint256"
        }
      ],
      "name": "queue",
      "outputs": [],
      "stateMutability": "nonpayable",
      "type": "function"
    },
    {
      "inputs": [
        {
          "internalType": "uint256",
          "name": "blockNumber",
          "type": "uint256"
        }
      ],
      "name": "quorum",
      "outputs": [
        {
          "internalType": "uint256",
          "name": "",
          "type": "uint256"
        }
      ],
      "stateMutability": "view",
      "type": "function"
    },
    {
      "inputs": [],
      "name": "quorumDenominator",
      "outputs": [
        {
          "internalType": "uint256",
          "name": "",
          "type": "uint256"
        }
      ],
      "stateMutability": "view",
      "type": "function"
    },
    {
      "inputs": [],
      "name": "quorumNumerator",
      "outputs": [
        {
          "internalType": "uint256",
          "name": "",
          "type": "uint256"
        }
      ],
      "stateMutability": "view",
      "type": "function"
    },
    {
      "inputs": [],
      "name": "quorumVotes",
      "outputs": [
        {
          "internalType": "uint256",
          "name": "",
          "type": "uint256"
        }
      ],
      "stateMutability": "view",
      "type": "function"
    },
    {
      "inputs": [
        {
          "internalType": "address",
          "name": "target",
          "type": "address"
        },
        {
          "internalType": "uint256",
          "name": "value",
          "type": "uint256"
        },
        {
          "internalType": "bytes",
          "name": "data",
          "type": "bytes"
        }
      ],
      "name": "relay",
      "outputs": [],
      "stateMutability": "nonpayable",
      "type": "function"
    },
    {
      "inputs": [
        {
          "internalType": "uint256",
          "name": "proposalId",
          "type": "uint256"
        }
      ],
      "name": "state",
      "outputs": [
        {
          "internalType": "enum IGovernor.ProposalState",
          "name": "",
          "type": "uint8"
        }
      ],
      "stateMutability": "view",
      "type": "function"
    },
    {
      "inputs": [
        {
          "internalType": "bytes4",
          "name": "interfaceId",
          "type": "bytes4"
        }
      ],
      "name": "supportsInterface",
      "outputs": [
        {
          "internalType": "bool",
          "name": "",
          "type": "bool"
        }
      ],
      "stateMutability": "view",
      "type": "function"
    },
    {
      "inputs": [],
      "name": "timelock",
      "outputs": [
        {
          "internalType": "address",
          "name": "",
          "type": "address"
        }
      ],
      "stateMutability": "view",
      "type": "function"
    },
    {
      "inputs": [],
      "name": "token",
      "outputs": [
        {
          "internalType": "contract IVotes",
          "name": "",
          "type": "address"
        }
      ],
      "stateMutability": "view",
      "type": "function"
    },
    {
      "inputs": [
        {
          "internalType": "uint256",
          "name": "newQuorumNumerator",
          "type": "uint256"
        }
      ],
      "name": "updateQuorumNumerator",
      "outputs": [],
      "stateMutability": "nonpayable",
      "type": "function"
    },
    {
      "inputs": [
        {
          "internalType": "contract TimelockController",
          "name": "newTimelock",
          "type": "address"
        }
      ],
      "name": "updateTimelock",
      "outputs": [],
      "stateMutability": "nonpayable",
      "type": "function"
    },
    {
      "inputs": [],
      "name": "version",
      "outputs": [
        {
          "internalType": "string",
          "name": "",
          "type": "string"
        }
      ],
      "stateMutability": "view",
      "type": "function"
    },
    {
      "inputs": [],
      "name": "votingDelay",
      "outputs": [
        {
          "internalType": "uint256",
          "name": "",
          "type": "uint256"
        }
      ],
      "stateMutability": "pure",
      "type": "function"
    },
    {
      "inputs": [],
      "name": "votingPeriod",
      "outputs": [
        {
          "internalType": "uint256",
          "name": "",
          "type": "uint256"
        }
      ],
      "stateMutability": "pure",
      "type": "function"
    },
    {
      "stateMutability": "payable",
      "type": "receive"
    }
  ],
  "bytecode": {
    "object": "0x6101606040523480156200001257600080fd5b50604051620053f2380380620053f2833981016040819052620000359162000352565b806004836040518060400160405280600a81526020016914185c9b1a585b595b9d60b21b815250806200006d6200014260201b60201c565b815160208084019190912082518383012060e08290526101008190524660a0818152604080517f8b73c3c69bb8fe3d512ecc4cf759cc79239f7b179b0ffacaa9a75d522b39400f81880181905281830187905260608201869052608082019490945230818401528151808203909301835260c00190528051940193909320919290916080523060c052610120525050825162000113925060009150602084019062000293565b50506001600160a01b0316610140526200012d816200015d565b5062000139816200022a565b505050620003ce565b6040805180820190915260018152603160f81b602082015290565b6064811115620001e55760405162461bcd60e51b815260206004820152604360248201527f476f7665726e6f72566f74657351756f72756d4672616374696f6e3a2071756f60448201527f72756d4e756d657261746f72206f7665722071756f72756d44656e6f6d696e616064820152623a37b960e91b608482015260a40160405180910390fd5b600580549082905560408051828152602081018490527f0553476bf02ef2726e8ce5ced78d63e26e602e4a2257b1f559418e24b4633997910160405180910390a15050565b600654604080516001600160a01b03928316815291831660208301527f08f74ea46ef7894f65eabfb5e6e695de773a000b47c529ab559178069b226401910160405180910390a1600680546001600160a01b0319166001600160a01b0392909216919091179055565b828054620002a19062000391565b90600052602060002090601f016020900481019282620002c5576000855562000310565b82601f10620002e057805160ff191683800117855562000310565b8280016001018555821562000310579182015b8281111562000310578251825591602001919060010190620002f3565b506200031e92915062000322565b5090565b5b808211156200031e576000815560010162000323565b6001600160a01b03811681146200034f57600080fd5b50565b600080604083850312156200036657600080fd5b8251620003738162000339565b6020840151909250620003868162000339565b809150509250929050565b600181811c90821680620003a657607f821691505b60208210811415620003c857634e487b7160e01b600052602260045260246000fd5b50919050565b60805160a05160c05160e051610100516101205161014051614fbb62000437600039600081816108eb01528181612a830152612b2601526000612dd401526000612e2301526000612dfe01526000612d5701526000612d8101526000612dab0152614fbb6000f3fe60806040526004361061026e5760003560e01c80637d5e81e211610153578063d33219b4116100cb578063e23a9a521161007f578063f8ce560a11610064578063f8ce560a146108b9578063fc0c546a146108d9578063fe0d94c11461090d57600080fd5b8063e23a9a52146107b8578063eb9019d41461089957600080fd5b8063dd4e2ba5116100b0578063dd4e2ba51461071e578063ddf0b00914610764578063deaaa7cc1461078457600080fd5b8063d33219b4146106b2578063da95691a146106fe57600080fd5b8063ab58fb8e11610122578063c01f9e3711610107578063c01f9e3714610652578063c28bc2fa14610672578063c59057e41461069257600080fd5b8063ab58fb8e1461061e578063b58131b01461063e57600080fd5b80637d5e81e2146105b557806397c3d334146105d5578063a7713a70146105e9578063a890c910146105fe57600080fd5b8063328dd982116101e657806340e58ee5116101b557806354fd4d501161019a57806354fd4d501461052f57806356781388146105755780637b3c71d31461059557600080fd5b806340e58ee5146104b857806343859632146104d857600080fd5b8063328dd982146104255780633932abb1146104555780633bccf4fd1461046b5780633e4f49e61461048b57600080fd5b806306fdde031161023d57806324bc1a641161022257806324bc1a64146103dd5780632656227d146103f25780632d63f6931461040557600080fd5b806306fdde031461039b578063160cbed7146103bd57600080fd5b8063013cf08b146102a357806301ffc9a71461032b57806302a251a31461035b57806306f3f9e61461037b57600080fd5b3661029e573061027c610920565b73ffffffffffffffffffffffffffffffffffffffff161461029c57600080fd5b005b600080fd5b3480156102af57600080fd5b506102c36102be36600461416f565b610946565b604080519a8b5273ffffffffffffffffffffffffffffffffffffffff90991660208b0152978901969096526060880194909452608087019290925260a086015260c085015260e084015215156101008301521515610120820152610140015b60405180910390f35b34801561033757600080fd5b5061034b610346366004614188565b6109fc565b6040519015158152602001610322565b34801561036757600080fd5b5062093a805b604051908152602001610322565b34801561038757600080fd5b5061029c61039636600461416f565b610a0d565b3480156103a757600080fd5b506103b0610b12565b6040516103229190614244565b3480156103c957600080fd5b5061036d6103d83660046144f5565b610ba4565b3480156103e957600080fd5b5061036d610e87565b61036d6104003660046144f5565b610e97565b34801561041157600080fd5b5061036d61042036600461416f565b611012565b34801561043157600080fd5b5061044561044036600461416f565b61104b565b604051610322949392919061465b565b34801561046157600080fd5b506201518061036d565b34801561047757600080fd5b5061036d6104863660046146be565b6112e9565b34801561049757600080fd5b506104ab6104a636600461416f565b61137d565b604051610322919061473b565b3480156104c457600080fd5b5061029c6104d336600461416f565b611388565b3480156104e457600080fd5b5061034b6104f336600461477c565b600082815260046020908152604080832073ffffffffffffffffffffffffffffffffffffffff8516845260080190915290205460ff1692915050565b34801561053b57600080fd5b5060408051808201909152600181527f310000000000000000000000000000000000000000000000000000000000000060208201526103b0565b34801561058157600080fd5b5061036d6105903660046147ac565b6116fe565b3480156105a157600080fd5b5061036d6105b0366004614821565b611727565b3480156105c157600080fd5b5061036d6105d036600461489b565b611779565b3480156105e157600080fd5b50606461036d565b3480156105f557600080fd5b5060055461036d565b34801561060a57600080fd5b5061029c610619366004614948565b611790565b34801561062a57600080fd5b5061036d61063936600461416f565b61188d565b34801561064a57600080fd5b50600061036d565b34801561065e57600080fd5b5061036d61066d36600461416f565b61194e565b34801561067e57600080fd5b5061029c61068d366004614965565b61197e565b34801561069e57600080fd5b5061036d6106ad3660046144f5565b611abb565b3480156106be57600080fd5b5060065473ffffffffffffffffffffffffffffffffffffffff165b60405173ffffffffffffffffffffffffffffffffffffffff9091168152602001610322565b34801561070a57600080fd5b5061036d610719366004614a29565b611b13565b34801561072a57600080fd5b5060408051808201909152601a81527f737570706f72743d627261766f2671756f72756d3d627261766f00000000000060208201526103b0565b34801561077057600080fd5b5061029c61077f36600461416f565b611b38565b34801561079057600080fd5b5061036d7f150214d74d59b7d1e90c73fc22ef3d991dd0a76b046543d4d80ab92d2a50328f81565b3480156107c457600080fd5b506108646107d336600461477c565b604080516060810182526000808252602082018190529181019190915250600091825260046020908152604080842073ffffffffffffffffffffffffffffffffffffffff93909316845260089092018152918190208151606081018352905460ff8082161515835261010082041693820193909352620100009092046bffffffffffffffffffffffff169082015290565b6040805182511515815260208084015160ff1690820152918101516bffffffffffffffffffffffff1690820152606001610322565b3480156108a557600080fd5b5061036d6108b4366004614afb565b611db3565b3480156108c557600080fd5b5061036d6108d436600461416f565b611dbf565b3480156108e557600080fd5b506106d97f000000000000000000000000000000000000000000000000000000000000000081565b61029c61091b36600461416f565b611dca565b600061094160065473ffffffffffffffffffffffffffffffffffffffff1690565b905090565b806000808080808080808061095a8a61188d565b97506109658b611012565b96506109708b61194e565b60008c8152600460205260408120805460058201546006830154600784015473ffffffffffffffffffffffffffffffffffffffff9093169e50949a5098509296509194506109bd8d61137d565b905060028160078111156109d3576109d361470c565b14935060078160078111156109ea576109ea61470c565b14925050509193959799509193959799565b6000610a0782612045565b92915050565b610a15610920565b73ffffffffffffffffffffffffffffffffffffffff163373ffffffffffffffffffffffffffffffffffffffff1614610aae576040517f08c379a000000000000000000000000000000000000000000000000000000000815260206004820152601860248201527f476f7665726e6f723a206f6e6c79476f7665726e616e6365000000000000000060448201526064015b60405180910390fd5b30610ab7610920565b73ffffffffffffffffffffffffffffffffffffffff1614610b065760008036604051610ae4929190614b27565b604051809103902090505b80610afa600261209b565b14610b0457610aef565b505b610b0f81612158565b50565b606060008054610b2190614b37565b80601f0160208091040260200160405190810160405280929190818152602001828054610b4d90614b37565b8015610b9a5780601f10610b6f57610100808354040283529160200191610b9a565b820191906000526020600020905b815481529060010190602001808311610b7d57829003601f168201915b5050505050905090565b600080610bb386868686611abb565b90506004610bc08261137d565b6007811115610bd157610bd161470c565b14610c5e576040517f08c379a000000000000000000000000000000000000000000000000000000000815260206004820152602160248201527f476f7665726e6f723a2070726f706f73616c206e6f742073756363657373667560448201527f6c000000000000000000000000000000000000000000000000000000000000006064820152608401610aa5565b600654604080517ff27a0c92000000000000000000000000000000000000000000000000000000008152905160009273ffffffffffffffffffffffffffffffffffffffff169163f27a0c929160048083019260209291908290030181865afa158015610cce573d6000803e3d6000fd5b505050506040513d601f19601f82011682018060405250810190610cf29190614b8b565b6006546040517fb1c5f42700000000000000000000000000000000000000000000000000000000815291925073ffffffffffffffffffffffffffffffffffffffff169063b1c5f42790610d52908a908a908a906000908b90600401614ba4565b602060405180830381865afa158015610d6f573d6000803e3d6000fd5b505050506040513d601f19601f82011682018060405250810190610d939190614b8b565b6000838152600760205260408082209290925560065491517f8f2a0bb000000000000000000000000000000000000000000000000000000000815273ffffffffffffffffffffffffffffffffffffffff90921691638f2a0bb091610e04918b918b918b91908b908990600401614bf2565b600060405180830381600087803b158015610e1e57600080fd5b505af1158015610e32573d6000803e3d6000fd5b505050507f9a2e42fd6722813d69113e7d0079d3d940171428df7373df9c7f7617cfda2892828242610e649190614c79565b604080519283526020830191909152015b60405180910390a15095945050505050565b60006109416108d4600143614c91565b600080610ea686868686611abb565b90506000610eb38261137d565b90506004816007811115610ec957610ec961470c565b1480610ee657506005816007811115610ee457610ee461470c565b145b610f72576040517f08c379a000000000000000000000000000000000000000000000000000000000815260206004820152602160248201527f476f7665726e6f723a2070726f706f73616c206e6f742073756363657373667560448201527f6c000000000000000000000000000000000000000000000000000000000000006064820152608401610aa5565b60008281526001602081815260409283902060020180547fffffffffffffffffffffffffffffffffffffffffffffffffffffffffffffff001690921790915590518381527f712ae1383f79ac853f8d882153778e0260ef8f03b504e2866e0593e04d2b291f910160405180910390a1610fee8288888888612254565b610ffb828888888861231d565b611008828888888861232a565b5095945050505050565b600081815260016020908152604080832081519283019091525467ffffffffffffffff16908190525b67ffffffffffffffff1692915050565b606080606080600060046000878152602001908152602001600020905080600101816002018260030183600401838054806020026020016040519081016040528092919081815260200182805480156110da57602002820191906000526020600020905b815473ffffffffffffffffffffffffffffffffffffffff1681526001909101906020018083116110af575b505050505093508280548060200260200160405190810160405280929190818152602001828054801561112c57602002820191906000526020600020905b815481526020019060010190808311611118575b5050505050925081805480602002602001604051908101604052809291908181526020016000905b8282101561120057838290600052602060002001805461117390614b37565b80601f016020809104026020016040519081016040528092919081815260200182805461119f90614b37565b80156111ec5780601f106111c1576101008083540402835291602001916111ec565b820191906000526020600020905b8154815290600101906020018083116111cf57829003601f168201915b505050505081526020019060010190611154565b50505050915080805480602002602001604051908101604052809291908181526020016000905b828210156112d357838290600052602060002001805461124690614b37565b80601f016020809104026020016040519081016040528092919081815260200182805461127290614b37565b80156112bf5780601f10611294576101008083540402835291602001916112bf565b820191906000526020600020905b8154815290600101906020018083116112a257829003601f168201915b505050505081526020019060010190611227565b5050505090509450945094509450509193509193565b604080517f150214d74d59b7d1e90c73fc22ef3d991dd0a76b046543d4d80ab92d2a50328f602082015290810186905260ff8516606082015260009081906113559061134d906080016040516020818303038152906040528051906020012061237d565b8686866123e6565b905061137287828860405180602001604052806000815250612404565b979650505050505050565b6000610a0782612551565b6000818152600460205260409020805473ffffffffffffffffffffffffffffffffffffffff163373ffffffffffffffffffffffffffffffffffffffff1614806113f75750600081546113f59073ffffffffffffffffffffffffffffffffffffffff166108b4600143614c91565b105b611483576040517f08c379a000000000000000000000000000000000000000000000000000000000815260206004820152602760248201527f476f7665726e6f72427261766f3a2070726f706f7365722061626f766520746860448201527f726573686f6c64000000000000000000000000000000000000000000000000006064820152608401610aa5565b6116f9816001018054806020026020016040519081016040528092919081815260200182805480156114eb57602002820191906000526020600020905b815473ffffffffffffffffffffffffffffffffffffffff1681526001909101906020018083116114c0575b50505050508260020180548060200260200160405190810160405280929190818152602001828054801561153e57602002820191906000526020600020905b81548152602001906001019080831161152a575b50505050506116ef84600301805480602002602001604051908101604052809291908181526020016000905b8282101561161657838290600052602060002001805461158990614b37565b80601f01602080910402602001604051908101604052809291908181526020018280546115b590614b37565b80156116025780601f106115d757610100808354040283529160200191611602565b820191906000526020600020905b8154815290600101906020018083116115e557829003601f168201915b50505050508152602001906001019061156a565b50505060048701805460408051602080840282018101909252828152935060009084015b828210156116e657838290600052602060002001805461165990614b37565b80601f016020809104026020016040519081016040528092919081815260200182805461168590614b37565b80156116d25780601f106116a7576101008083540402835291602001916116d2565b820191906000526020600020905b8154815290600101906020018083116116b557829003601f168201915b50505050508152602001906001019061163a565b505050506126e7565b846009015461281a565b505050565b60008033905061171f84828560405180602001604052806000815250612404565b949350505050565b60008033905061176f86828787878080601f01602080910402602001604051908101604052809392919081815260200183838082843760009201919091525061240492505050565b9695505050505050565b600061178785858585612828565b95945050505050565b611798610920565b73ffffffffffffffffffffffffffffffffffffffff163373ffffffffffffffffffffffffffffffffffffffff161461182c576040517f08c379a000000000000000000000000000000000000000000000000000000000815260206004820152601860248201527f476f7665726e6f723a206f6e6c79476f7665726e616e636500000000000000006044820152606401610aa5565b30611835610920565b73ffffffffffffffffffffffffffffffffffffffff16146118845760008036604051611862929190614b27565b604051809103902090505b80611878600261209b565b146118825761186d565b505b610b0f81612891565b6006546000828152600760205260408082205490517fd45c443500000000000000000000000000000000000000000000000000000000815260048101919091529091829173ffffffffffffffffffffffffffffffffffffffff9091169063d45c443590602401602060405180830381865afa158015611910573d6000803e3d6000fd5b505050506040513d601f19601f820116820180604052508101906119349190614b8b565b9050806001146119445780611947565b60005b9392505050565b600081815260016020818152604080842081519283019091529091015467ffffffffffffffff169081905261103b565b611986610920565b73ffffffffffffffffffffffffffffffffffffffff163373ffffffffffffffffffffffffffffffffffffffff1614611a1a576040517f08c379a000000000000000000000000000000000000000000000000000000000815260206004820152601860248201527f476f7665726e6f723a206f6e6c79476f7665726e616e636500000000000000006044820152606401610aa5565b30611a23610920565b73ffffffffffffffffffffffffffffffffffffffff1614611a725760008036604051611a50929190614b27565b604051809103902090505b80611a66600261209b565b14611a7057611a5b565b505b611ab48483838080601f01602080910402602001604051908101604052809392919081815260200183838082843760009201919091525088925061292c915050565b5050505050565b600084848484604051602001611ad49493929190614ca8565b604080517fffffffffffffffffffffffffffffffffffffffffffffffffffffffffffffffe0818403018152919052805160209091012095945050505050565b6000611b23338787878787612952565b61176f8686611b3287876126e7565b85611779565b60008181526004602090815260409182902060018101805484518185028101850190955280855291936116f993909290830182828015611bae57602002820191906000526020600020905b815473ffffffffffffffffffffffffffffffffffffffff168152600190910190602001808311611b83575b505050505082600201805480602002602001604051908101604052809291908181526020018280548015611c0157602002820191906000526020600020905b815481526020019060010190808311611bed575b5050505050611da984600301805480602002602001604051908101604052809291908181526020016000905b82821015611cd9578382906000526020600020018054611c4c90614b37565b80601f0160208091040260200160405190810160405280929190818152602001828054611c7890614b37565b8015611cc55780601f10611c9a57610100808354040283529160200191611cc5565b820191906000526020600020905b815481529060010190602001808311611ca857829003601f168201915b505050505081526020019060010190611c2d565b50505060048701805460408051602080840282018101909252828152935060009084015b828210156116e6578382906000526020600020018054611d1c90614b37565b80601f0160208091040260200160405190810160405280929190818152602001828054611d4890614b37565b8015611d955780601f10611d6a57610100808354040283529160200191611d95565b820191906000526020600020905b815481529060010190602001808311611d7857829003601f168201915b505050505081526020019060010190611cfd565b8460090154610ba4565b60006119478383612a34565b6000610a0782612af0565b60008181526004602090815260409182902060018101805484518185028101850190955280855291936116f993909290830182828015611e4057602002820191906000526020600020905b815473ffffffffffffffffffffffffffffffffffffffff168152600190910190602001808311611e15575b505050505082600201805480602002602001604051908101604052809291908181526020018280548015611e9357602002820191906000526020600020905b815481526020019060010190808311611e7f575b505050505061203b84600301805480602002602001604051908101604052809291908181526020016000905b82821015611f6b578382906000526020600020018054611ede90614b37565b80601f0160208091040260200160405190810160405280929190818152602001828054611f0a90614b37565b8015611f575780601f10611f2c57610100808354040283529160200191611f57565b820191906000526020600020905b815481529060010190602001808311611f3a57829003601f168201915b505050505081526020019060010190611ebf565b50505060048701805460408051602080840282018101909252828152935060009084015b828210156116e6578382906000526020600020018054611fae90614b37565b80601f0160208091040260200160405190810160405280929190818152602001828054611fda90614b37565b80156120275780601f10611ffc57610100808354040283529160200191612027565b820191906000526020600020905b81548152906001019060200180831161200a57829003601f168201915b505050505081526020019060010190611f8f565b8460090154610e97565b60007fffffffff0000000000000000000000000000000000000000000000000000000082167f6e665ced000000000000000000000000000000000000000000000000000000001480610a075750610a0782612bba565b60006120c38254600f81810b700100000000000000000000000000000000909204900b131590565b156120fa576040517f3db2a12a00000000000000000000000000000000000000000000000000000000815260040160405180910390fd5b508054600f0b6000818152600180840160205260408220805492905583547fffffffffffffffffffffffffffffffff000000000000000000000000000000001692016fffffffffffffffffffffffffffffffff169190911790915590565b606481111561220f576040517f08c379a000000000000000000000000000000000000000000000000000000000815260206004820152604360248201527f476f7665726e6f72566f74657351756f72756d4672616374696f6e3a2071756f60448201527f72756d4e756d657261746f72206f7665722071756f72756d44656e6f6d696e6160648201527f746f720000000000000000000000000000000000000000000000000000000000608482015260a401610aa5565b600580549082905560408051828152602081018490527f0553476bf02ef2726e8ce5ced78d63e26e602e4a2257b1f559418e24b4633997910160405180910390a15050565b3061225d610920565b73ffffffffffffffffffffffffffffffffffffffff1614611ab45760005b8451811015612315573073ffffffffffffffffffffffffffffffffffffffff168582815181106122ad576122ad614cf3565b602002602001015173ffffffffffffffffffffffffffffffffffffffff161415612305576123058382815181106122e6576122e6614cf3565b6020026020010151805190602001206002612c5190919063ffffffff16565b61230e81614d22565b905061227b565b505050505050565b611ab48585858585612ca3565b30612333610920565b73ffffffffffffffffffffffffffffffffffffffff1614611ab457600254600f81810b700100000000000000000000000000000000909204900b1315611ab4576000600255611ab4565b6000610a0761238a612d3d565b836040517f19010000000000000000000000000000000000000000000000000000000000006020820152602281018390526042810182905260009060620160405160208183030381529060405280519060200120905092915050565b60008060006123f787878787612e71565b9150915061100881612f89565b600084815260016020819052604082209061241e8761137d565b600781111561242f5761242f61470c565b146124bc576040517f08c379a000000000000000000000000000000000000000000000000000000000815260206004820152602360248201527f476f7665726e6f723a20766f7465206e6f742063757272656e746c792061637460448201527f69766500000000000000000000000000000000000000000000000000000000006064820152608401610aa5565b6040805160208101909152815467ffffffffffffffff16908190526000906124e5908790611db3565b90506124f3878787846131e2565b8573ffffffffffffffffffffffffffffffffffffffff167fb8e138887d0aa13bab447e82de9d5c1777041ecd21ca36ba824ff1e6c07ddda48887848860405161253f9493929190614d5b565b60405180910390a29695505050505050565b60008061255d83613413565b905060048160078111156125735761257361470c565b1461257e5792915050565b60008381526007602052604090205480612599575092915050565b6006546040517f2ab0f5290000000000000000000000000000000000000000000000000000000081526004810183905273ffffffffffffffffffffffffffffffffffffffff90911690632ab0f52990602401602060405180830381865afa158015612608573d6000803e3d6000fd5b505050506040513d601f19601f8201168201806040525081019061262c9190614d83565b1561263b575060079392505050565b6006546040517f584b153e0000000000000000000000000000000000000000000000000000000081526004810183905273ffffffffffffffffffffffffffffffffffffffff9091169063584b153e90602401602060405180830381865afa1580156126aa573d6000803e3d6000fd5b505050506040513d601f19601f820116820180604052508101906126ce9190614d83565b156126dd575060059392505050565b5060029392505050565b60606000825167ffffffffffffffff81111561270557612705614257565b60405190808252806020026020018201604052801561273857816020015b60608152602001906001900390816127235790505b50905060005b84518110156128125784818151811061275957612759614cf3565b6020026020010151516000146127c95784818151811061277b5761277b614cf3565b60200260200101518051906020012084828151811061279c5761279c614cf3565b60200260200101516040516020016127b5929190614da5565b6040516020818303038152906040526127e4565b8381815181106127db576127db614cf3565b60200260200101515b8282815181106127f6576127f6614cf3565b60200260200101819052508061280b90614d22565b905061273e565b509392505050565b60006117878585858561353c565b6000612885338686865167ffffffffffffffff81111561284a5761284a614257565b60405190808252806020026020018201604052801561287d57816020015b60608152602001906001900390816128685790505b508787612952565b61178785858585613614565b6006546040805173ffffffffffffffffffffffffffffffffffffffff928316815291831660208301527f08f74ea46ef7894f65eabfb5e6e695de773a000b47c529ab559178069b226401910160405180910390a1600680547fffffffffffffffffffffffff00000000000000000000000000000000000000001673ffffffffffffffffffffffffffffffffffffffff92909216919091179055565b606061171f848484604051806060016040528060298152602001614f5d60299139613a7b565b805160208201206000612970878761296a88886126e7565b85611abb565b6000818152600460205260409020600981015491925090612a295780547fffffffffffffffffffffffff00000000000000000000000000000000000000001673ffffffffffffffffffffffffffffffffffffffff8a1617815587516129de90600183019060208b0190613f00565b5086516129f490600283019060208a0190613f86565b508551612a0a9060038301906020890190613fc1565b508451612a20906004830190602088019061401a565b50600981018390555b505050505050505050565b6040517f3a46b1a800000000000000000000000000000000000000000000000000000000815273ffffffffffffffffffffffffffffffffffffffff8381166004830152602482018390526000917f000000000000000000000000000000000000000000000000000000000000000090911690633a46b1a890604401602060405180830381865afa158015612acc573d6000803e3d6000fd5b505050506040513d601f19601f820116820180604052508101906119479190614b8b565b600060646005546040517f8e539e8c000000000000000000000000000000000000000000000000000000008152600481018590527f000000000000000000000000000000000000000000000000000000000000000073ffffffffffffffffffffffffffffffffffffffff1690638e539e8c90602401602060405180830381865afa158015612b82573d6000803e3d6000fd5b505050506040513d601f19601f82011682018060405250810190612ba69190614b8b565b612bb09190614ded565b610a079190614e2a565b60007fffffffff0000000000000000000000000000000000000000000000000000000082167fbf26d897000000000000000000000000000000000000000000000000000000001480610a0757507f01ffc9a7000000000000000000000000000000000000000000000000000000007fffffffff00000000000000000000000000000000000000000000000000000000831614610a07565b815470010000000000000000000000000000000090819004600f0b6000818152600180860160205260409091209390935583546fffffffffffffffffffffffffffffffff908116939091011602179055565b6006546040517fe38335e500000000000000000000000000000000000000000000000000000000815273ffffffffffffffffffffffffffffffffffffffff9091169063e38335e5903490612d04908890889088906000908990600401614ba4565b6000604051808303818588803b158015612d1d57600080fd5b505af1158015612d31573d6000803e3d6000fd5b50505050505050505050565b60003073ffffffffffffffffffffffffffffffffffffffff7f000000000000000000000000000000000000000000000000000000000000000016148015612da357507f000000000000000000000000000000000000000000000000000000000000000046145b15612dcd57507f000000000000000000000000000000000000000000000000000000000000000090565b50604080517f00000000000000000000000000000000000000000000000000000000000000006020808301919091527f0000000000000000000000000000000000000000000000000000000000000000828401527f000000000000000000000000000000000000000000000000000000000000000060608301524660808301523060a0808401919091528351808403909101815260c0909201909252805191012090565b6000807f7fffffffffffffffffffffffffffffff5d576e7357a4501ddfe92f46681b20a0831115612ea85750600090506003612f80565b8460ff16601b14158015612ec057508460ff16601c14155b15612ed15750600090506004612f80565b6040805160008082526020820180845289905260ff881692820192909252606081018690526080810185905260019060a0016020604051602081039080840390855afa158015612f25573d6000803e3d6000fd5b50506040517fffffffffffffffffffffffffffffffffffffffffffffffffffffffffffffffe0015191505073ffffffffffffffffffffffffffffffffffffffff8116612f7957600060019250925050612f80565b9150600090505b94509492505050565b6000816004811115612f9d57612f9d61470c565b1415612fa65750565b6001816004811115612fba57612fba61470c565b1415613022576040517f08c379a000000000000000000000000000000000000000000000000000000000815260206004820152601860248201527f45434453413a20696e76616c6964207369676e617475726500000000000000006044820152606401610aa5565b60028160048111156130365761303661470c565b141561309e576040517f08c379a000000000000000000000000000000000000000000000000000000000815260206004820152601f60248201527f45434453413a20696e76616c6964207369676e6174757265206c656e677468006044820152606401610aa5565b60038160048111156130b2576130b261470c565b1415613140576040517f08c379a000000000000000000000000000000000000000000000000000000000815260206004820152602260248201527f45434453413a20696e76616c6964207369676e6174757265202773272076616c60448201527f75650000000000000000000000000000000000000000000000000000000000006064820152608401610aa5565b60048160048111156131545761315461470c565b1415610b0f576040517f08c379a000000000000000000000000000000000000000000000000000000000815260206004820152602260248201527f45434453413a20696e76616c6964207369676e6174757265202776272076616c60448201527f75650000000000000000000000000000000000000000000000000000000000006064820152608401610aa5565b600084815260046020908152604080832073ffffffffffffffffffffffffffffffffffffffff8716845260088101909252909120805460ff16156132a8576040517f08c379a000000000000000000000000000000000000000000000000000000000815260206004820152602d60248201527f476f7665726e6f72436f6d7061746962696c697479427261766f3a20766f746560448201527f20616c72656164792063617374000000000000000000000000000000000000006064820152608401610aa5565b805460ff8516610100027fffffffffffffffffffffffffffffffffffffffffffffffffffffffffffff00009091161760011781556132e583613c06565b81546bffffffffffffffffffffffff9190911662010000027fffffffffffffffffffffffffffffffffffff000000000000000000000000ffff90911617815560ff841661334b57828260060160008282546133409190614c79565b909155506123159050565b60ff84166001141561336b57828260050160008282546133409190614c79565b60ff84166002141561338b57828260070160008282546133409190614c79565b6040517f08c379a000000000000000000000000000000000000000000000000000000000815260206004820152602d60248201527f476f7665726e6f72436f6d7061746962696c697479427261766f3a20696e766160448201527f6c696420766f74652074797065000000000000000000000000000000000000006064820152608401610aa5565b6000818152600160205260408120600281015460ff16156134375750600792915050565b6002810154610100900460ff16156134525750600292915050565b600061345d84611012565b9050806134c6576040517f08c379a000000000000000000000000000000000000000000000000000000000815260206004820152601d60248201527f476f7665726e6f723a20756e6b6e6f776e2070726f706f73616c2069640000006044820152606401610aa5565b4381106134d7575060009392505050565b60006134e28561194e565b90504381106134f657506001949350505050565b6134ff85613ca8565b8015613521575060008581526004602052604090206006810154600590910154115b1561353157506004949350505050565b506003949350505050565b60008061354b86868686613cd0565b6000818152600760205260409020549091501561178757600654600082815260076020526040908190205490517fc4d252f500000000000000000000000000000000000000000000000000000000815273ffffffffffffffffffffffffffffffffffffffff9092169163c4d252f5916135ca9160040190815260200190565b600060405180830381600087803b1580156135e457600080fd5b505af11580156135f8573d6000803e3d6000fd5b5050506000828152600760205260408120555095945050505050565b600080613626336108b4600143614c91565b10156136da576040517f08c379a000000000000000000000000000000000000000000000000000000000815260206004820152604360248201527f476f7665726e6f72436f6d7061746962696c697479427261766f3a2070726f7060448201527f6f73657220766f7465732062656c6f772070726f706f73616c2074687265736860648201527f6f6c640000000000000000000000000000000000000000000000000000000000608482015260a401610aa5565b60006136ef8686868680519060200120611abb565b90508451865114613782576040517f08c379a000000000000000000000000000000000000000000000000000000000815260206004820152602160248201527f476f7665726e6f723a20696e76616c69642070726f706f73616c206c656e677460448201527f68000000000000000000000000000000000000000000000000000000000000006064820152608401610aa5565b8351865114613813576040517f08c379a000000000000000000000000000000000000000000000000000000000815260206004820152602160248201527f476f7665726e6f723a20696e76616c69642070726f706f73616c206c656e677460448201527f68000000000000000000000000000000000000000000000000000000000000006064820152608401610aa5565b600086511161387e576040517f08c379a000000000000000000000000000000000000000000000000000000000815260206004820152601860248201527f476f7665726e6f723a20656d7074792070726f706f73616c00000000000000006044820152606401610aa5565b6000818152600160209081526040918290208251918201909252815467ffffffffffffffff169081905215613935576040517f08c379a000000000000000000000000000000000000000000000000000000000815260206004820152602160248201527f476f7665726e6f723a2070726f706f73616c20616c726561647920657869737460448201527f73000000000000000000000000000000000000000000000000000000000000006064820152608401610aa5565b600061394362015180613e13565b61394c43613e13565b6139569190614e65565b9050600061396662093a80613e13565b6139709083614e65565b83547fffffffffffffffffffffffffffffffffffffffffffffffff00000000000000001667ffffffffffffffff841617845590506001830180547fffffffffffffffffffffffffffffffffffffffffffffffff00000000000000001667ffffffffffffffff83161790557f7d84a6263ae0d98d3329bd7b46bb4e8d6f98cd35a7adb45c274c8b7fd5ebd5e084338b8b8d5167ffffffffffffffff811115613a1957613a19614257565b604051908082528060200260200182016040528015613a4c57816020015b6060815260200190600190039081613a375790505b508c88888e604051613a6699989796959493929190614e91565b60405180910390a15091979650505050505050565b606082471015613b0d576040517f08c379a000000000000000000000000000000000000000000000000000000000815260206004820152602660248201527f416464726573733a20696e73756666696369656e742062616c616e636520666f60448201527f722063616c6c00000000000000000000000000000000000000000000000000006064820152608401610aa5565b73ffffffffffffffffffffffffffffffffffffffff85163b613b8b576040517f08c379a000000000000000000000000000000000000000000000000000000000815260206004820152601d60248201527f416464726573733a2063616c6c20746f206e6f6e2d636f6e74726163740000006044820152606401610aa5565b6000808673ffffffffffffffffffffffffffffffffffffffff168587604051613bb49190614f40565b60006040518083038185875af1925050503d8060008114613bf1576040519150601f19603f3d011682016040523d82523d6000602084013e613bf6565b606091505b5091509150611372828286613ead565b60006bffffffffffffffffffffffff821115613ca4576040517f08c379a000000000000000000000000000000000000000000000000000000000815260206004820152602660248201527f53616665436173743a2076616c756520646f65736e27742066697420696e203960448201527f36206269747300000000000000000000000000000000000000000000000000006064820152608401610aa5565b5090565b60008181526004602052604081206005810154613cc76108d485611012565b11159392505050565b600080613cdf86868686611abb565b90506000613cec8261137d565b90506002816007811115613d0257613d0261470c565b14158015613d2257506006816007811115613d1f57613d1f61470c565b14155b8015613d4057506007816007811115613d3d57613d3d61470c565b14155b613da6576040517f08c379a000000000000000000000000000000000000000000000000000000000815260206004820152601d60248201527f476f7665726e6f723a2070726f706f73616c206e6f74206163746976650000006044820152606401610aa5565b6000828152600160205260409081902060020180547fffffffffffffffffffffffffffffffffffffffffffffffffffffffffffff00ff16610100179055517f789cf55be980739dad1d0699b93b58e806b51c9d96619bfa8fe0a28abaa7b30c90610e759084815260200190565b600067ffffffffffffffff821115613ca4576040517f08c379a000000000000000000000000000000000000000000000000000000000815260206004820152602660248201527f53616665436173743a2076616c756520646f65736e27742066697420696e203660448201527f34206269747300000000000000000000000000000000000000000000000000006064820152608401610aa5565b60608315613ebc575081611947565b825115613ecc5782518084602001fd5b816040517f08c379a0000000000000000000000000000000000000000000000000000000008152600401610aa59190614244565b828054828255906000526020600020908101928215613f7a579160200282015b82811115613f7a57825182547fffffffffffffffffffffffff00000000000000000000000000000000000000001673ffffffffffffffffffffffffffffffffffffffff909116178255602090920191600190910190613f20565b50613ca4929150614073565b828054828255906000526020600020908101928215613f7a579160200282015b82811115613f7a578251825591602001919060010190613fa6565b82805482825590600052602060002090810192821561400e579160200282015b8281111561400e5782518051613ffe918491602090910190614088565b5091602001919060010190613fe1565b50613ca49291506140fb565b828054828255906000526020600020908101928215614067579160200282015b828111156140675782518051614057918491602090910190614088565b509160200191906001019061403a565b50613ca4929150614118565b5b80821115613ca45760008155600101614074565b82805461409490614b37565b90600052602060002090601f0160209004810192826140b65760008555613f7a565b82601f106140cf57805160ff1916838001178555613f7a565b82800160010185558215613f7a5791820182811115613f7a578251825591602001919060010190613fa6565b80821115613ca457600061410f8282614135565b506001016140fb565b80821115613ca457600061412c8282614135565b50600101614118565b50805461414190614b37565b6000825580601f10614151575050565b601f016020900490600052602060002090810190610b0f9190614073565b60006020828403121561418157600080fd5b5035919050565b60006020828403121561419a57600080fd5b81357fffffffff000000000000000000000000000000000000000000000000000000008116811461194757600080fd5b60005b838110156141e55781810151838201526020016141cd565b838111156141f4576000848401525b50505050565b600081518084526142128160208601602086016141ca565b601f017fffffffffffffffffffffffffffffffffffffffffffffffffffffffffffffffe0169290920160200192915050565b60208152600061194760208301846141fa565b7f4e487b7100000000000000000000000000000000000000000000000000000000600052604160045260246000fd5b604051601f82017fffffffffffffffffffffffffffffffffffffffffffffffffffffffffffffffe016810167ffffffffffffffff811182821017156142cd576142cd614257565b604052919050565b600067ffffffffffffffff8211156142ef576142ef614257565b5060051b60200190565b73ffffffffffffffffffffffffffffffffffffffff81168114610b0f57600080fd5b600082601f83011261432c57600080fd5b8135602061434161433c836142d5565b614286565b82815260059290921b8401810191818101908684111561436057600080fd5b8286015b84811015614384578035614377816142f9565b8352918301918301614364565b509695505050505050565b600082601f8301126143a057600080fd5b813560206143b061433c836142d5565b82815260059290921b840181019181810190868411156143cf57600080fd5b8286015b8481101561438457803583529183019183016143d3565b600067ffffffffffffffff83111561440457614404614257565b61443560207fffffffffffffffffffffffffffffffffffffffffffffffffffffffffffffffe0601f86011601614286565b905082815283838301111561444957600080fd5b828260208301376000602084830101529392505050565b600082601f83011261447157600080fd5b8135602061448161433c836142d5565b82815260059290921b840181019181810190868411156144a057600080fd5b8286015b8481101561438457803567ffffffffffffffff8111156144c45760008081fd5b8701603f810189136144d65760008081fd5b6144e78986830135604084016143ea565b8452509183019183016144a4565b6000806000806080858703121561450b57600080fd5b843567ffffffffffffffff8082111561452357600080fd5b61452f8883890161431b565b9550602087013591508082111561454557600080fd5b6145518883890161438f565b9450604087013591508082111561456757600080fd5b5061457487828801614460565b949793965093946060013593505050565b600081518084526020808501945080840160005b838110156145cb57815173ffffffffffffffffffffffffffffffffffffffff1687529582019590820190600101614599565b509495945050505050565b600081518084526020808501945080840160005b838110156145cb578151875295820195908201906001016145ea565b600081518084526020808501808196508360051b8101915082860160005b8581101561464e57828403895261463c8483516141fa565b98850198935090840190600101614624565b5091979650505050505050565b60808152600061466e6080830187614585565b828103602084015261468081876145d6565b905082810360408401526146948186614606565b905082810360608401526113728185614606565b803560ff811681146146b957600080fd5b919050565b600080600080600060a086880312156146d657600080fd5b853594506146e6602087016146a8565b93506146f4604087016146a8565b94979396509394606081013594506080013592915050565b7f4e487b7100000000000000000000000000000000000000000000000000000000600052602160045260246000fd5b6020810160088310614776577f4e487b7100000000000000000000000000000000000000000000000000000000600052602160045260246000fd5b91905290565b6000806040838503121561478f57600080fd5b8235915060208301356147a1816142f9565b809150509250929050565b600080604083850312156147bf57600080fd5b823591506147cf602084016146a8565b90509250929050565b60008083601f8401126147ea57600080fd5b50813567ffffffffffffffff81111561480257600080fd5b60208301915083602082850101111561481a57600080fd5b9250929050565b6000806000806060858703121561483757600080fd5b84359350614847602086016146a8565b9250604085013567ffffffffffffffff81111561486357600080fd5b61486f878288016147d8565b95989497509550505050565b600082601f83011261488c57600080fd5b611947838335602085016143ea565b600080600080608085870312156148b157600080fd5b843567ffffffffffffffff808211156148c957600080fd5b6148d58883890161431b565b955060208701359150808211156148eb57600080fd5b6148f78883890161438f565b9450604087013591508082111561490d57600080fd5b61491988838901614460565b9350606087013591508082111561492f57600080fd5b5061493c8782880161487b565b91505092959194509250565b60006020828403121561495a57600080fd5b8135611947816142f9565b6000806000806060858703121561497b57600080fd5b8435614986816142f9565b935060208501359250604085013567ffffffffffffffff81111561486357600080fd5b600082601f8301126149ba57600080fd5b813560206149ca61433c836142d5565b82815260059290921b840181019181810190868411156149e957600080fd5b8286015b8481101561438457803567ffffffffffffffff811115614a0d5760008081fd5b614a1b8986838b010161487b565b8452509183019183016149ed565b600080600080600060a08688031215614a4157600080fd5b853567ffffffffffffffff80821115614a5957600080fd5b614a6589838a0161431b565b96506020880135915080821115614a7b57600080fd5b614a8789838a0161438f565b95506040880135915080821115614a9d57600080fd5b614aa989838a016149a9565b94506060880135915080821115614abf57600080fd5b614acb89838a01614460565b93506080880135915080821115614ae157600080fd5b50614aee8882890161487b565b9150509295509295909350565b60008060408385031215614b0e57600080fd5b8235614b19816142f9565b946020939093013593505050565b8183823760009101908152919050565b600181811c90821680614b4b57607f821691505b60208210811415614b85577f4e487b7100000000000000000000000000000000000000000000000000000000600052602260045260246000fd5b50919050565b600060208284031215614b9d57600080fd5b5051919050565b60a081526000614bb760a0830188614585565b8281036020840152614bc981886145d6565b90508281036040840152614bdd8187614606565b60608401959095525050608001529392505050565b60c081526000614c0560c0830189614585565b8281036020840152614c1781896145d6565b90508281036040840152614c2b8188614606565b60608401969096525050608081019290925260a0909101529392505050565b7f4e487b7100000000000000000000000000000000000000000000000000000000600052601160045260246000fd5b60008219821115614c8c57614c8c614c4a565b500190565b600082821015614ca357614ca3614c4a565b500390565b608081526000614cbb6080830187614585565b8281036020840152614ccd81876145d6565b90508281036040840152614ce18186614606565b91505082606083015295945050505050565b7f4e487b7100000000000000000000000000000000000000000000000000000000600052603260045260246000fd5b60007fffffffffffffffffffffffffffffffffffffffffffffffffffffffffffffffff821415614d5457614d54614c4a565b5060010190565b84815260ff8416602082015282604082015260806060820152600061176f60808301846141fa565b600060208284031215614d9557600080fd5b8151801515811461194757600080fd5b7fffffffff000000000000000000000000000000000000000000000000000000008316815260008251614ddf8160048501602087016141ca565b919091016004019392505050565b6000817fffffffffffffffffffffffffffffffffffffffffffffffffffffffffffffffff0483118215151615614e2557614e25614c4a565b500290565b600082614e60577f4e487b7100000000000000000000000000000000000000000000000000000000600052601260045260246000fd5b500490565b600067ffffffffffffffff808316818516808303821115614e8857614e88614c4a565b01949350505050565b60006101208b835273ffffffffffffffffffffffffffffffffffffffff8b166020840152806040840152614ec78184018b614585565b90508281036060840152614edb818a6145d6565b90508281036080840152614eef8189614606565b905082810360a0840152614f038188614606565b67ffffffffffffffff87811660c0860152861660e08501528381036101008501529050614f3081856141fa565b9c9b505050505050505050505050565b60008251614f528184602087016141ca565b919091019291505056fe416464726573733a206c6f772d6c6576656c2063616c6c20776974682076616c7565206661696c6564a2646970667358221220fe299901f0159397245693bba18cb1a6a112b6e84497abc2cf2d382e4c4dd45164736f6c634300080a0033",
    "linkReferences": {}
  }
}