{
  "abi": [
    {
      "inputs": [
        {
          "internalType": "contract ERC20Votes",
          "name": "_token",
          "type": "address"
        },
        {
          "internalType": "contract TimelockController",
          "name": "_timelock",
          "type": "address"
        }
      ],
      "stateMutability": "nonpayable",
      "type": "constructor"
    },
    {
      "inputs": [],
      "name": "Empty",
      "type": "error"
    },
    {
      "anonymous": false,
      "inputs": [
        {
          "indexed": false,
          "internalType": "uint256",
          "name": "proposalId",
          "type": "uint256"
        }
      ],
      "name": "ProposalCanceled",
      "type": "event"
    },
    {
      "anonymous": false,
      "inputs": [
        {
          "indexed": false,
          "internalType": "uint256",
          "name": "proposalId",
          "type": "uint256"
        },
        {
          "indexed": false,
          "internalType": "address",
          "name": "proposer",
          "type": "address"
        },
        {
          "indexed": false,
          "internalType": "address[]",
          "name": "targets",
          "type": "address[]"
        },
        {
          "indexed": false,
          "internalType": "uint256[]",
          "name": "values",
          "type": "uint256[]"
        },
        {
          "indexed": false,
          "internalType": "string[]",
          "name": "signatures",
          "type": "string[]"
        },
        {
          "indexed": false,
          "internalType": "bytes[]",
          "name": "calldatas",
          "type": "bytes[]"
        },
        {
          "indexed": false,
          "internalType": "uint256",
          "name": "startBlock",
          "type": "uint256"
        },
        {
          "indexed": false,
          "internalType": "uint256",
          "name": "endBlock",
          "type": "uint256"
        },
        {
          "indexed": false,
          "internalType": "string",
          "name": "description",
          "type": "string"
        }
      ],
      "name": "ProposalCreated",
      "type": "event"
    },
    {
      "anonymous": false,
      "inputs": [
        {
          "indexed": false,
          "internalType": "uint256",
          "name": "proposalId",
          "type": "uint256"
        }
      ],
      "name": "ProposalExecuted",
      "type": "event"
    },
    {
      "anonymous": false,
      "inputs": [
        {
          "indexed": false,
          "internalType": "uint256",
          "name": "proposalId",
          "type": "uint256"
        },
        {
          "indexed": false,
          "internalType": "uint256",
          "name": "eta",
          "type": "uint256"
        }
      ],
      "name": "ProposalQueued",
      "type": "event"
    },
    {
      "anonymous": false,
      "inputs": [
        {
          "indexed": false,
          "internalType": "uint256",
          "name": "oldQuorumNumerator",
          "type": "uint256"
        },
        {
          "indexed": false,
          "internalType": "uint256",
          "name": "newQuorumNumerator",
          "type": "uint256"
        }
      ],
      "name": "QuorumNumeratorUpdated",
      "type": "event"
    },
    {
      "anonymous": false,
      "inputs": [
        {
          "indexed": false,
          "internalType": "address",
          "name": "oldTimelock",
          "type": "address"
        },
        {
          "indexed": false,
          "internalType": "address",
          "name": "newTimelock",
          "type": "address"
        }
      ],
      "name": "TimelockChange",
      "type": "event"
    },
    {
      "anonymous": false,
      "inputs": [
        {
          "indexed": true,
          "internalType": "address",
          "name": "voter",
          "type": "address"
        },
        {
          "indexed": false,
          "internalType": "uint256",
          "name": "proposalId",
          "type": "uint256"
        },
        {
          "indexed": false,
          "internalType": "uint8",
          "name": "support",
          "type": "uint8"
        },
        {
          "indexed": false,
          "internalType": "uint256",
          "name": "weight",
          "type": "uint256"
        },
        {
          "indexed": false,
          "internalType": "string",
          "name": "reason",
          "type": "string"
        }
      ],
      "name": "VoteCast",
      "type": "event"
    },
    {
      "inputs": [],
      "name": "BALLOT_TYPEHASH",
      "outputs": [
        {
          "internalType": "bytes32",
          "name": "",
          "type": "bytes32"
        }
      ],
      "stateMutability": "view",
      "type": "function"
    },
    {
      "inputs": [],
      "name": "COUNTING_MODE",
      "outputs": [
        {
          "internalType": "string",
          "name": "",
          "type": "string"
        }
      ],
      "stateMutability": "pure",
      "type": "function"
    },
    {
      "inputs": [
        {
          "internalType": "uint256",
          "name": "proposalId",
          "type": "uint256"
        }
      ],
      "name": "cancel",
      "outputs": [],
      "stateMutability": "nonpayable",
      "type": "function"
    },
    {
      "inputs": [
        {
          "internalType": "uint256",
          "name": "proposalId",
          "type": "uint256"
        },
        {
          "internalType": "uint8",
          "name": "support",
          "type": "uint8"
        }
      ],
      "name": "castVote",
      "outputs": [
        {
          "internalType": "uint256",
          "name": "",
          "type": "uint256"
        }
      ],
      "stateMutability": "nonpayable",
      "type": "function"
    },
    {
      "inputs": [
        {
          "internalType": "uint256",
          "name": "proposalId",
          "type": "uint256"
        },
        {
          "internalType": "uint8",
          "name": "support",
          "type": "uint8"
        },
        {
          "internalType": "uint8",
          "name": "v",
          "type": "uint8"
        },
        {
          "internalType": "bytes32",
          "name": "r",
          "type": "bytes32"
        },
        {
          "internalType": "bytes32",
          "name": "s",
          "type": "bytes32"
        }
      ],
      "name": "castVoteBySig",
      "outputs": [
        {
          "internalType": "uint256",
          "name": "",
          "type": "uint256"
        }
      ],
      "stateMutability": "nonpayable",
      "type": "function"
    },
    {
      "inputs": [
        {
          "internalType": "uint256",
          "name": "proposalId",
          "type": "uint256"
        },
        {
          "internalType": "uint8",
          "name": "support",
          "type": "uint8"
        },
        {
          "internalType": "string",
          "name": "reason",
          "type": "string"
        }
      ],
      "name": "castVoteWithReason",
      "outputs": [
        {
          "internalType": "uint256",
          "name": "",
          "type": "uint256"
        }
      ],
      "stateMutability": "nonpayable",
      "type": "function"
    },
    {
      "inputs": [
        {
          "internalType": "address[]",
          "name": "targets",
          "type": "address[]"
        },
        {
          "internalType": "uint256[]",
          "name": "values",
          "type": "uint256[]"
        },
        {
          "internalType": "bytes[]",
          "name": "calldatas",
          "type": "bytes[]"
        },
        {
          "internalType": "bytes32",
          "name": "descriptionHash",
          "type": "bytes32"
        }
      ],
      "name": "execute",
      "outputs": [
        {
          "internalType": "uint256",
          "name": "",
          "type": "uint256"
        }
      ],
      "stateMutability": "payable",
      "type": "function"
    },
    {
      "inputs": [
        {
          "internalType": "uint256",
          "name": "proposalId",
          "type": "uint256"
        }
      ],
      "name": "execute",
      "outputs": [],
      "stateMutability": "payable",
      "type": "function"
    },
    {
      "inputs": [
        {
          "internalType": "uint256",
          "name": "proposalId",
          "type": "uint256"
        }
      ],
      "name": "getActions",
      "outputs": [
        {
          "internalType": "address[]",
          "name": "targets",
          "type": "address[]"
        },
        {
          "internalType": "uint256[]",
          "name": "values",
          "type": "uint256[]"
        },
        {
          "internalType": "string[]",
          "name": "signatures",
          "type": "string[]"
        },
        {
          "internalType": "bytes[]",
          "name": "calldatas",
          "type": "bytes[]"
        }
      ],
      "stateMutability": "view",
      "type": "function"
    },
    {
      "inputs": [
        {
          "internalType": "uint256",
          "name": "proposalId",
          "type": "uint256"
        },
        {
          "internalType": "address",
          "name": "voter",
          "type": "address"
        }
      ],
      "name": "getReceipt",
      "outputs": [
        {
          "components": [
            {
              "internalType": "bool",
              "name": "hasVoted",
              "type": "bool"
            },
            {
              "internalType": "uint8",
              "name": "support",
              "type": "uint8"
            },
            {
              "internalType": "uint96",
              "name": "votes",
              "type": "uint96"
            }
          ],
          "internalType": "struct IGovernorCompatibilityBravo.Receipt",
          "name": "",
          "type": "tuple"
        }
      ],
      "stateMutability": "view",
      "type": "function"
    },
    {
      "inputs": [
        {
          "internalType": "address",
          "name": "account",
          "type": "address"
        },
        {
          "internalType": "uint256",
          "name": "blockNumber",
          "type": "uint256"
        }
      ],
      "name": "getVotes",
      "outputs": [
        {
          "internalType": "uint256",
          "name": "",
          "type": "uint256"
        }
      ],
      "stateMutability": "view",
      "type": "function"
    },
    {
      "inputs": [
        {
          "internalType": "uint256",
          "name": "proposalId",
          "type": "uint256"
        },
        {
          "internalType": "address",
          "name": "account",
          "type": "address"
        }
      ],
      "name": "hasVoted",
      "outputs": [
        {
          "internalType": "bool",
          "name": "",
          "type": "bool"
        }
      ],
      "stateMutability": "view",
      "type": "function"
    },
    {
      "inputs": [
        {
          "internalType": "address[]",
          "name": "targets",
          "type": "address[]"
        },
        {
          "internalType": "uint256[]",
          "name": "values",
          "type": "uint256[]"
        },
        {
          "internalType": "bytes[]",
          "name": "calldatas",
          "type": "bytes[]"
        },
        {
          "internalType": "bytes32",
          "name": "descriptionHash",
          "type": "bytes32"
        }
      ],
      "name": "hashProposal",
      "outputs": [
        {
          "internalType": "uint256",
          "name": "",
          "type": "uint256"
        }
      ],
      "stateMutability": "pure",
      "type": "function"
    },
    {
      "inputs": [],
      "name": "name",
      "outputs": [
        {
          "internalType": "string",
          "name": "",
          "type": "string"
        }
      ],
      "stateMutability": "view",
      "type": "function"
    },
    {
      "inputs": [
        {
          "internalType": "uint256",
          "name": "proposalId",
          "type": "uint256"
        }
      ],
      "name": "proposalDeadline",
      "outputs": [
        {
          "internalType": "uint256",
          "name": "",
          "type": "uint256"
        }
      ],
      "stateMutability": "view",
      "type": "function"
    },
    {
      "inputs": [
        {
          "internalType": "uint256",
          "name": "proposalId",
          "type": "uint256"
        }
      ],
      "name": "proposalEta",
      "outputs": [
        {
          "internalType": "uint256",
          "name": "",
          "type": "uint256"
        }
      ],
      "stateMutability": "view",
      "type": "function"
    },
    {
      "inputs": [
        {
          "internalType": "uint256",
          "name": "proposalId",
          "type": "uint256"
        }
      ],
      "name": "proposalSnapshot",
      "outputs": [
        {
          "internalType": "uint256",
          "name": "",
          "type": "uint256"
        }
      ],
      "stateMutability": "view",
      "type": "function"
    },
    {
      "inputs": [],
      "name": "proposalThreshold",
      "outputs": [
        {
          "internalType": "uint256",
          "name": "",
          "type": "uint256"
        }
      ],
      "stateMutability": "pure",
      "type": "function"
    },
    {
      "inputs": [
        {
          "internalType": "uint256",
          "name": "proposalId",
          "type": "uint256"
        }
      ],
      "name": "proposals",
      "outputs": [
        {
          "internalType": "uint256",
          "name": "id",
          "type": "uint256"
        },
        {
          "internalType": "address",
          "name": "proposer",
          "type": "address"
        },
        {
          "internalType": "uint256",
          "name": "eta",
          "type": "uint256"
        },
        {
          "internalType": "uint256",
          "name": "startBlock",
          "type": "uint256"
        },
        {
          "internalType": "uint256",
          "name": "endBlock",
          "type": "uint256"
        },
        {
          "internalType": "uint256",
          "name": "forVotes",
          "type": "uint256"
        },
        {
          "internalType": "uint256",
          "name": "againstVotes",
          "type": "uint256"
        },
        {
          "internalType": "uint256",
          "name": "abstainVotes",
          "type": "uint256"
        },
        {
          "internalType": "bool",
          "name": "canceled",
          "type": "bool"
        },
        {
          "internalType": "bool",
          "name": "executed",
          "type": "bool"
        }
      ],
      "stateMutability": "view",
      "type": "function"
    },
    {
      "inputs": [
        {
          "internalType": "address[]",
          "name": "targets",
          "type": "address[]"
        },
        {
          "internalType": "uint256[]",
          "name": "values",
          "type": "uint256[]"
        },
        {
          "internalType": "bytes[]",
          "name": "calldatas",
          "type": "bytes[]"
        },
        {
          "internalType": "string",
          "name": "description",
          "type": "string"
        }
      ],
      "name": "propose",
      "outputs": [
        {
          "internalType": "uint256",
          "name": "",
          "type": "uint256"
        }
      ],
      "stateMutability": "nonpayable",
      "type": "function"
    },
    {
      "inputs": [
        {
          "internalType": "address[]",
          "name": "targets",
          "type": "address[]"
        },
        {
          "internalType": "uint256[]",
          "name": "values",
          "type": "uint256[]"
        },
        {
          "internalType": "string[]",
          "name": "signatures",
          "type": "string[]"
        },
        {
          "internalType": "bytes[]",
          "name": "calldatas",
          "type": "bytes[]"
        },
        {
          "internalType": "string",
          "name": "description",
          "type": "string"
        }
      ],
      "name": "propose",
      "outputs": [
        {
          "internalType": "uint256",
          "name": "",
          "type": "uint256"
        }
      ],
      "stateMutability": "nonpayable",
      "type": "function"
    },
    {
      "inputs": [
        {
          "internalType": "address[]",
          "name": "targets",
          "type": "address[]"
        },
        {
          "internalType": "uint256[]",
          "name": "values",
          "type": "uint256[]"
        },
        {
          "internalType": "bytes[]",
          "name": "calldatas",
          "type": "bytes[]"
        },
        {
          "internalType": "bytes32",
          "name": "descriptionHash",
          "type": "bytes32"
        }
      ],
      "name": "queue",
      "outputs": [
        {
          "internalType": "uint256",
          "name": "",
          "type": "uint256"
        }
      ],
      "stateMutability": "nonpayable",
      "type": "function"
    },
    {
      "inputs": [
        {
          "internalType": "uint256",
          "name": "proposalId",
          "type": "uint256"
        }
      ],
      "name": "queue",
      "outputs": [],
      "stateMutability": "nonpayable",
      "type": "function"
    },
    {
      "inputs": [
        {
          "internalType": "uint256",
          "name": "blockNumber",
          "type": "uint256"
        }
      ],
      "name": "quorum",
      "outputs": [
        {
          "internalType": "uint256",
          "name": "",
          "type": "uint256"
        }
      ],
      "stateMutability": "view",
      "type": "function"
    },
    {
      "inputs": [],
      "name": "quorumDenominator",
      "outputs": [
        {
          "internalType": "uint256",
          "name": "",
          "type": "uint256"
        }
      ],
      "stateMutability": "view",
      "type": "function"
    },
    {
      "inputs": [],
      "name": "quorumNumerator",
      "outputs": [
        {
          "internalType": "uint256",
          "name": "",
          "type": "uint256"
        }
      ],
      "stateMutability": "view",
      "type": "function"
    },
    {
      "inputs": [],
      "name": "quorumVotes",
      "outputs": [
        {
          "internalType": "uint256",
          "name": "",
          "type": "uint256"
        }
      ],
      "stateMutability": "view",
      "type": "function"
    },
    {
      "inputs": [
        {
          "internalType": "address",
          "name": "target",
          "type": "address"
        },
        {
          "internalType": "uint256",
          "name": "value",
          "type": "uint256"
        },
        {
          "internalType": "bytes",
          "name": "data",
          "type": "bytes"
        }
      ],
      "name": "relay",
      "outputs": [],
      "stateMutability": "nonpayable",
      "type": "function"
    },
    {
      "inputs": [
        {
          "internalType": "uint256",
          "name": "proposalId",
          "type": "uint256"
        }
      ],
      "name": "state",
      "outputs": [
        {
          "internalType": "enum IGovernor.ProposalState",
          "name": "",
          "type": "uint8"
        }
      ],
      "stateMutability": "view",
      "type": "function"
    },
    {
      "inputs": [
        {
          "internalType": "bytes4",
          "name": "interfaceId",
          "type": "bytes4"
        }
      ],
      "name": "supportsInterface",
      "outputs": [
        {
          "internalType": "bool",
          "name": "",
          "type": "bool"
        }
      ],
      "stateMutability": "view",
      "type": "function"
    },
    {
      "inputs": [],
      "name": "timelock",
      "outputs": [
        {
          "internalType": "address",
          "name": "",
          "type": "address"
        }
      ],
      "stateMutability": "view",
      "type": "function"
    },
    {
      "inputs": [],
      "name": "token",
      "outputs": [
        {
          "internalType": "contract IVotes",
          "name": "",
          "type": "address"
        }
      ],
      "stateMutability": "view",
      "type": "function"
    },
    {
      "inputs": [
        {
          "internalType": "uint256",
          "name": "newQuorumNumerator",
          "type": "uint256"
        }
      ],
      "name": "updateQuorumNumerator",
      "outputs": [],
      "stateMutability": "nonpayable",
      "type": "function"
    },
    {
      "inputs": [
        {
          "internalType": "contract TimelockController",
          "name": "newTimelock",
          "type": "address"
        }
      ],
      "name": "updateTimelock",
      "outputs": [],
      "stateMutability": "nonpayable",
      "type": "function"
    },
    {
      "inputs": [],
      "name": "version",
      "outputs": [
        {
          "internalType": "string",
          "name": "",
          "type": "string"
        }
      ],
      "stateMutability": "view",
      "type": "function"
    },
    {
      "inputs": [],
      "name": "votingDelay",
      "outputs": [
        {
          "internalType": "uint256",
          "name": "",
          "type": "uint256"
        }
      ],
      "stateMutability": "pure",
      "type": "function"
    },
    {
      "inputs": [],
      "name": "votingPeriod",
      "outputs": [
        {
          "internalType": "uint256",
          "name": "",
          "type": "uint256"
        }
      ],
      "stateMutability": "pure",
      "type": "function"
    },
    {
      "stateMutability": "payable",
      "type": "receive"
    }
  ],
  "bytecode": {
    "object": "0x6101606040523480156200001257600080fd5b506040516200474338038062004743833981016040819052620000359162000352565b806004836040518060400160405280600a81526020016914185c9b1a585b595b9d60b21b815250806200006d6200014260201b60201c565b815160208084019190912082518383012060e08290526101008190524660a0818152604080517f8b73c3c69bb8fe3d512ecc4cf759cc79239f7b179b0ffacaa9a75d522b39400f81880181905281830187905260608201869052608082019490945230818401528151808203909301835260c00190528051940193909320919290916080523060c052610120525050825162000113925060009150602084019062000293565b50506001600160a01b0316610140526200012d816200015d565b5062000139816200022a565b505050620003ce565b6040805180820190915260018152603160f81b602082015290565b6064811115620001e55760405162461bcd60e51b815260206004820152604360248201527f476f7665726e6f72566f74657351756f72756d4672616374696f6e3a2071756f60448201527f72756d4e756d657261746f72206f7665722071756f72756d44656e6f6d696e616064820152623a37b960e91b608482015260a40160405180910390fd5b600580549082905560408051828152602081018490527f0553476bf02ef2726e8ce5ced78d63e26e602e4a2257b1f559418e24b4633997910160405180910390a15050565b600654604080516001600160a01b03928316815291831660208301527f08f74ea46ef7894f65eabfb5e6e695de773a000b47c529ab559178069b226401910160405180910390a1600680546001600160a01b0319166001600160a01b0392909216919091179055565b828054620002a19062000391565b90600052602060002090601f016020900481019282620002c5576000855562000310565b82601f10620002e057805160ff191683800117855562000310565b8280016001018555821562000310579182015b8281111562000310578251825591602001919060010190620002f3565b506200031e92915062000322565b5090565b5b808211156200031e576000815560010162000323565b6001600160a01b03811681146200034f57600080fd5b50565b600080604083850312156200036657600080fd5b8251620003738162000339565b6020840151909250620003868162000339565b809150509250929050565b600181811c90821680620003a657607f821691505b60208210811415620003c857634e487b7160e01b600052602260045260246000fd5b50919050565b60805160a05160c05160e05161010051610120516101405161430c620004376000396000818161082701528181612408015261249201526000612688015260006126d7015260006126b20152600061260b015260006126350152600061265f015261430c6000f3fe60806040526004361061021e5760003560e01c80637d5e81e211610123578063d33219b4116100ab578063e23a9a521161006f578063e23a9a521461070b578063eb9019d4146107d5578063f8ce560a146107f5578063fc0c546a14610815578063fe0d94c11461084957600080fd5b8063d33219b41461061f578063da95691a14610651578063dd4e2ba514610671578063ddf0b009146106b7578063deaaa7cc146106d757600080fd5b8063ab58fb8e116100f2578063ab58fb8e1461058b578063b58131b0146105ab578063c01f9e37146105bf578063c28bc2fa146105df578063c59057e4146105ff57600080fd5b80637d5e81e21461052257806397c3d33414610542578063a7713a7014610556578063a890c9101461056b57600080fd5b8063328dd982116101a657806340e58ee51161017557806340e58ee51461044e578063438596321461046e57806354fd4d50146104b857806356781388146104e25780637b3c71d31461050257600080fd5b8063328dd982146103bb5780633932abb1146103eb5780633bccf4fd146104015780633e4f49e61461042157600080fd5b806306fdde03116101ed57806306fdde0314610331578063160cbed71461035357806324bc1a64146103735780632656227d146103885780632d63f6931461039b57600080fd5b8063013cf08b1461024657806301ffc9a7146102c157806302a251a3146102f157806306f3f9e61461031157600080fd5b36610241573061022c61085c565b6001600160a01b03161461023f57600080fd5b005b600080fd5b34801561025257600080fd5b506102666102613660046135ad565b610875565b604080519a8b526001600160a01b0390991660208b0152978901969096526060880194909452608087019290925260a086015260c085015260e084015215156101008301521515610120820152610140015b60405180910390f35b3480156102cd57600080fd5b506102e16102dc3660046135c6565b61091e565b60405190151581526020016102b8565b3480156102fd57600080fd5b5062093a805b6040519081526020016102b8565b34801561031d57600080fd5b5061023f61032c3660046135ad565b61092f565b34801561033d57600080fd5b506103466109c7565b6040516102b8919061364c565b34801561035f57600080fd5b5061030361036e366004613897565b610a59565b34801561037f57600080fd5b50610303610c5a565b610303610396366004613897565b610c6a565b3480156103a757600080fd5b506103036103b63660046135ad565b610d57565b3480156103c757600080fd5b506103db6103d63660046135ad565b610d8e565b6040516102b894939291906139ef565b3480156103f757600080fd5b5062015180610303565b34801561040d57600080fd5b5061030361041c366004613a52565b61101f565b34801561042d57600080fd5b5061044161043c3660046135ad565b6110b3565b6040516102b89190613ab6565b34801561045a57600080fd5b5061023f6104693660046135ad565b6110be565b34801561047a57600080fd5b506102e1610489366004613ade565b60008281526004602090815260408083206001600160a01b038516845260080190915290205460ff1692915050565b3480156104c457600080fd5b506040805180820190915260018152603160f81b6020820152610346565b3480156104ee57600080fd5b506103036104fd366004613b0e565b6113d0565b34801561050e57600080fd5b5061030361051d366004613b82565b6113f9565b34801561052e57600080fd5b5061030361053d366004613bfb565b61144b565b34801561054e57600080fd5b506064610303565b34801561056257600080fd5b50600554610303565b34801561057757600080fd5b5061023f610586366004613ca7565b611462565b34801561059757600080fd5b506103036105a63660046135ad565b6114ee565b3480156105b757600080fd5b506000610303565b3480156105cb57600080fd5b506103036105da3660046135ad565b611589565b3480156105eb57600080fd5b5061023f6105fa366004613cc4565b6115b8565b34801561060b57600080fd5b5061030361061a366004613897565b611684565b34801561062b57600080fd5b506006546001600160a01b03165b6040516001600160a01b0390911681526020016102b8565b34801561065d57600080fd5b5061030361066c366004613d86565b6116be565b34801561067d57600080fd5b5060408051808201909152601a81527f737570706f72743d627261766f2671756f72756d3d627261766f0000000000006020820152610346565b3480156106c357600080fd5b5061023f6106d23660046135ad565b6116e3565b3480156106e357600080fd5b506103037f150214d74d59b7d1e90c73fc22ef3d991dd0a76b046543d4d80ab92d2a50328f81565b34801561071757600080fd5b506107a5610726366004613ade565b60408051606081018252600080825260208201819052918101919091525060009182526004602090815260408084206001600160a01b0393909316845260089092018152918190208151606081018352905460ff8082161515835261010082041693820193909352620100009092046001600160601b03169082015290565b6040805182511515815260208084015160ff1690820152918101516001600160601b0316908201526060016102b8565b3480156107e157600080fd5b506103036107f0366004613e57565b611951565b34801561080157600080fd5b506103036108103660046135ad565b61195d565b34801561082157600080fd5b506106397f000000000000000000000000000000000000000000000000000000000000000081565b61023f6108573660046135ad565b611968565b60006108706006546001600160a01b031690565b905090565b80600080808080808080806108898a6114ee565b97506108948b610d57565b965061089f8b611589565b60008c815260046020526040812080546005820154600683015460078401546001600160a01b039093169e50949a5098509296509194506108df8d6110b3565b905060028160078111156108f5576108f5613aa0565b149350600781600781111561090c5761090c613aa0565b14925050509193959799509193959799565b600061092982611bd6565b92915050565b61093761085c565b6001600160a01b0316336001600160a01b0316146109705760405162461bcd60e51b815260040161096790613e83565b60405180910390fd5b3061097961085c565b6001600160a01b0316146109bb5760008036604051610999929190613eba565b604051809103902090505b806109af6002611bfb565b146109b9576109a4565b505b6109c481611c7a565b50565b6060600080546109d690613eca565b80601f0160208091040260200160405190810160405280929190818152602001828054610a0290613eca565b8015610a4f5780601f10610a2457610100808354040283529160200191610a4f565b820191906000526020600020905b815481529060010190602001808311610a3257829003601f168201915b5050505050905090565b600080610a6886868686611684565b90506004610a75826110b3565b6007811115610a8657610a86613aa0565b14610aa35760405162461bcd60e51b815260040161096790613f05565b6006546040805163793d064960e11b815290516000926001600160a01b03169163f27a0c929160048083019260209291908290030181865afa158015610aed573d6000803e3d6000fd5b505050506040513d601f19601f82011682018060405250810190610b119190613f46565b60065460405163b1c5f42760e01b81529192506001600160a01b03169063b1c5f42790610b4b908a908a908a906000908b90600401613f5f565b602060405180830381865afa158015610b68573d6000803e3d6000fd5b505050506040513d601f19601f82011682018060405250810190610b8c9190613f46565b6000838152600760205260408082209290925560065491516308f2a0bb60e41b81526001600160a01b0390921691638f2a0bb091610bd7918b918b918b91908b908990600401613fad565b600060405180830381600087803b158015610bf157600080fd5b505af1158015610c05573d6000803e3d6000fd5b505050507f9a2e42fd6722813d69113e7d0079d3d940171428df7373df9c7f7617cfda2892828242610c37919061401b565b604080519283526020830191909152015b60405180910390a15095945050505050565b6000610870610810600143614033565b600080610c7986868686611684565b90506000610c86826110b3565b90506004816007811115610c9c57610c9c613aa0565b1480610cb957506005816007811115610cb757610cb7613aa0565b145b610cd55760405162461bcd60e51b815260040161096790613f05565b600082815260016020818152604092839020600201805460ff191690921790915590518381527f712ae1383f79ac853f8d882153778e0260ef8f03b504e2866e0593e04d2b291f910160405180910390a1610d338288888888611d42565b610d408288888888611de4565b610d4d8288888888611df1565b5095945050505050565b60008181526001602090815260408083208151928301909152546001600160401b0316908190525b6001600160401b031692915050565b60608060608060006004600087815260200190815260200160002090508060010181600201826003018360040183805480602002602001604051908101604052809291908181526020018280548015610e1057602002820191906000526020600020905b81546001600160a01b03168152600190910190602001808311610df2575b5050505050935082805480602002602001604051908101604052809291908181526020018280548015610e6257602002820191906000526020600020905b815481526020019060010190808311610e4e575b5050505050925081805480602002602001604051908101604052809291908181526020016000905b82821015610f36578382906000526020600020018054610ea990613eca565b80601f0160208091040260200160405190810160405280929190818152602001828054610ed590613eca565b8015610f225780601f10610ef757610100808354040283529160200191610f22565b820191906000526020600020905b815481529060010190602001808311610f0557829003601f168201915b505050505081526020019060010190610e8a565b50505050915080805480602002602001604051908101604052809291908181526020016000905b82821015611009578382906000526020600020018054610f7c90613eca565b80601f0160208091040260200160405190810160405280929190818152602001828054610fa890613eca565b8015610ff55780601f10610fca57610100808354040283529160200191610ff5565b820191906000526020600020905b815481529060010190602001808311610fd857829003601f168201915b505050505081526020019060010190610f5d565b5050505090509450945094509450509193509193565b604080517f150214d74d59b7d1e90c73fc22ef3d991dd0a76b046543d4d80ab92d2a50328f602082015290810186905260ff85166060820152600090819061108b906110839060800160405160208183030381529060405280519060200120611e2a565b868686611e78565b90506110a887828860405180602001604052806000815250611e96565b979650505050505050565b600061092982611fa1565b600081815260046020526040902080546001600160a01b0316336001600160a01b03161480611106575060008154611104906001600160a01b03166107f0600143614033565b105b6111625760405162461bcd60e51b815260206004820152602760248201527f476f7665726e6f72427261766f3a2070726f706f7365722061626f76652074686044820152661c995cda1bdb1960ca1b6064820152608401610967565b6113cb816001018054806020026020016040519081016040528092919081815260200182805480156111bd57602002820191906000526020600020905b81546001600160a01b0316815260019091019060200180831161119f575b50505050508260020180548060200260200160405190810160405280929190818152602001828054801561121057602002820191906000526020600020905b8154815260200190600101908083116111fc575b50505050506113c184600301805480602002602001604051908101604052809291908181526020016000905b828210156112e857838290600052602060002001805461125b90613eca565b80601f016020809104026020016040519081016040528092919081815260200182805461128790613eca565b80156112d45780601f106112a9576101008083540402835291602001916112d4565b820191906000526020600020905b8154815290600101906020018083116112b757829003601f168201915b50505050508152602001906001019061123c565b50505060048701805460408051602080840282018101909252828152935060009084015b828210156113b857838290600052602060002001805461132b90613eca565b80601f016020809104026020016040519081016040528092919081815260200182805461135790613eca565b80156113a45780601f10611379576101008083540402835291602001916113a4565b820191906000526020600020905b81548152906001019060200180831161138757829003601f168201915b50505050508152602001906001019061130c565b505050506120eb565b846009015461221d565b505050565b6000803390506113f184828560405180602001604052806000815250611e96565b949350505050565b60008033905061144186828787878080601f016020809104026020016040519081016040528093929190818152602001838380828437600092019190915250611e9692505050565b9695505050505050565b60006114598585858561222b565b95945050505050565b61146a61085c565b6001600160a01b0316336001600160a01b03161461149a5760405162461bcd60e51b815260040161096790613e83565b306114a361085c565b6001600160a01b0316146114e557600080366040516114c3929190613eba565b604051809103902090505b806114d96002611bfb565b146114e3576114ce565b505b6109c481612293565b60065460008281526007602052604080822054905163d45c443560e01b81526004810191909152909182916001600160a01b039091169063d45c443590602401602060405180830381865afa15801561154b573d6000803e3d6000fd5b505050506040513d601f19601f8201168201806040525081019061156f9190613f46565b90508060011461157f5780611582565b60005b9392505050565b60008181526001602081815260408084208151928301909152909101546001600160401b031690819052610d7f565b6115c061085c565b6001600160a01b0316336001600160a01b0316146115f05760405162461bcd60e51b815260040161096790613e83565b306115f961085c565b6001600160a01b03161461163b5760008036604051611619929190613eba565b604051809103902090505b8061162f6002611bfb565b1461163957611624565b505b61167d8483838080601f0160208091040260200160405190810160405280939291908181526020018383808284376000920191909152508892506122fc915050565b5050505050565b60008484848460405160200161169d949392919061404a565b60408051601f19818403018152919052805160209091012095945050505050565b60006116ce338787878787612322565b61144186866116dd87876120eb565b8561144b565b60008181526004602090815260409182902060018101805484518185028101850190955280855291936113cb9390929083018282801561174c57602002820191906000526020600020905b81546001600160a01b0316815260019091019060200180831161172e575b50505050508260020180548060200260200160405190810160405280929190818152602001828054801561179f57602002820191906000526020600020905b81548152602001906001019080831161178b575b505050505061194784600301805480602002602001604051908101604052809291908181526020016000905b828210156118775783829060005260206000200180546117ea90613eca565b80601f016020809104026020016040519081016040528092919081815260200182805461181690613eca565b80156118635780601f1061183857610100808354040283529160200191611863565b820191906000526020600020905b81548152906001019060200180831161184657829003601f168201915b5050505050815260200190600101906117cb565b50505060048701805460408051602080840282018101909252828152935060009084015b828210156113b85783829060005260206000200180546118ba90613eca565b80601f01602080910402602001604051908101604052809291908181526020018280546118e690613eca565b80156119335780601f1061190857610100808354040283529160200191611933565b820191906000526020600020905b81548152906001019060200180831161191657829003601f168201915b50505050508152602001906001019061189b565b8460090154610a59565b600061158283836123df565b600061092982612475565b60008181526004602090815260409182902060018101805484518185028101850190955280855291936113cb939092908301828280156119d157602002820191906000526020600020905b81546001600160a01b031681526001909101906020018083116119b3575b505050505082600201805480602002602001604051908101604052809291908181526020018280548015611a2457602002820191906000526020600020905b815481526020019060010190808311611a10575b5050505050611bcc84600301805480602002602001604051908101604052809291908181526020016000905b82821015611afc578382906000526020600020018054611a6f90613eca565b80601f0160208091040260200160405190810160405280929190818152602001828054611a9b90613eca565b8015611ae85780601f10611abd57610100808354040283529160200191611ae8565b820191906000526020600020905b815481529060010190602001808311611acb57829003601f168201915b505050505081526020019060010190611a50565b50505060048701805460408051602080840282018101909252828152935060009084015b828210156113b8578382906000526020600020018054611b3f90613eca565b80601f0160208091040260200160405190810160405280929190818152602001828054611b6b90613eca565b8015611bb85780601f10611b8d57610100808354040283529160200191611bb8565b820191906000526020600020905b815481529060010190602001808311611b9b57829003601f168201915b505050505081526020019060010190611b20565b8460090154610c6a565b60006001600160e01b03198216636e665ced60e01b1480610929575061092982612519565b6000611c168254600f81810b600160801b909204900b131590565b15611c3457604051631ed9509560e11b815260040160405180910390fd5b508054600f0b6000818152600180840160205260408220805492905583546fffffffffffffffffffffffffffffffff191692016001600160801b03169190911790915590565b6064811115611cfd5760405162461bcd60e51b815260206004820152604360248201527f476f7665726e6f72566f74657351756f72756d4672616374696f6e3a2071756f60448201527f72756d4e756d657261746f72206f7665722071756f72756d44656e6f6d696e616064820152623a37b960e91b608482015260a401610967565b600580549082905560408051828152602081018490527f0553476bf02ef2726e8ce5ced78d63e26e602e4a2257b1f559418e24b4633997910160405180910390a15050565b30611d4b61085c565b6001600160a01b03161461167d5760005b8451811015611ddc57306001600160a01b0316858281518110611d8157611d81614095565b60200260200101516001600160a01b03161415611dcc57611dcc838281518110611dad57611dad614095565b602002602001015180519060200120600261254e90919063ffffffff16565b611dd5816140ab565b9050611d5c565b505050505050565b61167d858585858561258a565b30611dfa61085c565b6001600160a01b03161461167d57600254600f81810b600160801b909204900b131561167d57600060025561167d565b6000610929611e376125fe565b8360405161190160f01b6020820152602281018390526042810182905260009060620160405160208183030381529060405280519060200120905092915050565b6000806000611e8987878787612725565b91509150610d4d81612812565b6000848152600160208190526040822090611eb0876110b3565b6007811115611ec157611ec1613aa0565b14611f1a5760405162461bcd60e51b815260206004820152602360248201527f476f7665726e6f723a20766f7465206e6f742063757272656e746c792061637460448201526269766560e81b6064820152608401610967565b604080516020810190915281546001600160401b031690819052600090611f42908790611951565b9050611f50878787846129cd565b856001600160a01b03167fb8e138887d0aa13bab447e82de9d5c1777041ecd21ca36ba824ff1e6c07ddda488878488604051611f8f94939291906140c6565b60405180910390a29695505050505050565b600080611fad83612b6a565b90506004816007811115611fc357611fc3613aa0565b14611fce5792915050565b60008381526007602052604090205480611fe9575092915050565b600654604051632ab0f52960e01b8152600481018390526001600160a01b0390911690632ab0f52990602401602060405180830381865afa158015612032573d6000803e3d6000fd5b505050506040513d601f19601f8201168201806040525081019061205691906140ee565b15612065575060079392505050565b600654604051632c258a9f60e11b8152600481018390526001600160a01b039091169063584b153e90602401602060405180830381865afa1580156120ae573d6000803e3d6000fd5b505050506040513d601f19601f820116820180604052508101906120d291906140ee565b156120e1575060059392505050565b5060029392505050565b6060600082516001600160401b038111156121085761210861365f565b60405190808252806020026020018201604052801561213b57816020015b60608152602001906001900390816121265790505b50905060005b84518110156122155784818151811061215c5761215c614095565b6020026020010151516000146121cc5784818151811061217e5761217e614095565b60200260200101518051906020012084828151811061219f5761219f614095565b60200260200101516040516020016121b8929190614110565b6040516020818303038152906040526121e7565b8381815181106121de576121de614095565b60200260200101515b8282815181106121f9576121f9614095565b60200260200101819052508061220e906140ab565b9050612141565b509392505050565b600061145985858585612c79565b600061228733868686516001600160401b0381111561224c5761224c61365f565b60405190808252806020026020018201604052801561227f57816020015b606081526020019060019003908161226a5790505b508787612322565b61145985858585612d2b565b600654604080516001600160a01b03928316815291831660208301527f08f74ea46ef7894f65eabfb5e6e695de773a000b47c529ab559178069b226401910160405180910390a1600680546001600160a01b0319166001600160a01b0392909216919091179055565b60606113f18484846040518060600160405280602981526020016142ae60299139612ffc565b805160208201206000612340878761233a88886120eb565b85611684565b60008181526004602052604090206009810154919250906123d45780546001600160a01b0319166001600160a01b038a16178155875161238990600183019060208b0190613363565b50865161239f90600283019060208a01906133c4565b5085516123b590600383019060208901906133ff565b5084516123cb9060048301906020880190613458565b50600981018390555b505050505050505050565b604051630748d63560e31b81526001600160a01b038381166004830152602482018390526000917f000000000000000000000000000000000000000000000000000000000000000090911690633a46b1a890604401602060405180830381865afa158015612451573d6000803e3d6000fd5b505050506040513d601f19601f820116820180604052508101906115829190613f46565b60006064600554604051632394e7a360e21b8152600481018590527f00000000000000000000000000000000000000000000000000000000000000006001600160a01b031690638e539e8c90602401602060405180830381865afa1580156124e1573d6000803e3d6000fd5b505050506040513d601f19601f820116820180604052508101906125059190613f46565b61250f9190614141565b6109299190614160565b60006001600160e01b0319821663bf26d89760e01b148061092957506301ffc9a760e01b6001600160e01b0319831614610929565b8154600160801b90819004600f0b6000818152600180860160205260409091209390935583546001600160801b03908116939091011602179055565b60065460405163e38335e560e01b81526001600160a01b039091169063e38335e59034906125c5908890889088906000908990600401613f5f565b6000604051808303818588803b1580156125de57600080fd5b505af11580156125f2573d6000803e3d6000fd5b50505050505050505050565b6000306001600160a01b037f00000000000000000000000000000000000000000000000000000000000000001614801561265757507f000000000000000000000000000000000000000000000000000000000000000046145b1561268157507f000000000000000000000000000000000000000000000000000000000000000090565b50604080517f00000000000000000000000000000000000000000000000000000000000000006020808301919091527f0000000000000000000000000000000000000000000000000000000000000000828401527f000000000000000000000000000000000000000000000000000000000000000060608301524660808301523060a0808401919091528351808403909101815260c0909201909252805191012090565b6000807f7fffffffffffffffffffffffffffffff5d576e7357a4501ddfe92f46681b20a083111561275c5750600090506003612809565b8460ff16601b1415801561277457508460ff16601c14155b156127855750600090506004612809565b6040805160008082526020820180845289905260ff881692820192909252606081018690526080810185905260019060a0016020604051602081039080840390855afa1580156127d9573d6000803e3d6000fd5b5050604051601f1901519150506001600160a01b03811661280257600060019250925050612809565b9150600090505b94509492505050565b600081600481111561282657612826613aa0565b141561282f5750565b600181600481111561284357612843613aa0565b14156128915760405162461bcd60e51b815260206004820152601860248201527f45434453413a20696e76616c6964207369676e617475726500000000000000006044820152606401610967565b60028160048111156128a5576128a5613aa0565b14156128f35760405162461bcd60e51b815260206004820152601f60248201527f45434453413a20696e76616c6964207369676e6174757265206c656e677468006044820152606401610967565b600381600481111561290757612907613aa0565b14156129605760405162461bcd60e51b815260206004820152602260248201527f45434453413a20696e76616c6964207369676e6174757265202773272076616c604482015261756560f01b6064820152608401610967565b600481600481111561297457612974613aa0565b14156109c45760405162461bcd60e51b815260206004820152602260248201527f45434453413a20696e76616c6964207369676e6174757265202776272076616c604482015261756560f01b6064820152608401610967565b60008481526004602090815260408083206001600160a01b038716845260088101909252909120805460ff1615612a5c5760405162461bcd60e51b815260206004820152602d60248201527f476f7665726e6f72436f6d7061746962696c697479427261766f3a20766f746560448201526c08185b1c9958591e4818d85cdd609a1b6064820152608401610967565b805460ff85166101000261ffff19909116176001178155612a7c83613122565b81546001600160601b039190911662010000026dffffffffffffffffffffffff00001990911617815560ff8416612acc5782826006016000828254612ac1919061401b565b90915550611ddc9050565b60ff841660011415612aec5782826005016000828254612ac1919061401b565b60ff841660021415612b0c5782826007016000828254612ac1919061401b565b60405162461bcd60e51b815260206004820152602d60248201527f476f7665726e6f72436f6d7061746962696c697479427261766f3a20696e766160448201526c6c696420766f7465207479706560981b6064820152608401610967565b6000818152600160205260408120600281015460ff1615612b8e5750600792915050565b6002810154610100900460ff1615612ba95750600292915050565b6000612bb484610d57565b905080612c035760405162461bcd60e51b815260206004820152601d60248201527f476f7665726e6f723a20756e6b6e6f776e2070726f706f73616c2069640000006044820152606401610967565b438110612c14575060009392505050565b6000612c1f85611589565b9050438110612c3357506001949350505050565b612c3c8561318e565b8015612c5e575060008581526004602052604090206006810154600590910154115b15612c6e57506004949350505050565b506003949350505050565b600080612c88868686866131b6565b60008181526007602052604090205490915015611459576006546000828152600760205260409081902054905163c4d252f560e01b81526001600160a01b039092169163c4d252f591612ce19160040190815260200190565b600060405180830381600087803b158015612cfb57600080fd5b505af1158015612d0f573d6000803e3d6000fd5b5050506000828152600760205260408120555095945050505050565b600080612d3d336107f0600143614033565b1015612dbd5760405162461bcd60e51b815260206004820152604360248201527f476f7665726e6f72436f6d7061746962696c697479427261766f3a2070726f7060448201527f6f73657220766f7465732062656c6f772070726f706f73616c207468726573686064820152621bdb1960ea1b608482015260a401610967565b6000612dd28686868680519060200120611684565b90508451865114612df55760405162461bcd60e51b815260040161096790614182565b8351865114612e165760405162461bcd60e51b815260040161096790614182565b6000865111612e675760405162461bcd60e51b815260206004820152601860248201527f476f7665726e6f723a20656d7074792070726f706f73616c00000000000000006044820152606401610967565b600081815260016020908152604091829020825191820190925281546001600160401b03169081905215612ee75760405162461bcd60e51b815260206004820152602160248201527f476f7665726e6f723a2070726f706f73616c20616c72656164792065786973746044820152607360f81b6064820152608401610967565b6000612ef5620151806132c2565b612efe436132c2565b612f0891906141c3565b90506000612f1862093a806132c2565b612f2290836141c3565b835467ffffffffffffffff19166001600160401b038416178455905060018301805467ffffffffffffffff19166001600160401b0383161790557f7d84a6263ae0d98d3329bd7b46bb4e8d6f98cd35a7adb45c274c8b7fd5ebd5e084338b8b8d516001600160401b03811115612f9a57612f9a61365f565b604051908082528060200260200182016040528015612fcd57816020015b6060815260200190600190039081612fb85790505b508c88888e604051612fe7999897969594939291906141ee565b60405180910390a15091979650505050505050565b60608247101561305d5760405162461bcd60e51b815260206004820152602660248201527f416464726573733a20696e73756666696369656e742062616c616e636520666f6044820152651c8818d85b1b60d21b6064820152608401610967565b6001600160a01b0385163b6130b45760405162461bcd60e51b815260206004820152601d60248201527f416464726573733a2063616c6c20746f206e6f6e2d636f6e74726163740000006044820152606401610967565b600080866001600160a01b031685876040516130d09190614291565b60006040518083038185875af1925050503d806000811461310d576040519150601f19603f3d011682016040523d82523d6000602084013e613112565b606091505b50915091506110a882828661332a565b60006001600160601b0382111561318a5760405162461bcd60e51b815260206004820152602660248201527f53616665436173743a2076616c756520646f65736e27742066697420696e203960448201526536206269747360d01b6064820152608401610967565b5090565b600081815260046020526040812060058101546131ad61081085610d57565b11159392505050565b6000806131c586868686611684565b905060006131d2826110b3565b905060028160078111156131e8576131e8613aa0565b141580156132085750600681600781111561320557613205613aa0565b14155b80156132265750600781600781111561322357613223613aa0565b14155b6132725760405162461bcd60e51b815260206004820152601d60248201527f476f7665726e6f723a2070726f706f73616c206e6f74206163746976650000006044820152606401610967565b60008281526001602052604090819020600201805461ff001916610100179055517f789cf55be980739dad1d0699b93b58e806b51c9d96619bfa8fe0a28abaa7b30c90610c489084815260200190565b60006001600160401b0382111561318a5760405162461bcd60e51b815260206004820152602660248201527f53616665436173743a2076616c756520646f65736e27742066697420696e203660448201526534206269747360d01b6064820152608401610967565b60608315613339575081611582565b8251156133495782518084602001fd5b8160405162461bcd60e51b8152600401610967919061364c565b8280548282559060005260206000209081019282156133b8579160200282015b828111156133b857825182546001600160a01b0319166001600160a01b03909116178255602090920191600190910190613383565b5061318a9291506134b1565b8280548282559060005260206000209081019282156133b8579160200282015b828111156133b85782518255916020019190600101906133e4565b82805482825590600052602060002090810192821561344c579160200282015b8281111561344c578251805161343c9184916020909101906134c6565b509160200191906001019061341f565b5061318a929150613539565b8280548282559060005260206000209081019282156134a5579160200282015b828111156134a557825180516134959184916020909101906134c6565b5091602001919060010190613478565b5061318a929150613556565b5b8082111561318a57600081556001016134b2565b8280546134d290613eca565b90600052602060002090601f0160209004810192826134f457600085556133b8565b82601f1061350d57805160ff19168380011785556133b8565b828001600101855582156133b857918201828111156133b85782518255916020019190600101906133e4565b8082111561318a57600061354d8282613573565b50600101613539565b8082111561318a57600061356a8282613573565b50600101613556565b50805461357f90613eca565b6000825580601f1061358f575050565b601f0160209004906000526020600020908101906109c491906134b1565b6000602082840312156135bf57600080fd5b5035919050565b6000602082840312156135d857600080fd5b81356001600160e01b03198116811461158257600080fd5b60005b8381101561360b5781810151838201526020016135f3565b8381111561361a576000848401525b50505050565b600081518084526136388160208601602086016135f0565b601f01601f19169290920160200192915050565b6020815260006115826020830184613620565b634e487b7160e01b600052604160045260246000fd5b604051601f8201601f191681016001600160401b038111828210171561369d5761369d61365f565b604052919050565b60006001600160401b038211156136be576136be61365f565b5060051b60200190565b6001600160a01b03811681146109c457600080fd5b600082601f8301126136ee57600080fd5b813560206137036136fe836136a5565b613675565b82815260059290921b8401810191818101908684111561372257600080fd5b8286015b84811015613746578035613739816136c8565b8352918301918301613726565b509695505050505050565b600082601f83011261376257600080fd5b813560206137726136fe836136a5565b82815260059290921b8401810191818101908684111561379157600080fd5b8286015b848110156137465780358352918301918301613795565b60006001600160401b038311156137c5576137c561365f565b6137d8601f8401601f1916602001613675565b90508281528383830111156137ec57600080fd5b828260208301376000602084830101529392505050565b600082601f83011261381457600080fd5b813560206138246136fe836136a5565b82815260059290921b8401810191818101908684111561384357600080fd5b8286015b848110156137465780356001600160401b038111156138665760008081fd5b8701603f810189136138785760008081fd5b6138898986830135604084016137ac565b845250918301918301613847565b600080600080608085870312156138ad57600080fd5b84356001600160401b03808211156138c457600080fd5b6138d0888389016136dd565b955060208701359150808211156138e657600080fd5b6138f288838901613751565b9450604087013591508082111561390857600080fd5b5061391587828801613803565b949793965093946060013593505050565b600081518084526020808501945080840160005b8381101561395f5781516001600160a01b03168752958201959082019060010161393a565b509495945050505050565b600081518084526020808501945080840160005b8381101561395f5781518752958201959082019060010161397e565b600081518084526020808501808196508360051b8101915082860160005b858110156139e25782840389526139d0848351613620565b988501989350908401906001016139b8565b5091979650505050505050565b608081526000613a026080830187613926565b8281036020840152613a14818761396a565b90508281036040840152613a28818661399a565b905082810360608401526110a8818561399a565b803560ff81168114613a4d57600080fd5b919050565b600080600080600060a08688031215613a6a57600080fd5b85359450613a7a60208701613a3c565b9350613a8860408701613a3c565b94979396509394606081013594506080013592915050565b634e487b7160e01b600052602160045260246000fd5b6020810160088310613ad857634e487b7160e01b600052602160045260246000fd5b91905290565b60008060408385031215613af157600080fd5b823591506020830135613b03816136c8565b809150509250929050565b60008060408385031215613b2157600080fd5b82359150613b3160208401613a3c565b90509250929050565b60008083601f840112613b4c57600080fd5b5081356001600160401b03811115613b6357600080fd5b602083019150836020828501011115613b7b57600080fd5b9250929050565b60008060008060608587031215613b9857600080fd5b84359350613ba860208601613a3c565b925060408501356001600160401b03811115613bc357600080fd5b613bcf87828801613b3a565b95989497509550505050565b600082601f830112613bec57600080fd5b611582838335602085016137ac565b60008060008060808587031215613c1157600080fd5b84356001600160401b0380821115613c2857600080fd5b613c34888389016136dd565b95506020870135915080821115613c4a57600080fd5b613c5688838901613751565b94506040870135915080821115613c6c57600080fd5b613c7888838901613803565b93506060870135915080821115613c8e57600080fd5b50613c9b87828801613bdb565b91505092959194509250565b600060208284031215613cb957600080fd5b8135611582816136c8565b60008060008060608587031215613cda57600080fd5b8435613ce5816136c8565b93506020850135925060408501356001600160401b03811115613bc357600080fd5b600082601f830112613d1857600080fd5b81356020613d286136fe836136a5565b82815260059290921b84018101918181019086841115613d4757600080fd5b8286015b848110156137465780356001600160401b03811115613d6a5760008081fd5b613d788986838b0101613bdb565b845250918301918301613d4b565b600080600080600060a08688031215613d9e57600080fd5b85356001600160401b0380821115613db557600080fd5b613dc189838a016136dd565b96506020880135915080821115613dd757600080fd5b613de389838a01613751565b95506040880135915080821115613df957600080fd5b613e0589838a01613d07565b94506060880135915080821115613e1b57600080fd5b613e2789838a01613803565b93506080880135915080821115613e3d57600080fd5b50613e4a88828901613bdb565b9150509295509295909350565b60008060408385031215613e6a57600080fd5b8235613e75816136c8565b946020939093013593505050565b60208082526018908201527f476f7665726e6f723a206f6e6c79476f7665726e616e63650000000000000000604082015260600190565b8183823760009101908152919050565b600181811c90821680613ede57607f821691505b60208210811415613eff57634e487b7160e01b600052602260045260246000fd5b50919050565b60208082526021908201527f476f7665726e6f723a2070726f706f73616c206e6f74207375636365737366756040820152601b60fa1b606082015260800190565b600060208284031215613f5857600080fd5b5051919050565b60a081526000613f7260a0830188613926565b8281036020840152613f84818861396a565b90508281036040840152613f98818761399a565b60608401959095525050608001529392505050565b60c081526000613fc060c0830189613926565b8281036020840152613fd2818961396a565b90508281036040840152613fe6818861399a565b60608401969096525050608081019290925260a0909101529392505050565b634e487b7160e01b600052601160045260246000fd5b6000821982111561402e5761402e614005565b500190565b60008282101561404557614045614005565b500390565b60808152600061405d6080830187613926565b828103602084015261406f818761396a565b90508281036040840152614083818661399a565b91505082606083015295945050505050565b634e487b7160e01b600052603260045260246000fd5b60006000198214156140bf576140bf614005565b5060010190565b84815260ff841660208201528260408201526080606082015260006114416080830184613620565b60006020828403121561410057600080fd5b8151801515811461158257600080fd5b6001600160e01b03198316815281516000906141338160048501602087016135f0565b919091016004019392505050565b600081600019048311821515161561415b5761415b614005565b500290565b60008261417d57634e487b7160e01b600052601260045260246000fd5b500490565b60208082526021908201527f476f7665726e6f723a20696e76616c69642070726f706f73616c206c656e67746040820152600d60fb1b606082015260800190565b60006001600160401b038083168185168083038211156141e5576141e5614005565b01949350505050565b8981526001600160a01b0389166020820152610120604082018190526000906142198382018b613926565b9050828103606084015261422d818a61396a565b90508281036080840152614241818961399a565b905082810360a0840152614255818861399a565b6001600160401b0387811660c0860152861660e085015283810361010085015290506142818185613620565b9c9b505050505050505050505050565b600082516142a38184602087016135f0565b919091019291505056fe416464726573733a206c6f772d6c6576656c2063616c6c20776974682076616c7565206661696c6564a2646970667358221220122c301dec46fc2203e0bde06030c4770759d88b13e9d0d46ad12a360318fdbc64736f6c634300080a0033",
    "linkReferences": {}
  }
}