{
  "abi": [
    {
      "inputs": [
        {
          "internalType": "contract ISanctis",
          "name": "sanctis",
          "type": "address"
        }
      ],
      "stateMutability": "nonpayable",
      "type": "constructor"
    },
    {
      "inputs": [
        {
          "internalType": "address",
          "name": "sender",
          "type": "address"
        }
      ],
      "name": "NotAllowed",
      "type": "error"
    },
    {
      "inputs": [
        {
          "internalType": "address",
          "name": "sender",
          "type": "address"
        }
      ],
      "name": "NotTheExecutor",
      "type": "error"
    },
    {
      "inputs": [
        {
          "internalType": "address",
          "name": "sender",
          "type": "address"
        }
      ],
      "name": "NotTheSanctis",
      "type": "error"
    },
    {
      "inputs": [
        {
          "internalType": "address",
          "name": "sender",
          "type": "address"
        }
      ],
      "name": "Unallowed",
      "type": "error"
    },
    {
      "inputs": [
        {
          "internalType": "uint256",
          "name": "planetId",
          "type": "uint256"
        },
        {
          "internalType": "uint256",
          "name": "amount",
          "type": "uint256"
        }
      ],
      "name": "burn",
      "outputs": [],
      "stateMutability": "nonpayable",
      "type": "function"
    },
    {
      "inputs": [
        {
          "internalType": "contract ISanctis",
          "name": "newSanctis",
          "type": "address"
        }
      ],
      "name": "changeSanctis",
      "outputs": [],
      "stateMutability": "nonpayable",
      "type": "function"
    },
    {
      "inputs": [
        {
          "internalType": "uint256",
          "name": "",
          "type": "uint256"
        }
      ],
      "name": "isAvailableOnPlanet",
      "outputs": [
        {
          "internalType": "bool",
          "name": "",
          "type": "bool"
        }
      ],
      "stateMutability": "pure",
      "type": "function"
    },
    {
      "inputs": [
        {
          "internalType": "uint256",
          "name": "planetId",
          "type": "uint256"
        },
        {
          "internalType": "uint256",
          "name": "amount",
          "type": "uint256"
        }
      ],
      "name": "mint",
      "outputs": [],
      "stateMutability": "nonpayable",
      "type": "function"
    },
    {
      "inputs": [],
      "name": "name",
      "outputs": [
        {
          "internalType": "string",
          "name": "",
          "type": "string"
        }
      ],
      "stateMutability": "view",
      "type": "function"
    },
    {
      "inputs": [
        {
          "internalType": "uint256",
          "name": "planetId",
          "type": "uint256"
        }
      ],
      "name": "reserve",
      "outputs": [
        {
          "internalType": "uint256",
          "name": "",
          "type": "uint256"
        }
      ],
      "stateMutability": "view",
      "type": "function"
    },
    {
      "inputs": [],
      "name": "sanctis",
      "outputs": [
        {
          "internalType": "contract ISanctis",
          "name": "",
          "type": "address"
        }
      ],
      "stateMutability": "view",
      "type": "function"
    },
    {
      "inputs": [],
      "name": "symbol",
      "outputs": [
        {
          "internalType": "string",
          "name": "",
          "type": "string"
        }
      ],
      "stateMutability": "view",
      "type": "function"
    }
  ],
  "bytecode": {
    "object": "0x608060405234801561001057600080fd5b5060405161088c38038061088c83398101604081905261002f91610149565b6040805180820182526006815265456e6572677960d01b6020808301918252835180850190945260038452624e524760e81b90840152600080546001600160a01b0319166001600160a01b038616179055815184939161009291600291906100b0565b5080516100a69060039060208401906100b0565b50505050506101b4565b8280546100bc90610179565b90600052602060002090601f0160209004810192826100de5760008555610124565b82601f106100f757805160ff1916838001178555610124565b82800160010185558215610124579182015b82811115610124578251825591602001919060010190610109565b50610130929150610134565b5090565b5b808211156101305760008155600101610135565b60006020828403121561015b57600080fd5b81516001600160a01b038116811461017257600080fd5b9392505050565b600181811c9082168061018d57607f821691505b602082108114156101ae57634e487b7160e01b600052602260045260246000fd5b50919050565b6106c9806101c36000396000f3fe608060405234801561001057600080fd5b50600436106100885760003560e01c8063819b25ba1161005b578063819b25ba1461010f57806395d89b411461013d578063b390c0ab14610145578063bf206e451461015857600080fd5b806306fdde031461008d5780631b2ef1ca146100ab5780635087883f146100c057806373199a7c146100eb575b600080fd5b61009561016b565b6040516100a29190610508565b60405180910390f35b6100be6100b936600461055d565b6101fd565b005b6000546100d3906001600160a01b031681565b6040516001600160a01b0390911681526020016100a2565b6100ff6100f936600461057f565b50600190565b60405190151581526020016100a2565b61012f61011d36600461057f565b60009081526001602052604090205490565b6040519081526020016100a2565b6100956102b4565b6100be61015336600461055d565b6102c3565b6100be6101663660046105b0565b610450565b60606002805461017a906105d4565b80601f01602080910402602001604051908101604052809291908181526020018280546101a6906105d4565b80156101f35780601f106101c8576101008083540402835291602001916101f3565b820191906000526020600020905b8154815290600101906020018083116101d657829003601f168201915b5050505050905090565b60005460405163d63a8e1160e01b81523360048201526001600160a01b039091169063d63a8e1190602401602060405180830381865afa158015610245573d6000803e3d6000fd5b505050506040513d601f19601f82011682018060405250810190610269919061060f565b61028d5760405163fa5cd00f60e01b81523360048201526024015b60405180910390fd5b600082815260016020526040812080548392906102ab908490610647565b90915550505050565b60606003805461017a906105d4565b60005460405163d63a8e1160e01b81523360048201526001600160a01b039091169063d63a8e1190602401602060405180830381865afa15801561030b573d6000803e3d6000fd5b505050506040513d601f19601f8201168201806040525081019061032f919061060f565b61034e5760405163fa5cd00f60e01b8152336004820152602401610284565b600054604051633fde36b160e11b8152602060048201526006602482015265464c4545545360d01b60448201526001600160a01b0390911690637fbc6d6290606401602060405180830381865afa1580156103ad573d6000803e3d6000fd5b505050506040513d601f19601f820116820180604052508101906103d1919061065f565b6001600160a01b0316336001600160a01b031614156104325760405162461bcd60e51b815260206004820181905260248201527f4e6f6e207472616e736665727261626c65207468726f75676820666c656574736044820152606401610284565b600082815260016020526040812080548392906102ab90849061067c565b600054604080516311d614c160e21b8152905133926001600160a01b03169163475853049160048083019260209291908290030181865afa158015610499573d6000803e3d6000fd5b505050506040513d601f19601f820116820180604052508101906104bd919061065f565b6001600160a01b0316146104e65760405163968c45d960e01b8152336004820152602401610284565b600080546001600160a01b0319166001600160a01b0392909216919091179055565b600060208083528351808285015260005b8181101561053557858101830151858201604001528201610519565b81811115610547576000604083870101525b50601f01601f1916929092016040019392505050565b6000806040838503121561057057600080fd5b50508035926020909101359150565b60006020828403121561059157600080fd5b5035919050565b6001600160a01b03811681146105ad57600080fd5b50565b6000602082840312156105c257600080fd5b81356105cd81610598565b9392505050565b600181811c908216806105e857607f821691505b6020821081141561060957634e487b7160e01b600052602260045260246000fd5b50919050565b60006020828403121561062157600080fd5b815180151581146105cd57600080fd5b634e487b7160e01b600052601160045260246000fd5b6000821982111561065a5761065a610631565b500190565b60006020828403121561067157600080fd5b81516105cd81610598565b60008282101561068e5761068e610631565b50039056fea264697066735822122055fa1cfef96a53b46b4e59c61640621c8e49b314b87bb83f9e976ec8174a467a64736f6c634300080a0033",
    "linkReferences": {}
  }
}