{
  "abi": [
    {
      "inputs": [
        {
          "internalType": "contract ISanctis",
          "name": "_sanctis",
          "type": "address"
        }
      ],
      "stateMutability": "nonpayable",
      "type": "constructor"
    },
    {
      "anonymous": false,
      "inputs": [
        {
          "indexed": false,
          "internalType": "uint256",
          "name": "planet",
          "type": "uint256"
        },
        {
          "indexed": false,
          "internalType": "uint256",
          "name": "amount",
          "type": "uint256"
        }
      ],
      "name": "Burn",
      "type": "event"
    },
    {
      "anonymous": false,
      "inputs": [
        {
          "indexed": false,
          "internalType": "uint256",
          "name": "planet",
          "type": "uint256"
        },
        {
          "indexed": false,
          "internalType": "uint256",
          "name": "amount",
          "type": "uint256"
        }
      ],
      "name": "Mint",
      "type": "event"
    },
    {
      "inputs": [
        {
          "internalType": "uint256",
          "name": "planetId",
          "type": "uint256"
        },
        {
          "internalType": "uint256",
          "name": "amount",
          "type": "uint256"
        }
      ],
      "name": "burn",
      "outputs": [],
      "stateMutability": "nonpayable",
      "type": "function"
    },
    {
      "inputs": [
        {
          "internalType": "contract ISanctis",
          "name": "newSanctis",
          "type": "address"
        }
      ],
      "name": "changeSanctis",
      "outputs": [],
      "stateMutability": "nonpayable",
      "type": "function"
    },
    {
      "inputs": [
        {
          "internalType": "uint256",
          "name": "",
          "type": "uint256"
        }
      ],
      "name": "isAvailableOnPlanet",
      "outputs": [
        {
          "internalType": "bool",
          "name": "",
          "type": "bool"
        }
      ],
      "stateMutability": "pure",
      "type": "function"
    },
    {
      "inputs": [
        {
          "internalType": "uint256",
          "name": "planetId",
          "type": "uint256"
        },
        {
          "internalType": "uint256",
          "name": "amount",
          "type": "uint256"
        }
      ],
      "name": "mint",
      "outputs": [],
      "stateMutability": "nonpayable",
      "type": "function"
    },
    {
      "inputs": [],
      "name": "name",
      "outputs": [
        {
          "internalType": "string",
          "name": "",
          "type": "string"
        }
      ],
      "stateMutability": "view",
      "type": "function"
    },
    {
      "inputs": [
        {
          "internalType": "uint256",
          "name": "planetId",
          "type": "uint256"
        }
      ],
      "name": "reserve",
      "outputs": [
        {
          "internalType": "uint256",
          "name": "",
          "type": "uint256"
        }
      ],
      "stateMutability": "view",
      "type": "function"
    },
    {
      "inputs": [],
      "name": "s_sanctis",
      "outputs": [
        {
          "internalType": "contract ISanctis",
          "name": "",
          "type": "address"
        }
      ],
      "stateMutability": "view",
      "type": "function"
    },
    {
      "inputs": [],
      "name": "sanctis",
      "outputs": [
        {
          "internalType": "contract ISanctis",
          "name": "",
          "type": "address"
        }
      ],
      "stateMutability": "view",
      "type": "function"
    },
    {
      "inputs": [],
      "name": "symbol",
      "outputs": [
        {
          "internalType": "string",
          "name": "",
          "type": "string"
        }
      ],
      "stateMutability": "view",
      "type": "function"
    }
  ],
  "bytecode": {
    "object": "0x60806040523480156200001157600080fd5b5060405162000cc138038062000cc1833981016040819052620000349162000160565b6040805180820182526006815265456e6572677960d01b6020808301918252835180850190945260038452624e524760e81b90840152600080546001600160a01b0319166001600160a01b0386161790558151849391620000999160029190620000ba565b508051620000af906003906020840190620000ba565b5050505050620001cf565b828054620000c89062000192565b90600052602060002090601f016020900481019282620000ec576000855562000137565b82601f106200010757805160ff191683800117855562000137565b8280016001018555821562000137579182015b82811115620001375782518255916020019190600101906200011a565b506200014592915062000149565b5090565b5b808211156200014557600081556001016200014a565b6000602082840312156200017357600080fd5b81516001600160a01b03811681146200018b57600080fd5b9392505050565b600181811c90821680620001a757607f821691505b60208210811415620001c957634e487b7160e01b600052602260045260246000fd5b50919050565b610ae280620001df6000396000f3fe608060405234801561001057600080fd5b50600436106100a35760003560e01c8063819b25ba116100765780639797efda1161005b5780639797efda14610162578063b390c0ab14610182578063bf206e451461019557600080fd5b8063819b25ba1461012c57806395d89b411461015a57600080fd5b806306fdde03146100a85780631b2ef1ca146100c65780635087883f146100db57806373199a7c14610108575b600080fd5b6100b06101a8565b6040516100bd91906108c4565b60405180910390f35b6100d96100d4366004610937565b61023a565b005b6100e3610398565b60405173ffffffffffffffffffffffffffffffffffffffff90911681526020016100bd565b61011c610116366004610959565b50600190565b60405190151581526020016100bd565b61014c61013a366004610959565b60009081526001602052604090205490565b6040519081526020016100bd565b6100b06104c6565b6000546100e39073ffffffffffffffffffffffffffffffffffffffff1681565b6100d9610190366004610937565b6104d5565b6100d96101a3366004610997565b61076d565b6060600280546101b7906109bb565b80601f01602080910402602001604051908101604052809291908181526020018280546101e3906109bb565b80156102305780601f1061020557610100808354040283529160200191610230565b820191906000526020600020905b81548152906001019060200180831161021357829003601f168201915b5050505050905090565b6000546040517fd63a8e1100000000000000000000000000000000000000000000000000000000815233600482015273ffffffffffffffffffffffffffffffffffffffff9091169063d63a8e1190602401602060405180830381865afa1580156102a8573d6000803e3d6000fd5b505050506040513d601f19601f820116820180604052508101906102cc9190610a0f565b610337576040517f08c379a000000000000000000000000000000000000000000000000000000000815260206004820152600f60248201527f4d6f64756c653a20416c6c6f776564000000000000000000000000000000000060448201526064015b60405180910390fd5b60008281526001602052604081208054839290610355908490610a60565b909155505060408051838152602081018390527fcc9c58b575eabd3f6a1ee653e91fcea3ff546867ffc3782a3bbca1f9b6dbb8df91015b60405180910390a15050565b60008054604080517f475853040000000000000000000000000000000000000000000000000000000081529051339273ffffffffffffffffffffffffffffffffffffffff169163475853049160048083019260209291908290030181865afa158015610408573d6000803e3d6000fd5b505050506040513d601f19601f8201168201806040525081019061042c9190610a78565b73ffffffffffffffffffffffffffffffffffffffff16146104a9576040517f08c379a000000000000000000000000000000000000000000000000000000000815260206004820152601060248201527f4d6f64756c653a204578656375746f7200000000000000000000000000000000604482015260640161032e565b5060005473ffffffffffffffffffffffffffffffffffffffff1690565b6060600380546101b7906109bb565b6000546040517fd63a8e1100000000000000000000000000000000000000000000000000000000815233600482015273ffffffffffffffffffffffffffffffffffffffff9091169063d63a8e1190602401602060405180830381865afa158015610543573d6000803e3d6000fd5b505050506040513d601f19601f820116820180604052508101906105679190610a0f565b6105cd576040517f08c379a000000000000000000000000000000000000000000000000000000000815260206004820152600f60248201527f4d6f64756c653a20416c6c6f7765640000000000000000000000000000000000604482015260640161032e565b6000546040517f8a5cde0a0000000000000000000000000000000000000000000000000000000081527f464c454554530000000000000000000000000000000000000000000000000000600482015273ffffffffffffffffffffffffffffffffffffffff90911690638a5cde0a90602401602060405180830381865afa15801561065b573d6000803e3d6000fd5b505050506040513d601f19601f8201168201806040525081019061067f9190610a78565b73ffffffffffffffffffffffffffffffffffffffff163373ffffffffffffffffffffffffffffffffffffffff161415610714576040517f08c379a000000000000000000000000000000000000000000000000000000000815260206004820152601160248201527f4e6f20666c656574207472616e73666572000000000000000000000000000000604482015260640161032e565b60008281526001602052604081208054839290610732908490610a95565b909155505060408051838152602081018390527f410c5c259085cde81fedf70c1aa308ec839373c26e9b7ada6560a2aca0254eb6910161038c565b600054604080517f475853040000000000000000000000000000000000000000000000000000000081529051339273ffffffffffffffffffffffffffffffffffffffff169163475853049160048083019260209291908290030181865afa1580156107dc573d6000803e3d6000fd5b505050506040513d601f19601f820116820180604052508101906108009190610a78565b73ffffffffffffffffffffffffffffffffffffffff161461087d576040517f08c379a000000000000000000000000000000000000000000000000000000000815260206004820152601060248201527f4d6f64756c653a204578656375746f7200000000000000000000000000000000604482015260640161032e565b600080547fffffffffffffffffffffffff00000000000000000000000000000000000000001673ffffffffffffffffffffffffffffffffffffffff92909216919091179055565b600060208083528351808285015260005b818110156108f1578581018301518582016040015282016108d5565b81811115610903576000604083870101525b50601f017fffffffffffffffffffffffffffffffffffffffffffffffffffffffffffffffe016929092016040019392505050565b6000806040838503121561094a57600080fd5b50508035926020909101359150565b60006020828403121561096b57600080fd5b5035919050565b73ffffffffffffffffffffffffffffffffffffffff8116811461099457600080fd5b50565b6000602082840312156109a957600080fd5b81356109b481610972565b9392505050565b600181811c908216806109cf57607f821691505b60208210811415610a09577f4e487b7100000000000000000000000000000000000000000000000000000000600052602260045260246000fd5b50919050565b600060208284031215610a2157600080fd5b815180151581146109b457600080fd5b7f4e487b7100000000000000000000000000000000000000000000000000000000600052601160045260246000fd5b60008219821115610a7357610a73610a31565b500190565b600060208284031215610a8a57600080fd5b81516109b481610972565b600082821015610aa757610aa7610a31565b50039056fea264697066735822122036a83cc1b17b0ae7bd920aad33894c6cdb0011f7234e61a03fb4ef20de4ca95864736f6c634300080a0033",
    "linkReferences": {}
  }
}