{
  "abi": [
    {
      "inputs": [
        {
          "internalType": "contract ISanctis",
          "name": "newSanctis",
          "type": "address"
        }
      ],
      "stateMutability": "nonpayable",
      "type": "constructor"
    },
    {
      "anonymous": false,
      "inputs": [
        {
          "indexed": true,
          "internalType": "address",
          "name": "owner",
          "type": "address"
        },
        {
          "indexed": true,
          "internalType": "address",
          "name": "approved",
          "type": "address"
        },
        {
          "indexed": true,
          "internalType": "uint256",
          "name": "tokenId",
          "type": "uint256"
        }
      ],
      "name": "Approval",
      "type": "event"
    },
    {
      "anonymous": false,
      "inputs": [
        {
          "indexed": true,
          "internalType": "address",
          "name": "owner",
          "type": "address"
        },
        {
          "indexed": true,
          "internalType": "address",
          "name": "operator",
          "type": "address"
        },
        {
          "indexed": false,
          "internalType": "bool",
          "name": "approved",
          "type": "bool"
        }
      ],
      "name": "ApprovalForAll",
      "type": "event"
    },
    {
      "anonymous": false,
      "inputs": [
        {
          "indexed": true,
          "internalType": "address",
          "name": "from",
          "type": "address"
        },
        {
          "indexed": true,
          "internalType": "address",
          "name": "to",
          "type": "address"
        },
        {
          "indexed": true,
          "internalType": "uint256",
          "name": "tokenId",
          "type": "uint256"
        }
      ],
      "name": "Transfer",
      "type": "event"
    },
    {
      "inputs": [
        {
          "internalType": "address",
          "name": "to",
          "type": "address"
        },
        {
          "internalType": "uint256",
          "name": "tokenId",
          "type": "uint256"
        }
      ],
      "name": "approve",
      "outputs": [],
      "stateMutability": "nonpayable",
      "type": "function"
    },
    {
      "inputs": [
        {
          "internalType": "address",
          "name": "owner",
          "type": "address"
        }
      ],
      "name": "balanceOf",
      "outputs": [
        {
          "internalType": "uint256",
          "name": "",
          "type": "uint256"
        }
      ],
      "stateMutability": "view",
      "type": "function"
    },
    {
      "inputs": [
        {
          "internalType": "contract ISanctis",
          "name": "newSanctis",
          "type": "address"
        }
      ],
      "name": "changeSanctis",
      "outputs": [],
      "stateMutability": "nonpayable",
      "type": "function"
    },
    {
      "inputs": [
        {
          "internalType": "uint256",
          "name": "commanderId",
          "type": "uint256"
        }
      ],
      "name": "commander",
      "outputs": [
        {
          "components": [
            {
              "internalType": "string",
              "name": "name",
              "type": "string"
            },
            {
              "internalType": "contract IRace",
              "name": "race",
              "type": "address"
            }
          ],
          "internalType": "struct ICommanders.Commander",
          "name": "",
          "type": "tuple"
        }
      ],
      "stateMutability": "view",
      "type": "function"
    },
    {
      "inputs": [
        {
          "internalType": "string",
          "name": "name",
          "type": "string"
        },
        {
          "internalType": "contract IRace",
          "name": "race",
          "type": "address"
        }
      ],
      "name": "create",
      "outputs": [],
      "stateMutability": "nonpayable",
      "type": "function"
    },
    {
      "inputs": [],
      "name": "created",
      "outputs": [
        {
          "internalType": "uint256",
          "name": "",
          "type": "uint256"
        }
      ],
      "stateMutability": "view",
      "type": "function"
    },
    {
      "inputs": [
        {
          "internalType": "uint256",
          "name": "tokenId",
          "type": "uint256"
        }
      ],
      "name": "getApproved",
      "outputs": [
        {
          "internalType": "address",
          "name": "",
          "type": "address"
        }
      ],
      "stateMutability": "view",
      "type": "function"
    },
    {
      "inputs": [
        {
          "internalType": "address",
          "name": "caller",
          "type": "address"
        },
        {
          "internalType": "uint256",
          "name": "commanderId",
          "type": "uint256"
        }
      ],
      "name": "isApproved",
      "outputs": [
        {
          "internalType": "bool",
          "name": "",
          "type": "bool"
        }
      ],
      "stateMutability": "view",
      "type": "function"
    },
    {
      "inputs": [
        {
          "internalType": "address",
          "name": "owner",
          "type": "address"
        },
        {
          "internalType": "address",
          "name": "operator",
          "type": "address"
        }
      ],
      "name": "isApprovedForAll",
      "outputs": [
        {
          "internalType": "bool",
          "name": "",
          "type": "bool"
        }
      ],
      "stateMutability": "view",
      "type": "function"
    },
    {
      "inputs": [],
      "name": "key",
      "outputs": [
        {
          "internalType": "bytes32",
          "name": "",
          "type": "bytes32"
        }
      ],
      "stateMutability": "view",
      "type": "function"
    },
    {
      "inputs": [],
      "name": "name",
      "outputs": [
        {
          "internalType": "string",
          "name": "",
          "type": "string"
        }
      ],
      "stateMutability": "view",
      "type": "function"
    },
    {
      "inputs": [
        {
          "internalType": "uint256",
          "name": "tokenId",
          "type": "uint256"
        }
      ],
      "name": "ownerOf",
      "outputs": [
        {
          "internalType": "address",
          "name": "",
          "type": "address"
        }
      ],
      "stateMutability": "view",
      "type": "function"
    },
    {
      "inputs": [],
      "name": "s_sanctis",
      "outputs": [
        {
          "internalType": "contract ISanctis",
          "name": "",
          "type": "address"
        }
      ],
      "stateMutability": "view",
      "type": "function"
    },
    {
      "inputs": [
        {
          "internalType": "address",
          "name": "from",
          "type": "address"
        },
        {
          "internalType": "address",
          "name": "to",
          "type": "address"
        },
        {
          "internalType": "uint256",
          "name": "tokenId",
          "type": "uint256"
        }
      ],
      "name": "safeTransferFrom",
      "outputs": [],
      "stateMutability": "nonpayable",
      "type": "function"
    },
    {
      "inputs": [
        {
          "internalType": "address",
          "name": "from",
          "type": "address"
        },
        {
          "internalType": "address",
          "name": "to",
          "type": "address"
        },
        {
          "internalType": "uint256",
          "name": "tokenId",
          "type": "uint256"
        },
        {
          "internalType": "bytes",
          "name": "_data",
          "type": "bytes"
        }
      ],
      "name": "safeTransferFrom",
      "outputs": [],
      "stateMutability": "nonpayable",
      "type": "function"
    },
    {
      "inputs": [],
      "name": "sanctis",
      "outputs": [
        {
          "internalType": "contract ISanctis",
          "name": "",
          "type": "address"
        }
      ],
      "stateMutability": "view",
      "type": "function"
    },
    {
      "inputs": [
        {
          "internalType": "address",
          "name": "operator",
          "type": "address"
        },
        {
          "internalType": "bool",
          "name": "approved",
          "type": "bool"
        }
      ],
      "name": "setApprovalForAll",
      "outputs": [],
      "stateMutability": "nonpayable",
      "type": "function"
    },
    {
      "inputs": [
        {
          "internalType": "bytes4",
          "name": "interfaceId",
          "type": "bytes4"
        }
      ],
      "name": "supportsInterface",
      "outputs": [
        {
          "internalType": "bool",
          "name": "",
          "type": "bool"
        }
      ],
      "stateMutability": "view",
      "type": "function"
    },
    {
      "inputs": [],
      "name": "symbol",
      "outputs": [
        {
          "internalType": "string",
          "name": "",
          "type": "string"
        }
      ],
      "stateMutability": "view",
      "type": "function"
    },
    {
      "inputs": [
        {
          "internalType": "uint256",
          "name": "index",
          "type": "uint256"
        }
      ],
      "name": "tokenByIndex",
      "outputs": [
        {
          "internalType": "uint256",
          "name": "",
          "type": "uint256"
        }
      ],
      "stateMutability": "view",
      "type": "function"
    },
    {
      "inputs": [
        {
          "internalType": "address",
          "name": "owner",
          "type": "address"
        },
        {
          "internalType": "uint256",
          "name": "index",
          "type": "uint256"
        }
      ],
      "name": "tokenOfOwnerByIndex",
      "outputs": [
        {
          "internalType": "uint256",
          "name": "",
          "type": "uint256"
        }
      ],
      "stateMutability": "view",
      "type": "function"
    },
    {
      "inputs": [
        {
          "internalType": "uint256",
          "name": "tokenId",
          "type": "uint256"
        }
      ],
      "name": "tokenURI",
      "outputs": [
        {
          "internalType": "string",
          "name": "",
          "type": "string"
        }
      ],
      "stateMutability": "view",
      "type": "function"
    },
    {
      "inputs": [],
      "name": "totalSupply",
      "outputs": [
        {
          "internalType": "uint256",
          "name": "",
          "type": "uint256"
        }
      ],
      "stateMutability": "view",
      "type": "function"
    },
    {
      "inputs": [
        {
          "internalType": "address",
          "name": "from",
          "type": "address"
        },
        {
          "internalType": "address",
          "name": "to",
          "type": "address"
        },
        {
          "internalType": "uint256",
          "name": "tokenId",
          "type": "uint256"
        }
      ],
      "name": "transferFrom",
      "outputs": [],
      "stateMutability": "nonpayable",
      "type": "function"
    },
    {
      "inputs": [
        {
          "internalType": "string",
          "name": "str",
          "type": "string"
        }
      ],
      "name": "validateName",
      "outputs": [
        {
          "internalType": "bool",
          "name": "",
          "type": "bool"
        }
      ],
      "stateMutability": "pure",
      "type": "function"
    }
  ],
  "bytecode": {
    "object": "0x60806040523480156200001157600080fd5b5060405162002e2038038062002e2083398101604081905262000034916200017f565b604080518082018252600a815269436f6d6d616e6465727360b01b60208083019182528351808501909452600784526621a4aa24ad22a760c91b90840152600080546001600160a01b0319166001600160a01b038616179055815169434f4d4d414e4445525360b01b938593929091620000b191600191620000d9565b508051620000c7906002906020840190620000d9565b505050600b9190915550620001ee9050565b828054620000e790620001b1565b90600052602060002090601f0160209004810192826200010b576000855562000156565b82601f106200012657805160ff191683800117855562000156565b8280016001018555821562000156579182015b828111156200015657825182559160200191906001019062000139565b506200016492915062000168565b5090565b5b8082111562000164576000815560010162000169565b6000602082840312156200019257600080fd5b81516001600160a01b0381168114620001aa57600080fd5b9392505050565b600181811c90821680620001c657607f821691505b60208210811415620001e857634e487b7160e01b600052602260045260246000fd5b50919050565b612c2280620001fe6000396000f3fe608060405234801561001057600080fd5b50600436106101a35760003560e01c80635087883f116100ee5780639ffdb65a11610097578063bf206e4511610071578063bf206e4514610355578063c87b56dd14610368578063e985e9c51461037b578063e9ffb696146103c457600080fd5b80639ffdb65a1461031c578063a22cb4651461032f578063b88d4fde1461034257600080fd5b806384b47b0f116100c857806384b47b0f146102e157806395d89b41146102f45780639797efda146102fc57600080fd5b80635087883f146102b35780636352211e146102bb57806370a08231146102ce57600080fd5b80632a16cca4116101505780633943380c1161012a5780633943380c1461028557806342842e0e1461028d5780634f6ccce7146102a057600080fd5b80632a16cca4146102575780632f745c591461026a578063325a19f11461027d57600080fd5b8063095ea7b311610181578063095ea7b31461021d57806318160ddd1461023257806323b872dd1461024457600080fd5b806301ffc9a7146101a857806306fdde03146101d0578063081812fc146101e5575b600080fd5b6101bb6101b636600461259c565b6103e4565b60405190151581526020015b60405180910390f35b6101d8610440565b6040516101c7919061262f565b6101f86101f3366004612642565b6104d2565b60405173ffffffffffffffffffffffffffffffffffffffff90911681526020016101c7565b61023061022b36600461267d565b6105b1565b005b6009545b6040519081526020016101c7565b6102306102523660046126a9565b61073e565b6101bb61026536600461267d565b6107df565b61023661027836600461267d565b6107f2565b600d54610236565b600b54610236565b61023061029b3660046126a9565b6108c1565b6102366102ae366004612642565b6108dc565b6101f861099a565b6101f86102c9366004612642565b610ac8565b6102366102dc3660046126ea565b610b7a565b6102306102ef3660046127ea565b610c48565b6101d8610d78565b6000546101f89073ffffffffffffffffffffffffffffffffffffffff1681565b6101bb61032a36600461283c565b610d87565b61023061033d366004612871565b6111ea565b6102306103503660046128a4565b6111f9565b6102306103633660046126ea565b6112a1565b6101d8610376366004612642565b6113f8565b6101bb610389366004612924565b73ffffffffffffffffffffffffffffffffffffffff918216600090815260066020908152604080832093909416825291909152205460ff1690565b6103d76103d2366004612642565b611514565b6040516101c79190612952565b60007fffffffff0000000000000000000000000000000000000000000000000000000082167f780e9d6300000000000000000000000000000000000000000000000000000000148061043a575061043a826115fa565b92915050565b60606001805461044f9061299a565b80601f016020809104026020016040519081016040528092919081815260200182805461047b9061299a565b80156104c85780601f1061049d576101008083540402835291602001916104c8565b820191906000526020600020905b8154815290600101906020018083116104ab57829003601f168201915b5050505050905090565b60008181526003602052604081205473ffffffffffffffffffffffffffffffffffffffff16610588576040517f08c379a000000000000000000000000000000000000000000000000000000000815260206004820152602c60248201527f4552433732313a20617070726f76656420717565727920666f72206e6f6e657860448201527f697374656e7420746f6b656e000000000000000000000000000000000000000060648201526084015b60405180910390fd5b5060009081526005602052604090205473ffffffffffffffffffffffffffffffffffffffff1690565b60006105bc82610ac8565b90508073ffffffffffffffffffffffffffffffffffffffff168373ffffffffffffffffffffffffffffffffffffffff16141561067a576040517f08c379a000000000000000000000000000000000000000000000000000000000815260206004820152602160248201527f4552433732313a20617070726f76616c20746f2063757272656e74206f776e6560448201527f7200000000000000000000000000000000000000000000000000000000000000606482015260840161057f565b3373ffffffffffffffffffffffffffffffffffffffff821614806106a357506106a38133610389565b61072f576040517f08c379a000000000000000000000000000000000000000000000000000000000815260206004820152603860248201527f4552433732313a20617070726f76652063616c6c6572206973206e6f74206f7760448201527f6e6572206e6f7220617070726f76656420666f7220616c6c0000000000000000606482015260840161057f565b61073983836116dd565b505050565b610748338261177d565b6107d4576040517f08c379a000000000000000000000000000000000000000000000000000000000815260206004820152603160248201527f4552433732313a207472616e736665722063616c6c6572206973206e6f74206f60448201527f776e6572206e6f7220617070726f766564000000000000000000000000000000606482015260840161057f565b6107398383836118ed565b60006107eb838361177d565b9392505050565b60006107fd83610b7a565b821061088b576040517f08c379a000000000000000000000000000000000000000000000000000000000815260206004820152602b60248201527f455243373231456e756d657261626c653a206f776e657220696e646578206f7560448201527f74206f6620626f756e6473000000000000000000000000000000000000000000606482015260840161057f565b5073ffffffffffffffffffffffffffffffffffffffff919091166000908152600760209081526040808320938352929052205490565b610739838383604051806020016040528060008152506111f9565b60006108e760095490565b8210610975576040517f08c379a000000000000000000000000000000000000000000000000000000000815260206004820152602c60248201527f455243373231456e756d657261626c653a20676c6f62616c20696e646578206f60448201527f7574206f6620626f756e64730000000000000000000000000000000000000000606482015260840161057f565b60098281548110610988576109886129ee565b90600052602060002001549050919050565b60008054604080517f475853040000000000000000000000000000000000000000000000000000000081529051339273ffffffffffffffffffffffffffffffffffffffff169163475853049160048083019260209291908290030181865afa158015610a0a573d6000803e3d6000fd5b505050506040513d601f19601f82011682018060405250810190610a2e9190612a1d565b73ffffffffffffffffffffffffffffffffffffffff1614610aab576040517f08c379a000000000000000000000000000000000000000000000000000000000815260206004820152601060248201527f4d6f64756c653a204578656375746f7200000000000000000000000000000000604482015260640161057f565b5060005473ffffffffffffffffffffffffffffffffffffffff1690565b60008181526003602052604081205473ffffffffffffffffffffffffffffffffffffffff168061043a576040517f08c379a000000000000000000000000000000000000000000000000000000000815260206004820152602960248201527f4552433732313a206f776e657220717565727920666f72206e6f6e657869737460448201527f656e7420746f6b656e0000000000000000000000000000000000000000000000606482015260840161057f565b600073ffffffffffffffffffffffffffffffffffffffff8216610c1f576040517f08c379a000000000000000000000000000000000000000000000000000000000815260206004820152602a60248201527f4552433732313a2062616c616e636520717565727920666f7220746865207a6560448201527f726f206164647265737300000000000000000000000000000000000000000000606482015260840161057f565b5073ffffffffffffffffffffffffffffffffffffffff1660009081526004602052604090205490565b610c5182610d87565b610cb7576040517f08c379a000000000000000000000000000000000000000000000000000000000815260206004820152601860248201527f436f6d6d616e646572733a20496e76616c6964206e616d650000000000000000604482015260640161057f565b6000600d60008154610cc890612a69565b918290555060408051808201825285815273ffffffffffffffffffffffffffffffffffffffff85166020808301919091526000848152600c8252929092208151805194955091939092610d1f9284929101906124d2565b5060209190910151600190910180547fffffffffffffffffffffffff00000000000000000000000000000000000000001673ffffffffffffffffffffffffffffffffffffffff9092169190911790556107393382611b5f565b60606002805461044f9061299a565b600080829050600181511015610da05750600092915050565b601981511115610db35750600092915050565b80600081518110610dc657610dc66129ee565b6020910101517fff00000000000000000000000000000000000000000000000000000000000000167f20000000000000000000000000000000000000000000000000000000000000001415610e1e5750600092915050565b8060018251610e2d9190612aa2565b81518110610e3d57610e3d6129ee565b6020910101517fff00000000000000000000000000000000000000000000000000000000000000167f20000000000000000000000000000000000000000000000000000000000000001415610e955750600092915050565b600081600081518110610eaa57610eaa6129ee565b01602001517fff0000000000000000000000000000000000000000000000000000000000000016905060005b82518110156111df576000838281518110610ef357610ef36129ee565b01602001517fff000000000000000000000000000000000000000000000000000000000000001690507f200000000000000000000000000000000000000000000000000000000000000081148015610f8c57507f20000000000000000000000000000000000000000000000000000000000000007fff000000000000000000000000000000000000000000000000000000000000008416145b15610f9d5750600095945050505050565b7f30000000000000000000000000000000000000000000000000000000000000007fff0000000000000000000000000000000000000000000000000000000000000082161080159061103157507f39000000000000000000000000000000000000000000000000000000000000007fff00000000000000000000000000000000000000000000000000000000000000821611155b1580156110cf57507f41000000000000000000000000000000000000000000000000000000000000007fff000000000000000000000000000000000000000000000000000000000000008216108015906110cd57507f5a000000000000000000000000000000000000000000000000000000000000007fff00000000000000000000000000000000000000000000000000000000000000821611155b155b801561116c57507f61000000000000000000000000000000000000000000000000000000000000007fff0000000000000000000000000000000000000000000000000000000000000082161080159061116a57507f7a000000000000000000000000000000000000000000000000000000000000007fff00000000000000000000000000000000000000000000000000000000000000821611155b155b80156111ba57507f20000000000000000000000000000000000000000000000000000000000000007fff00000000000000000000000000000000000000000000000000000000000000821614155b156111cb5750600095945050505050565b9150806111d781612a69565b915050610ed6565b506001949350505050565b6111f5338383611d2d565b5050565b611203338361177d565b61128f576040517f08c379a000000000000000000000000000000000000000000000000000000000815260206004820152603160248201527f4552433732313a207472616e736665722063616c6c6572206973206e6f74206f60448201527f776e6572206e6f7220617070726f766564000000000000000000000000000000606482015260840161057f565b61129b84848484611e5b565b50505050565b600054604080517f475853040000000000000000000000000000000000000000000000000000000081529051339273ffffffffffffffffffffffffffffffffffffffff169163475853049160048083019260209291908290030181865afa158015611310573d6000803e3d6000fd5b505050506040513d601f19601f820116820180604052508101906113349190612a1d565b73ffffffffffffffffffffffffffffffffffffffff16146113b1576040517f08c379a000000000000000000000000000000000000000000000000000000000815260206004820152601060248201527f4d6f64756c653a204578656375746f7200000000000000000000000000000000604482015260640161057f565b600080547fffffffffffffffffffffffff00000000000000000000000000000000000000001673ffffffffffffffffffffffffffffffffffffffff92909216919091179055565b60008181526003602052604090205460609073ffffffffffffffffffffffffffffffffffffffff166114ac576040517f08c379a000000000000000000000000000000000000000000000000000000000815260206004820152602f60248201527f4552433732314d657461646174613a2055524920717565727920666f72206e6f60448201527f6e6578697374656e7420746f6b656e0000000000000000000000000000000000606482015260840161057f565b60006114c360408051602081019091526000815290565b905060008151116114e357604051806020016040528060008152506107eb565b806114ed84611efe565b6040516020016114fe929190612ab9565b6040516020818303038152906040529392505050565b6040805180820190915260608152600060208201526000828152600c60205260409081902081518083019092528054829082906115509061299a565b80601f016020809104026020016040519081016040528092919081815260200182805461157c9061299a565b80156115c95780601f1061159e576101008083540402835291602001916115c9565b820191906000526020600020905b8154815290600101906020018083116115ac57829003601f168201915b50505091835250506001919091015473ffffffffffffffffffffffffffffffffffffffff1660209091015292915050565b60007fffffffff0000000000000000000000000000000000000000000000000000000082167f80ac58cd00000000000000000000000000000000000000000000000000000000148061168d57507fffffffff0000000000000000000000000000000000000000000000000000000082167f5b5e139f00000000000000000000000000000000000000000000000000000000145b8061043a57507f01ffc9a7000000000000000000000000000000000000000000000000000000007fffffffff0000000000000000000000000000000000000000000000000000000083161461043a565b600081815260056020526040902080547fffffffffffffffffffffffff00000000000000000000000000000000000000001673ffffffffffffffffffffffffffffffffffffffff8416908117909155819061173782610ac8565b73ffffffffffffffffffffffffffffffffffffffff167f8c5be1e5ebec7d5bd14f71427d1e84f3dd0314c0f7b2291e5b200ac8c7c3b92560405160405180910390a45050565b60008181526003602052604081205473ffffffffffffffffffffffffffffffffffffffff1661182e576040517f08c379a000000000000000000000000000000000000000000000000000000000815260206004820152602c60248201527f4552433732313a206f70657261746f7220717565727920666f72206e6f6e657860448201527f697374656e7420746f6b656e0000000000000000000000000000000000000000606482015260840161057f565b600061183983610ac8565b90508073ffffffffffffffffffffffffffffffffffffffff168473ffffffffffffffffffffffffffffffffffffffff1614806118a857508373ffffffffffffffffffffffffffffffffffffffff16611890846104d2565b73ffffffffffffffffffffffffffffffffffffffff16145b806118e5575073ffffffffffffffffffffffffffffffffffffffff80821660009081526006602090815260408083209388168352929052205460ff165b949350505050565b8273ffffffffffffffffffffffffffffffffffffffff1661190d82610ac8565b73ffffffffffffffffffffffffffffffffffffffff16146119b0576040517f08c379a000000000000000000000000000000000000000000000000000000000815260206004820152602560248201527f4552433732313a207472616e736665722066726f6d20696e636f72726563742060448201527f6f776e6572000000000000000000000000000000000000000000000000000000606482015260840161057f565b73ffffffffffffffffffffffffffffffffffffffff8216611a52576040517f08c379a0000000000000000000000000000000000000000000000000000000008152602060048201526024808201527f4552433732313a207472616e7366657220746f20746865207a65726f2061646460448201527f7265737300000000000000000000000000000000000000000000000000000000606482015260840161057f565b611a5d838383612030565b611a686000826116dd565b73ffffffffffffffffffffffffffffffffffffffff83166000908152600460205260408120805460019290611a9e908490612aa2565b909155505073ffffffffffffffffffffffffffffffffffffffff82166000908152600460205260408120805460019290611ad9908490612ae8565b909155505060008181526003602052604080822080547fffffffffffffffffffffffff00000000000000000000000000000000000000001673ffffffffffffffffffffffffffffffffffffffff86811691821790925591518493918716917fddf252ad1be2c89b69c2b068fc378daa952ba7f163c4a11628f55a4df523b3ef91a4505050565b73ffffffffffffffffffffffffffffffffffffffff8216611bdc576040517f08c379a000000000000000000000000000000000000000000000000000000000815260206004820181905260248201527f4552433732313a206d696e7420746f20746865207a65726f2061646472657373604482015260640161057f565b60008181526003602052604090205473ffffffffffffffffffffffffffffffffffffffff1615611c68576040517f08c379a000000000000000000000000000000000000000000000000000000000815260206004820152601c60248201527f4552433732313a20746f6b656e20616c7265616479206d696e74656400000000604482015260640161057f565b611c7460008383612030565b73ffffffffffffffffffffffffffffffffffffffff82166000908152600460205260408120805460019290611caa908490612ae8565b909155505060008181526003602052604080822080547fffffffffffffffffffffffff00000000000000000000000000000000000000001673ffffffffffffffffffffffffffffffffffffffff861690811790915590518392907fddf252ad1be2c89b69c2b068fc378daa952ba7f163c4a11628f55a4df523b3ef908290a45050565b8173ffffffffffffffffffffffffffffffffffffffff168373ffffffffffffffffffffffffffffffffffffffff161415611dc3576040517f08c379a000000000000000000000000000000000000000000000000000000000815260206004820152601960248201527f4552433732313a20617070726f766520746f2063616c6c657200000000000000604482015260640161057f565b73ffffffffffffffffffffffffffffffffffffffff83811660008181526006602090815260408083209487168084529482529182902080547fffffffffffffffffffffffffffffffffffffffffffffffffffffffffffffff001686151590811790915591519182527f17307eab39ab6107e8899845ad3d59bd9653f200f220920489ca2b5937696c31910160405180910390a3505050565b611e668484846118ed565b611e7284848484612136565b61129b576040517f08c379a000000000000000000000000000000000000000000000000000000000815260206004820152603260248201527f4552433732313a207472616e7366657220746f206e6f6e20455243373231526560448201527f63656976657220696d706c656d656e7465720000000000000000000000000000606482015260840161057f565b606081611f3e57505060408051808201909152600181527f3000000000000000000000000000000000000000000000000000000000000000602082015290565b8160005b8115611f685780611f5281612a69565b9150611f619050600a83612b2f565b9150611f42565b60008167ffffffffffffffff811115611f8357611f83612707565b6040519080825280601f01601f191660200182016040528015611fad576020820181803683370190505b5090505b84156118e557611fc2600183612aa2565b9150611fcf600a86612b43565b611fda906030612ae8565b60f81b818381518110611fef57611fef6129ee565b60200101907effffffffffffffffffffffffffffffffffffffffffffffffffffffffffffff1916908160001a905350612029600a86612b2f565b9450611fb1565b73ffffffffffffffffffffffffffffffffffffffff83166120985761209381600980546000838152600a60205260408120829055600182018355919091527f6e1540171b6c0c960b71a7020d9f60077f6af931a8bbf590da0223dacf75c7af0155565b6120d5565b8173ffffffffffffffffffffffffffffffffffffffff168373ffffffffffffffffffffffffffffffffffffffff16146120d5576120d5838261231b565b73ffffffffffffffffffffffffffffffffffffffff82166120f957610739816123d2565b8273ffffffffffffffffffffffffffffffffffffffff168273ffffffffffffffffffffffffffffffffffffffff1614610739576107398282612481565b600073ffffffffffffffffffffffffffffffffffffffff84163b156111df576040517f150b7a0200000000000000000000000000000000000000000000000000000000815273ffffffffffffffffffffffffffffffffffffffff85169063150b7a02906121ad903390899088908890600401612b57565b6020604051808303816000875af1925050508015612206575060408051601f3d9081017fffffffffffffffffffffffffffffffffffffffffffffffffffffffffffffffe016820190925261220391810190612ba0565b60015b6122d0573d808015612234576040519150601f19603f3d011682016040523d82523d6000602084013e612239565b606091505b5080516122c8576040517f08c379a000000000000000000000000000000000000000000000000000000000815260206004820152603260248201527f4552433732313a207472616e7366657220746f206e6f6e20455243373231526560448201527f63656976657220696d706c656d656e7465720000000000000000000000000000606482015260840161057f565b805181602001fd5b7fffffffff00000000000000000000000000000000000000000000000000000000167f150b7a02000000000000000000000000000000000000000000000000000000001490506118e5565b6000600161232884610b7a565b6123329190612aa2565b6000838152600860205260409020549091508082146123925773ffffffffffffffffffffffffffffffffffffffff841660009081526007602090815260408083208584528252808320548484528184208190558352600890915290208190555b50600091825260086020908152604080842084905573ffffffffffffffffffffffffffffffffffffffff9094168352600781528383209183525290812055565b6009546000906123e490600190612aa2565b6000838152600a60205260408120546009805493945090928490811061240c5761240c6129ee565b90600052602060002001549050806009838154811061242d5761242d6129ee565b6000918252602080832090910192909255828152600a9091526040808220849055858252812055600980548061246557612465612bbd565b6001900381819060005260206000200160009055905550505050565b600061248c83610b7a565b73ffffffffffffffffffffffffffffffffffffffff9093166000908152600760209081526040808320868452825280832085905593825260089052919091209190915550565b8280546124de9061299a565b90600052602060002090601f0160209004810192826125005760008555612546565b82601f1061251957805160ff1916838001178555612546565b82800160010185558215612546579182015b8281111561254657825182559160200191906001019061252b565b50612552929150612556565b5090565b5b808211156125525760008155600101612557565b7fffffffff000000000000000000000000000000000000000000000000000000008116811461259957600080fd5b50565b6000602082840312156125ae57600080fd5b81356107eb8161256b565b60005b838110156125d45781810151838201526020016125bc565b8381111561129b5750506000910152565b600081518084526125fd8160208601602086016125b9565b601f017fffffffffffffffffffffffffffffffffffffffffffffffffffffffffffffffe0169290920160200192915050565b6020815260006107eb60208301846125e5565b60006020828403121561265457600080fd5b5035919050565b73ffffffffffffffffffffffffffffffffffffffff8116811461259957600080fd5b6000806040838503121561269057600080fd5b823561269b8161265b565b946020939093013593505050565b6000806000606084860312156126be57600080fd5b83356126c98161265b565b925060208401356126d98161265b565b929592945050506040919091013590565b6000602082840312156126fc57600080fd5b81356107eb8161265b565b7f4e487b7100000000000000000000000000000000000000000000000000000000600052604160045260246000fd5b600067ffffffffffffffff8084111561275157612751612707565b604051601f85017fffffffffffffffffffffffffffffffffffffffffffffffffffffffffffffffe0908116603f0116810190828211818310171561279757612797612707565b816040528093508581528686860111156127b057600080fd5b858560208301376000602087830101525050509392505050565b600082601f8301126127db57600080fd5b6107eb83833560208501612736565b600080604083850312156127fd57600080fd5b823567ffffffffffffffff81111561281457600080fd5b612820858286016127ca565b92505060208301356128318161265b565b809150509250929050565b60006020828403121561284e57600080fd5b813567ffffffffffffffff81111561286557600080fd5b6118e5848285016127ca565b6000806040838503121561288457600080fd5b823561288f8161265b565b91506020830135801515811461283157600080fd5b600080600080608085870312156128ba57600080fd5b84356128c58161265b565b935060208501356128d58161265b565b925060408501359150606085013567ffffffffffffffff8111156128f857600080fd5b8501601f8101871361290957600080fd5b61291887823560208401612736565b91505092959194509250565b6000806040838503121561293757600080fd5b82356129428161265b565b915060208301356128318161265b565b60208152600082516040602084015261296e60608401826125e5565b905073ffffffffffffffffffffffffffffffffffffffff60208501511660408401528091505092915050565b600181811c908216806129ae57607f821691505b602082108114156129e8577f4e487b7100000000000000000000000000000000000000000000000000000000600052602260045260246000fd5b50919050565b7f4e487b7100000000000000000000000000000000000000000000000000000000600052603260045260246000fd5b600060208284031215612a2f57600080fd5b81516107eb8161265b565b7f4e487b7100000000000000000000000000000000000000000000000000000000600052601160045260246000fd5b60007fffffffffffffffffffffffffffffffffffffffffffffffffffffffffffffffff821415612a9b57612a9b612a3a565b5060010190565b600082821015612ab457612ab4612a3a565b500390565b60008351612acb8184602088016125b9565b835190830190612adf8183602088016125b9565b01949350505050565b60008219821115612afb57612afb612a3a565b500190565b7f4e487b7100000000000000000000000000000000000000000000000000000000600052601260045260246000fd5b600082612b3e57612b3e612b00565b500490565b600082612b5257612b52612b00565b500690565b600073ffffffffffffffffffffffffffffffffffffffff808716835280861660208401525083604083015260806060830152612b9660808301846125e5565b9695505050505050565b600060208284031215612bb257600080fd5b81516107eb8161256b565b7f4e487b7100000000000000000000000000000000000000000000000000000000600052603160045260246000fdfea264697066735822122097d54b48cf53171489e486ab7d672833b687fc2cf034b76e2a9198a672c13cdc64736f6c634300080a0033",
    "linkReferences": {}
  }
}