{
  "abi": [
    {
      "inputs": [
        {
          "internalType": "contract ISanctis",
          "name": "newSanctis",
          "type": "address"
        }
      ],
      "stateMutability": "nonpayable",
      "type": "constructor"
    },
    {
      "inputs": [],
      "name": "CommanderZero",
      "type": "error"
    },
    {
      "inputs": [
        {
          "internalType": "address",
          "name": "sender",
          "type": "address"
        }
      ],
      "name": "NotAllowed",
      "type": "error"
    },
    {
      "inputs": [
        {
          "internalType": "address",
          "name": "caller",
          "type": "address"
        }
      ],
      "name": "NotApproved",
      "type": "error"
    },
    {
      "inputs": [
        {
          "internalType": "address",
          "name": "caller",
          "type": "address"
        }
      ],
      "name": "NotTheCitadel",
      "type": "error"
    },
    {
      "inputs": [
        {
          "internalType": "address",
          "name": "sender",
          "type": "address"
        }
      ],
      "name": "NotTheExecutor",
      "type": "error"
    },
    {
      "inputs": [
        {
          "internalType": "address",
          "name": "sender",
          "type": "address"
        }
      ],
      "name": "NotTheSanctis",
      "type": "error"
    },
    {
      "anonymous": false,
      "inputs": [
        {
          "indexed": true,
          "internalType": "address",
          "name": "owner",
          "type": "address"
        },
        {
          "indexed": true,
          "internalType": "address",
          "name": "approved",
          "type": "address"
        },
        {
          "indexed": true,
          "internalType": "uint256",
          "name": "tokenId",
          "type": "uint256"
        }
      ],
      "name": "Approval",
      "type": "event"
    },
    {
      "anonymous": false,
      "inputs": [
        {
          "indexed": true,
          "internalType": "address",
          "name": "owner",
          "type": "address"
        },
        {
          "indexed": true,
          "internalType": "address",
          "name": "operator",
          "type": "address"
        },
        {
          "indexed": false,
          "internalType": "bool",
          "name": "approved",
          "type": "bool"
        }
      ],
      "name": "ApprovalForAll",
      "type": "event"
    },
    {
      "anonymous": false,
      "inputs": [
        {
          "indexed": true,
          "internalType": "address",
          "name": "from",
          "type": "address"
        },
        {
          "indexed": true,
          "internalType": "address",
          "name": "to",
          "type": "address"
        },
        {
          "indexed": true,
          "internalType": "uint256",
          "name": "tokenId",
          "type": "uint256"
        }
      ],
      "name": "Transfer",
      "type": "event"
    },
    {
      "inputs": [
        {
          "internalType": "address",
          "name": "to",
          "type": "address"
        },
        {
          "internalType": "uint256",
          "name": "tokenId",
          "type": "uint256"
        }
      ],
      "name": "approve",
      "outputs": [],
      "stateMutability": "nonpayable",
      "type": "function"
    },
    {
      "inputs": [
        {
          "internalType": "address",
          "name": "owner",
          "type": "address"
        }
      ],
      "name": "balanceOf",
      "outputs": [
        {
          "internalType": "uint256",
          "name": "",
          "type": "uint256"
        }
      ],
      "stateMutability": "view",
      "type": "function"
    },
    {
      "inputs": [
        {
          "internalType": "contract ISanctis",
          "name": "newSanctis",
          "type": "address"
        }
      ],
      "name": "changeSanctis",
      "outputs": [],
      "stateMutability": "nonpayable",
      "type": "function"
    },
    {
      "inputs": [
        {
          "internalType": "uint256",
          "name": "commanderId",
          "type": "uint256"
        }
      ],
      "name": "commander",
      "outputs": [
        {
          "components": [
            {
              "internalType": "string",
              "name": "name",
              "type": "string"
            },
            {
              "internalType": "contract IRace",
              "name": "race",
              "type": "address"
            }
          ],
          "internalType": "struct ICommanders.Commander",
          "name": "",
          "type": "tuple"
        }
      ],
      "stateMutability": "view",
      "type": "function"
    },
    {
      "inputs": [
        {
          "internalType": "string",
          "name": "name",
          "type": "string"
        },
        {
          "internalType": "contract IRace",
          "name": "race",
          "type": "address"
        }
      ],
      "name": "create",
      "outputs": [],
      "stateMutability": "nonpayable",
      "type": "function"
    },
    {
      "inputs": [],
      "name": "created",
      "outputs": [
        {
          "internalType": "uint256",
          "name": "",
          "type": "uint256"
        }
      ],
      "stateMutability": "view",
      "type": "function"
    },
    {
      "inputs": [
        {
          "internalType": "uint256",
          "name": "tokenId",
          "type": "uint256"
        }
      ],
      "name": "getApproved",
      "outputs": [
        {
          "internalType": "address",
          "name": "",
          "type": "address"
        }
      ],
      "stateMutability": "view",
      "type": "function"
    },
    {
      "inputs": [
        {
          "internalType": "address",
          "name": "caller",
          "type": "address"
        },
        {
          "internalType": "uint256",
          "name": "commanderId",
          "type": "uint256"
        }
      ],
      "name": "isApproved",
      "outputs": [
        {
          "internalType": "bool",
          "name": "",
          "type": "bool"
        }
      ],
      "stateMutability": "view",
      "type": "function"
    },
    {
      "inputs": [
        {
          "internalType": "address",
          "name": "owner",
          "type": "address"
        },
        {
          "internalType": "address",
          "name": "operator",
          "type": "address"
        }
      ],
      "name": "isApprovedForAll",
      "outputs": [
        {
          "internalType": "bool",
          "name": "",
          "type": "bool"
        }
      ],
      "stateMutability": "view",
      "type": "function"
    },
    {
      "inputs": [],
      "name": "key",
      "outputs": [
        {
          "internalType": "string",
          "name": "",
          "type": "string"
        }
      ],
      "stateMutability": "view",
      "type": "function"
    },
    {
      "inputs": [],
      "name": "name",
      "outputs": [
        {
          "internalType": "string",
          "name": "",
          "type": "string"
        }
      ],
      "stateMutability": "view",
      "type": "function"
    },
    {
      "inputs": [
        {
          "internalType": "uint256",
          "name": "tokenId",
          "type": "uint256"
        }
      ],
      "name": "ownerOf",
      "outputs": [
        {
          "internalType": "address",
          "name": "",
          "type": "address"
        }
      ],
      "stateMutability": "view",
      "type": "function"
    },
    {
      "inputs": [
        {
          "internalType": "address",
          "name": "from",
          "type": "address"
        },
        {
          "internalType": "address",
          "name": "to",
          "type": "address"
        },
        {
          "internalType": "uint256",
          "name": "tokenId",
          "type": "uint256"
        }
      ],
      "name": "safeTransferFrom",
      "outputs": [],
      "stateMutability": "nonpayable",
      "type": "function"
    },
    {
      "inputs": [
        {
          "internalType": "address",
          "name": "from",
          "type": "address"
        },
        {
          "internalType": "address",
          "name": "to",
          "type": "address"
        },
        {
          "internalType": "uint256",
          "name": "tokenId",
          "type": "uint256"
        },
        {
          "internalType": "bytes",
          "name": "_data",
          "type": "bytes"
        }
      ],
      "name": "safeTransferFrom",
      "outputs": [],
      "stateMutability": "nonpayable",
      "type": "function"
    },
    {
      "inputs": [],
      "name": "sanctis",
      "outputs": [
        {
          "internalType": "contract ISanctis",
          "name": "",
          "type": "address"
        }
      ],
      "stateMutability": "view",
      "type": "function"
    },
    {
      "inputs": [
        {
          "internalType": "address",
          "name": "operator",
          "type": "address"
        },
        {
          "internalType": "bool",
          "name": "approved",
          "type": "bool"
        }
      ],
      "name": "setApprovalForAll",
      "outputs": [],
      "stateMutability": "nonpayable",
      "type": "function"
    },
    {
      "inputs": [
        {
          "internalType": "bytes4",
          "name": "interfaceId",
          "type": "bytes4"
        }
      ],
      "name": "supportsInterface",
      "outputs": [
        {
          "internalType": "bool",
          "name": "",
          "type": "bool"
        }
      ],
      "stateMutability": "view",
      "type": "function"
    },
    {
      "inputs": [],
      "name": "symbol",
      "outputs": [
        {
          "internalType": "string",
          "name": "",
          "type": "string"
        }
      ],
      "stateMutability": "view",
      "type": "function"
    },
    {
      "inputs": [
        {
          "internalType": "uint256",
          "name": "index",
          "type": "uint256"
        }
      ],
      "name": "tokenByIndex",
      "outputs": [
        {
          "internalType": "uint256",
          "name": "",
          "type": "uint256"
        }
      ],
      "stateMutability": "view",
      "type": "function"
    },
    {
      "inputs": [
        {
          "internalType": "address",
          "name": "owner",
          "type": "address"
        },
        {
          "internalType": "uint256",
          "name": "index",
          "type": "uint256"
        }
      ],
      "name": "tokenOfOwnerByIndex",
      "outputs": [
        {
          "internalType": "uint256",
          "name": "",
          "type": "uint256"
        }
      ],
      "stateMutability": "view",
      "type": "function"
    },
    {
      "inputs": [
        {
          "internalType": "uint256",
          "name": "tokenId",
          "type": "uint256"
        }
      ],
      "name": "tokenURI",
      "outputs": [
        {
          "internalType": "string",
          "name": "",
          "type": "string"
        }
      ],
      "stateMutability": "view",
      "type": "function"
    },
    {
      "inputs": [],
      "name": "totalSupply",
      "outputs": [
        {
          "internalType": "uint256",
          "name": "",
          "type": "uint256"
        }
      ],
      "stateMutability": "view",
      "type": "function"
    },
    {
      "inputs": [
        {
          "internalType": "address",
          "name": "from",
          "type": "address"
        },
        {
          "internalType": "address",
          "name": "to",
          "type": "address"
        },
        {
          "internalType": "uint256",
          "name": "tokenId",
          "type": "uint256"
        }
      ],
      "name": "transferFrom",
      "outputs": [],
      "stateMutability": "nonpayable",
      "type": "function"
    },
    {
      "inputs": [
        {
          "internalType": "string",
          "name": "str",
          "type": "string"
        }
      ],
      "name": "validateName",
      "outputs": [
        {
          "internalType": "bool",
          "name": "",
          "type": "bool"
        }
      ],
      "stateMutability": "pure",
      "type": "function"
    }
  ],
  "bytecode": {
    "object": "0x60806040523480156200001157600080fd5b506040516200210f3803806200210f8339810160408190526200003491620001b3565b6040518060400160405280600a815260200169434f4d4d414e4445525360b01b81525081806040518060400160405280600a815260200169436f6d6d616e6465727360b01b8152506040518060400160405280600781526020016621a4aa24ad22a760c91b8152508160009080519060200190620000b49291906200010d565b508051620000ca9060019060208401906200010d565b5050600a80546001600160a01b0319166001600160a01b0393909316929092179091555081516200010390600b9060208501906200010d565b5050505062000222565b8280546200011b90620001e5565b90600052602060002090601f0160209004810192826200013f57600085556200018a565b82601f106200015a57805160ff19168380011785556200018a565b828001600101855582156200018a579182015b828111156200018a5782518255916020019190600101906200016d565b50620001989291506200019c565b5090565b5b808211156200019857600081556001016200019d565b600060208284031215620001c657600080fd5b81516001600160a01b0381168114620001de57600080fd5b9392505050565b600181811c90821680620001fa57607f821691505b602082108114156200021c57634e487b7160e01b600052602260045260246000fd5b50919050565b611edd80620002326000396000f3fe608060405234801561001057600080fd5b50600436106101585760003560e01c80635087883f116100c3578063a22cb4651161007c578063a22cb465146102c2578063b88d4fde146102d5578063bf206e45146102e8578063c87b56dd146102fb578063e985e9c51461030e578063e9ffb6961461034a57600080fd5b80635087883f1461025b5780636352211e1461026e57806370a082311461028157806384b47b0f1461029457806395d89b41146102a75780639ffdb65a146102af57600080fd5b80632a16cca4116101155780632a16cca4146101ff5780632f745c5914610212578063325a19f1146102255780633943380c1461022d57806342842e0e146102355780634f6ccce71461024857600080fd5b806301ffc9a71461015d57806306fdde0314610185578063081812fc1461019a578063095ea7b3146101c557806318160ddd146101da57806323b872dd146101ec575b600080fd5b61017061016b3660046118c8565b61036a565b60405190151581526020015b60405180910390f35b61018d610395565b60405161017c919061193d565b6101ad6101a8366004611950565b610427565b6040516001600160a01b03909116815260200161017c565b6101d86101d336600461197e565b6104c1565b005b6008545b60405190815260200161017c565b6101d86101fa3660046119aa565b6105d7565b61017061020d36600461197e565b610608565b6101de61022036600461197e565b61061b565b600d546101de565b61018d6106b1565b6101d86102433660046119aa565b6106c0565b6101de610256366004611950565b6106db565b600a546101ad906001600160a01b031681565b6101ad61027c366004611950565b61076e565b6101de61028f3660046119eb565b6107e5565b6101d86102a2366004611ab4565b61086c565b61018d610958565b6101706102bd366004611b06565b610967565b6101d86102d0366004611b3b565b610b76565b6101d86102e3366004611b6e565b610b81565b6101d86102f63660046119eb565b610bb9565b61018d610309366004611950565b610c71565b61017061031c366004611bee565b6001600160a01b03918216600090815260056020908152604080832093909416825291909152205460ff1690565b61035d610358366004611950565b610d58565b60405161017c9190611c1c565b60006001600160e01b0319821663780e9d6360e01b148061038f575061038f82610e31565b92915050565b6060600080546103a490611c59565b80601f01602080910402602001604051908101604052809291908181526020018280546103d090611c59565b801561041d5780601f106103f25761010080835404028352916020019161041d565b820191906000526020600020905b81548152906001019060200180831161040057829003601f168201915b5050505050905090565b6000818152600260205260408120546001600160a01b03166104a55760405162461bcd60e51b815260206004820152602c60248201527f4552433732313a20617070726f76656420717565727920666f72206e6f6e657860448201526b34b9ba32b73a103a37b5b2b760a11b60648201526084015b60405180910390fd5b506000908152600460205260409020546001600160a01b031690565b60006104cc8261076e565b9050806001600160a01b0316836001600160a01b0316141561053a5760405162461bcd60e51b815260206004820152602160248201527f4552433732313a20617070726f76616c20746f2063757272656e74206f776e656044820152603960f91b606482015260840161049c565b336001600160a01b03821614806105565750610556813361031c565b6105c85760405162461bcd60e51b815260206004820152603860248201527f4552433732313a20617070726f76652063616c6c6572206973206e6f74206f7760448201527f6e6572206e6f7220617070726f76656420666f7220616c6c0000000000000000606482015260840161049c565b6105d28383610e81565b505050565b6105e13382610eef565b6105fd5760405162461bcd60e51b815260040161049c90611c94565b6105d2838383610fe6565b60006106148383610eef565b9392505050565b6000610626836107e5565b82106106885760405162461bcd60e51b815260206004820152602b60248201527f455243373231456e756d657261626c653a206f776e657220696e646578206f7560448201526a74206f6620626f756e647360a81b606482015260840161049c565b506001600160a01b03919091166000908152600660209081526040808320938352929052205490565b6060600b80546103a490611c59565b6105d283838360405180602001604052806000815250610b81565b60006106e660085490565b82106107495760405162461bcd60e51b815260206004820152602c60248201527f455243373231456e756d657261626c653a20676c6f62616c20696e646578206f60448201526b7574206f6620626f756e647360a01b606482015260840161049c565b6008828154811061075c5761075c611ce5565b90600052602060002001549050919050565b6000818152600260205260408120546001600160a01b03168061038f5760405162461bcd60e51b815260206004820152602960248201527f4552433732313a206f776e657220717565727920666f72206e6f6e657869737460448201526832b73a103a37b5b2b760b91b606482015260840161049c565b60006001600160a01b0382166108505760405162461bcd60e51b815260206004820152602a60248201527f4552433732313a2062616c616e636520717565727920666f7220746865207a65604482015269726f206164647265737360b01b606482015260840161049c565b506001600160a01b031660009081526003602052604090205490565b61087582610967565b6108c15760405162461bcd60e51b815260206004820152601860248201527f436f6d6d616e646572733a20496e76616c6964206e616d650000000000000000604482015260640161049c565b604080518082019091528281526001600160a01b0382166020820152600d8054600c9160009190826108f283611d11565b90915550815260208082019290925260400160002082518051919261091c92849290910190611816565b5060209190910151600190910180546001600160a01b0319166001600160a01b03909216919091179055600d5461095490339061118d565b5050565b6060600180546103a490611c59565b6000808290506001815110156109805750600092915050565b6019815111156109935750600092915050565b806000815181106109a6576109a6611ce5565b6020910101516001600160f81b031916600160fd1b14156109ca5750600092915050565b80600182516109d99190611d2c565b815181106109e9576109e9611ce5565b6020910101516001600160f81b031916600160fd1b1415610a0d5750600092915050565b600081600081518110610a2257610a22611ce5565b01602001516001600160f81b031916905060005b8251811015610b6b576000838281518110610a5357610a53611ce5565b01602001516001600160f81b0319169050600160fd1b81148015610a845750600160fd1b6001600160f81b03198416145b15610a955750600095945050505050565b600360fc1b6001600160f81b0319821610801590610ac15750603960f81b6001600160f81b0319821611155b158015610af75750604160f81b6001600160f81b0319821610801590610af55750602d60f91b6001600160f81b0319821611155b155b8015610b2c5750606160f81b6001600160f81b0319821610801590610b2a5750603d60f91b6001600160f81b0319821611155b155b8015610b465750600160fd1b6001600160f81b0319821614155b15610b575750600095945050505050565b915080610b6381611d11565b915050610a36565b506001949350505050565b6109543383836112db565b610b8b3383610eef565b610ba75760405162461bcd60e51b815260040161049c90611c94565b610bb3848484846113aa565b50505050565b600a54604080516311d614c160e21b8152905133926001600160a01b03169163475853049160048083019260209291908290030181865afa158015610c02573d6000803e3d6000fd5b505050506040513d601f19601f82011682018060405250810190610c269190611d43565b6001600160a01b031614610c4f5760405163968c45d960e01b815233600482015260240161049c565b600a80546001600160a01b0319166001600160a01b0392909216919091179055565b6000818152600260205260409020546060906001600160a01b0316610cf05760405162461bcd60e51b815260206004820152602f60248201527f4552433732314d657461646174613a2055524920717565727920666f72206e6f60448201526e3732bc34b9ba32b73a103a37b5b2b760891b606482015260840161049c565b6000610d0760408051602081019091526000815290565b90506000815111610d275760405180602001604052806000815250610614565b80610d31846113dd565b604051602001610d42929190611d60565b6040516020818303038152906040529392505050565b6040805180820190915260608152600060208201526000828152600c6020526040908190208151808301909252805482908290610d9490611c59565b80601f0160208091040260200160405190810160405280929190818152602001828054610dc090611c59565b8015610e0d5780601f10610de257610100808354040283529160200191610e0d565b820191906000526020600020905b815481529060010190602001808311610df057829003601f168201915b5050509183525050600191909101546001600160a01b031660209091015292915050565b60006001600160e01b031982166380ac58cd60e01b1480610e6257506001600160e01b03198216635b5e139f60e01b145b8061038f57506301ffc9a760e01b6001600160e01b031983161461038f565b600081815260046020526040902080546001600160a01b0319166001600160a01b0384169081179091558190610eb68261076e565b6001600160a01b03167f8c5be1e5ebec7d5bd14f71427d1e84f3dd0314c0f7b2291e5b200ac8c7c3b92560405160405180910390a45050565b6000818152600260205260408120546001600160a01b0316610f685760405162461bcd60e51b815260206004820152602c60248201527f4552433732313a206f70657261746f7220717565727920666f72206e6f6e657860448201526b34b9ba32b73a103a37b5b2b760a11b606482015260840161049c565b6000610f738361076e565b9050806001600160a01b0316846001600160a01b03161480610fae5750836001600160a01b0316610fa384610427565b6001600160a01b0316145b80610fde57506001600160a01b0380821660009081526005602090815260408083209388168352929052205460ff165b949350505050565b826001600160a01b0316610ff98261076e565b6001600160a01b03161461105d5760405162461bcd60e51b815260206004820152602560248201527f4552433732313a207472616e736665722066726f6d20696e636f72726563742060448201526437bbb732b960d91b606482015260840161049c565b6001600160a01b0382166110bf5760405162461bcd60e51b8152602060048201526024808201527f4552433732313a207472616e7366657220746f20746865207a65726f206164646044820152637265737360e01b606482015260840161049c565b6110ca8383836114db565b6110d5600082610e81565b6001600160a01b03831660009081526003602052604081208054600192906110fe908490611d2c565b90915550506001600160a01b038216600090815260036020526040812080546001929061112c908490611d8f565b909155505060008181526002602052604080822080546001600160a01b0319166001600160a01b0386811691821790925591518493918716917fddf252ad1be2c89b69c2b068fc378daa952ba7f163c4a11628f55a4df523b3ef91a4505050565b6001600160a01b0382166111e35760405162461bcd60e51b815260206004820181905260248201527f4552433732313a206d696e7420746f20746865207a65726f2061646472657373604482015260640161049c565b6000818152600260205260409020546001600160a01b0316156112485760405162461bcd60e51b815260206004820152601c60248201527f4552433732313a20746f6b656e20616c7265616479206d696e74656400000000604482015260640161049c565b611254600083836114db565b6001600160a01b038216600090815260036020526040812080546001929061127d908490611d8f565b909155505060008181526002602052604080822080546001600160a01b0319166001600160a01b03861690811790915590518392907fddf252ad1be2c89b69c2b068fc378daa952ba7f163c4a11628f55a4df523b3ef908290a45050565b816001600160a01b0316836001600160a01b0316141561133d5760405162461bcd60e51b815260206004820152601960248201527f4552433732313a20617070726f766520746f2063616c6c657200000000000000604482015260640161049c565b6001600160a01b03838116600081815260056020908152604080832094871680845294825291829020805460ff191686151590811790915591519182527f17307eab39ab6107e8899845ad3d59bd9653f200f220920489ca2b5937696c31910160405180910390a3505050565b6113b5848484610fe6565b6113c184848484611593565b610bb35760405162461bcd60e51b815260040161049c90611da7565b6060816114015750506040805180820190915260018152600360fc1b602082015290565b8160005b811561142b578061141581611d11565b91506114249050600a83611e0f565b9150611405565b60008167ffffffffffffffff81111561144657611446611a08565b6040519080825280601f01601f191660200182016040528015611470576020820181803683370190505b5090505b8415610fde57611485600183611d2c565b9150611492600a86611e23565b61149d906030611d8f565b60f81b8183815181106114b2576114b2611ce5565b60200101906001600160f81b031916908160001a9053506114d4600a86611e0f565b9450611474565b6001600160a01b0383166115365761153181600880546000838152600960205260408120829055600182018355919091527ff3f7a9fe364faab93b216da50a3214154f22a0a2b415b23a84c8169e8b636ee30155565b611559565b816001600160a01b0316836001600160a01b031614611559576115598382611686565b6001600160a01b038216611570576105d281611723565b826001600160a01b0316826001600160a01b0316146105d2576105d282826117d2565b60006001600160a01b0384163b15610b6b57604051630a85bd0160e11b81526001600160a01b0385169063150b7a02906115d7903390899088908890600401611e37565b6020604051808303816000875af1925050508015611612575060408051601f3d908101601f1916820190925261160f91810190611e74565b60015b61166c573d808015611640576040519150601f19603f3d011682016040523d82523d6000602084013e611645565b606091505b5080516116645760405162461bcd60e51b815260040161049c90611da7565b805181602001fd5b6001600160e01b031916630a85bd0160e11b149050610fde565b60006001611693846107e5565b61169d9190611d2c565b6000838152600760205260409020549091508082146116f0576001600160a01b03841660009081526006602090815260408083208584528252808320548484528184208190558352600790915290208190555b5060009182526007602090815260408084208490556001600160a01b039094168352600681528383209183525290812055565b60085460009061173590600190611d2c565b6000838152600960205260408120546008805493945090928490811061175d5761175d611ce5565b90600052602060002001549050806008838154811061177e5761177e611ce5565b60009182526020808320909101929092558281526009909152604080822084905585825281205560088054806117b6576117b6611e91565b6001900381819060005260206000200160009055905550505050565b60006117dd836107e5565b6001600160a01b039093166000908152600660209081526040808320868452825280832085905593825260079052919091209190915550565b82805461182290611c59565b90600052602060002090601f016020900481019282611844576000855561188a565b82601f1061185d57805160ff191683800117855561188a565b8280016001018555821561188a579182015b8281111561188a57825182559160200191906001019061186f565b5061189692915061189a565b5090565b5b80821115611896576000815560010161189b565b6001600160e01b0319811681146118c557600080fd5b50565b6000602082840312156118da57600080fd5b8135610614816118af565b60005b838110156119005781810151838201526020016118e8565b83811115610bb35750506000910152565b600081518084526119298160208601602086016118e5565b601f01601f19169290920160200192915050565b6020815260006106146020830184611911565b60006020828403121561196257600080fd5b5035919050565b6001600160a01b03811681146118c557600080fd5b6000806040838503121561199157600080fd5b823561199c81611969565b946020939093013593505050565b6000806000606084860312156119bf57600080fd5b83356119ca81611969565b925060208401356119da81611969565b929592945050506040919091013590565b6000602082840312156119fd57600080fd5b813561061481611969565b634e487b7160e01b600052604160045260246000fd5b600067ffffffffffffffff80841115611a3957611a39611a08565b604051601f8501601f19908116603f01168101908282118183101715611a6157611a61611a08565b81604052809350858152868686011115611a7a57600080fd5b858560208301376000602087830101525050509392505050565b600082601f830112611aa557600080fd5b61061483833560208501611a1e565b60008060408385031215611ac757600080fd5b823567ffffffffffffffff811115611ade57600080fd5b611aea85828601611a94565b9250506020830135611afb81611969565b809150509250929050565b600060208284031215611b1857600080fd5b813567ffffffffffffffff811115611b2f57600080fd5b610fde84828501611a94565b60008060408385031215611b4e57600080fd5b8235611b5981611969565b915060208301358015158114611afb57600080fd5b60008060008060808587031215611b8457600080fd5b8435611b8f81611969565b93506020850135611b9f81611969565b925060408501359150606085013567ffffffffffffffff811115611bc257600080fd5b8501601f81018713611bd357600080fd5b611be287823560208401611a1e565b91505092959194509250565b60008060408385031215611c0157600080fd5b8235611c0c81611969565b91506020830135611afb81611969565b602081526000825160406020840152611c386060840182611911565b602094909401516001600160a01b0316604093909301929092525090919050565b600181811c90821680611c6d57607f821691505b60208210811415611c8e57634e487b7160e01b600052602260045260246000fd5b50919050565b60208082526031908201527f4552433732313a207472616e736665722063616c6c6572206973206e6f74206f6040820152701ddb995c881b9bdc88185c1c1c9bdd9959607a1b606082015260800190565b634e487b7160e01b600052603260045260246000fd5b634e487b7160e01b600052601160045260246000fd5b6000600019821415611d2557611d25611cfb565b5060010190565b600082821015611d3e57611d3e611cfb565b500390565b600060208284031215611d5557600080fd5b815161061481611969565b60008351611d728184602088016118e5565b835190830190611d868183602088016118e5565b01949350505050565b60008219821115611da257611da2611cfb565b500190565b60208082526032908201527f4552433732313a207472616e7366657220746f206e6f6e20455243373231526560408201527131b2b4bb32b91034b6b83632b6b2b73a32b960711b606082015260800190565b634e487b7160e01b600052601260045260246000fd5b600082611e1e57611e1e611df9565b500490565b600082611e3257611e32611df9565b500690565b6001600160a01b0385811682528416602082015260408101839052608060608201819052600090611e6a90830184611911565b9695505050505050565b600060208284031215611e8657600080fd5b8151610614816118af565b634e487b7160e01b600052603160045260246000fdfea2646970667358221220937c41963428335e273b64fc5f96067662a5f658c2cce53be780d4e5209ad15264736f6c634300080a0033",
    "linkReferences": {}
  }
}