{
  "abi": [
    {
      "inputs": [
        {
          "internalType": "contract ISanctis",
          "name": "_sanctis",
          "type": "address"
        }
      ],
      "stateMutability": "nonpayable",
      "type": "constructor"
    },
    {
      "inputs": [
        {
          "internalType": "contract ISanctis",
          "name": "newSanctis",
          "type": "address"
        }
      ],
      "name": "changeSanctis",
      "outputs": [],
      "stateMutability": "nonpayable",
      "type": "function"
    },
    {
      "inputs": [],
      "name": "s_sanctis",
      "outputs": [
        {
          "internalType": "contract ISanctis",
          "name": "",
          "type": "address"
        }
      ],
      "stateMutability": "view",
      "type": "function"
    },
    {
      "inputs": [],
      "name": "sanctis",
      "outputs": [
        {
          "internalType": "contract ISanctis",
          "name": "",
          "type": "address"
        }
      ],
      "stateMutability": "view",
      "type": "function"
    }
  ],
  "bytecode": {
    "object": "0x608060405234801561001057600080fd5b5060405161046538038061046583398101604081905261002f91610054565b600080546001600160a01b0319166001600160a01b0392909216919091179055610084565b60006020828403121561006657600080fd5b81516001600160a01b038116811461007d57600080fd5b9392505050565b6103d2806100936000396000f3fe608060405234801561001057600080fd5b50600436106100415760003560e01c80635087883f146100465780639797efda14610077578063bf206e4514610097575b600080fd5b61004e6100ac565b60405173ffffffffffffffffffffffffffffffffffffffff909116815260200160405180910390f35b60005461004e9073ffffffffffffffffffffffffffffffffffffffff1681565b6100aa6100a536600461035b565b6101df565b005b60008054604080517f475853040000000000000000000000000000000000000000000000000000000081529051339273ffffffffffffffffffffffffffffffffffffffff169163475853049160048083019260209291908290030181865afa15801561011c573d6000803e3d6000fd5b505050506040513d601f19601f82011682018060405250810190610140919061037f565b73ffffffffffffffffffffffffffffffffffffffff16146101c2576040517f08c379a000000000000000000000000000000000000000000000000000000000815260206004820152601060248201527f4d6f64756c653a204578656375746f720000000000000000000000000000000060448201526064015b60405180910390fd5b5060005473ffffffffffffffffffffffffffffffffffffffff1690565b600054604080517f475853040000000000000000000000000000000000000000000000000000000081529051339273ffffffffffffffffffffffffffffffffffffffff169163475853049160048083019260209291908290030181865afa15801561024e573d6000803e3d6000fd5b505050506040513d601f19601f82011682018060405250810190610272919061037f565b73ffffffffffffffffffffffffffffffffffffffff16146102ef576040517f08c379a000000000000000000000000000000000000000000000000000000000815260206004820152601060248201527f4d6f64756c653a204578656375746f720000000000000000000000000000000060448201526064016101b9565b600080547fffffffffffffffffffffffff00000000000000000000000000000000000000001673ffffffffffffffffffffffffffffffffffffffff92909216919091179055565b73ffffffffffffffffffffffffffffffffffffffff8116811461035857600080fd5b50565b60006020828403121561036d57600080fd5b813561037881610336565b9392505050565b60006020828403121561039157600080fd5b81516103788161033656fea264697066735822122054cb4dae19fa521d673a41ae30cf55ff64182ca4d558b553e6da0366d3d5624464736f6c634300080a0033",
    "linkReferences": {}
  }
}