{
  "abi": [
    {
      "inputs": [
        {
          "internalType": "contract ISanctis",
          "name": "_sanctis",
          "type": "address"
        }
      ],
      "stateMutability": "nonpayable",
      "type": "constructor"
    },
    {
      "inputs": [
        {
          "internalType": "address",
          "name": "sender",
          "type": "address"
        }
      ],
      "name": "NotAllowed",
      "type": "error"
    },
    {
      "inputs": [
        {
          "internalType": "address",
          "name": "sender",
          "type": "address"
        }
      ],
      "name": "NotTheExecutor",
      "type": "error"
    },
    {
      "inputs": [
        {
          "internalType": "address",
          "name": "sender",
          "type": "address"
        }
      ],
      "name": "NotTheSanctis",
      "type": "error"
    },
    {
      "inputs": [
        {
          "internalType": "contract ISanctis",
          "name": "newSanctis",
          "type": "address"
        }
      ],
      "name": "changeSanctis",
      "outputs": [],
      "stateMutability": "nonpayable",
      "type": "function"
    },
    {
      "inputs": [],
      "name": "s_sanctis",
      "outputs": [
        {
          "internalType": "contract ISanctis",
          "name": "",
          "type": "address"
        }
      ],
      "stateMutability": "view",
      "type": "function"
    },
    {
      "inputs": [],
      "name": "sanctis",
      "outputs": [
        {
          "internalType": "contract ISanctis",
          "name": "",
          "type": "address"
        }
      ],
      "stateMutability": "view",
      "type": "function"
    }
  ],
  "bytecode": {
    "object": "0x608060405234801561001057600080fd5b5060405161040938038061040983398101604081905261002f91610054565b600080546001600160a01b0319166001600160a01b0392909216919091179055610084565b60006020828403121561006657600080fd5b81516001600160a01b038116811461007d57600080fd5b9392505050565b610376806100936000396000f3fe608060405234801561001057600080fd5b50600436106100415760003560e01c80635087883f146100465780639797efda14610077578063bf206e4514610097575b600080fd5b61004e6100ac565b60405173ffffffffffffffffffffffffffffffffffffffff909116815260200160405180910390f35b60005461004e9073ffffffffffffffffffffffffffffffffffffffff1681565b6100aa6100a53660046102ff565b6101b1565b005b60008054604080517f475853040000000000000000000000000000000000000000000000000000000081529051339273ffffffffffffffffffffffffffffffffffffffff169163475853049160048083019260209291908290030181865afa15801561011c573d6000803e3d6000fd5b505050506040513d601f19601f820116820180604052508101906101409190610323565b73ffffffffffffffffffffffffffffffffffffffff1614610194576040517f968c45d90000000000000000000000000000000000000000000000000000000081523360048201526024015b60405180910390fd5b5060005473ffffffffffffffffffffffffffffffffffffffff1690565b600054604080517f475853040000000000000000000000000000000000000000000000000000000081529051339273ffffffffffffffffffffffffffffffffffffffff169163475853049160048083019260209291908290030181865afa158015610220573d6000803e3d6000fd5b505050506040513d601f19601f820116820180604052508101906102449190610323565b73ffffffffffffffffffffffffffffffffffffffff1614610293576040517f968c45d900000000000000000000000000000000000000000000000000000000815233600482015260240161018b565b600080547fffffffffffffffffffffffff00000000000000000000000000000000000000001673ffffffffffffffffffffffffffffffffffffffff92909216919091179055565b73ffffffffffffffffffffffffffffffffffffffff811681146102fc57600080fd5b50565b60006020828403121561031157600080fd5b813561031c816102da565b9392505050565b60006020828403121561033557600080fd5b815161031c816102da56fea2646970667358221220cc068e349207aaa88ab32595f55460a4d968df69642beac9b8d08fac4c59851264736f6c634300080a0033",
    "linkReferences": {}
  }
}