{
  "abi": [
    {
      "inputs": [
        {
          "internalType": "contract ISanctis",
          "name": "sanctis",
          "type": "address"
        },
        {
          "internalType": "contract IResource",
          "name": "_energy",
          "type": "address"
        },
        {
          "internalType": "uint256",
          "name": "rewardsBase",
          "type": "uint256"
        },
        {
          "internalType": "uint256",
          "name": "rewardsRates",
          "type": "uint256"
        },
        {
          "internalType": "uint256",
          "name": "delay",
          "type": "uint256"
        },
        {
          "internalType": "contract IResource[]",
          "name": "costsResources",
          "type": "address[]"
        },
        {
          "internalType": "uint256[]",
          "name": "costsBase",
          "type": "uint256[]"
        },
        {
          "internalType": "uint256[]",
          "name": "costsRates",
          "type": "uint256[]"
        }
      ],
      "stateMutability": "nonpayable",
      "type": "constructor"
    },
    {
      "inputs": [
        {
          "internalType": "address",
          "name": "infrastructure",
          "type": "address"
        },
        {
          "internalType": "uint256",
          "name": "planetId",
          "type": "uint256"
        }
      ],
      "name": "InfrastructureDoesNotExist",
      "type": "error"
    },
    {
      "inputs": [
        {
          "internalType": "address",
          "name": "sender",
          "type": "address"
        }
      ],
      "name": "NotAllowed",
      "type": "error"
    },
    {
      "inputs": [
        {
          "internalType": "uint256",
          "name": "planetId",
          "type": "uint256"
        },
        {
          "internalType": "contract IResource",
          "name": "resource",
          "type": "address"
        }
      ],
      "name": "NotEnoughResource",
      "type": "error"
    },
    {
      "inputs": [
        {
          "internalType": "address",
          "name": "sender",
          "type": "address"
        }
      ],
      "name": "NotTheExecutor",
      "type": "error"
    },
    {
      "inputs": [
        {
          "internalType": "address",
          "name": "sender",
          "type": "address"
        }
      ],
      "name": "NotTheSanctis",
      "type": "error"
    },
    {
      "inputs": [
        {
          "internalType": "uint256",
          "name": "planetId",
          "type": "uint256"
        }
      ],
      "name": "PlanetNotOwned",
      "type": "error"
    },
    {
      "inputs": [
        {
          "internalType": "uint256",
          "name": "planetId",
          "type": "uint256"
        },
        {
          "internalType": "contract IResource",
          "name": "resource",
          "type": "address"
        }
      ],
      "name": "ResourceNotOnPlanet",
      "type": "error"
    },
    {
      "inputs": [
        {
          "internalType": "uint256",
          "name": "planetId",
          "type": "uint256"
        },
        {
          "internalType": "uint256",
          "name": "soonestUpgrade",
          "type": "uint256"
        }
      ],
      "name": "TooSoonToUpgrade",
      "type": "error"
    },
    {
      "inputs": [
        {
          "internalType": "contract ISanctis",
          "name": "newSanctis",
          "type": "address"
        }
      ],
      "name": "changeSanctis",
      "outputs": [],
      "stateMutability": "nonpayable",
      "type": "function"
    },
    {
      "inputs": [
        {
          "internalType": "uint256",
          "name": "planetId",
          "type": "uint256"
        }
      ],
      "name": "costs",
      "outputs": [
        {
          "internalType": "contract IResource[]",
          "name": "",
          "type": "address[]"
        },
        {
          "internalType": "uint256[]",
          "name": "",
          "type": "uint256[]"
        }
      ],
      "stateMutability": "view",
      "type": "function"
    },
    {
      "inputs": [
        {
          "internalType": "uint256",
          "name": "planetId",
          "type": "uint256"
        }
      ],
      "name": "create",
      "outputs": [],
      "stateMutability": "nonpayable",
      "type": "function"
    },
    {
      "inputs": [
        {
          "internalType": "uint256",
          "name": "planetId",
          "type": "uint256"
        }
      ],
      "name": "currentProduction",
      "outputs": [
        {
          "internalType": "uint256",
          "name": "",
          "type": "uint256"
        }
      ],
      "stateMutability": "view",
      "type": "function"
    },
    {
      "inputs": [],
      "name": "energy",
      "outputs": [
        {
          "internalType": "contract IResource",
          "name": "",
          "type": "address"
        }
      ],
      "stateMutability": "view",
      "type": "function"
    },
    {
      "inputs": [
        {
          "internalType": "uint256",
          "name": "planetId",
          "type": "uint256"
        }
      ],
      "name": "level",
      "outputs": [
        {
          "internalType": "uint256",
          "name": "",
          "type": "uint256"
        }
      ],
      "stateMutability": "view",
      "type": "function"
    },
    {
      "inputs": [
        {
          "internalType": "uint256",
          "name": "planetId",
          "type": "uint256"
        }
      ],
      "name": "nextProduction",
      "outputs": [
        {
          "internalType": "uint256",
          "name": "",
          "type": "uint256"
        }
      ],
      "stateMutability": "view",
      "type": "function"
    },
    {
      "inputs": [
        {
          "internalType": "uint256",
          "name": "planetId",
          "type": "uint256"
        }
      ],
      "name": "nextUpgrade",
      "outputs": [
        {
          "internalType": "uint256",
          "name": "",
          "type": "uint256"
        }
      ],
      "stateMutability": "view",
      "type": "function"
    },
    {
      "inputs": [],
      "name": "s_sanctis",
      "outputs": [
        {
          "internalType": "contract ISanctis",
          "name": "",
          "type": "address"
        }
      ],
      "stateMutability": "view",
      "type": "function"
    },
    {
      "inputs": [],
      "name": "sanctis",
      "outputs": [
        {
          "internalType": "contract ISanctis",
          "name": "",
          "type": "address"
        }
      ],
      "stateMutability": "view",
      "type": "function"
    },
    {
      "inputs": [
        {
          "internalType": "uint256",
          "name": "planetId",
          "type": "uint256"
        }
      ],
      "name": "upgrade",
      "outputs": [],
      "stateMutability": "nonpayable",
      "type": "function"
    }
  ],
  "bytecode": {
    "object": "0x60806040523480156200001157600080fd5b50604051620015d0380380620015d08339810160408190526200003491620002f6565b600080546001600160a01b0319166001600160a01b038a161781556002859055889085908590859085905b825181101562000140576003848281518110620000805762000080620003cc565b60209081029190910181015182546001810184556000938452919092200180546001600160a01b0319166001600160a01b039092169190911790558251600490849083908110620000d557620000d5620003cc565b6020908102919091018101518254600181018455600093845291909220015581516005908390839081106200010e576200010e620003cc565b602090810291909101810151825460018101845560009384529190922001556200013881620003e2565b90506200005f565b5050600680546001600160a01b0319166001600160a01b039c909c169b909b17909a55505050600795909555505050600855506200040c915050565b6001600160a01b03811681146200019257600080fd5b50565b8051620001a2816200017c565b919050565b634e487b7160e01b600052604160045260246000fd5b604051601f8201601f191681016001600160401b0381118282101715620001e857620001e8620001a7565b604052919050565b60006001600160401b038211156200020c576200020c620001a7565b5060051b60200190565b600082601f8301126200022857600080fd5b81516020620002416200023b83620001f0565b620001bd565b82815260059290921b840181019181810190868411156200026157600080fd5b8286015b84811015620002895780516200027b816200017c565b835291830191830162000265565b509695505050505050565b600082601f830112620002a657600080fd5b81516020620002b96200023b83620001f0565b82815260059290921b84018101918181019086841115620002d957600080fd5b8286015b84811015620002895780518352918301918301620002dd565b600080600080600080600080610100898b0312156200031457600080fd5b6200031f8962000195565b97506200032f60208a0162000195565b60408a015160608b015160808c015160a08d0151939a50919850965094506001600160401b03808211156200036357600080fd5b620003718c838d0162000216565b945060c08b01519150808211156200038857600080fd5b620003968c838d0162000294565b935060e08b0151915080821115620003ad57600080fd5b50620003bc8b828c0162000294565b9150509295985092959890939650565b634e487b7160e01b600052603260045260246000fd5b60006000198214156200040557634e487b7160e01b600052601160045260246000fd5b5060010190565b6111b4806200041c6000396000f3fe608060405234801561001057600080fd5b50600436106100c95760003560e01c80639797efda11610081578063d024b1621161005b578063d024b162146101c8578063e8b78615146101db578063f8cd1426146101ee57600080fd5b80639797efda14610177578063aa84924414610197578063bf206e45146101b557600080fd5b806349b3b29f116100b257806349b3b29f146101165780635087883f14610137578063780900dc1461016457600080fd5b806305c58df2146100ce57806345977d0314610101575b600080fd5b6100ee6100dc366004610e2a565b60009081526001602052604090205490565b6040519081526020015b60405180910390f35b61011461010f366004610e2a565b610201565b005b610129610124366004610e2a565b61036b565b6040516100f8929190610e43565b61013f6103f9565b60405173ffffffffffffffffffffffffffffffffffffffff90911681526020016100f8565b610114610172366004610e2a565b6104fe565b60005461013f9073ffffffffffffffffffffffffffffffffffffffff1681565b60065473ffffffffffffffffffffffffffffffffffffffff1661013f565b6101146101c3366004610ef6565b6106f0565b6100ee6101d6366004610e2a565b610819565b6100ee6101e9366004610e2a565b610837565b6100ee6101fc366004610e2a565b61085a565b61020b3382610865565b61021481610b1f565b61021d81610b70565b61022681610bc1565b60008181526001602052604081205461023e90610c54565b9050600180600084815260200190815260200160002060000160008282546102669190610f49565b909155505060008281526001602081905260408220439101555b8151811015610366576003818154811061029c5761029c610f61565b9060005260206000200160009054906101000a900473ffffffffffffffffffffffffffffffffffffffff1673ffffffffffffffffffffffffffffffffffffffff1663b390c0ab848484815181106102f5576102f5610f61565b60200260200101516040518363ffffffff1660e01b8152600401610323929190918252602082015260400190565b600060405180830381600087803b15801561033d57600080fd5b505af1158015610351573d6000803e3d6000fd5b505050508061035f90610f90565b9050610280565b505050565b600081815260016020526040902054606090819060039061038b90610c54565b8154604080516020808402820181019092528281529184918301828280156103e957602002820191906000526020600020905b815473ffffffffffffffffffffffffffffffffffffffff1681526001909101906020018083116103be575b5050505050915091509150915091565b60008054604080517f475853040000000000000000000000000000000000000000000000000000000081529051339273ffffffffffffffffffffffffffffffffffffffff169163475853049160048083019260209291908290030181865afa158015610469573d6000803e3d6000fd5b505050506040513d601f19601f8201168201806040525081019061048d9190610fc9565b73ffffffffffffffffffffffffffffffffffffffff16146104e1576040517f968c45d90000000000000000000000000000000000000000000000000000000081523360048201526024015b60405180910390fd5b5060005473ffffffffffffffffffffffffffffffffffffffff1690565b60008181526001602052604090205415610574576040517f08c379a000000000000000000000000000000000000000000000000000000000815260206004820152600e60248201527f416c72656164792065786973747300000000000000000000000000000000000060448201526064016104d8565b61057e3382610865565b61058781610d72565b6040805180820182526001808252436020808401918252600086815283825285812094518555915193909201929092556004805484518184028101840190955280855292939290918301828280156105fe57602002820191906000526020600020905b8154815260200190600101908083116105ea575b5050505050905060005b8151811015610366576003818154811061062457610624610f61565b9060005260206000200160009054906101000a900473ffffffffffffffffffffffffffffffffffffffff1673ffffffffffffffffffffffffffffffffffffffff1663b390c0ab8484848151811061067d5761067d610f61565b60200260200101516040518363ffffffff1660e01b81526004016106ab929190918252602082015260400190565b600060405180830381600087803b1580156106c557600080fd5b505af11580156106d9573d6000803e3d6000fd5b5050505080806106e890610f90565b915050610608565b600054604080517f475853040000000000000000000000000000000000000000000000000000000081529051339273ffffffffffffffffffffffffffffffffffffffff169163475853049160048083019260209291908290030181865afa15801561075f573d6000803e3d6000fd5b505050506040513d601f19601f820116820180604052508101906107839190610fc9565b73ffffffffffffffffffffffffffffffffffffffff16146107d2576040517f968c45d90000000000000000000000000000000000000000000000000000000081523360048201526024016104d8565b600080547fffffffffffffffffffffffff00000000000000000000000000000000000000001673ffffffffffffffffffffffffffffffffffffffff92909216919091179055565b60008181526001602052604081205461083190610dd4565b92915050565b60008181526001602081905260408220546108319161085591610fe6565b610dd4565b600061083182610df1565b6000546040517f8a5cde0a0000000000000000000000000000000000000000000000000000000081527f434f4d4d414e4445525300000000000000000000000000000000000000000000600482015273ffffffffffffffffffffffffffffffffffffffff90911690638a5cde0a90602401602060405180830381865afa1580156108f3573d6000803e3d6000fd5b505050506040513d601f19601f820116820180604052508101906109179190610fc9565b6000546040517f8a5cde0a0000000000000000000000000000000000000000000000000000000081527f504c414e45545300000000000000000000000000000000000000000000000000600482015273ffffffffffffffffffffffffffffffffffffffff92831692632a16cca4928692911690638a5cde0a90602401602060405180830381865afa1580156109b0573d6000803e3d6000fd5b505050506040513d601f19601f820116820180604052508101906109d49190610fc9565b73ffffffffffffffffffffffffffffffffffffffff1663181c1bc4856040518263ffffffff1660e01b8152600401610a0e91815260200190565b60c060405180830381865afa158015610a2b573d6000803e3d6000fd5b505050506040513d601f19601f82011682018060405250810190610a4f9190611025565b5160405160e084901b7fffffffff0000000000000000000000000000000000000000000000000000000016815273ffffffffffffffffffffffffffffffffffffffff90921660048301526024820152604401602060405180830381865afa158015610abe573d6000803e3d6000fd5b505050506040513d601f19601f82011682018060405250810190610ae291906110e4565b610b1b576040517f9ea83e56000000000000000000000000000000000000000000000000000000008152600481018290526024016104d8565b5050565b6000610b2a82610df1565b905080431015610b1b576040517fe051269900000000000000000000000000000000000000000000000000000000815260048101839052602481018290526044016104d8565b600081815260016020526040902054610bbe576040517f2a857f6c000000000000000000000000000000000000000000000000000000008152306004820152602481018290526044016104d8565b50565b6006546008546040517f1b2ef1ca00000000000000000000000000000000000000000000000000000000815260048101849052602481019190915273ffffffffffffffffffffffffffffffffffffffff90911690631b2ef1ca906044015b600060405180830381600087803b158015610c3957600080fd5b505af1158015610c4d573d6000803e3d6000fd5b5050505050565b606060006004805480602002602001604051908101604052809291908181526020018280548015610ca457602002820191906000526020600020905b815481526020019060010190808311610c90575b5050505050905060005b8151811015610d6b5760028460058381548110610ccd57610ccd610f61565b9060005260206000200154610ce29190611106565b610cec9190611143565b828281518110610cfe57610cfe610f61565b6020026020010151610d109190610f49565b610d1a9085611106565b828281518110610d2c57610d2c610f61565b6020026020010151610d3e9190610f49565b828281518110610d5057610d50610f61565b6020908102919091010152610d6481610f90565b9050610cae565b5092915050565b6006546007546040517f1b2ef1ca00000000000000000000000000000000000000000000000000000000815260048101849052602481019190915273ffffffffffffffffffffffffffffffffffffffff90911690631b2ef1ca90604401610c1f565b600060085482610de49190611106565b6007546108319190610f49565b600081815260016020526040812054600254610e0d9190611106565b600083815260016020819052604090912001546108319190610f49565b600060208284031215610e3c57600080fd5b5035919050565b604080825283519082018190526000906020906060840190828701845b82811015610e9257815173ffffffffffffffffffffffffffffffffffffffff1684529284019290840190600101610e60565b5050508381038285015284518082528583019183019060005b81811015610ec757835183529284019291840191600101610eab565b5090979650505050505050565b73ffffffffffffffffffffffffffffffffffffffff81168114610bbe57600080fd5b600060208284031215610f0857600080fd5b8135610f1381610ed4565b9392505050565b7f4e487b7100000000000000000000000000000000000000000000000000000000600052601160045260246000fd5b60008219821115610f5c57610f5c610f1a565b500190565b7f4e487b7100000000000000000000000000000000000000000000000000000000600052603260045260246000fd5b60007fffffffffffffffffffffffffffffffffffffffffffffffffffffffffffffffff821415610fc257610fc2610f1a565b5060010190565b600060208284031215610fdb57600080fd5b8151610f1381610ed4565b600082821015610ff857610ff8610f1a565b500390565b8051600981900b811461100f57600080fd5b919050565b805160ff8116811461100f57600080fd5b600060c0828403121561103757600080fd5b60405160c0810181811067ffffffffffffffff82111715611081577f4e487b7100000000000000000000000000000000000000000000000000000000600052604160045260246000fd5b6040528251815261109460208401610ffd565b60208201526110a560408401610ffd565b60408201526110b660608401610ffd565b60608201526110c760808401611014565b60808201526110d860a08401611014565b60a08201529392505050565b6000602082840312156110f657600080fd5b81518015158114610f1357600080fd5b6000817fffffffffffffffffffffffffffffffffffffffffffffffffffffffffffffffff048311821515161561113e5761113e610f1a565b500290565b600082611179577f4e487b7100000000000000000000000000000000000000000000000000000000600052601260045260246000fd5b50049056fea26469706673582212200c5c46346f5ef6c0363d7b8fbc9b0b49eccbc5aec2125520780b037daba7b32964736f6c634300080a0033",
    "linkReferences": {}
  }
}