{
  "abi": [
    {
      "inputs": [
        {
          "internalType": "contract ISanctis",
          "name": "sanctis",
          "type": "address"
        },
        {
          "internalType": "contract IResource",
          "name": "_energy",
          "type": "address"
        },
        {
          "internalType": "uint256",
          "name": "rewardsBase",
          "type": "uint256"
        },
        {
          "internalType": "uint256",
          "name": "rewardsRates",
          "type": "uint256"
        },
        {
          "internalType": "uint256",
          "name": "delay",
          "type": "uint256"
        },
        {
          "internalType": "contract IResource[]",
          "name": "costsResources",
          "type": "address[]"
        },
        {
          "internalType": "uint256[]",
          "name": "costsBase",
          "type": "uint256[]"
        },
        {
          "internalType": "uint256[]",
          "name": "costsRates",
          "type": "uint256[]"
        }
      ],
      "stateMutability": "nonpayable",
      "type": "constructor"
    },
    {
      "inputs": [
        {
          "internalType": "contract ISanctis",
          "name": "newSanctis",
          "type": "address"
        }
      ],
      "name": "changeSanctis",
      "outputs": [],
      "stateMutability": "nonpayable",
      "type": "function"
    },
    {
      "inputs": [
        {
          "internalType": "uint256",
          "name": "planetId",
          "type": "uint256"
        }
      ],
      "name": "costs",
      "outputs": [
        {
          "internalType": "contract IResource[]",
          "name": "",
          "type": "address[]"
        },
        {
          "internalType": "uint256[]",
          "name": "",
          "type": "uint256[]"
        }
      ],
      "stateMutability": "view",
      "type": "function"
    },
    {
      "inputs": [
        {
          "internalType": "uint256",
          "name": "planetId",
          "type": "uint256"
        }
      ],
      "name": "create",
      "outputs": [],
      "stateMutability": "nonpayable",
      "type": "function"
    },
    {
      "inputs": [
        {
          "internalType": "uint256",
          "name": "planetId",
          "type": "uint256"
        }
      ],
      "name": "currentProduction",
      "outputs": [
        {
          "internalType": "uint256",
          "name": "",
          "type": "uint256"
        }
      ],
      "stateMutability": "view",
      "type": "function"
    },
    {
      "inputs": [],
      "name": "energy",
      "outputs": [
        {
          "internalType": "contract IResource",
          "name": "",
          "type": "address"
        }
      ],
      "stateMutability": "view",
      "type": "function"
    },
    {
      "inputs": [
        {
          "internalType": "uint256",
          "name": "planetId",
          "type": "uint256"
        }
      ],
      "name": "level",
      "outputs": [
        {
          "internalType": "uint256",
          "name": "",
          "type": "uint256"
        }
      ],
      "stateMutability": "view",
      "type": "function"
    },
    {
      "inputs": [
        {
          "internalType": "uint256",
          "name": "planetId",
          "type": "uint256"
        }
      ],
      "name": "nextProduction",
      "outputs": [
        {
          "internalType": "uint256",
          "name": "",
          "type": "uint256"
        }
      ],
      "stateMutability": "view",
      "type": "function"
    },
    {
      "inputs": [
        {
          "internalType": "uint256",
          "name": "planetId",
          "type": "uint256"
        }
      ],
      "name": "nextUpgrade",
      "outputs": [
        {
          "internalType": "uint256",
          "name": "",
          "type": "uint256"
        }
      ],
      "stateMutability": "view",
      "type": "function"
    },
    {
      "inputs": [],
      "name": "s_sanctis",
      "outputs": [
        {
          "internalType": "contract ISanctis",
          "name": "",
          "type": "address"
        }
      ],
      "stateMutability": "view",
      "type": "function"
    },
    {
      "inputs": [],
      "name": "sanctis",
      "outputs": [
        {
          "internalType": "contract ISanctis",
          "name": "",
          "type": "address"
        }
      ],
      "stateMutability": "view",
      "type": "function"
    },
    {
      "inputs": [
        {
          "internalType": "uint256",
          "name": "planetId",
          "type": "uint256"
        }
      ],
      "name": "upgrade",
      "outputs": [],
      "stateMutability": "nonpayable",
      "type": "function"
    }
  ],
  "bytecode": {
    "object": "0x60806040523480156200001157600080fd5b5060405162001631380380620016318339810160408190526200003491620002f6565b600080546001600160a01b0319166001600160a01b038a161781556002859055889085908590859085905b825181101562000140576003848281518110620000805762000080620003cc565b60209081029190910181015182546001810184556000938452919092200180546001600160a01b0319166001600160a01b039092169190911790558251600490849083908110620000d557620000d5620003cc565b6020908102919091018101518254600181018455600093845291909220015581516005908390839081106200010e576200010e620003cc565b602090810291909101810151825460018101845560009384529190922001556200013881620003e2565b90506200005f565b5050600680546001600160a01b0319166001600160a01b039c909c169b909b17909a55505050600795909555505050600855506200040c915050565b6001600160a01b03811681146200019257600080fd5b50565b8051620001a2816200017c565b919050565b634e487b7160e01b600052604160045260246000fd5b604051601f8201601f191681016001600160401b0381118282101715620001e857620001e8620001a7565b604052919050565b60006001600160401b038211156200020c576200020c620001a7565b5060051b60200190565b600082601f8301126200022857600080fd5b81516020620002416200023b83620001f0565b620001bd565b82815260059290921b840181019181810190868411156200026157600080fd5b8286015b84811015620002895780516200027b816200017c565b835291830191830162000265565b509695505050505050565b600082601f830112620002a657600080fd5b81516020620002b96200023b83620001f0565b82815260059290921b84018101918181019086841115620002d957600080fd5b8286015b84811015620002895780518352918301918301620002dd565b600080600080600080600080610100898b0312156200031457600080fd5b6200031f8962000195565b97506200032f60208a0162000195565b60408a015160608b015160808c015160a08d0151939a50919850965094506001600160401b03808211156200036357600080fd5b620003718c838d0162000216565b945060c08b01519150808211156200038857600080fd5b620003968c838d0162000294565b935060e08b0151915080821115620003ad57600080fd5b50620003bc8b828c0162000294565b9150509295985092959890939650565b634e487b7160e01b600052603260045260246000fd5b60006000198214156200040557634e487b7160e01b600052601160045260246000fd5b5060010190565b611215806200041c6000396000f3fe608060405234801561001057600080fd5b50600436106100c95760003560e01c80639797efda11610081578063d024b1621161005b578063d024b162146101c8578063e8b78615146101db578063f8cd1426146101ee57600080fd5b80639797efda14610177578063aa84924414610197578063bf206e45146101b557600080fd5b806349b3b29f116100b257806349b3b29f146101165780635087883f14610137578063780900dc1461016457600080fd5b806305c58df2146100ce57806345977d0314610101575b600080fd5b6100ee6100dc366004610e8b565b60009081526001602052604090205490565b6040519081526020015b60405180910390f35b61011461010f366004610e8b565b610201565b005b610129610124366004610e8b565b610370565b6040516100f8929190610ea4565b61013f6103fe565b60405173ffffffffffffffffffffffffffffffffffffffff90911681526020016100f8565b610114610172366004610e8b565b610531565b60005461013f9073ffffffffffffffffffffffffffffffffffffffff1681565b60065473ffffffffffffffffffffffffffffffffffffffff1661013f565b6101146101c3366004610f57565b610723565b6100ee6101d6366004610e8b565b61087a565b6100ee6101e9366004610e8b565b610898565b6100ee6101fc366004610e8b565b6108bb565b61020b33826108c6565b61021481610bad565b610222816000526001602052565b61022b81610c22565b60008181526001602052604081205461024390610cb5565b90506001806000848152602001908152602001600020600001600082825461026b9190610faa565b909155505060008281526001602081905260408220439101555b815181101561036b57600381815481106102a1576102a1610fc2565b9060005260206000200160009054906101000a900473ffffffffffffffffffffffffffffffffffffffff1673ffffffffffffffffffffffffffffffffffffffff1663b390c0ab848484815181106102fa576102fa610fc2565b60200260200101516040518363ffffffff1660e01b8152600401610328929190918252602082015260400190565b600060405180830381600087803b15801561034257600080fd5b505af1158015610356573d6000803e3d6000fd5b505050508061036490610ff1565b9050610285565b505050565b600081815260016020526040902054606090819060039061039090610cb5565b8154604080516020808402820181019092528281529184918301828280156103ee57602002820191906000526020600020905b815473ffffffffffffffffffffffffffffffffffffffff1681526001909101906020018083116103c3575b5050505050915091509150915091565b60008054604080517f475853040000000000000000000000000000000000000000000000000000000081529051339273ffffffffffffffffffffffffffffffffffffffff169163475853049160048083019260209291908290030181865afa15801561046e573d6000803e3d6000fd5b505050506040513d601f19601f82011682018060405250810190610492919061102a565b73ffffffffffffffffffffffffffffffffffffffff1614610514576040517f08c379a000000000000000000000000000000000000000000000000000000000815260206004820152601060248201527f4d6f64756c653a204578656375746f720000000000000000000000000000000060448201526064015b60405180910390fd5b5060005473ffffffffffffffffffffffffffffffffffffffff1690565b600081815260016020526040902054156105a7576040517f08c379a000000000000000000000000000000000000000000000000000000000815260206004820152600e60248201527f416c726561647920657869737473000000000000000000000000000000000000604482015260640161050b565b6105b133826108c6565b6105ba81610dd3565b60408051808201825260018082524360208084019182526000868152838252858120945185559151939092019290925560048054845181840281018401909552808552929392909183018282801561063157602002820191906000526020600020905b81548152602001906001019080831161061d575b5050505050905060005b815181101561036b576003818154811061065757610657610fc2565b9060005260206000200160009054906101000a900473ffffffffffffffffffffffffffffffffffffffff1673ffffffffffffffffffffffffffffffffffffffff1663b390c0ab848484815181106106b0576106b0610fc2565b60200260200101516040518363ffffffff1660e01b81526004016106de929190918252602082015260400190565b600060405180830381600087803b1580156106f857600080fd5b505af115801561070c573d6000803e3d6000fd5b50505050808061071b90610ff1565b91505061063b565b600054604080517f475853040000000000000000000000000000000000000000000000000000000081529051339273ffffffffffffffffffffffffffffffffffffffff169163475853049160048083019260209291908290030181865afa158015610792573d6000803e3d6000fd5b505050506040513d601f19601f820116820180604052508101906107b6919061102a565b73ffffffffffffffffffffffffffffffffffffffff1614610833576040517f08c379a000000000000000000000000000000000000000000000000000000000815260206004820152601060248201527f4d6f64756c653a204578656375746f7200000000000000000000000000000000604482015260640161050b565b600080547fffffffffffffffffffffffff00000000000000000000000000000000000000001673ffffffffffffffffffffffffffffffffffffffff92909216919091179055565b60008181526001602052604081205461089290610e35565b92915050565b6000818152600160208190526040822054610892916108b691611047565b610e35565b600061089282610e52565b6000546040517f8a5cde0a0000000000000000000000000000000000000000000000000000000081527f434f4d4d414e4445525300000000000000000000000000000000000000000000600482015273ffffffffffffffffffffffffffffffffffffffff90911690638a5cde0a90602401602060405180830381865afa158015610954573d6000803e3d6000fd5b505050506040513d601f19601f82011682018060405250810190610978919061102a565b6000546040517f8a5cde0a0000000000000000000000000000000000000000000000000000000081527f504c414e45545300000000000000000000000000000000000000000000000000600482015273ffffffffffffffffffffffffffffffffffffffff92831692632a16cca4928692911690638a5cde0a90602401602060405180830381865afa158015610a11573d6000803e3d6000fd5b505050506040513d601f19601f82011682018060405250810190610a35919061102a565b73ffffffffffffffffffffffffffffffffffffffff1663181c1bc4856040518263ffffffff1660e01b8152600401610a6f91815260200190565b60c060405180830381865afa158015610a8c573d6000803e3d6000fd5b505050506040513d601f19601f82011682018060405250810190610ab09190611086565b5160405160e084901b7fffffffff0000000000000000000000000000000000000000000000000000000016815273ffffffffffffffffffffffffffffffffffffffff90921660048301526024820152604401602060405180830381865afa158015610b1f573d6000803e3d6000fd5b505050506040513d601f19601f82011682018060405250810190610b439190611145565b610ba9576040517f08c379a000000000000000000000000000000000000000000000000000000000815260206004820152601560248201527f496e6672617374727563747572653a204f776e65640000000000000000000000604482015260640161050b565b5050565b610bb681610e52565b431015610c1f576040517f08c379a000000000000000000000000000000000000000000000000000000000815260206004820152601860248201527f496e6672617374727563747572653a20546f6f20736f6f6e0000000000000000604482015260640161050b565b50565b6006546008546040517f1b2ef1ca00000000000000000000000000000000000000000000000000000000815260048101849052602481019190915273ffffffffffffffffffffffffffffffffffffffff90911690631b2ef1ca906044015b600060405180830381600087803b158015610c9a57600080fd5b505af1158015610cae573d6000803e3d6000fd5b5050505050565b606060006004805480602002602001604051908101604052809291908181526020018280548015610d0557602002820191906000526020600020905b815481526020019060010190808311610cf1575b5050505050905060005b8151811015610dcc5760028460058381548110610d2e57610d2e610fc2565b9060005260206000200154610d439190611167565b610d4d91906111a4565b828281518110610d5f57610d5f610fc2565b6020026020010151610d719190610faa565b610d7b9085611167565b828281518110610d8d57610d8d610fc2565b6020026020010151610d9f9190610faa565b828281518110610db157610db1610fc2565b6020908102919091010152610dc581610ff1565b9050610d0f565b5092915050565b6006546007546040517f1b2ef1ca00000000000000000000000000000000000000000000000000000000815260048101849052602481019190915273ffffffffffffffffffffffffffffffffffffffff90911690631b2ef1ca90604401610c80565b600060085482610e459190611167565b6007546108929190610faa565b600081815260016020526040812054600254610e6e9190611167565b600083815260016020819052604090912001546108929190610faa565b600060208284031215610e9d57600080fd5b5035919050565b604080825283519082018190526000906020906060840190828701845b82811015610ef357815173ffffffffffffffffffffffffffffffffffffffff1684529284019290840190600101610ec1565b5050508381038285015284518082528583019183019060005b81811015610f2857835183529284019291840191600101610f0c565b5090979650505050505050565b73ffffffffffffffffffffffffffffffffffffffff81168114610c1f57600080fd5b600060208284031215610f6957600080fd5b8135610f7481610f35565b9392505050565b7f4e487b7100000000000000000000000000000000000000000000000000000000600052601160045260246000fd5b60008219821115610fbd57610fbd610f7b565b500190565b7f4e487b7100000000000000000000000000000000000000000000000000000000600052603260045260246000fd5b60007fffffffffffffffffffffffffffffffffffffffffffffffffffffffffffffffff82141561102357611023610f7b565b5060010190565b60006020828403121561103c57600080fd5b8151610f7481610f35565b60008282101561105957611059610f7b565b500390565b8051600981900b811461107057600080fd5b919050565b805160ff8116811461107057600080fd5b600060c0828403121561109857600080fd5b60405160c0810181811067ffffffffffffffff821117156110e2577f4e487b7100000000000000000000000000000000000000000000000000000000600052604160045260246000fd5b604052825181526110f56020840161105e565b60208201526111066040840161105e565b60408201526111176060840161105e565b606082015261112860808401611075565b608082015261113960a08401611075565b60a08201529392505050565b60006020828403121561115757600080fd5b81518015158114610f7457600080fd5b6000817fffffffffffffffffffffffffffffffffffffffffffffffffffffffffffffffff048311821515161561119f5761119f610f7b565b500290565b6000826111da577f4e487b7100000000000000000000000000000000000000000000000000000000600052601260045260246000fd5b50049056fea2646970667358221220a49971bab05a8992e7a4b352d3f36fc6e2118c8b9c185bf9276a11383e6d77aa64736f6c634300080a0033",
    "linkReferences": {}
  }
}