{
  "abi": [
    {
      "inputs": [
        {
          "internalType": "contract ISanctis",
          "name": "sanctis",
          "type": "address"
        },
        {
          "internalType": "contract IResource",
          "name": "energy",
          "type": "address"
        },
        {
          "internalType": "uint256",
          "name": "rewardsBase",
          "type": "uint256"
        },
        {
          "internalType": "uint256",
          "name": "rewardsRates",
          "type": "uint256"
        },
        {
          "internalType": "uint256",
          "name": "delay",
          "type": "uint256"
        },
        {
          "internalType": "contract IResource[]",
          "name": "costsResources",
          "type": "address[]"
        },
        {
          "internalType": "uint256[]",
          "name": "costsBase",
          "type": "uint256[]"
        },
        {
          "internalType": "uint256[]",
          "name": "costsRates",
          "type": "uint256[]"
        }
      ],
      "stateMutability": "nonpayable",
      "type": "constructor"
    },
    {
      "inputs": [
        {
          "internalType": "address",
          "name": "infrastructure",
          "type": "address"
        },
        {
          "internalType": "uint256",
          "name": "planetId",
          "type": "uint256"
        }
      ],
      "name": "InfrastructureDoesNotExist",
      "type": "error"
    },
    {
      "inputs": [
        {
          "internalType": "address",
          "name": "sender",
          "type": "address"
        }
      ],
      "name": "NotAllowed",
      "type": "error"
    },
    {
      "inputs": [
        {
          "internalType": "uint256",
          "name": "planetId",
          "type": "uint256"
        },
        {
          "internalType": "contract IResource",
          "name": "resource",
          "type": "address"
        }
      ],
      "name": "NotEnoughResource",
      "type": "error"
    },
    {
      "inputs": [
        {
          "internalType": "address",
          "name": "sender",
          "type": "address"
        }
      ],
      "name": "NotTheExecutor",
      "type": "error"
    },
    {
      "inputs": [
        {
          "internalType": "address",
          "name": "sender",
          "type": "address"
        }
      ],
      "name": "NotTheSanctis",
      "type": "error"
    },
    {
      "inputs": [
        {
          "internalType": "uint256",
          "name": "planetId",
          "type": "uint256"
        }
      ],
      "name": "PlanetNotOwned",
      "type": "error"
    },
    {
      "inputs": [
        {
          "internalType": "uint256",
          "name": "planetId",
          "type": "uint256"
        },
        {
          "internalType": "contract IResource",
          "name": "resource",
          "type": "address"
        }
      ],
      "name": "ResourceNotOnPlanet",
      "type": "error"
    },
    {
      "inputs": [
        {
          "internalType": "uint256",
          "name": "planetId",
          "type": "uint256"
        },
        {
          "internalType": "uint256",
          "name": "soonestUpgrade",
          "type": "uint256"
        }
      ],
      "name": "TooSoonToUpgrade",
      "type": "error"
    },
    {
      "inputs": [
        {
          "internalType": "contract ISanctis",
          "name": "newSanctis",
          "type": "address"
        }
      ],
      "name": "changeSanctis",
      "outputs": [],
      "stateMutability": "nonpayable",
      "type": "function"
    },
    {
      "inputs": [
        {
          "internalType": "uint256",
          "name": "planetId",
          "type": "uint256"
        }
      ],
      "name": "costsNextLevel",
      "outputs": [
        {
          "internalType": "contract IResource[]",
          "name": "",
          "type": "address[]"
        },
        {
          "internalType": "uint256[]",
          "name": "",
          "type": "uint256[]"
        }
      ],
      "stateMutability": "view",
      "type": "function"
    },
    {
      "inputs": [
        {
          "internalType": "uint256",
          "name": "planetId",
          "type": "uint256"
        }
      ],
      "name": "create",
      "outputs": [],
      "stateMutability": "nonpayable",
      "type": "function"
    },
    {
      "inputs": [
        {
          "internalType": "uint256",
          "name": "planetId",
          "type": "uint256"
        }
      ],
      "name": "level",
      "outputs": [
        {
          "internalType": "uint256",
          "name": "",
          "type": "uint256"
        }
      ],
      "stateMutability": "view",
      "type": "function"
    },
    {
      "inputs": [
        {
          "internalType": "uint256",
          "name": "planetId",
          "type": "uint256"
        }
      ],
      "name": "powerPlant",
      "outputs": [
        {
          "components": [
            {
              "internalType": "uint256",
              "name": "level",
              "type": "uint256"
            },
            {
              "internalType": "contract IResource",
              "name": "energy",
              "type": "address"
            },
            {
              "internalType": "uint256",
              "name": "production",
              "type": "uint256"
            },
            {
              "internalType": "contract IResource[]",
              "name": "costsResources",
              "type": "address[]"
            },
            {
              "internalType": "uint256[]",
              "name": "nextCosts",
              "type": "uint256[]"
            },
            {
              "internalType": "uint256",
              "name": "nextUpgrade",
              "type": "uint256"
            }
          ],
          "internalType": "struct IPowerPlants.PowerPlant",
          "name": "",
          "type": "tuple"
        }
      ],
      "stateMutability": "view",
      "type": "function"
    },
    {
      "inputs": [],
      "name": "sanctis",
      "outputs": [
        {
          "internalType": "contract ISanctis",
          "name": "",
          "type": "address"
        }
      ],
      "stateMutability": "view",
      "type": "function"
    },
    {
      "inputs": [
        {
          "internalType": "uint256",
          "name": "planetId",
          "type": "uint256"
        }
      ],
      "name": "upgrade",
      "outputs": [],
      "stateMutability": "nonpayable",
      "type": "function"
    }
  ],
  "bytecode": {
    "object": "0x60806040523480156200001157600080fd5b50604051620015b3380380620015b38339810160408190526200003491620002f6565b600080546001600160a01b0319166001600160a01b038a161781556002859055889085908590859085905b825181101562000140576003848281518110620000805762000080620003cc565b60209081029190910181015182546001810184556000938452919092200180546001600160a01b0319166001600160a01b039092169190911790558251600490849083908110620000d557620000d5620003cc565b6020908102919091018101518254600181018455600093845291909220015581516005908390839081106200010e576200010e620003cc565b602090810291909101810151825460018101845560009384529190922001556200013881620003e2565b90506200005f565b5050600680546001600160a01b0319166001600160a01b039c909c169b909b17909a55505050600795909555505050600855506200040c915050565b6001600160a01b03811681146200019257600080fd5b50565b8051620001a2816200017c565b919050565b634e487b7160e01b600052604160045260246000fd5b604051601f8201601f191681016001600160401b0381118282101715620001e857620001e8620001a7565b604052919050565b60006001600160401b038211156200020c576200020c620001a7565b5060051b60200190565b600082601f8301126200022857600080fd5b81516020620002416200023b83620001f0565b620001bd565b82815260059290921b840181019181810190868411156200026157600080fd5b8286015b84811015620002895780516200027b816200017c565b835291830191830162000265565b509695505050505050565b600082601f830112620002a657600080fd5b81516020620002b96200023b83620001f0565b82815260059290921b84018101918181019086841115620002d957600080fd5b8286015b84811015620002895780518352918301918301620002dd565b600080600080600080600080610100898b0312156200031457600080fd5b6200031f8962000195565b97506200032f60208a0162000195565b60408a015160608b015160808c015160a08d0151939a50919850965094506001600160401b03808211156200036357600080fd5b620003718c838d0162000216565b945060c08b01519150808211156200038857600080fd5b620003968c838d0162000294565b935060e08b0151915080821115620003ad57600080fd5b50620003bc8b828c0162000294565b9150509295985092959890939650565b634e487b7160e01b600052603260045260246000fd5b60006000198214156200040557634e487b7160e01b600052601160045260246000fd5b5060010190565b611197806200041c6000396000f3fe608060405234801561001057600080fd5b506004361061007d5760003560e01c8063780900dc1161005b578063780900dc146100f55780637ffc0dc714610108578063bf206e4514610129578063f6afaa111461013c57600080fd5b806305c58df21461008257806345977d03146100b55780635087883f146100ca575b600080fd5b6100a2610090366004610cb6565b60009081526001602052604090205490565b6040519081526020015b60405180910390f35b6100c86100c3366004610cb6565b61015c565b005b6000546100dd906001600160a01b031681565b6040516001600160a01b0390911681526020016100ac565b6100c8610103366004610cb6565b6102c9565b61011b610116366004610cb6565b610437565b6040516100ac929190610d0a565b6100c8610137366004610d7f565b6104b8565b61014f61014a366004610cb6565b610575565b6040516100ac9190610da3565b61016633826106c5565b61016f816109f5565b61017881610a5b565b61018181610a93565b600081815260016020819052604082208054919290916101a2908490610e6b565b909155505060008181526001602081905260408220439101555b6004548110156102c557600381815481106101d9576101d9610e83565b60009182526020808320909101548483526001909152604090912054600580546001600160a01b039093169263b390c0ab92869290918690811061021f5761021f610e83565b90600052602060002001546102349190610e99565b6004858154811061024757610247610e83565b906000526020600020015461025c9190610e6b565b6040516001600160e01b031960e085901b16815260048101929092526024820152604401600060405180830381600087803b15801561029a57600080fd5b505af11580156102ae573d6000803e3d6000fd5b5050505080806102bd90610eb8565b9150506101bc565b5050565b6102d333826106c5565b6102dc816109f5565b6102e581610b1b565b6040805180820182526001808252600060208084018281528683528382528583209451855551939092019290925560048054845181840281018401909552808552929392909183018282801561035a57602002820191906000526020600020905b815481526020019060010190808311610346575b5050505050905060005b8151811015610432576003818154811061038057610380610e83565b9060005260206000200160009054906101000a90046001600160a01b03166001600160a01b031663b390c0ab848484815181106103bf576103bf610e83565b60200260200101516040518363ffffffff1660e01b81526004016103ed929190918252602082015260400190565b600060405180830381600087803b15801561040757600080fd5b505af115801561041b573d6000803e3d6000fd5b50505050808061042a90610eb8565b915050610364565b505050565b600081815260016020526040902054606090819060039061045790610b37565b8154604080516020808402820181019092528281529184918301828280156104a857602002820191906000526020600020905b81546001600160a01b0316815260019091019060200180831161048a575b5050505050915091509150915091565b600054604080516311d614c160e21b8152905133926001600160a01b03169163475853049160048083019260209291908290030181865afa158015610501573d6000803e3d6000fd5b505050506040513d601f19601f820116820180604052508101906105259190610ed3565b6001600160a01b0316146105535760405163968c45d960e01b81523360048201526024015b60405180910390fd5b600080546001600160a01b0319166001600160a01b0392909216919091179055565b6105b76040518060c001604052806000815260200160006001600160a01b03168152602001600081526020016060815260200160608152602001600081525090565b6040805160c081018252600084815260016020818152848320548085526006546001600160a01b031682860152928790525290918201906105f790610c93565b8152602001600380548060200260200160405190810160405280929190818152602001828054801561065257602002820191906000526020600020905b81546001600160a01b03168152600190910190602001808311610634575b5050505050815260200161067b6001600086815260200190815260200160002060000154610b37565b815260008481526001602090815260409091205460025491909201916106a091610fd4565b600085815260016020819052604090912001546106bd9190610e6b565b905292915050565b600054604080518082018252600a815269434f4d4d414e4445525360b01b60208201529051633fde36b160e11b81526001600160a01b0390921691637fbc6d629161071291600401610fe0565b602060405180830381865afa15801561072f573d6000803e3d6000fd5b505050506040513d601f19601f820116820180604052508101906107539190610ed3565b6000546040805180820182526007815266504c414e45545360c81b60208201529051633fde36b160e11b81526001600160a01b0393841693636352211e931691637fbc6d62916107a69190600401610fe0565b602060405180830381865afa1580156107c3573d6000803e3d6000fd5b505050506040513d601f19601f820116820180604052508101906107e79190610ed3565b6001600160a01b031663181c1bc4846040518263ffffffff1660e01b815260040161081491815260200190565b60c060405180830381865afa158015610831573d6000803e3d6000fd5b505050506040513d601f19601f820116820180604052508101906108559190611082565b602001516040518263ffffffff1660e01b815260040161087791815260200190565b602060405180830381865afa158015610894573d6000803e3d6000fd5b505050506040513d601f19601f820116820180604052508101906108b89190610ed3565b6001600160a01b0316826001600160a01b0316141580156109d45750600054604080518082018252600a815269434f4d4d414e4445525360b01b60208201529051633fde36b160e11b81526001600160a01b0390921691637fbc6d629161092191600401610fe0565b602060405180830381865afa15801561093e573d6000803e3d6000fd5b505050506040513d601f19601f820116820180604052508101906109629190610ed3565b60405163e985e9c560e01b81526001600160a01b038481166004830152306024830152919091169063e985e9c590604401602060405180830381865afa1580156109b0573d6000803e3d6000fd5b505050506040513d601f19601f820116820180604052508101906109d49190611128565b156102c557604051634f541f2b60e11b81526004810182905260240161054a565b600081815260016020526040812054600254610a119190610e99565b60008381526001602081905260409091200154610a2e9190610e6b565b9050804310156102c55760405163e051269960e01b8152600481018390526024810182905260440161054a565b600081815260016020526040902054610a9057604051630aa15fdb60e21b81523060048201526024810182905260440161054a565b50565b6006546000828152600160205260409020546001600160a01b0390911690631b2ef1ca908390610ac290610c93565b6040516001600160e01b031960e085901b16815260048101929092526024820152604401600060405180830381600087803b158015610b0057600080fd5b505af1158015610b14573d6000803e3d6000fd5b5050505050565b6006546001600160a01b0316631b2ef1ca82610ac26000610c93565b606060006004805480602002602001604051908101604052809291908181526020018280548015610b8757602002820191906000526020600020905b815481526020019060010190808311610b73575b50505050509050600083600014610bb057610bab610ba660018661114a565b610b37565b610bf5565b815167ffffffffffffffff811115610bca57610bca611035565b604051908082528060200260200182016040528015610bf3578160200160208202803683370190505b505b905060005b8251811015610c8a5781600081518110610c1657610c16610e83565b602002602001015160058281548110610c3157610c31610e83565b906000526020600020015486610c479190610e99565b610c519190610e6b565b838281518110610c6357610c63610e83565b60200260200101818151610c779190610e6b565b905250610c8381610eb8565b9050610bfa565b50909392505050565b600060085482610ca39190610e99565b600754610cb09190610e6b565b92915050565b600060208284031215610cc857600080fd5b5035919050565b600081518084526020808501945080840160005b83811015610cff57815187529582019590820190600101610ce3565b509495945050505050565b604080825283519082018190526000906020906060840190828701845b82811015610d4c5781516001600160a01b031684529284019290840190600101610d27565b50505083810382850152610d608186610ccf565b9695505050505050565b6001600160a01b0381168114610a9057600080fd5b600060208284031215610d9157600080fd5b8135610d9c81610d6a565b9392505050565b6020808252825182820152828101516001600160a01b031660408084019190915283015160608084019190915283015160c06080840152805160e084018190526000929182019083906101008601905b80831015610e1e5783516001600160a01b031682526020820191508484019350600183019250610df3565b506080870151868203601f190160a08801529350610e3c8185610ccf565b935050505060a084015160c08401528091505092915050565b634e487b7160e01b600052601160045260246000fd5b60008219821115610e7e57610e7e610e55565b500190565b634e487b7160e01b600052603260045260246000fd5b6000816000190483118215151615610eb357610eb3610e55565b500290565b6000600019821415610ecc57610ecc610e55565b5060010190565b600060208284031215610ee557600080fd5b8151610d9c81610d6a565b600181815b80851115610f2b578160001904821115610f1157610f11610e55565b80851615610f1e57918102915b93841c9390800290610ef5565b509250929050565b600082610f4257506001610cb0565b81610f4f57506000610cb0565b8160018114610f655760028114610f6f57610f8b565b6001915050610cb0565b60ff841115610f8057610f80610e55565b50506001821b610cb0565b5060208310610133831016604e8410600b8410161715610fae575081810a610cb0565b610fb88383610ef0565b8060001904821115610fcc57610fcc610e55565b029392505050565b6000610d9c8383610f33565b600060208083528351808285015260005b8181101561100d57858101830151858201604001528201610ff1565b8181111561101f576000604083870101525b50601f01601f1916929092016040019392505050565b634e487b7160e01b600052604160045260246000fd5b80516004811061105a57600080fd5b919050565b8051600981900b811461105a57600080fd5b805160ff8116811461105a57600080fd5b600060c0828403121561109457600080fd5b60405160c0810181811067ffffffffffffffff821117156110c557634e487b7160e01b600052604160045260246000fd5b6040526110d18361104b565b8152602083015160208201526110e96040840161105f565b60408201526110fa6060840161105f565b606082015261110b6080840161105f565b608082015261111c60a08401611071565b60a08201529392505050565b60006020828403121561113a57600080fd5b81518015158114610d9c57600080fd5b60008282101561115c5761115c610e55565b50039056fea264697066735822122048bd2a21769331fdd8a982a1bb3c0d8fbbe2bba9fc62233e2d1bbb1a9179bd4e64736f6c634300080a0033",
    "linkReferences": {}
  }
}