{
  "abi": [
    {
      "inputs": [
        {
          "internalType": "contract ISanctis",
          "name": "sanctis",
          "type": "address"
        },
        {
          "internalType": "uint256",
          "name": "delay",
          "type": "uint256"
        },
        {
          "internalType": "contract IResource[]",
          "name": "rewardsResources",
          "type": "address[]"
        },
        {
          "internalType": "uint256[]",
          "name": "rewardsBase",
          "type": "uint256[]"
        },
        {
          "internalType": "uint256[]",
          "name": "rewardsRates",
          "type": "uint256[]"
        },
        {
          "internalType": "contract IResource[]",
          "name": "costsResources",
          "type": "address[]"
        },
        {
          "internalType": "uint256[]",
          "name": "costsBase",
          "type": "uint256[]"
        },
        {
          "internalType": "uint256[]",
          "name": "costsRates",
          "type": "uint256[]"
        }
      ],
      "stateMutability": "nonpayable",
      "type": "constructor"
    },
    {
      "inputs": [
        {
          "internalType": "uint256",
          "name": "planetId",
          "type": "uint256"
        }
      ],
      "name": "ExtractorExistence",
      "type": "error"
    },
    {
      "inputs": [
        {
          "internalType": "address",
          "name": "infrastructure",
          "type": "address"
        },
        {
          "internalType": "uint256",
          "name": "planetId",
          "type": "uint256"
        }
      ],
      "name": "InfrastructureDoesNotExist",
      "type": "error"
    },
    {
      "inputs": [
        {
          "internalType": "address",
          "name": "sender",
          "type": "address"
        }
      ],
      "name": "NotAllowed",
      "type": "error"
    },
    {
      "inputs": [
        {
          "internalType": "uint256",
          "name": "planetId",
          "type": "uint256"
        },
        {
          "internalType": "contract IResource",
          "name": "resource",
          "type": "address"
        }
      ],
      "name": "NotEnoughResource",
      "type": "error"
    },
    {
      "inputs": [
        {
          "internalType": "address",
          "name": "sender",
          "type": "address"
        }
      ],
      "name": "NotTheExecutor",
      "type": "error"
    },
    {
      "inputs": [
        {
          "internalType": "address",
          "name": "sender",
          "type": "address"
        }
      ],
      "name": "NotTheSanctis",
      "type": "error"
    },
    {
      "inputs": [
        {
          "internalType": "uint256",
          "name": "planetId",
          "type": "uint256"
        }
      ],
      "name": "PlanetNotOwned",
      "type": "error"
    },
    {
      "inputs": [
        {
          "internalType": "uint256",
          "name": "planetId",
          "type": "uint256"
        },
        {
          "internalType": "contract IResource",
          "name": "resource",
          "type": "address"
        }
      ],
      "name": "ResourceNotOnPlanet",
      "type": "error"
    },
    {
      "inputs": [
        {
          "internalType": "uint256",
          "name": "planetId",
          "type": "uint256"
        },
        {
          "internalType": "uint256",
          "name": "soonestUpgrade",
          "type": "uint256"
        }
      ],
      "name": "TooSoonToUpgrade",
      "type": "error"
    },
    {
      "inputs": [
        {
          "internalType": "contract ISanctis",
          "name": "newSanctis",
          "type": "address"
        }
      ],
      "name": "changeSanctis",
      "outputs": [],
      "stateMutability": "nonpayable",
      "type": "function"
    },
    {
      "inputs": [
        {
          "internalType": "uint256",
          "name": "planetId",
          "type": "uint256"
        }
      ],
      "name": "costs",
      "outputs": [
        {
          "internalType": "contract IResource[]",
          "name": "",
          "type": "address[]"
        },
        {
          "internalType": "uint256[]",
          "name": "",
          "type": "uint256[]"
        }
      ],
      "stateMutability": "view",
      "type": "function"
    },
    {
      "inputs": [
        {
          "internalType": "uint256",
          "name": "planetId",
          "type": "uint256"
        }
      ],
      "name": "create",
      "outputs": [],
      "stateMutability": "nonpayable",
      "type": "function"
    },
    {
      "inputs": [
        {
          "internalType": "uint256",
          "name": "planetId",
          "type": "uint256"
        }
      ],
      "name": "currentProduction",
      "outputs": [
        {
          "internalType": "contract IResource[]",
          "name": "",
          "type": "address[]"
        },
        {
          "internalType": "uint256[]",
          "name": "",
          "type": "uint256[]"
        }
      ],
      "stateMutability": "view",
      "type": "function"
    },
    {
      "inputs": [
        {
          "internalType": "uint256",
          "name": "planetId",
          "type": "uint256"
        }
      ],
      "name": "harvest",
      "outputs": [],
      "stateMutability": "nonpayable",
      "type": "function"
    },
    {
      "inputs": [
        {
          "internalType": "uint256",
          "name": "planetId",
          "type": "uint256"
        }
      ],
      "name": "lastHarvest",
      "outputs": [
        {
          "internalType": "uint256",
          "name": "",
          "type": "uint256"
        }
      ],
      "stateMutability": "view",
      "type": "function"
    },
    {
      "inputs": [
        {
          "internalType": "uint256",
          "name": "planetId",
          "type": "uint256"
        }
      ],
      "name": "level",
      "outputs": [
        {
          "internalType": "uint256",
          "name": "",
          "type": "uint256"
        }
      ],
      "stateMutability": "view",
      "type": "function"
    },
    {
      "inputs": [
        {
          "internalType": "uint256",
          "name": "planetId",
          "type": "uint256"
        }
      ],
      "name": "nextProduction",
      "outputs": [
        {
          "internalType": "contract IResource[]",
          "name": "",
          "type": "address[]"
        },
        {
          "internalType": "uint256[]",
          "name": "",
          "type": "uint256[]"
        }
      ],
      "stateMutability": "view",
      "type": "function"
    },
    {
      "inputs": [
        {
          "internalType": "uint256",
          "name": "planetId",
          "type": "uint256"
        }
      ],
      "name": "nextUpgrade",
      "outputs": [
        {
          "internalType": "uint256",
          "name": "",
          "type": "uint256"
        }
      ],
      "stateMutability": "view",
      "type": "function"
    },
    {
      "inputs": [],
      "name": "s_sanctis",
      "outputs": [
        {
          "internalType": "contract ISanctis",
          "name": "",
          "type": "address"
        }
      ],
      "stateMutability": "view",
      "type": "function"
    },
    {
      "inputs": [],
      "name": "sanctis",
      "outputs": [
        {
          "internalType": "contract ISanctis",
          "name": "",
          "type": "address"
        }
      ],
      "stateMutability": "view",
      "type": "function"
    },
    {
      "inputs": [
        {
          "internalType": "uint256",
          "name": "planetId",
          "type": "uint256"
        }
      ],
      "name": "upgrade",
      "outputs": [],
      "stateMutability": "nonpayable",
      "type": "function"
    }
  ],
  "bytecode": {
    "object": "0x60806040523480156200001157600080fd5b5060405162001a2538038062001a2583398101604081905262000034916200040c565b600080546001600160a01b0319166001600160a01b038a161781556002889055889088908590859085905b82518110156200014057600384828151811062000080576200008062000532565b60209081029190910181015182546001810184556000938452919092200180546001600160a01b0319166001600160a01b039092169190911790558251600490849083908110620000d557620000d562000532565b6020908102919091018101518254600181018455600093845291909220015581516005908390839081106200010e576200010e62000532565b60209081029190910181015182546001810184556000938452919092200155620001388162000548565b90506200005f565b5050505050508451865114801562000159575083518551145b6200019d5760405162461bcd60e51b815260206004820152601060248201526f0a4caeec2e4c8e640dad2e6dac2e8c6d60831b604482015260640160405180910390fd5b60005b855181101562000283576007878281518110620001c157620001c162000532565b60209081029190910181015182546001810184556000938452919092200180546001600160a01b0319166001600160a01b03909216919091179055855160089087908390811062000216576200021662000532565b6020908102919091018101518254600181018455600093845291909220015584516009908690839081106200024f576200024f62000532565b60209081029190910181015182546001810184556000938452919092200155806200027a8162000548565b915050620001a0565b50505050505050505062000572565b6001600160a01b0381168114620002a857600080fd5b50565b8051620002b88162000292565b919050565b634e487b7160e01b600052604160045260246000fd5b604051601f8201601f191681016001600160401b0381118282101715620002fe57620002fe620002bd565b604052919050565b60006001600160401b03821115620003225762000322620002bd565b5060051b60200190565b600082601f8301126200033e57600080fd5b8151602062000357620003518362000306565b620002d3565b82815260059290921b840181019181810190868411156200037757600080fd5b8286015b848110156200039f578051620003918162000292565b83529183019183016200037b565b509695505050505050565b600082601f830112620003bc57600080fd5b81516020620003cf620003518362000306565b82815260059290921b84018101918181019086841115620003ef57600080fd5b8286015b848110156200039f5780518352918301918301620003f3565b600080600080600080600080610100898b0312156200042a57600080fd5b6200043589620002ab565b60208a015160408b015191995097506001600160401b03808211156200045a57600080fd5b620004688c838d016200032c565b975060608b01519150808211156200047f57600080fd5b6200048d8c838d01620003aa565b965060808b0151915080821115620004a457600080fd5b620004b28c838d01620003aa565b955060a08b0151915080821115620004c957600080fd5b620004d78c838d016200032c565b945060c08b0151915080821115620004ee57600080fd5b620004fc8c838d01620003aa565b935060e08b01519150808211156200051357600080fd5b50620005228b828c01620003aa565b9150509295985092959890939650565b634e487b7160e01b600052603260045260246000fd5b60006000198214156200056b57634e487b7160e01b600052601160045260246000fd5b5060010190565b6114a380620005826000396000f3fe608060405234801561001057600080fd5b50600436106100d45760003560e01c80639797efda11610081578063ddc632621161005b578063ddc63262146101e8578063e8b78615146101fb578063f8cd14261461020e57600080fd5b80639797efda146101a2578063bf206e45146101c2578063d024b162146101d557600080fd5b806349b3b29f116100b257806349b3b29f146101415780635087883f14610162578063780900dc1461018f57600080fd5b806305c58df2146100d9578063138589eb1461010c57806345977d031461012c575b600080fd5b6100f96100e7366004611119565b60009081526001602052604090205490565b6040519081526020015b60405180910390f35b6100f961011a366004611119565b60009081526006602052604090205490565b61013f61013a366004611119565b610221565b005b61015461014f366004611119565b61038b565b604051610103929190611132565b61016a610419565b60405173ffffffffffffffffffffffffffffffffffffffff9091168152602001610103565b61013f61019d366004611119565b61051e565b60005461016a9073ffffffffffffffffffffffffffffffffffffffff1681565b61013f6101d03660046111e5565b610710565b6101546101e3366004611119565b610839565b61013f6101f6366004611119565b610865565b610154610209366004611119565b610a06565b6100f961021c366004611119565b610a26565b61022b3382610a37565b61023481610cf1565b61023d81610d42565b61024681610d93565b60008181526001602052604081205461025e90610d9c565b9050600180600084815260200190815260200160002060000160008282546102869190611238565b909155505060008281526001602081905260408220439101555b815181101561038657600381815481106102bc576102bc611250565b9060005260206000200160009054906101000a900473ffffffffffffffffffffffffffffffffffffffff1673ffffffffffffffffffffffffffffffffffffffff1663b390c0ab8484848151811061031557610315611250565b60200260200101516040518363ffffffff1660e01b8152600401610343929190918252602082015260400190565b600060405180830381600087803b15801561035d57600080fd5b505af1158015610371573d6000803e3d6000fd5b505050508061037f9061127f565b90506102a0565b505050565b60008181526001602052604090205460609081906003906103ab90610d9c565b81546040805160208084028201810190925282815291849183018282801561040957602002820191906000526020600020905b815473ffffffffffffffffffffffffffffffffffffffff1681526001909101906020018083116103de575b5050505050915091509150915091565b60008054604080517f475853040000000000000000000000000000000000000000000000000000000081529051339273ffffffffffffffffffffffffffffffffffffffff169163475853049160048083019260209291908290030181865afa158015610489573d6000803e3d6000fd5b505050506040513d601f19601f820116820180604052508101906104ad91906112b8565b73ffffffffffffffffffffffffffffffffffffffff1614610501576040517f968c45d90000000000000000000000000000000000000000000000000000000081523360048201526024015b60405180910390fd5b5060005473ffffffffffffffffffffffffffffffffffffffff1690565b60008181526001602052604090205415610594576040517f08c379a000000000000000000000000000000000000000000000000000000000815260206004820152600e60248201527f416c72656164792065786973747300000000000000000000000000000000000060448201526064016104f8565b61059e3382610a37565b6105a781610eba565b60408051808201825260018082524360208084019182526000868152838252858120945185559151939092019290925560048054845181840281018401909552808552929392909183018282801561061e57602002820191906000526020600020905b81548152602001906001019080831161060a575b5050505050905060005b8151811015610386576003818154811061064457610644611250565b9060005260206000200160009054906101000a900473ffffffffffffffffffffffffffffffffffffffff1673ffffffffffffffffffffffffffffffffffffffff1663b390c0ab8484848151811061069d5761069d611250565b60200260200101516040518363ffffffff1660e01b81526004016106cb929190918252602082015260400190565b600060405180830381600087803b1580156106e557600080fd5b505af11580156106f9573d6000803e3d6000fd5b5050505080806107089061127f565b915050610628565b600054604080517f475853040000000000000000000000000000000000000000000000000000000081529051339273ffffffffffffffffffffffffffffffffffffffff169163475853049160048083019260209291908290030181865afa15801561077f573d6000803e3d6000fd5b505050506040513d601f19601f820116820180604052508101906107a391906112b8565b73ffffffffffffffffffffffffffffffffffffffff16146107f2576040517f968c45d90000000000000000000000000000000000000000000000000000000081523360048201526024016104f8565b600080547fffffffffffffffffffffffff00000000000000000000000000000000000000001673ffffffffffffffffffffffffffffffffffffffff92909216919091179055565b60008181526001602081905260409091205460609182916007916103ab9161086091611238565b610ed6565b6000818152600160205260409020546108ad576040517f2b1d515d000000000000000000000000000000000000000000000000000000008152600481018290526024016104f8565b6000818152600160205260408120546108c590610ed6565b600083815260066020526040812054919250906108e290436112d5565b60008481526006602052604081204390559091505b8251811015610a00576007818154811061091357610913611250565b9060005260206000200160009054906101000a900473ffffffffffffffffffffffffffffffffffffffff1673ffffffffffffffffffffffffffffffffffffffff16631b2ef1ca858486858151811061096d5761096d611250565b602002602001015161097f91906112ec565b6040517fffffffff0000000000000000000000000000000000000000000000000000000060e085901b16815260048101929092526024820152604401600060405180830381600087803b1580156109d557600080fd5b505af11580156109e9573d6000803e3d6000fd5b5050505080806109f89061127f565b9150506108f7565b50505050565b60008181526001602052604090205460609081906007906103ab90610ed6565b6000610a3182610f9d565b92915050565b6000546040517f8a5cde0a0000000000000000000000000000000000000000000000000000000081527f434f4d4d414e4445525300000000000000000000000000000000000000000000600482015273ffffffffffffffffffffffffffffffffffffffff90911690638a5cde0a90602401602060405180830381865afa158015610ac5573d6000803e3d6000fd5b505050506040513d601f19601f82011682018060405250810190610ae991906112b8565b6000546040517f8a5cde0a0000000000000000000000000000000000000000000000000000000081527f504c414e45545300000000000000000000000000000000000000000000000000600482015273ffffffffffffffffffffffffffffffffffffffff92831692632a16cca4928692911690638a5cde0a90602401602060405180830381865afa158015610b82573d6000803e3d6000fd5b505050506040513d601f19601f82011682018060405250810190610ba691906112b8565b73ffffffffffffffffffffffffffffffffffffffff1663181c1bc4856040518263ffffffff1660e01b8152600401610be091815260200190565b60c060405180830381865afa158015610bfd573d6000803e3d6000fd5b505050506040513d601f19601f82011682018060405250810190610c219190611351565b5160405160e084901b7fffffffff0000000000000000000000000000000000000000000000000000000016815273ffffffffffffffffffffffffffffffffffffffff90921660048301526024820152604401602060405180830381865afa158015610c90573d6000803e3d6000fd5b505050506040513d601f19601f82011682018060405250810190610cb49190611410565b610ced576040517f9ea83e56000000000000000000000000000000000000000000000000000000008152600481018290526024016104f8565b5050565b6000610cfc82610f9d565b905080431015610ced576040517fe051269900000000000000000000000000000000000000000000000000000000815260048101839052602481018290526044016104f8565b600081815260016020526040902054610d90576040517f2a857f6c000000000000000000000000000000000000000000000000000000008152306004820152602481018290526044016104f8565b50565b610d9081610865565b606060006004805480602002602001604051908101604052809291908181526020018280548015610dec57602002820191906000526020600020905b815481526020019060010190808311610dd8575b5050505050905060005b8151811015610eb35760028460058381548110610e1557610e15611250565b9060005260206000200154610e2a91906112ec565b610e349190611432565b828281518110610e4657610e46611250565b6020026020010151610e589190611238565b610e6290856112ec565b828281518110610e7457610e74611250565b6020026020010151610e869190611238565b828281518110610e9857610e98611250565b6020908102919091010152610eac8161127f565b9050610df6565b5092915050565b610ec381610fd6565b6000908152600660205260409020439055565b606060006008805480602002602001604051908101604052809291908181526020018280548015610f2657602002820191906000526020600020905b815481526020019060010190808311610f12575b5050505050905060005b8151811015610eb35760098181548110610f4c57610f4c611250565b906000526020600020015484610f6291906112ec565b828281518110610f7457610f74611250565b60200260200101818151610f889190611238565b90525080610f958161127f565b915050610f30565b600081815260016020526040812054600254610fb991906112ec565b60008381526001602081905260409091200154610a319190611238565b60005b600854811015610ced5760078181548110610ff657610ff6611250565b6000918252602090912001546040517f73199a7c0000000000000000000000000000000000000000000000000000000081526004810184905273ffffffffffffffffffffffffffffffffffffffff909116906373199a7c90602401602060405180830381865afa15801561106e573d6000803e3d6000fd5b505050506040513d601f19601f820116820180604052508101906110929190611410565b6111075781600782815481106110aa576110aa611250565b6000918252602090912001546040517f644fc162000000000000000000000000000000000000000000000000000000008152600481019290925273ffffffffffffffffffffffffffffffffffffffff1660248201526044016104f8565b806111118161127f565b915050610fd9565b60006020828403121561112b57600080fd5b5035919050565b604080825283519082018190526000906020906060840190828701845b8281101561118157815173ffffffffffffffffffffffffffffffffffffffff168452928401929084019060010161114f565b5050508381038285015284518082528583019183019060005b818110156111b65783518352928401929184019160010161119a565b5090979650505050505050565b73ffffffffffffffffffffffffffffffffffffffff81168114610d9057600080fd5b6000602082840312156111f757600080fd5b8135611202816111c3565b9392505050565b7f4e487b7100000000000000000000000000000000000000000000000000000000600052601160045260246000fd5b6000821982111561124b5761124b611209565b500190565b7f4e487b7100000000000000000000000000000000000000000000000000000000600052603260045260246000fd5b60007fffffffffffffffffffffffffffffffffffffffffffffffffffffffffffffffff8214156112b1576112b1611209565b5060010190565b6000602082840312156112ca57600080fd5b8151611202816111c3565b6000828210156112e7576112e7611209565b500390565b6000817fffffffffffffffffffffffffffffffffffffffffffffffffffffffffffffffff048311821515161561132457611324611209565b500290565b8051600981900b811461133b57600080fd5b919050565b805160ff8116811461133b57600080fd5b600060c0828403121561136357600080fd5b60405160c0810181811067ffffffffffffffff821117156113ad577f4e487b7100000000000000000000000000000000000000000000000000000000600052604160045260246000fd5b604052825181526113c060208401611329565b60208201526113d160408401611329565b60408201526113e260608401611329565b60608201526113f360808401611340565b608082015261140460a08401611340565b60a08201529392505050565b60006020828403121561142257600080fd5b8151801515811461120257600080fd5b600082611468577f4e487b7100000000000000000000000000000000000000000000000000000000600052601260045260246000fd5b50049056fea2646970667358221220b71b19142cb9c96e587290109bb43d1fbee25b3665fb5e7bef64ae702f67781764736f6c634300080a0033",
    "linkReferences": {}
  }
}