{
  "abi": [
    {
      "inputs": [
        {
          "internalType": "contract ISanctis",
          "name": "sanctis",
          "type": "address"
        },
        {
          "internalType": "uint256",
          "name": "delay",
          "type": "uint256"
        },
        {
          "internalType": "contract IResource[]",
          "name": "rewardsResources",
          "type": "address[]"
        },
        {
          "internalType": "uint256[]",
          "name": "rewardsBase",
          "type": "uint256[]"
        },
        {
          "internalType": "uint256[]",
          "name": "rewardsRates",
          "type": "uint256[]"
        },
        {
          "internalType": "contract IResource[]",
          "name": "costsResources",
          "type": "address[]"
        },
        {
          "internalType": "uint256[]",
          "name": "costsBase",
          "type": "uint256[]"
        },
        {
          "internalType": "uint256[]",
          "name": "costsRates",
          "type": "uint256[]"
        }
      ],
      "stateMutability": "nonpayable",
      "type": "constructor"
    },
    {
      "inputs": [
        {
          "internalType": "contract ISanctis",
          "name": "newSanctis",
          "type": "address"
        }
      ],
      "name": "changeSanctis",
      "outputs": [],
      "stateMutability": "nonpayable",
      "type": "function"
    },
    {
      "inputs": [
        {
          "internalType": "uint256",
          "name": "planetId",
          "type": "uint256"
        }
      ],
      "name": "costs",
      "outputs": [
        {
          "internalType": "contract IResource[]",
          "name": "",
          "type": "address[]"
        },
        {
          "internalType": "uint256[]",
          "name": "",
          "type": "uint256[]"
        }
      ],
      "stateMutability": "view",
      "type": "function"
    },
    {
      "inputs": [
        {
          "internalType": "uint256",
          "name": "planetId",
          "type": "uint256"
        }
      ],
      "name": "create",
      "outputs": [],
      "stateMutability": "nonpayable",
      "type": "function"
    },
    {
      "inputs": [
        {
          "internalType": "uint256",
          "name": "planetId",
          "type": "uint256"
        }
      ],
      "name": "currentProduction",
      "outputs": [
        {
          "internalType": "contract IResource[]",
          "name": "",
          "type": "address[]"
        },
        {
          "internalType": "uint256[]",
          "name": "",
          "type": "uint256[]"
        }
      ],
      "stateMutability": "view",
      "type": "function"
    },
    {
      "inputs": [
        {
          "internalType": "uint256",
          "name": "planetId",
          "type": "uint256"
        }
      ],
      "name": "harvest",
      "outputs": [],
      "stateMutability": "nonpayable",
      "type": "function"
    },
    {
      "inputs": [
        {
          "internalType": "uint256",
          "name": "planetId",
          "type": "uint256"
        }
      ],
      "name": "lastHarvest",
      "outputs": [
        {
          "internalType": "uint256",
          "name": "",
          "type": "uint256"
        }
      ],
      "stateMutability": "view",
      "type": "function"
    },
    {
      "inputs": [
        {
          "internalType": "uint256",
          "name": "planetId",
          "type": "uint256"
        }
      ],
      "name": "level",
      "outputs": [
        {
          "internalType": "uint256",
          "name": "",
          "type": "uint256"
        }
      ],
      "stateMutability": "view",
      "type": "function"
    },
    {
      "inputs": [
        {
          "internalType": "uint256",
          "name": "planetId",
          "type": "uint256"
        }
      ],
      "name": "nextProduction",
      "outputs": [
        {
          "internalType": "contract IResource[]",
          "name": "",
          "type": "address[]"
        },
        {
          "internalType": "uint256[]",
          "name": "",
          "type": "uint256[]"
        }
      ],
      "stateMutability": "view",
      "type": "function"
    },
    {
      "inputs": [
        {
          "internalType": "uint256",
          "name": "planetId",
          "type": "uint256"
        }
      ],
      "name": "nextUpgrade",
      "outputs": [
        {
          "internalType": "uint256",
          "name": "",
          "type": "uint256"
        }
      ],
      "stateMutability": "view",
      "type": "function"
    },
    {
      "inputs": [],
      "name": "s_sanctis",
      "outputs": [
        {
          "internalType": "contract ISanctis",
          "name": "",
          "type": "address"
        }
      ],
      "stateMutability": "view",
      "type": "function"
    },
    {
      "inputs": [],
      "name": "sanctis",
      "outputs": [
        {
          "internalType": "contract ISanctis",
          "name": "",
          "type": "address"
        }
      ],
      "stateMutability": "view",
      "type": "function"
    },
    {
      "inputs": [
        {
          "internalType": "uint256",
          "name": "planetId",
          "type": "uint256"
        }
      ],
      "name": "upgrade",
      "outputs": [],
      "stateMutability": "nonpayable",
      "type": "function"
    }
  ],
  "bytecode": {
    "object": "0x60806040523480156200001157600080fd5b5060405162001aa438038062001aa483398101604081905262000034916200040c565b600080546001600160a01b0319166001600160a01b038a161781556002889055889088908590859085905b82518110156200014057600384828151811062000080576200008062000532565b60209081029190910181015182546001810184556000938452919092200180546001600160a01b0319166001600160a01b039092169190911790558251600490849083908110620000d557620000d562000532565b6020908102919091018101518254600181018455600093845291909220015581516005908390839081106200010e576200010e62000532565b60209081029190910181015182546001810184556000938452919092200155620001388162000548565b90506200005f565b5050505050508451865114801562000159575083518551145b6200019d5760405162461bcd60e51b815260206004820152601060248201526f0a4caeec2e4c8e640dad2e6dac2e8c6d60831b604482015260640160405180910390fd5b60005b855181101562000283576007878281518110620001c157620001c162000532565b60209081029190910181015182546001810184556000938452919092200180546001600160a01b0319166001600160a01b03909216919091179055855160089087908390811062000216576200021662000532565b6020908102919091018101518254600181018455600093845291909220015584516009908690839081106200024f576200024f62000532565b60209081029190910181015182546001810184556000938452919092200155806200027a8162000548565b915050620001a0565b50505050505050505062000572565b6001600160a01b0381168114620002a857600080fd5b50565b8051620002b88162000292565b919050565b634e487b7160e01b600052604160045260246000fd5b604051601f8201601f191681016001600160401b0381118282101715620002fe57620002fe620002bd565b604052919050565b60006001600160401b03821115620003225762000322620002bd565b5060051b60200190565b600082601f8301126200033e57600080fd5b8151602062000357620003518362000306565b620002d3565b82815260059290921b840181019181810190868411156200037757600080fd5b8286015b848110156200039f578051620003918162000292565b83529183019183016200037b565b509695505050505050565b600082601f830112620003bc57600080fd5b81516020620003cf620003518362000306565b82815260059290921b84018101918181019086841115620003ef57600080fd5b8286015b848110156200039f5780518352918301918301620003f3565b600080600080600080600080610100898b0312156200042a57600080fd5b6200043589620002ab565b60208a015160408b015191995097506001600160401b03808211156200045a57600080fd5b620004688c838d016200032c565b975060608b01519150808211156200047f57600080fd5b6200048d8c838d01620003aa565b965060808b0151915080821115620004a457600080fd5b620004b28c838d01620003aa565b955060a08b0151915080821115620004c957600080fd5b620004d78c838d016200032c565b945060c08b0151915080821115620004ee57600080fd5b620004fc8c838d01620003aa565b935060e08b01519150808211156200051357600080fd5b50620005228b828c01620003aa565b9150509295985092959890939650565b634e487b7160e01b600052603260045260246000fd5b60006000198214156200056b57634e487b7160e01b600052601160045260246000fd5b5060010190565b61152280620005826000396000f3fe608060405234801561001057600080fd5b50600436106100d45760003560e01c80639797efda11610081578063ddc632621161005b578063ddc63262146101e8578063e8b78615146101fb578063f8cd14261461020e57600080fd5b80639797efda146101a2578063bf206e45146101c2578063d024b162146101d557600080fd5b806349b3b29f116100b257806349b3b29f146101415780635087883f14610162578063780900dc1461018f57600080fd5b806305c58df2146100d9578063138589eb1461010c57806345977d031461012c575b600080fd5b6100f96100e7366004611198565b60009081526001602052604090205490565b6040519081526020015b60405180910390f35b6100f961011a366004611198565b60009081526006602052604090205490565b61013f61013a366004611198565b610221565b005b61015461014f366004611198565b610390565b6040516101039291906111b1565b61016a61041e565b60405173ffffffffffffffffffffffffffffffffffffffff9091168152602001610103565b61013f61019d366004611198565b610551565b60005461016a9073ffffffffffffffffffffffffffffffffffffffff1681565b61013f6101d0366004611264565b610743565b6101546101e3366004611198565b61089a565b61013f6101f6366004611198565b6108c6565b610154610209366004611198565b610a94565b6100f961021c366004611198565b610ab4565b61022b3382610ac5565b61023481610dac565b610242816000526001602052565b61024b81610e21565b60008181526001602052604081205461026390610e2a565b90506001806000848152602001908152602001600020600001600082825461028b91906112b7565b909155505060008281526001602081905260408220439101555b815181101561038b57600381815481106102c1576102c16112cf565b9060005260206000200160009054906101000a900473ffffffffffffffffffffffffffffffffffffffff1673ffffffffffffffffffffffffffffffffffffffff1663b390c0ab8484848151811061031a5761031a6112cf565b60200260200101516040518363ffffffff1660e01b8152600401610348929190918252602082015260400190565b600060405180830381600087803b15801561036257600080fd5b505af1158015610376573d6000803e3d6000fd5b5050505080610384906112fe565b90506102a5565b505050565b60008181526001602052604090205460609081906003906103b090610e2a565b81546040805160208084028201810190925282815291849183018282801561040e57602002820191906000526020600020905b815473ffffffffffffffffffffffffffffffffffffffff1681526001909101906020018083116103e3575b5050505050915091509150915091565b60008054604080517f475853040000000000000000000000000000000000000000000000000000000081529051339273ffffffffffffffffffffffffffffffffffffffff169163475853049160048083019260209291908290030181865afa15801561048e573d6000803e3d6000fd5b505050506040513d601f19601f820116820180604052508101906104b29190611337565b73ffffffffffffffffffffffffffffffffffffffff1614610534576040517f08c379a000000000000000000000000000000000000000000000000000000000815260206004820152601060248201527f4d6f64756c653a204578656375746f720000000000000000000000000000000060448201526064015b60405180910390fd5b5060005473ffffffffffffffffffffffffffffffffffffffff1690565b600081815260016020526040902054156105c7576040517f08c379a000000000000000000000000000000000000000000000000000000000815260206004820152600e60248201527f416c726561647920657869737473000000000000000000000000000000000000604482015260640161052b565b6105d13382610ac5565b6105da81610f48565b60408051808201825260018082524360208084019182526000868152838252858120945185559151939092019290925560048054845181840281018401909552808552929392909183018282801561065157602002820191906000526020600020905b81548152602001906001019080831161063d575b5050505050905060005b815181101561038b5760038181548110610677576106776112cf565b9060005260206000200160009054906101000a900473ffffffffffffffffffffffffffffffffffffffff1673ffffffffffffffffffffffffffffffffffffffff1663b390c0ab848484815181106106d0576106d06112cf565b60200260200101516040518363ffffffff1660e01b81526004016106fe929190918252602082015260400190565b600060405180830381600087803b15801561071857600080fd5b505af115801561072c573d6000803e3d6000fd5b50505050808061073b906112fe565b91505061065b565b600054604080517f475853040000000000000000000000000000000000000000000000000000000081529051339273ffffffffffffffffffffffffffffffffffffffff169163475853049160048083019260209291908290030181865afa1580156107b2573d6000803e3d6000fd5b505050506040513d601f19601f820116820180604052508101906107d69190611337565b73ffffffffffffffffffffffffffffffffffffffff1614610853576040517f08c379a000000000000000000000000000000000000000000000000000000000815260206004820152601060248201527f4d6f64756c653a204578656375746f7200000000000000000000000000000000604482015260640161052b565b600080547fffffffffffffffffffffffff00000000000000000000000000000000000000001673ffffffffffffffffffffffffffffffffffffffff92909216919091179055565b60008181526001602081905260409091205460609182916007916103b0916108c1916112b7565b610f64565b60008181526001602052604090205461093b576040517f08c379a000000000000000000000000000000000000000000000000000000000815260206004820152601760248201527f5265736f7572636550726f64756365723a204c6576656c000000000000000000604482015260640161052b565b60008181526001602052604081205461095390610f64565b600083815260066020526040812054919250906109709043611354565b60008481526006602052604081204390559091505b8251811015610a8e57600781815481106109a1576109a16112cf565b9060005260206000200160009054906101000a900473ffffffffffffffffffffffffffffffffffffffff1673ffffffffffffffffffffffffffffffffffffffff16631b2ef1ca85848685815181106109fb576109fb6112cf565b6020026020010151610a0d919061136b565b6040517fffffffff0000000000000000000000000000000000000000000000000000000060e085901b16815260048101929092526024820152604401600060405180830381600087803b158015610a6357600080fd5b505af1158015610a77573d6000803e3d6000fd5b505050508080610a86906112fe565b915050610985565b50505050565b60008181526001602052604090205460609081906007906103b090610f64565b6000610abf8261102b565b92915050565b6000546040517f8a5cde0a0000000000000000000000000000000000000000000000000000000081527f434f4d4d414e4445525300000000000000000000000000000000000000000000600482015273ffffffffffffffffffffffffffffffffffffffff90911690638a5cde0a90602401602060405180830381865afa158015610b53573d6000803e3d6000fd5b505050506040513d601f19601f82011682018060405250810190610b779190611337565b6000546040517f8a5cde0a0000000000000000000000000000000000000000000000000000000081527f504c414e45545300000000000000000000000000000000000000000000000000600482015273ffffffffffffffffffffffffffffffffffffffff92831692632a16cca4928692911690638a5cde0a90602401602060405180830381865afa158015610c10573d6000803e3d6000fd5b505050506040513d601f19601f82011682018060405250810190610c349190611337565b73ffffffffffffffffffffffffffffffffffffffff1663181c1bc4856040518263ffffffff1660e01b8152600401610c6e91815260200190565b60c060405180830381865afa158015610c8b573d6000803e3d6000fd5b505050506040513d601f19601f82011682018060405250810190610caf91906113d0565b5160405160e084901b7fffffffff0000000000000000000000000000000000000000000000000000000016815273ffffffffffffffffffffffffffffffffffffffff90921660048301526024820152604401602060405180830381865afa158015610d1e573d6000803e3d6000fd5b505050506040513d601f19601f82011682018060405250810190610d42919061148f565b610da8576040517f08c379a000000000000000000000000000000000000000000000000000000000815260206004820152601560248201527f496e6672617374727563747572653a204f776e65640000000000000000000000604482015260640161052b565b5050565b610db58161102b565b431015610e1e576040517f08c379a000000000000000000000000000000000000000000000000000000000815260206004820152601860248201527f496e6672617374727563747572653a20546f6f20736f6f6e0000000000000000604482015260640161052b565b50565b610e1e816108c6565b606060006004805480602002602001604051908101604052809291908181526020018280548015610e7a57602002820191906000526020600020905b815481526020019060010190808311610e66575b5050505050905060005b8151811015610f415760028460058381548110610ea357610ea36112cf565b9060005260206000200154610eb8919061136b565b610ec291906114b1565b828281518110610ed457610ed46112cf565b6020026020010151610ee691906112b7565b610ef0908561136b565b828281518110610f0257610f026112cf565b6020026020010151610f1491906112b7565b828281518110610f2657610f266112cf565b6020908102919091010152610f3a816112fe565b9050610e84565b5092915050565b610f5181611064565b6000908152600660205260409020439055565b606060006008805480602002602001604051908101604052809291908181526020018280548015610fb457602002820191906000526020600020905b815481526020019060010190808311610fa0575b5050505050905060005b8151811015610f415760098181548110610fda57610fda6112cf565b906000526020600020015484610ff0919061136b565b828281518110611002576110026112cf565b6020026020010181815161101691906112b7565b90525080611023816112fe565b915050610fbe565b600081815260016020526040812054600254611047919061136b565b60008381526001602081905260409091200154610abf91906112b7565b60005b600854811015610da85760078181548110611084576110846112cf565b6000918252602090912001546040517f73199a7c0000000000000000000000000000000000000000000000000000000081526004810184905273ffffffffffffffffffffffffffffffffffffffff909116906373199a7c90602401602060405180830381865afa1580156110fc573d6000803e3d6000fd5b505050506040513d601f19601f82011682018060405250810190611120919061148f565b611186576040517f08c379a000000000000000000000000000000000000000000000000000000000815260206004820152601a60248201527f5265736f7572636550726f64756365723a205265736f75726365000000000000604482015260640161052b565b80611190816112fe565b915050611067565b6000602082840312156111aa57600080fd5b5035919050565b604080825283519082018190526000906020906060840190828701845b8281101561120057815173ffffffffffffffffffffffffffffffffffffffff16845292840192908401906001016111ce565b5050508381038285015284518082528583019183019060005b8181101561123557835183529284019291840191600101611219565b5090979650505050505050565b73ffffffffffffffffffffffffffffffffffffffff81168114610e1e57600080fd5b60006020828403121561127657600080fd5b813561128181611242565b9392505050565b7f4e487b7100000000000000000000000000000000000000000000000000000000600052601160045260246000fd5b600082198211156112ca576112ca611288565b500190565b7f4e487b7100000000000000000000000000000000000000000000000000000000600052603260045260246000fd5b60007fffffffffffffffffffffffffffffffffffffffffffffffffffffffffffffffff82141561133057611330611288565b5060010190565b60006020828403121561134957600080fd5b815161128181611242565b60008282101561136657611366611288565b500390565b6000817fffffffffffffffffffffffffffffffffffffffffffffffffffffffffffffffff04831182151516156113a3576113a3611288565b500290565b8051600981900b81146113ba57600080fd5b919050565b805160ff811681146113ba57600080fd5b600060c082840312156113e257600080fd5b60405160c0810181811067ffffffffffffffff8211171561142c577f4e487b7100000000000000000000000000000000000000000000000000000000600052604160045260246000fd5b6040528251815261143f602084016113a8565b6020820152611450604084016113a8565b6040820152611461606084016113a8565b6060820152611472608084016113bf565b608082015261148360a084016113bf565b60a08201529392505050565b6000602082840312156114a157600080fd5b8151801515811461128157600080fd5b6000826114e7577f4e487b7100000000000000000000000000000000000000000000000000000000600052601260045260246000fd5b50049056fea264697066735822122068ba81330e2f0af25ab32a9b75f8f30485a666d1f7ad6080bcc435c8c1a75bea64736f6c634300080a0033",
    "linkReferences": {}
  }
}