{
  "abi": [
    {
      "inputs": [
        {
          "internalType": "contract ISanctis",
          "name": "sanctis",
          "type": "address"
        },
        {
          "internalType": "uint256",
          "name": "delay",
          "type": "uint256"
        },
        {
          "internalType": "contract IResource[]",
          "name": "rewardsResources",
          "type": "address[]"
        },
        {
          "internalType": "uint256[]",
          "name": "rewardsBase",
          "type": "uint256[]"
        },
        {
          "internalType": "uint256[]",
          "name": "rewardsRates",
          "type": "uint256[]"
        },
        {
          "internalType": "contract IResource[]",
          "name": "costsResources",
          "type": "address[]"
        },
        {
          "internalType": "uint256[]",
          "name": "costsBase",
          "type": "uint256[]"
        },
        {
          "internalType": "uint256[]",
          "name": "costsRates",
          "type": "uint256[]"
        }
      ],
      "stateMutability": "nonpayable",
      "type": "constructor"
    },
    {
      "inputs": [
        {
          "internalType": "uint256",
          "name": "planetId",
          "type": "uint256"
        }
      ],
      "name": "ExtractorExistence",
      "type": "error"
    },
    {
      "inputs": [
        {
          "internalType": "address",
          "name": "infrastructure",
          "type": "address"
        },
        {
          "internalType": "uint256",
          "name": "planetId",
          "type": "uint256"
        }
      ],
      "name": "InfrastructureDoesNotExist",
      "type": "error"
    },
    {
      "inputs": [
        {
          "internalType": "address",
          "name": "sender",
          "type": "address"
        }
      ],
      "name": "NotAllowed",
      "type": "error"
    },
    {
      "inputs": [
        {
          "internalType": "uint256",
          "name": "planetId",
          "type": "uint256"
        },
        {
          "internalType": "contract IResource",
          "name": "resource",
          "type": "address"
        }
      ],
      "name": "NotEnoughResource",
      "type": "error"
    },
    {
      "inputs": [
        {
          "internalType": "address",
          "name": "sender",
          "type": "address"
        }
      ],
      "name": "NotTheExecutor",
      "type": "error"
    },
    {
      "inputs": [
        {
          "internalType": "address",
          "name": "sender",
          "type": "address"
        }
      ],
      "name": "NotTheSanctis",
      "type": "error"
    },
    {
      "inputs": [
        {
          "internalType": "uint256",
          "name": "planetId",
          "type": "uint256"
        }
      ],
      "name": "PlanetNotOwned",
      "type": "error"
    },
    {
      "inputs": [
        {
          "internalType": "uint256",
          "name": "planetId",
          "type": "uint256"
        },
        {
          "internalType": "contract IResource",
          "name": "resource",
          "type": "address"
        }
      ],
      "name": "ResourceNotOnPlanet",
      "type": "error"
    },
    {
      "inputs": [
        {
          "internalType": "uint256",
          "name": "planetId",
          "type": "uint256"
        },
        {
          "internalType": "uint256",
          "name": "soonestUpgrade",
          "type": "uint256"
        }
      ],
      "name": "TooSoonToUpgrade",
      "type": "error"
    },
    {
      "inputs": [
        {
          "internalType": "contract ISanctis",
          "name": "newSanctis",
          "type": "address"
        }
      ],
      "name": "changeSanctis",
      "outputs": [],
      "stateMutability": "nonpayable",
      "type": "function"
    },
    {
      "inputs": [
        {
          "internalType": "uint256",
          "name": "planetId",
          "type": "uint256"
        }
      ],
      "name": "characteristics",
      "outputs": [
        {
          "components": [
            {
              "internalType": "uint256",
              "name": "level",
              "type": "uint256"
            },
            {
              "internalType": "uint256",
              "name": "lastHarvest",
              "type": "uint256"
            },
            {
              "internalType": "uint256",
              "name": "nextUpgrade",
              "type": "uint256"
            },
            {
              "internalType": "contract IResource[]",
              "name": "producedResources",
              "type": "address[]"
            },
            {
              "internalType": "uint256[]",
              "name": "productionPerBlock",
              "type": "uint256[]"
            },
            {
              "internalType": "contract IResource[]",
              "name": "costsResources",
              "type": "address[]"
            },
            {
              "internalType": "uint256[]",
              "name": "nextCosts",
              "type": "uint256[]"
            }
          ],
          "internalType": "struct IResourceProducer.Characteristics",
          "name": "",
          "type": "tuple"
        }
      ],
      "stateMutability": "view",
      "type": "function"
    },
    {
      "inputs": [
        {
          "internalType": "uint256",
          "name": "planetId",
          "type": "uint256"
        }
      ],
      "name": "costsNextLevel",
      "outputs": [
        {
          "internalType": "contract IResource[]",
          "name": "",
          "type": "address[]"
        },
        {
          "internalType": "uint256[]",
          "name": "",
          "type": "uint256[]"
        }
      ],
      "stateMutability": "view",
      "type": "function"
    },
    {
      "inputs": [
        {
          "internalType": "uint256",
          "name": "planetId",
          "type": "uint256"
        }
      ],
      "name": "create",
      "outputs": [],
      "stateMutability": "nonpayable",
      "type": "function"
    },
    {
      "inputs": [
        {
          "internalType": "uint256",
          "name": "planetId",
          "type": "uint256"
        }
      ],
      "name": "harvest",
      "outputs": [],
      "stateMutability": "nonpayable",
      "type": "function"
    },
    {
      "inputs": [
        {
          "internalType": "uint256",
          "name": "planetId",
          "type": "uint256"
        }
      ],
      "name": "level",
      "outputs": [
        {
          "internalType": "uint256",
          "name": "",
          "type": "uint256"
        }
      ],
      "stateMutability": "view",
      "type": "function"
    },
    {
      "inputs": [],
      "name": "sanctis",
      "outputs": [
        {
          "internalType": "contract ISanctis",
          "name": "",
          "type": "address"
        }
      ],
      "stateMutability": "view",
      "type": "function"
    },
    {
      "inputs": [
        {
          "internalType": "uint256",
          "name": "planetId",
          "type": "uint256"
        }
      ],
      "name": "upgrade",
      "outputs": [],
      "stateMutability": "nonpayable",
      "type": "function"
    }
  ],
  "bytecode": {
    "object": "0x60806040523480156200001157600080fd5b5060405162001a2138038062001a2183398101604081905262000034916200040a565b600080546001600160a01b0319166001600160a01b038a161781556002889055889088908590859085905b82518110156200014057600384828151811062000080576200008062000530565b60209081029190910181015182546001810184556000938452919092200180546001600160a01b0319166001600160a01b039092169190911790558251600490849083908110620000d557620000d562000530565b6020908102919091018101518254600181018455600093845291909220015581516005908390839081106200010e576200010e62000530565b60209081029190910181015182546001810184556000938452919092200155620001388162000546565b90506200005f565b5050505050508451865114801562000159575083518551145b6200019d5760405162461bcd60e51b815260206004820152601060248201526f0a4caeec2e4c8e640dad2e6dac2e8c6d60831b604482015260640160405180910390fd5b60005b855181101562000281576007878281518110620001c157620001c162000530565b60209081029190910181015182546001810184556000938452919092200180546001600160a01b0319166001600160a01b03909216919091179055855160089087908390811062000216576200021662000530565b6020908102919091018101518254600181018455600093845291909220015584516009908690839081106200024f576200024f62000530565b60209081029190910181015182546001810184556000938452919092200155620002798162000546565b9050620001a0565b50505050505050505062000570565b6001600160a01b0381168114620002a657600080fd5b50565b8051620002b68162000290565b919050565b634e487b7160e01b600052604160045260246000fd5b604051601f8201601f191681016001600160401b0381118282101715620002fc57620002fc620002bb565b604052919050565b60006001600160401b03821115620003205762000320620002bb565b5060051b60200190565b600082601f8301126200033c57600080fd5b81516020620003556200034f8362000304565b620002d1565b82815260059290921b840181019181810190868411156200037557600080fd5b8286015b848110156200039d5780516200038f8162000290565b835291830191830162000379565b509695505050505050565b600082601f830112620003ba57600080fd5b81516020620003cd6200034f8362000304565b82815260059290921b84018101918181019086841115620003ed57600080fd5b8286015b848110156200039d5780518352918301918301620003f1565b600080600080600080600080610100898b0312156200042857600080fd5b6200043389620002a9565b60208a015160408b015191995097506001600160401b03808211156200045857600080fd5b620004668c838d016200032a565b975060608b01519150808211156200047d57600080fd5b6200048b8c838d01620003a8565b965060808b0151915080821115620004a257600080fd5b620004b08c838d01620003a8565b955060a08b0151915080821115620004c757600080fd5b620004d58c838d016200032a565b945060c08b0151915080821115620004ec57600080fd5b620004fa8c838d01620003a8565b935060e08b01519150808211156200051157600080fd5b50620005208b828c01620003a8565b9150509295985092959890939650565b634e487b7160e01b600052603260045260246000fd5b60006000198214156200056957634e487b7160e01b600052601160045260246000fd5b5060010190565b6114a180620005806000396000f3fe608060405234801561001057600080fd5b50600436106100885760003560e01c8063780900dc1161005b578063780900dc146101205780637ffc0dc714610133578063bf206e4514610154578063ddc632621461016757600080fd5b806305c58df21461008d57806345977d03146100c05780635087883f146100d5578063677baff714610100575b600080fd5b6100ad61009b366004610f9a565b60009081526001602052604090205490565b6040519081526020015b60405180910390f35b6100d36100ce366004610f9a565b61017a565b005b6000546100e8906001600160a01b031681565b6040516001600160a01b0390911681526020016100b7565b61011361010e366004610f9a565b6102e7565b6040516100b79190611027565b6100d361012e366004610f9a565b610497565b610146610141366004610f9a565b610605565b6040516100b79291906110c4565b6100d3610162366004611139565b610686565b6100d3610175366004610f9a565b610743565b610184338261086b565b61018d81610b9b565b61019681610c01565b61019f81610c39565b600081815260016020819052604082208054919290916101c0908490611173565b909155505060008181526001602081905260408220439101555b6004548110156102e357600381815481106101f7576101f761118b565b60009182526020808320909101548483526001909152604090912054600580546001600160a01b039093169263b390c0ab92869290918690811061023d5761023d61118b565b906000526020600020015461025291906111a1565b600485815481106102655761026561118b565b906000526020600020015461027a9190611173565b6040516001600160e01b031960e085901b16815260048101929092526024820152604401600060405180830381600087803b1580156102b857600080fd5b505af11580156102cc573d6000803e3d6000fd5b5050505080806102db906111c0565b9150506101da565b5050565b6103276040518060e00160405280600081526020016000815260200160008152602001606081526020016060815260200160608152602001606081525090565b6040805160e081018252600084815260016020818152848320548085528784526006825285842054828601529287905252600254919283019161036a91906112c1565b600085815260016020819052604090912001546103879190611173565b815260200160078054806020026020016040519081016040528092919081815260200182805480156103e257602002820191906000526020600020905b81546001600160a01b031681526001909101906020018083116103c4575b5050505050815260200161040b6001600086815260200190815260200160002060000154610c61565b8152602001600380548060200260200160405190810160405280929190818152602001828054801561046657602002820191906000526020600020905b81546001600160a01b03168152600190910190602001808311610448575b5050505050815260200161048f6001600086815260200190815260200160002060000154610d2d565b905292915050565b6104a1338261086b565b6104aa81610b9b565b6104b381610e89565b6040805180820182526001808252600060208084018281528683528382528583209451855551939092019290925560048054845181840281018401909552808552929392909183018282801561052857602002820191906000526020600020905b815481526020019060010190808311610514575b5050505050905060005b8151811015610600576003818154811061054e5761054e61118b565b9060005260206000200160009054906101000a90046001600160a01b03166001600160a01b031663b390c0ab8484848151811061058d5761058d61118b565b60200260200101516040518363ffffffff1660e01b81526004016105bb929190918252602082015260400190565b600060405180830381600087803b1580156105d557600080fd5b505af11580156105e9573d6000803e3d6000fd5b5050505080806105f8906111c0565b915050610532565b505050565b600081815260016020526040902054606090819060039061062590610d2d565b81546040805160208084028201810190925282815291849183018282801561067657602002820191906000526020600020905b81546001600160a01b03168152600190910190602001808311610658575b5050505050915091509150915091565b600054604080516311d614c160e21b8152905133926001600160a01b03169163475853049160048083019260209291908290030181865afa1580156106cf573d6000803e3d6000fd5b505050506040513d601f19601f820116820180604052508101906106f391906112cd565b6001600160a01b0316146107215760405163968c45d960e01b81523360048201526024015b60405180910390fd5b600080546001600160a01b0319166001600160a01b0392909216919091179055565b60008181526001602052604090205461077257604051632b1d515d60e01b815260048101829052602401610718565b60008181526001602052604081205461078a90610c61565b60008381526006602052604081204390559091505b815181101561060057600781815481106107bb576107bb61118b565b9060005260206000200160009054906101000a90046001600160a01b03166001600160a01b0316631b2ef1ca848484815181106107fa576107fa61118b565b60200260200101516040518363ffffffff1660e01b8152600401610828929190918252602082015260400190565b600060405180830381600087803b15801561084257600080fd5b505af1158015610856573d6000803e3d6000fd5b5050505080610864906111c0565b905061079f565b600054604080518082018252600a815269434f4d4d414e4445525360b01b60208201529051633fde36b160e11b81526001600160a01b0390921691637fbc6d62916108b8916004016112ea565b602060405180830381865afa1580156108d5573d6000803e3d6000fd5b505050506040513d601f19601f820116820180604052508101906108f991906112cd565b6000546040805180820182526007815266504c414e45545360c81b60208201529051633fde36b160e11b81526001600160a01b0393841693636352211e931691637fbc6d629161094c91906004016112ea565b602060405180830381865afa158015610969573d6000803e3d6000fd5b505050506040513d601f19601f8201168201806040525081019061098d91906112cd565b6001600160a01b031663181c1bc4846040518263ffffffff1660e01b81526004016109ba91815260200190565b60c060405180830381865afa1580156109d7573d6000803e3d6000fd5b505050506040513d601f19601f820116820180604052508101906109fb919061138c565b602001516040518263ffffffff1660e01b8152600401610a1d91815260200190565b602060405180830381865afa158015610a3a573d6000803e3d6000fd5b505050506040513d601f19601f82011682018060405250810190610a5e91906112cd565b6001600160a01b0316826001600160a01b031614158015610b7a5750600054604080518082018252600a815269434f4d4d414e4445525360b01b60208201529051633fde36b160e11b81526001600160a01b0390921691637fbc6d6291610ac7916004016112ea565b602060405180830381865afa158015610ae4573d6000803e3d6000fd5b505050506040513d601f19601f82011682018060405250810190610b0891906112cd565b60405163e985e9c560e01b81526001600160a01b038481166004830152306024830152919091169063e985e9c590604401602060405180830381865afa158015610b56573d6000803e3d6000fd5b505050506040513d601f19601f82011682018060405250810190610b7a9190611432565b156102e357604051634f541f2b60e11b815260048101829052602401610718565b600081815260016020526040812054600254610bb791906111a1565b60008381526001602081905260409091200154610bd49190611173565b9050804310156102e35760405163e051269960e01b81526004810183905260248101829052604401610718565b600081815260016020526040902054610c3657604051630aa15fdb60e21b815230600482015260248101829052604401610718565b50565b610c4281610743565b600254610c4f9043611173565b60009182526006602052604090912055565b606060006008805480602002602001604051908101604052809291908181526020018280548015610cb157602002820191906000526020600020905b815481526020019060010190808311610c9d575b5050505050905060005b8151811015610d265760098181548110610cd757610cd761118b565b906000526020600020015484610ced91906111a1565b828281518110610cff57610cff61118b565b60200260200101818151610d139190611173565b905250610d1f816111c0565b9050610cbb565b5092915050565b606060006004805480602002602001604051908101604052809291908181526020018280548015610d7d57602002820191906000526020600020905b815481526020019060010190808311610d69575b50505050509050600083600014610da657610da1610d9c600186611454565b610d2d565b610deb565b815167ffffffffffffffff811115610dc057610dc061133f565b604051908082528060200260200182016040528015610de9578160200160208202803683370190505b505b905060005b8251811015610e805781600081518110610e0c57610e0c61118b565b602002602001015160058281548110610e2757610e2761118b565b906000526020600020015486610e3d91906111a1565b610e479190611173565b838281518110610e5957610e5961118b565b60200260200101818151610e6d9190611173565b905250610e79816111c0565b9050610df0565b50909392505050565b610e9281610ea5565b6000908152600660205260409020439055565b60005b6008548110156102e35760078181548110610ec557610ec561118b565b600091825260209091200154604051631cc6669f60e21b8152600481018490526001600160a01b03909116906373199a7c90602401602060405180830381865afa158015610f17573d6000803e3d6000fd5b505050506040513d601f19601f82011682018060405250810190610f3b9190611432565b610f8a578160078281548110610f5357610f5361118b565b600091825260209091200154604051633227e0b160e11b815260048101929092526001600160a01b03166024820152604401610718565b610f93816111c0565b9050610ea8565b600060208284031215610fac57600080fd5b5035919050565b600081518084526020808501945080840160005b83811015610fec5781516001600160a01b031687529582019590820190600101610fc7565b509495945050505050565b600081518084526020808501945080840160005b83811015610fec5781518752958201959082019060010161100b565b602081528151602082015260208201516040820152604082015160608201526000606083015160e06080840152611062610100840182610fb3565b90506080840151601f19808584030160a08601526110808383610ff7565b925060a08601519150808584030160c086015261109d8383610fb3565b925060c08601519150808584030160e0860152506110bb8282610ff7565b95945050505050565b604080825283519082018190526000906020906060840190828701845b828110156111065781516001600160a01b0316845292840192908401906001016110e1565b5050508381038285015261111a8186610ff7565b9695505050505050565b6001600160a01b0381168114610c3657600080fd5b60006020828403121561114b57600080fd5b813561115681611124565b9392505050565b634e487b7160e01b600052601160045260246000fd5b600082198211156111865761118661115d565b500190565b634e487b7160e01b600052603260045260246000fd5b60008160001904831182151516156111bb576111bb61115d565b500290565b60006000198214156111d4576111d461115d565b5060010190565b600181815b808511156112165781600019048211156111fc576111fc61115d565b8085161561120957918102915b93841c93908002906111e0565b509250929050565b60008261122d575060016112bb565b8161123a575060006112bb565b8160018114611250576002811461125a57611276565b60019150506112bb565b60ff84111561126b5761126b61115d565b50506001821b6112bb565b5060208310610133831016604e8410600b8410161715611299575081810a6112bb565b6112a383836111db565b80600019048211156112b7576112b761115d565b0290505b92915050565b6000611156838361121e565b6000602082840312156112df57600080fd5b815161115681611124565b600060208083528351808285015260005b81811015611317578581018301518582016040015282016112fb565b81811115611329576000604083870101525b50601f01601f1916929092016040019392505050565b634e487b7160e01b600052604160045260246000fd5b80516004811061136457600080fd5b919050565b8051600981900b811461136457600080fd5b805160ff8116811461136457600080fd5b600060c0828403121561139e57600080fd5b60405160c0810181811067ffffffffffffffff821117156113cf57634e487b7160e01b600052604160045260246000fd5b6040526113db83611355565b8152602083015160208201526113f360408401611369565b604082015261140460608401611369565b606082015261141560808401611369565b608082015261142660a0840161137b565b60a08201529392505050565b60006020828403121561144457600080fd5b8151801515811461115657600080fd5b6000828210156114665761146661115d565b50039056fea26469706673582212200a3e991cf7ea121045cba1f580bb2992a6e2100a100a98c4002af6db35be24ec64736f6c634300080a0033",
    "linkReferences": {}
  }
}