{
  "abi": [
    {
      "anonymous": false,
      "inputs": [
        {
          "indexed": true,
          "internalType": "address",
          "name": "previousOwner",
          "type": "address"
        },
        {
          "indexed": true,
          "internalType": "address",
          "name": "newOwner",
          "type": "address"
        }
      ],
      "name": "OwnershipTransferred",
      "type": "event"
    },
    {
      "inputs": [
        {
          "internalType": "address",
          "name": "object",
          "type": "address"
        }
      ],
      "name": "allowed",
      "outputs": [
        {
          "internalType": "bool",
          "name": "",
          "type": "bool"
        }
      ],
      "stateMutability": "view",
      "type": "function"
    },
    {
      "inputs": [
        {
          "internalType": "contract ISanctisExtension",
          "name": "object",
          "type": "address"
        }
      ],
      "name": "ejectAndDisallowExtension",
      "outputs": [],
      "stateMutability": "nonpayable",
      "type": "function"
    },
    {
      "inputs": [
        {
          "internalType": "string",
          "name": "key",
          "type": "string"
        }
      ],
      "name": "extension",
      "outputs": [
        {
          "internalType": "address",
          "name": "",
          "type": "address"
        }
      ],
      "stateMutability": "view",
      "type": "function"
    },
    {
      "inputs": [
        {
          "internalType": "contract ISanctisExtension",
          "name": "object",
          "type": "address"
        }
      ],
      "name": "insertAndAllowExtension",
      "outputs": [],
      "stateMutability": "nonpayable",
      "type": "function"
    },
    {
      "inputs": [],
      "name": "owner",
      "outputs": [
        {
          "internalType": "address",
          "name": "",
          "type": "address"
        }
      ],
      "stateMutability": "view",
      "type": "function"
    },
    {
      "inputs": [],
      "name": "parliamentExecutor",
      "outputs": [
        {
          "internalType": "address",
          "name": "",
          "type": "address"
        }
      ],
      "stateMutability": "view",
      "type": "function"
    },
    {
      "inputs": [
        {
          "internalType": "contract ISanctisExtension",
          "name": "object",
          "type": "address"
        }
      ],
      "name": "reloadExtension",
      "outputs": [],
      "stateMutability": "nonpayable",
      "type": "function"
    },
    {
      "inputs": [],
      "name": "renounceOwnership",
      "outputs": [],
      "stateMutability": "nonpayable",
      "type": "function"
    },
    {
      "inputs": [
        {
          "internalType": "address",
          "name": "object",
          "type": "address"
        },
        {
          "internalType": "bool",
          "name": "value",
          "type": "bool"
        }
      ],
      "name": "setAllowed",
      "outputs": [],
      "stateMutability": "nonpayable",
      "type": "function"
    },
    {
      "inputs": [
        {
          "internalType": "address",
          "name": "newParliamentExecutor",
          "type": "address"
        }
      ],
      "name": "setParliamentExecutor",
      "outputs": [],
      "stateMutability": "nonpayable",
      "type": "function"
    },
    {
      "inputs": [
        {
          "internalType": "address",
          "name": "newOwner",
          "type": "address"
        }
      ],
      "name": "transferOwnership",
      "outputs": [],
      "stateMutability": "nonpayable",
      "type": "function"
    }
  ],
  "bytecode": {
    "object": "0x608060405234801561001057600080fd5b5061001a3361001f565b61006f565b600080546001600160a01b038381166001600160a01b0319831681178455604051919092169283917f8be0079c531659141344cd1fd0a4f28419497f9722a3daafe3b4186f6b6457e09190a35050565b6108268061007e6000396000f3fe608060405234801561001057600080fd5b50600436106100a95760003560e01c80637caed0cc116100715780637caed0cc1461011b5780637fbc6d621461012e5780638da5cb5b14610141578063aa112ce014610152578063d63a8e1114610165578063f2fde38b146101a157600080fd5b8063421ad0f1146100ae5780634697f05d146100c357806347585304146100d65780635870c21214610100578063715018a614610113575b600080fd5b6100c16100bc3660046105a7565b6101b4565b005b6100c16100d13660046105cb565b61028f565b6001546001600160a01b03165b6040516001600160a01b0390911681526020015b60405180910390f35b6100c161010e3660046105a7565b6102e4565b6100c1610335565b6100c16101293660046105a7565b61036b565b6100e361013c366004610678565b6103f4565b6000546001600160a01b03166100e3565b6100c16101603660046105a7565b610425565b6101916101733660046105a7565b6001600160a01b031660009081526002602052604090205460ff1690565b60405190151581526020016100f7565b6100c16101af3660046105a7565b6104ae565b6000546001600160a01b031633146101e75760405162461bcd60e51b81526004016101de906106f8565b60405180910390fd5b806003826001600160a01b0316633943380c6040518163ffffffff1660e01b8152600401600060405180830381865afa158015610228573d6000803e3d6000fd5b505050506040513d6000823e601f3d908101601f19168201604052610250919081019061075d565b60405161025d91906107d4565b90815260405190819003602001902080546001600160a01b03929092166001600160a01b031990921691909117905550565b6000546001600160a01b031633146102b95760405162461bcd60e51b81526004016101de906106f8565b6001600160a01b03919091166000908152600260205260409020805460ff1916911515919091179055565b6000546001600160a01b0316331461030e5760405162461bcd60e51b81526004016101de906106f8565b600180546001600160a01b0319166001600160a01b038316179055610332816104ae565b50565b6000546001600160a01b0316331461035f5760405162461bcd60e51b81526004016101de906106f8565b6103696000610542565b565b6000546001600160a01b031633146103955760405162461bcd60e51b81526004016101de906106f8565b6001600160a01b038116600081815260026020526040808220805460ff191690558051630e50ce0360e21b8152905191926003929091633943380c91600480830192879291908290030181865afa158015610228573d6000803e3d6000fd5b600060038260405161040691906107d4565b908152604051908190036020019020546001600160a01b031692915050565b6000546001600160a01b0316331461044f5760405162461bcd60e51b81526004016101de906106f8565b6001600160a01b038116600081815260026020526040808220805460ff191660011790558051630e50ce0360e21b8152905184936003939092633943380c92600480830193928290030181865afa158015610228573d6000803e3d6000fd5b6000546001600160a01b031633146104d85760405162461bcd60e51b81526004016101de906106f8565b6001600160a01b03811661053d5760405162461bcd60e51b815260206004820152602660248201527f4f776e61626c653a206e6577206f776e657220697320746865207a65726f206160448201526564647265737360d01b60648201526084016101de565b610332815b600080546001600160a01b038381166001600160a01b0319831681178455604051919092169283917f8be0079c531659141344cd1fd0a4f28419497f9722a3daafe3b4186f6b6457e09190a35050565b6001600160a01b038116811461033257600080fd5b6000602082840312156105b957600080fd5b81356105c481610592565b9392505050565b600080604083850312156105de57600080fd5b82356105e981610592565b9150602083013580151581146105fe57600080fd5b809150509250929050565b634e487b7160e01b600052604160045260246000fd5b604051601f8201601f1916810167ffffffffffffffff8111828210171561064857610648610609565b604052919050565b600067ffffffffffffffff82111561066a5761066a610609565b50601f01601f191660200190565b60006020828403121561068a57600080fd5b813567ffffffffffffffff8111156106a157600080fd5b8201601f810184136106b257600080fd5b80356106c56106c082610650565b61061f565b8181528560208385010111156106da57600080fd5b81602084016020830137600091810160200191909152949350505050565b6020808252818101527f4f776e61626c653a2063616c6c6572206973206e6f7420746865206f776e6572604082015260600190565b60005b83811015610748578181015183820152602001610730565b83811115610757576000848401525b50505050565b60006020828403121561076f57600080fd5b815167ffffffffffffffff81111561078657600080fd5b8201601f8101841361079757600080fd5b80516107a56106c082610650565b8181528560208385010111156107ba57600080fd5b6107cb82602083016020860161072d565b95945050505050565b600082516107e681846020870161072d565b919091019291505056fea26469706673582212209bd784322d6496e542015315ca9e471157835761f75354db440487afcf5a31c764736f6c634300080a0033",
    "linkReferences": {}
  }
}