{
  "abi": [
    {
      "anonymous": false,
      "inputs": [
        {
          "indexed": true,
          "internalType": "address",
          "name": "previousOwner",
          "type": "address"
        },
        {
          "indexed": true,
          "internalType": "address",
          "name": "newOwner",
          "type": "address"
        }
      ],
      "name": "OwnershipTransferred",
      "type": "event"
    },
    {
      "inputs": [
        {
          "internalType": "address",
          "name": "object",
          "type": "address"
        }
      ],
      "name": "allowed",
      "outputs": [
        {
          "internalType": "bool",
          "name": "",
          "type": "bool"
        }
      ],
      "stateMutability": "view",
      "type": "function"
    },
    {
      "inputs": [
        {
          "internalType": "contract ISanctisExtension",
          "name": "object",
          "type": "address"
        }
      ],
      "name": "ejectAndDisallowExtension",
      "outputs": [],
      "stateMutability": "nonpayable",
      "type": "function"
    },
    {
      "inputs": [
        {
          "internalType": "bytes32",
          "name": "key",
          "type": "bytes32"
        }
      ],
      "name": "extension",
      "outputs": [
        {
          "internalType": "address",
          "name": "",
          "type": "address"
        }
      ],
      "stateMutability": "view",
      "type": "function"
    },
    {
      "inputs": [
        {
          "internalType": "contract ISanctisExtension",
          "name": "object",
          "type": "address"
        }
      ],
      "name": "insertAndAllowExtension",
      "outputs": [],
      "stateMutability": "nonpayable",
      "type": "function"
    },
    {
      "inputs": [],
      "name": "owner",
      "outputs": [
        {
          "internalType": "address",
          "name": "",
          "type": "address"
        }
      ],
      "stateMutability": "view",
      "type": "function"
    },
    {
      "inputs": [],
      "name": "parliamentExecutor",
      "outputs": [
        {
          "internalType": "address",
          "name": "",
          "type": "address"
        }
      ],
      "stateMutability": "view",
      "type": "function"
    },
    {
      "inputs": [
        {
          "internalType": "contract ISanctisExtension",
          "name": "object",
          "type": "address"
        }
      ],
      "name": "reloadExtension",
      "outputs": [],
      "stateMutability": "nonpayable",
      "type": "function"
    },
    {
      "inputs": [],
      "name": "renounceOwnership",
      "outputs": [],
      "stateMutability": "nonpayable",
      "type": "function"
    },
    {
      "inputs": [
        {
          "internalType": "address",
          "name": "object",
          "type": "address"
        },
        {
          "internalType": "bool",
          "name": "value",
          "type": "bool"
        }
      ],
      "name": "setAllowed",
      "outputs": [],
      "stateMutability": "nonpayable",
      "type": "function"
    },
    {
      "inputs": [
        {
          "internalType": "address",
          "name": "newParliamentExecutor",
          "type": "address"
        }
      ],
      "name": "setParliamentExecutor",
      "outputs": [],
      "stateMutability": "nonpayable",
      "type": "function"
    },
    {
      "inputs": [
        {
          "internalType": "address",
          "name": "newOwner",
          "type": "address"
        }
      ],
      "name": "transferOwnership",
      "outputs": [],
      "stateMutability": "nonpayable",
      "type": "function"
    }
  ],
  "bytecode": {
    "object": "0x608060405234801561001057600080fd5b5061001a3361001f565b61006f565b600080546001600160a01b038381166001600160a01b0319831681178455604051919092169283917f8be0079c531659141344cd1fd0a4f28419497f9722a3daafe3b4186f6b6457e09190a35050565b610a7c8061007e6000396000f3fe608060405234801561001057600080fd5b50600436106100c95760003560e01c80637caed0cc11610081578063aa112ce01161005b578063aa112ce0146101bc578063d63a8e11146101cf578063f2fde38b1461021857600080fd5b80637caed0cc146101555780638a5cde0a146101685780638da5cb5b1461019e57600080fd5b806347585304116100b257806347585304146100f65780635870c2121461013a578063715018a61461014d57600080fd5b8063421ad0f1146100ce5780634697f05d146100e3575b600080fd5b6100e16100dc3660046109b2565b61022b565b005b6100e16100f13660046109d6565b610374565b60015473ffffffffffffffffffffffffffffffffffffffff165b60405173ffffffffffffffffffffffffffffffffffffffff90911681526020015b60405180910390f35b6100e16101483660046109b2565b61044b565b6100e1610518565b6100e16101633660046109b2565b6105a5565b610110610176366004610a14565b60009081526003602052604090205473ffffffffffffffffffffffffffffffffffffffff1690565b60005473ffffffffffffffffffffffffffffffffffffffff16610110565b6100e16101ca3660046109b2565b6106cb565b6102086101dd3660046109b2565b73ffffffffffffffffffffffffffffffffffffffff1660009081526002602052604090205460ff1690565b6040519015158152602001610131565b6100e16102263660046109b2565b6107f2565b60005473ffffffffffffffffffffffffffffffffffffffff1633146102b1576040517f08c379a000000000000000000000000000000000000000000000000000000000815260206004820181905260248201527f4f776e61626c653a2063616c6c6572206973206e6f7420746865206f776e657260448201526064015b60405180910390fd5b80600360008373ffffffffffffffffffffffffffffffffffffffff16633943380c6040518163ffffffff1660e01b8152600401602060405180830381865afa158015610301573d6000803e3d6000fd5b505050506040513d601f19601f820116820180604052508101906103259190610a2d565b815260200190815260200160002060006101000a81548173ffffffffffffffffffffffffffffffffffffffff021916908373ffffffffffffffffffffffffffffffffffffffff16021790555050565b60005473ffffffffffffffffffffffffffffffffffffffff1633146103f5576040517f08c379a000000000000000000000000000000000000000000000000000000000815260206004820181905260248201527f4f776e61626c653a2063616c6c6572206973206e6f7420746865206f776e657260448201526064016102a8565b73ffffffffffffffffffffffffffffffffffffffff91909116600090815260026020526040902080547fffffffffffffffffffffffffffffffffffffffffffffffffffffffffffffff0016911515919091179055565b60005473ffffffffffffffffffffffffffffffffffffffff1633146104cc576040517f08c379a000000000000000000000000000000000000000000000000000000000815260206004820181905260248201527f4f776e61626c653a2063616c6c6572206973206e6f7420746865206f776e657260448201526064016102a8565b600180547fffffffffffffffffffffffff00000000000000000000000000000000000000001673ffffffffffffffffffffffffffffffffffffffff8316179055610515816107f2565b50565b60005473ffffffffffffffffffffffffffffffffffffffff163314610599576040517f08c379a000000000000000000000000000000000000000000000000000000000815260206004820181905260248201527f4f776e61626c653a2063616c6c6572206973206e6f7420746865206f776e657260448201526064016102a8565b6105a3600061091b565b565b60005473ffffffffffffffffffffffffffffffffffffffff163314610626576040517f08c379a000000000000000000000000000000000000000000000000000000000815260206004820181905260248201527f4f776e61626c653a2063616c6c6572206973206e6f7420746865206f776e657260448201526064016102a8565b73ffffffffffffffffffffffffffffffffffffffff8116600081815260026020908152604080832080547fffffffffffffffffffffffffffffffffffffffffffffffffffffffffffffff0016905580517f3943380c0000000000000000000000000000000000000000000000000000000081529051929360039385939192633943380c9260048083019391928290030181865afa158015610301573d6000803e3d6000fd5b60005473ffffffffffffffffffffffffffffffffffffffff16331461074c576040517f08c379a000000000000000000000000000000000000000000000000000000000815260206004820181905260248201527f4f776e61626c653a2063616c6c6572206973206e6f7420746865206f776e657260448201526064016102a8565b73ffffffffffffffffffffffffffffffffffffffff8116600081815260026020908152604080832080547fffffffffffffffffffffffffffffffffffffffffffffffffffffffffffffff0016600117905580517f3943380c00000000000000000000000000000000000000000000000000000000815290518594600394939092633943380c92600480830193928290030181865afa158015610301573d6000803e3d6000fd5b60005473ffffffffffffffffffffffffffffffffffffffff163314610873576040517f08c379a000000000000000000000000000000000000000000000000000000000815260206004820181905260248201527f4f776e61626c653a2063616c6c6572206973206e6f7420746865206f776e657260448201526064016102a8565b73ffffffffffffffffffffffffffffffffffffffff8116610916576040517f08c379a000000000000000000000000000000000000000000000000000000000815260206004820152602660248201527f4f776e61626c653a206e6577206f776e657220697320746865207a65726f206160448201527f646472657373000000000000000000000000000000000000000000000000000060648201526084016102a8565b610515815b6000805473ffffffffffffffffffffffffffffffffffffffff8381167fffffffffffffffffffffffff0000000000000000000000000000000000000000831681178455604051919092169283917f8be0079c531659141344cd1fd0a4f28419497f9722a3daafe3b4186f6b6457e09190a35050565b73ffffffffffffffffffffffffffffffffffffffff8116811461051557600080fd5b6000602082840312156109c457600080fd5b81356109cf81610990565b9392505050565b600080604083850312156109e957600080fd5b82356109f481610990565b915060208301358015158114610a0957600080fd5b809150509250929050565b600060208284031215610a2657600080fd5b5035919050565b600060208284031215610a3f57600080fd5b505191905056fea264697066735822122029db6396a32d490df139a54921b846c504cb87b8bd3763178cf8bc326e0d016364736f6c634300080a0033",
    "linkReferences": {}
  }
}