{
  "abi": [
    {
      "inputs": [
        {
          "internalType": "contract ISanctis",
          "name": "sanctis",
          "type": "address"
        }
      ],
      "stateMutability": "nonpayable",
      "type": "constructor"
    },
    {
      "inputs": [
        {
          "internalType": "address",
          "name": "sender",
          "type": "address"
        }
      ],
      "name": "NotAllowed",
      "type": "error"
    },
    {
      "inputs": [
        {
          "internalType": "address",
          "name": "sender",
          "type": "address"
        }
      ],
      "name": "NotTheExecutor",
      "type": "error"
    },
    {
      "inputs": [
        {
          "internalType": "address",
          "name": "sender",
          "type": "address"
        }
      ],
      "name": "NotTheSanctis",
      "type": "error"
    },
    {
      "inputs": [
        {
          "internalType": "uint256",
          "name": "fleetId",
          "type": "uint256"
        },
        {
          "internalType": "contract IResource",
          "name": "resource",
          "type": "address"
        },
        {
          "internalType": "uint256",
          "name": "amount",
          "type": "uint256"
        }
      ],
      "name": "burnToFleet",
      "outputs": [],
      "stateMutability": "nonpayable",
      "type": "function"
    },
    {
      "inputs": [
        {
          "internalType": "contract ISanctis",
          "name": "newSanctis",
          "type": "address"
        }
      ],
      "name": "changeSanctis",
      "outputs": [],
      "stateMutability": "nonpayable",
      "type": "function"
    },
    {
      "inputs": [
        {
          "internalType": "contract IResource",
          "name": "resource",
          "type": "address"
        },
        {
          "internalType": "uint256",
          "name": "planetId",
          "type": "uint256"
        }
      ],
      "name": "getToken",
      "outputs": [
        {
          "internalType": "address",
          "name": "",
          "type": "address"
        }
      ],
      "stateMutability": "view",
      "type": "function"
    },
    {
      "inputs": [
        {
          "internalType": "uint256",
          "name": "fleetId",
          "type": "uint256"
        },
        {
          "internalType": "contract IResource",
          "name": "resource",
          "type": "address"
        },
        {
          "internalType": "uint256",
          "name": "amount",
          "type": "uint256"
        }
      ],
      "name": "mintFromFleet",
      "outputs": [],
      "stateMutability": "nonpayable",
      "type": "function"
    },
    {
      "inputs": [],
      "name": "sanctis",
      "outputs": [
        {
          "internalType": "contract ISanctis",
          "name": "",
          "type": "address"
        }
      ],
      "stateMutability": "view",
      "type": "function"
    }
  ],
  "bytecode": {
    "object": "0x608060405234801561001057600080fd5b50604051611c30380380611c3083398101604081905261002f91610054565b600080546001600160a01b0319166001600160a01b0392909216919091179055610084565b60006020828403121561006657600080fd5b81516001600160a01b038116811461007d57600080fd5b9392505050565b611b9d806100936000396000f3fe60806040523480156200001157600080fd5b50600436106200005e5760003560e01c806338dc9ef6146200006357806343d7cce6146200007c5780635087883f14620000d1578063bf206e4514620000e5578063df2f104a14620000fc575b600080fd5b6200007a62000074366004620007c0565b62000113565b005b620000b56200008d366004620007fb565b60009081526001602090815260408083206001600160a01b0394851684529091529020541690565b6040516001600160a01b03909116815260200160405180910390f35b600054620000b5906001600160a01b031681565b6200007a620000f63660046200082a565b6200039f565b6200007a6200010d366004620007c0565b6200045f565b600080546040805180820182526006815265464c4545545360d01b60208201529051633fde36b160e11b8152600193926001600160a01b031691637fbc6d629162000162919060040162000851565b602060405180830381865afa15801562000180573d6000803e3d6000fd5b505050506040513d601f19601f82011682018060405250810190620001a69190620008a9565b6001600160a01b0316637419e9a2866040518263ffffffff1660e01b8152600401620001d491815260200190565b61014060405180830381865afa158015620001f3573d6000803e3d6000fd5b505050506040513d601f19601f8201168201806040525081019062000219919062000917565b602090810151825281810192909252604090810160009081206001600160a01b0386811683529352819020549051632770a7eb60e21b815233600482015260248101849052911690639dc29fac90604401600060405180830381600087803b1580156200028557600080fd5b505af11580156200029a573d6000803e3d6000fd5b50506000546040805180820182526006815265464c4545545360d01b60208201529051633fde36b160e11b81526001600160a01b039092169350637fbc6d629250620002e99160040162000851565b602060405180830381865afa15801562000307573d6000803e3d6000fd5b505050506040513d601f19601f820116820180604052508101906200032d9190620008a9565b60405163755677b960e01b8152600481018590526001600160a01b03848116602483015260448201849052919091169063755677b990606401600060405180830381600087803b1580156200038157600080fd5b505af115801562000396573d6000803e3d6000fd5b50505050505050565b600054604080516311d614c160e21b8152905133926001600160a01b03169163475853049160048083019260209291908290030181865afa158015620003e9573d6000803e3d6000fd5b505050506040513d601f19601f820116820180604052508101906200040f9190620008a9565b6001600160a01b0316146200043d5760405163968c45d960e01b815233600482015260240160405180910390fd5b600080546001600160a01b0319166001600160a01b0392909216919091179055565b6000546040805180820182526006815265464c4545545360d01b60208201529051633fde36b160e11b81526001600160a01b0390921691637fbc6d6291620004aa9160040162000851565b602060405180830381865afa158015620004c8573d6000803e3d6000fd5b505050506040513d601f19601f82011682018060405250810190620004ee9190620008a9565b604051625cf53360e31b8152600481018590526001600160a01b0384811660248301526044820184905291909116906302e7a99890606401600060405180830381600087803b1580156200054157600080fd5b505af115801562000556573d6000803e3d6000fd5b5050600080546040805180820182526006815265464c4545545360d01b60208201529051633fde36b160e11b81529294506001600160a01b039091169250637fbc6d6291620005a9919060040162000851565b602060405180830381865afa158015620005c7573d6000803e3d6000fd5b505050506040513d601f19601f82011682018060405250810190620005ed9190620008a9565b6001600160a01b0316637419e9a2856040518263ffffffff1660e01b81526004016200061b91815260200190565b61014060405180830381865afa1580156200063a573d6000803e3d6000fd5b505050506040513d601f19601f8201168201806040525081019062000660919062000917565b60208082015160009081526001825260408082206001600160a01b0388811684529352902054919250166200071257828160200151604051620006a39062000799565b6001600160a01b0390921682526020820152604001604051809103906000f080158015620006d5573d6000803e3d6000fd5b5060208281015160009081526001825260408082206001600160a01b0388811684529352902080546001600160a01b031916929091169190911790555b60208181015160009081526001825260408082206001600160a01b0387811684529352908190205490516340c10f1960e01b8152336004820152602481018590529116906340c10f1990604401600060405180830381600087803b1580156200077a57600080fd5b505af11580156200078f573d6000803e3d6000fd5b5050505050505050565b6111c180620009a783390190565b6001600160a01b0381168114620007bd57600080fd5b50565b600080600060608486031215620007d657600080fd5b833592506020840135620007ea81620007a7565b929592945050506040919091013590565b600080604083850312156200080f57600080fd5b82356200081c81620007a7565b946020939093013593505050565b6000602082840312156200083d57600080fd5b81356200084a81620007a7565b9392505050565b600060208083528351808285015260005b81811015620008805785810183015185820160400152820162000862565b8181111562000893576000604083870101525b50601f01601f1916929092016040019392505050565b600060208284031215620008bc57600080fd5b81516200084a81620007a7565b604051610140810167ffffffffffffffff81118282101715620008fc57634e487b7160e01b600052604160045260246000fd5b60405290565b8051600481106200091257600080fd5b919050565b600061014082840312156200092b57600080fd5b62000935620008c9565b825181526020830151602082015260408301516040820152606083015160608201526080830151608082015260a083015160a082015260c083015160c082015260e083015160e08201526101008084015181830152506101206200099b81850162000902565b90820152939250505056fe60806040523480156200001157600080fd5b50604051620011c1380380620011c1833981016040819052620000349162000275565b816001600160a01b03166306fdde036040518163ffffffff1660e01b8152600401600060405180830381865afa15801562000073573d6000803e3d6000fd5b505050506040513d6000823e601f3d908101601f191682016040526200009d9190810190620002fa565b81604051602001620000b1929190620003b2565b604051602081830303815290604052826001600160a01b03166395d89b416040518163ffffffff1660e01b8152600401600060405180830381865afa158015620000ff573d6000803e3d6000fd5b505050506040513d6000823e601f3d908101601f19168201604052620001299190810190620002fa565b81516200013e906003906020850190620001cf565b50805162000154906004906020840190620001cf565b505050620001716200016b6200017960201b60201c565b6200017d565b505062000421565b3390565b600580546001600160a01b038381166001600160a01b0319831681179093556040519116919082907f8be0079c531659141344cd1fd0a4f28419497f9722a3daafe3b4186f6b6457e090600090a35050565b828054620001dd90620003e4565b90600052602060002090601f0160209004810192826200020157600085556200024c565b82601f106200021c57805160ff19168380011785556200024c565b828001600101855582156200024c579182015b828111156200024c5782518255916020019190600101906200022f565b506200025a9291506200025e565b5090565b5b808211156200025a57600081556001016200025f565b600080604083850312156200028957600080fd5b82516001600160a01b0381168114620002a157600080fd5b6020939093015192949293505050565b634e487b7160e01b600052604160045260246000fd5b60005b83811015620002e4578181015183820152602001620002ca565b83811115620002f4576000848401525b50505050565b6000602082840312156200030d57600080fd5b81516001600160401b03808211156200032557600080fd5b818401915084601f8301126200033a57600080fd5b8151818111156200034f576200034f620002b1565b604051601f8201601f19908116603f011681019083821181831017156200037a576200037a620002b1565b816040528281528760208487010111156200039457600080fd5b620003a7836020830160208801620002c7565b979650505050505050565b60008351620003c6818460208801620002c7565b6301037b3160e51b9201918252506004810191909152602401919050565b600181811c90821680620003f957607f821691505b602082108114156200041b57634e487b7160e01b600052602260045260246000fd5b50919050565b610d9080620004316000396000f3fe608060405234801561001057600080fd5b50600436106101005760003560e01c8063715018a611610097578063a457c2d711610066578063a457c2d714610209578063a9059cbb1461021c578063dd62ed3e1461022f578063f2fde38b1461026857600080fd5b8063715018a6146101cb5780638da5cb5b146101d357806395d89b41146101ee5780639dc29fac146101f657600080fd5b8063313ce567116100d3578063313ce5671461016b578063395093511461017a57806340c10f191461018d57806370a08231146101a257600080fd5b806306fdde0314610105578063095ea7b31461012357806318160ddd1461014657806323b872dd14610158575b600080fd5b61010d61027b565b60405161011a9190610b79565b60405180910390f35b610136610131366004610bea565b61030d565b604051901515815260200161011a565b6002545b60405190815260200161011a565b610136610166366004610c14565b610325565b6040516012815260200161011a565b610136610188366004610bea565b610349565b6101a061019b366004610bea565b610388565b005b61014a6101b0366004610c50565b6001600160a01b031660009081526020819052604090205490565b6101a06103c9565b6005546040516001600160a01b03909116815260200161011a565b61010d6103ff565b6101a0610204366004610bea565b61040e565b610136610217366004610bea565b610442565b61013661022a366004610bea565b6104d4565b61014a61023d366004610c72565b6001600160a01b03918216600090815260016020908152604080832093909416825291909152205490565b6101a0610276366004610c50565b6104e2565b60606003805461028a90610ca5565b80601f01602080910402602001604051908101604052809291908181526020018280546102b690610ca5565b80156103035780601f106102d857610100808354040283529160200191610303565b820191906000526020600020905b8154815290600101906020018083116102e657829003601f168201915b5050505050905090565b60003361031b81858561057d565b5060019392505050565b6000336103338582856106a2565b61033e858585610734565b506001949350505050565b3360008181526001602090815260408083206001600160a01b038716845290915281205490919061031b9082908690610383908790610cf6565b61057d565b6005546001600160a01b031633146103bb5760405162461bcd60e51b81526004016103b290610d0e565b60405180910390fd5b6103c58282610902565b5050565b6005546001600160a01b031633146103f35760405162461bcd60e51b81526004016103b290610d0e565b6103fd60006109e1565b565b60606004805461028a90610ca5565b6005546001600160a01b031633146104385760405162461bcd60e51b81526004016103b290610d0e565b6103c58282610a33565b3360008181526001602090815260408083206001600160a01b0387168452909152812054909190838110156104c75760405162461bcd60e51b815260206004820152602560248201527f45524332303a2064656372656173656420616c6c6f77616e63652062656c6f77604482015264207a65726f60d81b60648201526084016103b2565b61033e828686840361057d565b60003361031b818585610734565b6005546001600160a01b0316331461050c5760405162461bcd60e51b81526004016103b290610d0e565b6001600160a01b0381166105715760405162461bcd60e51b815260206004820152602660248201527f4f776e61626c653a206e6577206f776e657220697320746865207a65726f206160448201526564647265737360d01b60648201526084016103b2565b61057a816109e1565b50565b6001600160a01b0383166105df5760405162461bcd60e51b8152602060048201526024808201527f45524332303a20617070726f76652066726f6d20746865207a65726f206164646044820152637265737360e01b60648201526084016103b2565b6001600160a01b0382166106405760405162461bcd60e51b815260206004820152602260248201527f45524332303a20617070726f766520746f20746865207a65726f206164647265604482015261737360f01b60648201526084016103b2565b6001600160a01b0383811660008181526001602090815260408083209487168084529482529182902085905590518481527f8c5be1e5ebec7d5bd14f71427d1e84f3dd0314c0f7b2291e5b200ac8c7c3b92591015b60405180910390a3505050565b6001600160a01b03838116600090815260016020908152604080832093861683529290522054600019811461072e57818110156107215760405162461bcd60e51b815260206004820152601d60248201527f45524332303a20696e73756666696369656e7420616c6c6f77616e636500000060448201526064016103b2565b61072e848484840361057d565b50505050565b6001600160a01b0383166107985760405162461bcd60e51b815260206004820152602560248201527f45524332303a207472616e736665722066726f6d20746865207a65726f206164604482015264647265737360d81b60648201526084016103b2565b6001600160a01b0382166107fa5760405162461bcd60e51b815260206004820152602360248201527f45524332303a207472616e7366657220746f20746865207a65726f206164647260448201526265737360e81b60648201526084016103b2565b6001600160a01b038316600090815260208190526040902054818110156108725760405162461bcd60e51b815260206004820152602660248201527f45524332303a207472616e7366657220616d6f756e7420657863656564732062604482015265616c616e636560d01b60648201526084016103b2565b6001600160a01b038085166000908152602081905260408082208585039055918516815290812080548492906108a9908490610cf6565b92505081905550826001600160a01b0316846001600160a01b03167fddf252ad1be2c89b69c2b068fc378daa952ba7f163c4a11628f55a4df523b3ef846040516108f591815260200190565b60405180910390a361072e565b6001600160a01b0382166109585760405162461bcd60e51b815260206004820152601f60248201527f45524332303a206d696e7420746f20746865207a65726f20616464726573730060448201526064016103b2565b806002600082825461096a9190610cf6565b90915550506001600160a01b03821660009081526020819052604081208054839290610997908490610cf6565b90915550506040518181526001600160a01b038316906000907fddf252ad1be2c89b69c2b068fc378daa952ba7f163c4a11628f55a4df523b3ef9060200160405180910390a35050565b600580546001600160a01b038381166001600160a01b0319831681179093556040519116919082907f8be0079c531659141344cd1fd0a4f28419497f9722a3daafe3b4186f6b6457e090600090a35050565b6001600160a01b038216610a935760405162461bcd60e51b815260206004820152602160248201527f45524332303a206275726e2066726f6d20746865207a65726f206164647265736044820152607360f81b60648201526084016103b2565b6001600160a01b03821660009081526020819052604090205481811015610b075760405162461bcd60e51b815260206004820152602260248201527f45524332303a206275726e20616d6f756e7420657863656564732062616c616e604482015261636560f01b60648201526084016103b2565b6001600160a01b0383166000908152602081905260408120838303905560028054849290610b36908490610d43565b90915550506040518281526000906001600160a01b038516907fddf252ad1be2c89b69c2b068fc378daa952ba7f163c4a11628f55a4df523b3ef90602001610695565b600060208083528351808285015260005b81811015610ba657858101830151858201604001528201610b8a565b81811115610bb8576000604083870101525b50601f01601f1916929092016040019392505050565b80356001600160a01b0381168114610be557600080fd5b919050565b60008060408385031215610bfd57600080fd5b610c0683610bce565b946020939093013593505050565b600080600060608486031215610c2957600080fd5b610c3284610bce565b9250610c4060208501610bce565b9150604084013590509250925092565b600060208284031215610c6257600080fd5b610c6b82610bce565b9392505050565b60008060408385031215610c8557600080fd5b610c8e83610bce565b9150610c9c60208401610bce565b90509250929050565b600181811c90821680610cb957607f821691505b60208210811415610cda57634e487b7160e01b600052602260045260246000fd5b50919050565b634e487b7160e01b600052601160045260246000fd5b60008219821115610d0957610d09610ce0565b500190565b6020808252818101527f4f776e61626c653a2063616c6c6572206973206e6f7420746865206f776e6572604082015260600190565b600082821015610d5557610d55610ce0565b50039056fea26469706673582212206a1ce57a2404f11555ed1c61878ce0c0f954acdd27ba7da9fbb403a6eb841d0364736f6c634300080a0033a2646970667358221220dbb2861d0ae7ffc2d262af7de8568f7d727de675dc1bd9cbcea95d0f7e4fce2964736f6c634300080a0033",
    "linkReferences": {}
  }
}