{
  "abi": [
    {
      "inputs": [
        {
          "internalType": "contract ISanctis",
          "name": "_sanctis",
          "type": "address"
        }
      ],
      "stateMutability": "nonpayable",
      "type": "constructor"
    },
    {
      "inputs": [
        {
          "internalType": "uint256",
          "name": "fleetId",
          "type": "uint256"
        },
        {
          "internalType": "contract IResource",
          "name": "resource",
          "type": "address"
        },
        {
          "internalType": "uint256",
          "name": "amount",
          "type": "uint256"
        }
      ],
      "name": "burnToFleet",
      "outputs": [],
      "stateMutability": "nonpayable",
      "type": "function"
    },
    {
      "inputs": [
        {
          "internalType": "contract ISanctis",
          "name": "newSanctis",
          "type": "address"
        }
      ],
      "name": "changeSanctis",
      "outputs": [],
      "stateMutability": "nonpayable",
      "type": "function"
    },
    {
      "inputs": [
        {
          "internalType": "contract IResource",
          "name": "resource",
          "type": "address"
        },
        {
          "internalType": "uint256",
          "name": "planetId",
          "type": "uint256"
        }
      ],
      "name": "getToken",
      "outputs": [
        {
          "internalType": "address",
          "name": "",
          "type": "address"
        }
      ],
      "stateMutability": "view",
      "type": "function"
    },
    {
      "inputs": [
        {
          "internalType": "uint256",
          "name": "fleetId",
          "type": "uint256"
        },
        {
          "internalType": "contract IResource",
          "name": "resource",
          "type": "address"
        },
        {
          "internalType": "uint256",
          "name": "amount",
          "type": "uint256"
        }
      ],
      "name": "mintFromFleet",
      "outputs": [],
      "stateMutability": "nonpayable",
      "type": "function"
    },
    {
      "inputs": [],
      "name": "s_sanctis",
      "outputs": [
        {
          "internalType": "contract ISanctis",
          "name": "",
          "type": "address"
        }
      ],
      "stateMutability": "view",
      "type": "function"
    },
    {
      "inputs": [],
      "name": "sanctis",
      "outputs": [
        {
          "internalType": "contract ISanctis",
          "name": "",
          "type": "address"
        }
      ],
      "stateMutability": "view",
      "type": "function"
    }
  ],
  "bytecode": {
    "object": "0x608060405234801561001057600080fd5b5060405161247a38038061247a83398101604081905261002f91610054565b600080546001600160a01b0319166001600160a01b0392909216919091179055610084565b60006020828403121561006657600080fd5b81516001600160a01b038116811461007d57600080fd5b9392505050565b6123e7806100936000396000f3fe60806040523480156200001157600080fd5b50600436106200007b5760003560e01c80639797efda11620000565780639797efda1462000112578063bf206e451462000133578063df2f104a146200014a57600080fd5b806338dc9ef6146200008057806343d7cce614620000995780635087883f1462000108575b600080fd5b620000976200009136600462000b74565b62000161565b005b620000df620000aa36600462000baf565b600090815260016020908152604080832073ffffffffffffffffffffffffffffffffffffffff94851684529091529020541690565b60405173ffffffffffffffffffffffffffffffffffffffff909116815260200160405180910390f35b620000df62000491565b600054620000df9073ffffffffffffffffffffffffffffffffffffffff1681565b620000976200014436600462000bde565b620005c8565b620000976200015b36600462000b74565b62000724565b600080546040517f8a5cde0a0000000000000000000000000000000000000000000000000000000081527f464c45455453000000000000000000000000000000000000000000000000000060048201526001929173ffffffffffffffffffffffffffffffffffffffff1690638a5cde0a90602401602060405180830381865afa158015620001f3573d6000803e3d6000fd5b505050506040513d601f19601f8201168201806040525081019062000219919062000c05565b73ffffffffffffffffffffffffffffffffffffffff16637419e9a2866040518263ffffffff1660e01b81526004016200025491815260200190565b61014060405180830381865afa15801562000273573d6000803e3d6000fd5b505050506040513d601f19601f8201168201806040525081019062000299919062000c77565b6020908101518252818101929092526040908101600090812073ffffffffffffffffffffffffffffffffffffffff868116835293528190205490517f9dc29fac00000000000000000000000000000000000000000000000000000000815233600482015260248101849052911690639dc29fac90604401600060405180830381600087803b1580156200032b57600080fd5b505af115801562000340573d6000803e3d6000fd5b50506000546040517f8a5cde0a0000000000000000000000000000000000000000000000000000000081527f464c454554530000000000000000000000000000000000000000000000000000600482015273ffffffffffffffffffffffffffffffffffffffff9091169250638a5cde0a9150602401602060405180830381865afa158015620003d3573d6000803e3d6000fd5b505050506040513d601f19601f82011682018060405250810190620003f9919062000c05565b6040517f755677b90000000000000000000000000000000000000000000000000000000081526004810185905273ffffffffffffffffffffffffffffffffffffffff848116602483015260448201849052919091169063755677b990606401600060405180830381600087803b1580156200047357600080fd5b505af115801562000488573d6000803e3d6000fd5b50505050505050565b60008054604080517f475853040000000000000000000000000000000000000000000000000000000081529051339273ffffffffffffffffffffffffffffffffffffffff169163475853049160048083019260209291908290030181865afa15801562000502573d6000803e3d6000fd5b505050506040513d601f19601f8201168201806040525081019062000528919062000c05565b73ffffffffffffffffffffffffffffffffffffffff1614620005ab576040517f08c379a000000000000000000000000000000000000000000000000000000000815260206004820152601060248201527f4d6f64756c653a204578656375746f720000000000000000000000000000000060448201526064015b60405180910390fd5b5060005473ffffffffffffffffffffffffffffffffffffffff1690565b600054604080517f475853040000000000000000000000000000000000000000000000000000000081529051339273ffffffffffffffffffffffffffffffffffffffff169163475853049160048083019260209291908290030181865afa15801562000638573d6000803e3d6000fd5b505050506040513d601f19601f820116820180604052508101906200065e919062000c05565b73ffffffffffffffffffffffffffffffffffffffff1614620006dd576040517f08c379a000000000000000000000000000000000000000000000000000000000815260206004820152601060248201527f4d6f64756c653a204578656375746f72000000000000000000000000000000006044820152606401620005a2565b600080547fffffffffffffffffffffffff00000000000000000000000000000000000000001673ffffffffffffffffffffffffffffffffffffffff92909216919091179055565b6000546040517f8a5cde0a0000000000000000000000000000000000000000000000000000000081527f464c454554530000000000000000000000000000000000000000000000000000600482015273ffffffffffffffffffffffffffffffffffffffff90911690638a5cde0a90602401602060405180830381865afa158015620007b3573d6000803e3d6000fd5b505050506040513d601f19601f82011682018060405250810190620007d9919062000c05565b6040517f02e7a9980000000000000000000000000000000000000000000000000000000081526004810185905273ffffffffffffffffffffffffffffffffffffffff84811660248301526044820184905291909116906302e7a99890606401600060405180830381600087803b1580156200085357600080fd5b505af115801562000868573d6000803e3d6000fd5b5050600080546040517f8a5cde0a0000000000000000000000000000000000000000000000000000000081527f464c454554530000000000000000000000000000000000000000000000000000600482015291935073ffffffffffffffffffffffffffffffffffffffff169150638a5cde0a90602401602060405180830381865afa158015620008fc573d6000803e3d6000fd5b505050506040513d601f19601f8201168201806040525081019062000922919062000c05565b73ffffffffffffffffffffffffffffffffffffffff16637419e9a2856040518263ffffffff1660e01b81526004016200095d91815260200190565b61014060405180830381865afa1580156200097c573d6000803e3d6000fd5b505050506040513d601f19601f82011682018060405250810190620009a2919062000c77565b602080820151600090815260018252604080822073ffffffffffffffffffffffffffffffffffffffff888116845293529020549192501662000a9357828160200151604051620009f29062000b40565b73ffffffffffffffffffffffffffffffffffffffff90921682526020820152604001604051809103906000f08015801562000a31573d6000803e3d6000fd5b50602082810151600090815260018252604080822073ffffffffffffffffffffffffffffffffffffffff88811684529352902080547fffffffffffffffffffffffff000000000000000000000000000000000000000016929091169190911790555b602081810151600090815260018252604080822073ffffffffffffffffffffffffffffffffffffffff87811684529352908190205490517f40c10f19000000000000000000000000000000000000000000000000000000008152336004820152602481018590529116906340c10f1990604401600060405180830381600087803b15801562000b2157600080fd5b505af115801562000b36573d6000803e3d6000fd5b5050505050505050565b6116b08062000d0283390190565b73ffffffffffffffffffffffffffffffffffffffff8116811462000b7157600080fd5b50565b60008060006060848603121562000b8a57600080fd5b83359250602084013562000b9e8162000b4e565b929592945050506040919091013590565b6000806040838503121562000bc357600080fd5b823562000bd08162000b4e565b946020939093013593505050565b60006020828403121562000bf157600080fd5b813562000bfe8162000b4e565b9392505050565b60006020828403121562000c1857600080fd5b815162000bfe8162000b4e565b604051610140810167ffffffffffffffff8111828210171562000c71577f4e487b7100000000000000000000000000000000000000000000000000000000600052604160045260246000fd5b60405290565b6000610140828403121562000c8b57600080fd5b62000c9562000c25565b825181526020830151602082015260408301516040820152606083015160608201526080830151608082015260a083015160a082015260c083015160c082015260e083015160e0820152610100808401518183015250610120808401518183015250809150509291505056fe60806040523480156200001157600080fd5b50604051620016b0380380620016b0833981016040819052620000349162000275565b816001600160a01b03166306fdde036040518163ffffffff1660e01b8152600401600060405180830381865afa15801562000073573d6000803e3d6000fd5b505050506040513d6000823e601f3d908101601f191682016040526200009d9190810190620002fa565b81604051602001620000b1929190620003b2565b604051602081830303815290604052826001600160a01b03166395d89b416040518163ffffffff1660e01b8152600401600060405180830381865afa158015620000ff573d6000803e3d6000fd5b505050506040513d6000823e601f3d908101601f19168201604052620001299190810190620002fa565b81516200013e906003906020850190620001cf565b50805162000154906004906020840190620001cf565b505050620001716200016b6200017960201b60201c565b6200017d565b505062000421565b3390565b600580546001600160a01b038381166001600160a01b0319831681179093556040519116919082907f8be0079c531659141344cd1fd0a4f28419497f9722a3daafe3b4186f6b6457e090600090a35050565b828054620001dd90620003e4565b90600052602060002090601f0160209004810192826200020157600085556200024c565b82601f106200021c57805160ff19168380011785556200024c565b828001600101855582156200024c579182015b828111156200024c5782518255916020019190600101906200022f565b506200025a9291506200025e565b5090565b5b808211156200025a57600081556001016200025f565b600080604083850312156200028957600080fd5b82516001600160a01b0381168114620002a157600080fd5b6020939093015192949293505050565b634e487b7160e01b600052604160045260246000fd5b60005b83811015620002e4578181015183820152602001620002ca565b83811115620002f4576000848401525b50505050565b6000602082840312156200030d57600080fd5b81516001600160401b03808211156200032557600080fd5b818401915084601f8301126200033a57600080fd5b8151818111156200034f576200034f620002b1565b604051601f8201601f19908116603f011681019083821181831017156200037a576200037a620002b1565b816040528281528760208487010111156200039457600080fd5b620003a7836020830160208801620002c7565b979650505050505050565b60008351620003c6818460208801620002c7565b6301037b3160e51b9201918252506004810191909152602401919050565b600181811c90821680620003f957607f821691505b602082108114156200041b57634e487b7160e01b600052602260045260246000fd5b50919050565b61127f80620004316000396000f3fe608060405234801561001057600080fd5b50600436106101005760003560e01c8063715018a611610097578063a457c2d711610066578063a457c2d714610223578063a9059cbb14610236578063dd62ed3e14610249578063f2fde38b1461028f57600080fd5b8063715018a6146101d85780638da5cb5b146101e057806395d89b41146102085780639dc29fac1461021057600080fd5b8063313ce567116100d3578063313ce5671461016b578063395093511461017a57806340c10f191461018d57806370a08231146101a257600080fd5b806306fdde0314610105578063095ea7b31461012357806318160ddd1461014657806323b872dd14610158575b600080fd5b61010d6102a2565b60405161011a9190611040565b60405180910390f35b6101366101313660046110dc565b610334565b604051901515815260200161011a565b6002545b60405190815260200161011a565b610136610166366004611106565b61034c565b6040516012815260200161011a565b6101366101883660046110dc565b610370565b6101a061019b3660046110dc565b6103bc565b005b61014a6101b0366004611142565b73ffffffffffffffffffffffffffffffffffffffff1660009081526020819052604090205490565b6101a0610450565b60055460405173ffffffffffffffffffffffffffffffffffffffff909116815260200161011a565b61010d6104dd565b6101a061021e3660046110dc565b6104ec565b6101366102313660046110dc565b610577565b6101366102443660046110dc565b610648565b61014a610257366004611164565b73ffffffffffffffffffffffffffffffffffffffff918216600090815260016020908152604080832093909416825291909152205490565b6101a061029d366004611142565b610656565b6060600380546102b190611197565b80601f01602080910402602001604051908101604052809291908181526020018280546102dd90611197565b801561032a5780601f106102ff5761010080835404028352916020019161032a565b820191906000526020600020905b81548152906001019060200180831161030d57829003601f168201915b5050505050905090565b600033610342818585610786565b5060019392505050565b60003361035a85828561093a565b610365858585610a11565b506001949350505050565b33600081815260016020908152604080832073ffffffffffffffffffffffffffffffffffffffff8716845290915281205490919061034290829086906103b790879061121a565b610786565b60055473ffffffffffffffffffffffffffffffffffffffff163314610442576040517f08c379a000000000000000000000000000000000000000000000000000000000815260206004820181905260248201527f4f776e61626c653a2063616c6c6572206973206e6f7420746865206f776e657260448201526064015b60405180910390fd5b61044c8282610cc4565b5050565b60055473ffffffffffffffffffffffffffffffffffffffff1633146104d1576040517f08c379a000000000000000000000000000000000000000000000000000000000815260206004820181905260248201527f4f776e61626c653a2063616c6c6572206973206e6f7420746865206f776e65726044820152606401610439565b6104db6000610de4565b565b6060600480546102b190611197565b60055473ffffffffffffffffffffffffffffffffffffffff16331461056d576040517f08c379a000000000000000000000000000000000000000000000000000000000815260206004820181905260248201527f4f776e61626c653a2063616c6c6572206973206e6f7420746865206f776e65726044820152606401610439565b61044c8282610e5b565b33600081815260016020908152604080832073ffffffffffffffffffffffffffffffffffffffff871684529091528120549091908381101561063b576040517f08c379a000000000000000000000000000000000000000000000000000000000815260206004820152602560248201527f45524332303a2064656372656173656420616c6c6f77616e63652062656c6f7760448201527f207a65726f0000000000000000000000000000000000000000000000000000006064820152608401610439565b6103658286868403610786565b600033610342818585610a11565b60055473ffffffffffffffffffffffffffffffffffffffff1633146106d7576040517f08c379a000000000000000000000000000000000000000000000000000000000815260206004820181905260248201527f4f776e61626c653a2063616c6c6572206973206e6f7420746865206f776e65726044820152606401610439565b73ffffffffffffffffffffffffffffffffffffffff811661077a576040517f08c379a000000000000000000000000000000000000000000000000000000000815260206004820152602660248201527f4f776e61626c653a206e6577206f776e657220697320746865207a65726f206160448201527f64647265737300000000000000000000000000000000000000000000000000006064820152608401610439565b61078381610de4565b50565b73ffffffffffffffffffffffffffffffffffffffff8316610828576040517f08c379a0000000000000000000000000000000000000000000000000000000008152602060048201526024808201527f45524332303a20617070726f76652066726f6d20746865207a65726f2061646460448201527f72657373000000000000000000000000000000000000000000000000000000006064820152608401610439565b73ffffffffffffffffffffffffffffffffffffffff82166108cb576040517f08c379a000000000000000000000000000000000000000000000000000000000815260206004820152602260248201527f45524332303a20617070726f766520746f20746865207a65726f20616464726560448201527f73730000000000000000000000000000000000000000000000000000000000006064820152608401610439565b73ffffffffffffffffffffffffffffffffffffffff83811660008181526001602090815260408083209487168084529482529182902085905590518481527f8c5be1e5ebec7d5bd14f71427d1e84f3dd0314c0f7b2291e5b200ac8c7c3b92591015b60405180910390a3505050565b73ffffffffffffffffffffffffffffffffffffffff8381166000908152600160209081526040808320938616835292905220547fffffffffffffffffffffffffffffffffffffffffffffffffffffffffffffffff8114610a0b57818110156109fe576040517f08c379a000000000000000000000000000000000000000000000000000000000815260206004820152601d60248201527f45524332303a20696e73756666696369656e7420616c6c6f77616e63650000006044820152606401610439565b610a0b8484848403610786565b50505050565b73ffffffffffffffffffffffffffffffffffffffff8316610ab4576040517f08c379a000000000000000000000000000000000000000000000000000000000815260206004820152602560248201527f45524332303a207472616e736665722066726f6d20746865207a65726f20616460448201527f64726573730000000000000000000000000000000000000000000000000000006064820152608401610439565b73ffffffffffffffffffffffffffffffffffffffff8216610b57576040517f08c379a000000000000000000000000000000000000000000000000000000000815260206004820152602360248201527f45524332303a207472616e7366657220746f20746865207a65726f206164647260448201527f65737300000000000000000000000000000000000000000000000000000000006064820152608401610439565b73ffffffffffffffffffffffffffffffffffffffff831660009081526020819052604090205481811015610c0d576040517f08c379a000000000000000000000000000000000000000000000000000000000815260206004820152602660248201527f45524332303a207472616e7366657220616d6f756e742065786365656473206260448201527f616c616e636500000000000000000000000000000000000000000000000000006064820152608401610439565b73ffffffffffffffffffffffffffffffffffffffff808516600090815260208190526040808220858503905591851681529081208054849290610c5190849061121a565b925050819055508273ffffffffffffffffffffffffffffffffffffffff168473ffffffffffffffffffffffffffffffffffffffff167fddf252ad1be2c89b69c2b068fc378daa952ba7f163c4a11628f55a4df523b3ef84604051610cb791815260200190565b60405180910390a3610a0b565b73ffffffffffffffffffffffffffffffffffffffff8216610d41576040517f08c379a000000000000000000000000000000000000000000000000000000000815260206004820152601f60248201527f45524332303a206d696e7420746f20746865207a65726f2061646472657373006044820152606401610439565b8060026000828254610d53919061121a565b909155505073ffffffffffffffffffffffffffffffffffffffff821660009081526020819052604081208054839290610d8d90849061121a565b909155505060405181815273ffffffffffffffffffffffffffffffffffffffff8316906000907fddf252ad1be2c89b69c2b068fc378daa952ba7f163c4a11628f55a4df523b3ef9060200160405180910390a35050565b6005805473ffffffffffffffffffffffffffffffffffffffff8381167fffffffffffffffffffffffff0000000000000000000000000000000000000000831681179093556040519116919082907f8be0079c531659141344cd1fd0a4f28419497f9722a3daafe3b4186f6b6457e090600090a35050565b73ffffffffffffffffffffffffffffffffffffffff8216610efe576040517f08c379a000000000000000000000000000000000000000000000000000000000815260206004820152602160248201527f45524332303a206275726e2066726f6d20746865207a65726f2061646472657360448201527f73000000000000000000000000000000000000000000000000000000000000006064820152608401610439565b73ffffffffffffffffffffffffffffffffffffffff821660009081526020819052604090205481811015610fb4576040517f08c379a000000000000000000000000000000000000000000000000000000000815260206004820152602260248201527f45524332303a206275726e20616d6f756e7420657863656564732062616c616e60448201527f63650000000000000000000000000000000000000000000000000000000000006064820152608401610439565b73ffffffffffffffffffffffffffffffffffffffff83166000908152602081905260408120838303905560028054849290610ff0908490611232565b909155505060405182815260009073ffffffffffffffffffffffffffffffffffffffff8516907fddf252ad1be2c89b69c2b068fc378daa952ba7f163c4a11628f55a4df523b3ef9060200161092d565b600060208083528351808285015260005b8181101561106d57858101830151858201604001528201611051565b8181111561107f576000604083870101525b50601f017fffffffffffffffffffffffffffffffffffffffffffffffffffffffffffffffe016929092016040019392505050565b803573ffffffffffffffffffffffffffffffffffffffff811681146110d757600080fd5b919050565b600080604083850312156110ef57600080fd5b6110f8836110b3565b946020939093013593505050565b60008060006060848603121561111b57600080fd5b611124846110b3565b9250611132602085016110b3565b9150604084013590509250925092565b60006020828403121561115457600080fd5b61115d826110b3565b9392505050565b6000806040838503121561117757600080fd5b611180836110b3565b915061118e602084016110b3565b90509250929050565b600181811c908216806111ab57607f821691505b602082108114156111e5577f4e487b7100000000000000000000000000000000000000000000000000000000600052602260045260246000fd5b50919050565b7f4e487b7100000000000000000000000000000000000000000000000000000000600052601160045260246000fd5b6000821982111561122d5761122d6111eb565b500190565b600082821015611244576112446111eb565b50039056fea26469706673582212208880f4c45734294c8a7bbe91f37ad7cc45dc030cc1fec335f80a9b16c287833c64736f6c634300080a0033a26469706673582212205f8be185c88521910ec28122fa0155f55f9bab73b721bb331cd0d4929d7228c964736f6c634300080a0033",
    "linkReferences": {}
  }
}