{
  "abi": [
    {
      "inputs": [
        {
          "internalType": "contract ISanctis",
          "name": "sanctis",
          "type": "address"
        },
        {
          "internalType": "uint256",
          "name": "delay",
          "type": "uint256"
        },
        {
          "internalType": "contract IResource[]",
          "name": "costsResources",
          "type": "address[]"
        },
        {
          "internalType": "uint256[]",
          "name": "costsBase",
          "type": "uint256[]"
        },
        {
          "internalType": "uint256[]",
          "name": "costsRates",
          "type": "uint256[]"
        },
        {
          "internalType": "uint256",
          "name": "discount",
          "type": "uint256"
        }
      ],
      "stateMutability": "nonpayable",
      "type": "constructor"
    },
    {
      "inputs": [
        {
          "internalType": "uint256",
          "name": "planetId",
          "type": "uint256"
        },
        {
          "internalType": "contract IShip",
          "name": "ship",
          "type": "address"
        },
        {
          "internalType": "uint256",
          "name": "amount",
          "type": "uint256"
        }
      ],
      "name": "build",
      "outputs": [],
      "stateMutability": "nonpayable",
      "type": "function"
    },
    {
      "inputs": [
        {
          "internalType": "contract ISanctis",
          "name": "newSanctis",
          "type": "address"
        }
      ],
      "name": "changeSanctis",
      "outputs": [],
      "stateMutability": "nonpayable",
      "type": "function"
    },
    {
      "inputs": [
        {
          "internalType": "uint256",
          "name": "planetId",
          "type": "uint256"
        }
      ],
      "name": "costs",
      "outputs": [
        {
          "internalType": "contract IResource[]",
          "name": "",
          "type": "address[]"
        },
        {
          "internalType": "uint256[]",
          "name": "",
          "type": "uint256[]"
        }
      ],
      "stateMutability": "view",
      "type": "function"
    },
    {
      "inputs": [
        {
          "internalType": "uint256",
          "name": "planetId",
          "type": "uint256"
        }
      ],
      "name": "create",
      "outputs": [],
      "stateMutability": "nonpayable",
      "type": "function"
    },
    {
      "inputs": [
        {
          "internalType": "uint256",
          "name": "planetId",
          "type": "uint256"
        }
      ],
      "name": "currentDiscount",
      "outputs": [
        {
          "internalType": "uint256",
          "name": "",
          "type": "uint256"
        }
      ],
      "stateMutability": "view",
      "type": "function"
    },
    {
      "inputs": [],
      "name": "discountFactor",
      "outputs": [
        {
          "internalType": "uint256",
          "name": "",
          "type": "uint256"
        }
      ],
      "stateMutability": "view",
      "type": "function"
    },
    {
      "inputs": [
        {
          "internalType": "uint256",
          "name": "planetId",
          "type": "uint256"
        }
      ],
      "name": "level",
      "outputs": [
        {
          "internalType": "uint256",
          "name": "",
          "type": "uint256"
        }
      ],
      "stateMutability": "view",
      "type": "function"
    },
    {
      "inputs": [
        {
          "internalType": "uint256",
          "name": "planetId",
          "type": "uint256"
        }
      ],
      "name": "nextDiscount",
      "outputs": [
        {
          "internalType": "uint256",
          "name": "",
          "type": "uint256"
        }
      ],
      "stateMutability": "view",
      "type": "function"
    },
    {
      "inputs": [
        {
          "internalType": "uint256",
          "name": "planetId",
          "type": "uint256"
        }
      ],
      "name": "nextUpgrade",
      "outputs": [
        {
          "internalType": "uint256",
          "name": "",
          "type": "uint256"
        }
      ],
      "stateMutability": "view",
      "type": "function"
    },
    {
      "inputs": [],
      "name": "s_sanctis",
      "outputs": [
        {
          "internalType": "contract ISanctis",
          "name": "",
          "type": "address"
        }
      ],
      "stateMutability": "view",
      "type": "function"
    },
    {
      "inputs": [],
      "name": "sanctis",
      "outputs": [
        {
          "internalType": "contract ISanctis",
          "name": "",
          "type": "address"
        }
      ],
      "stateMutability": "view",
      "type": "function"
    },
    {
      "inputs": [
        {
          "internalType": "uint256",
          "name": "planetId",
          "type": "uint256"
        }
      ],
      "name": "upgrade",
      "outputs": [],
      "stateMutability": "nonpayable",
      "type": "function"
    }
  ],
  "bytecode": {
    "object": "0x60806040523480156200001157600080fd5b5060405162001a4438038062001a44833981016040819052620000349162000253565b600080546001600160a01b0319166001600160a01b0388161781556002869055869086908690869086905b82518110156200014057600384828151811062000080576200008062000375565b60209081029190910181015182546001810184556000938452919092200180546001600160a01b0319166001600160a01b039092169190911790558251600490849083908110620000d557620000d562000375565b6020908102919091018101518254600181018455600093845291909220015581516005908390839081106200010e576200010e62000375565b6020908102919091018101518254600181018455600093845291909220015562000138816200038b565b90506200005f565b50505060069390935550620003b59650505050505050565b6001600160a01b03811681146200016e57600080fd5b50565b634e487b7160e01b600052604160045260246000fd5b604051601f8201601f191681016001600160401b0381118282101715620001b257620001b262000171565b604052919050565b60006001600160401b03821115620001d657620001d662000171565b5060051b60200190565b600082601f830112620001f257600080fd5b815160206200020b6200020583620001ba565b62000187565b82815260059290921b840181019181810190868411156200022b57600080fd5b8286015b848110156200024857805183529183019183016200022f565b509695505050505050565b60008060008060008060c087890312156200026d57600080fd5b86516200027a8162000158565b60208881015160408a01519298509650906001600160401b0380821115620002a157600080fd5b818a0191508a601f830112620002b657600080fd5b8151620002c76200020582620001ba565b81815260059190911b8301840190848101908d831115620002e757600080fd5b938501935b8285101562000312578451620003028162000158565b82529385019390850190620002ec565b60608d015190995094505050808311156200032c57600080fd5b6200033a8b848c01620001e0565b955060808a01519250808311156200035157600080fd5b50506200036189828a01620001e0565b92505060a087015190509295509295509295565b634e487b7160e01b600052603260045260246000fd5b6000600019821415620003ae57634e487b7160e01b600052601160045260246000fd5b5060010190565b61167f80620003c56000396000f3fe608060405234801561001057600080fd5b50600436106100d45760003560e01c8063780900dc11610081578063d65fd1381161005b578063d65fd138146101d0578063e4bf40de146101e3578063f8cd1426146101f657600080fd5b8063780900dc1461018a5780639797efda1461019d578063bf206e45146101bd57600080fd5b80634bb70371116100b25780634bb70371146101425780635087883f146101555780635e4a1e011461018257600080fd5b806305c58df2146100d957806345977d031461010c57806349b3b29f14610121575b600080fd5b6100f96100e7366004610ffd565b60009081526001602052604090205490565b6040519081526020015b60405180910390f35b61011f61011a366004610ffd565b610209565b005b61013461012f366004610ffd565b61036f565b604051610103929190611016565b61011f6101503660046110c9565b6103fd565b61015d61065a565b60405173ffffffffffffffffffffffffffffffffffffffff9091168152602001610103565b6006546100f9565b61011f610198366004610ffd565b61078d565b60005461015d9073ffffffffffffffffffffffffffffffffffffffff1681565b61011f6101cb366004611101565b610976565b6100f96101de366004610ffd565b610acd565b6100f96101f1366004610ffd565b610af7565b6100f9610204366004610ffd565b610b0f565b6102133382610b1a565b61021c81610e01565b61022a816000526001602052565b60008181526001602052604081205461024290610e76565b90506001806000848152602001908152602001600020600001600082825461026a9190611154565b909155505060008281526001602081905260408220439101555b815181101561036a57600381815481106102a0576102a061116c565b9060005260206000200160009054906101000a900473ffffffffffffffffffffffffffffffffffffffff1673ffffffffffffffffffffffffffffffffffffffff1663b390c0ab848484815181106102f9576102f961116c565b60200260200101516040518363ffffffff1660e01b8152600401610327929190918252602082015260400190565b600060405180830381600087803b15801561034157600080fd5b505af1158015610355573d6000803e3d6000fd5b50505050806103639061119b565b9050610284565b505050565b600081815260016020526040902054606090819060039061038f90610e76565b8154604080516020808402820181019092528281529184918301828280156103ed57602002820191906000526020600020905b815473ffffffffffffffffffffffffffffffffffffffff1681526001909101906020018083116103c2575b5050505050915091509150915091565b61040b836000526001602052565b6104153384610b1a565b6000808373ffffffffffffffffffffffffffffffffffffffff1663b086b2516040518163ffffffff1660e01b8152600401600060405180830381865afa158015610463573d6000803e3d6000fd5b505050506040513d6000823e601f3d9081017fffffffffffffffffffffffffffffffffffffffffffffffffffffffffffffffe01682016040526104a991908101906112e1565b600087815260016020526040812054929450909250906104c890610f94565b905060005b82518110156105ca578381815181106104e8576104e861116c565b602002602001015173ffffffffffffffffffffffffffffffffffffffff1663b390c0ab8861271085898887815181106105235761052361116c565b602002602001015161053591906113a6565b61053f91906113a6565b61054991906113e3565b6040517fffffffff0000000000000000000000000000000000000000000000000000000060e085901b16815260048101929092526024820152604401600060405180830381600087803b15801561059f57600080fd5b505af11580156105b3573d6000803e3d6000fd5b5050505080806105c29061119b565b9150506104cd565b506040517f1b2ef1ca000000000000000000000000000000000000000000000000000000008152600481018790526024810185905273ffffffffffffffffffffffffffffffffffffffff861690631b2ef1ca90604401600060405180830381600087803b15801561063a57600080fd5b505af115801561064e573d6000803e3d6000fd5b50505050505050505050565b60008054604080517f475853040000000000000000000000000000000000000000000000000000000081529051339273ffffffffffffffffffffffffffffffffffffffff169163475853049160048083019260209291908290030181865afa1580156106ca573d6000803e3d6000fd5b505050506040513d601f19601f820116820180604052508101906106ee919061141e565b73ffffffffffffffffffffffffffffffffffffffff1614610770576040517f08c379a000000000000000000000000000000000000000000000000000000000815260206004820152601060248201527f4d6f64756c653a204578656375746f720000000000000000000000000000000060448201526064015b60405180910390fd5b5060005473ffffffffffffffffffffffffffffffffffffffff1690565b60008181526001602052604090205415610803576040517f08c379a000000000000000000000000000000000000000000000000000000000815260206004820152600e60248201527f416c7265616479206578697374730000000000000000000000000000000000006044820152606401610767565b61080d3382610b1a565b60408051808201825260018082524360208084019182526000868152838252858120945185559151939092019290925560048054845181840281018401909552808552929392909183018282801561088457602002820191906000526020600020905b815481526020019060010190808311610870575b5050505050905060005b815181101561036a57600381815481106108aa576108aa61116c565b9060005260206000200160009054906101000a900473ffffffffffffffffffffffffffffffffffffffff1673ffffffffffffffffffffffffffffffffffffffff1663b390c0ab848484815181106109035761090361116c565b60200260200101516040518363ffffffff1660e01b8152600401610931929190918252602082015260400190565b600060405180830381600087803b15801561094b57600080fd5b505af115801561095f573d6000803e3d6000fd5b50505050808061096e9061119b565b91505061088e565b600054604080517f475853040000000000000000000000000000000000000000000000000000000081529051339273ffffffffffffffffffffffffffffffffffffffff169163475853049160048083019260209291908290030181865afa1580156109e5573d6000803e3d6000fd5b505050506040513d601f19601f82011682018060405250810190610a09919061141e565b73ffffffffffffffffffffffffffffffffffffffff1614610a86576040517f08c379a000000000000000000000000000000000000000000000000000000000815260206004820152601060248201527f4d6f64756c653a204578656375746f72000000000000000000000000000000006044820152606401610767565b600080547fffffffffffffffffffffffff00000000000000000000000000000000000000001673ffffffffffffffffffffffffffffffffffffffff92909216919091179055565b6000818152600160208190526040822054610af191610aec9190611154565b610f94565b92915050565b600081815260016020526040812054610af190610f94565b6000610af182610fc4565b6000546040517f8a5cde0a0000000000000000000000000000000000000000000000000000000081527f434f4d4d414e4445525300000000000000000000000000000000000000000000600482015273ffffffffffffffffffffffffffffffffffffffff90911690638a5cde0a90602401602060405180830381865afa158015610ba8573d6000803e3d6000fd5b505050506040513d601f19601f82011682018060405250810190610bcc919061141e565b6000546040517f8a5cde0a0000000000000000000000000000000000000000000000000000000081527f504c414e45545300000000000000000000000000000000000000000000000000600482015273ffffffffffffffffffffffffffffffffffffffff92831692632a16cca4928692911690638a5cde0a90602401602060405180830381865afa158015610c65573d6000803e3d6000fd5b505050506040513d601f19601f82011682018060405250810190610c89919061141e565b73ffffffffffffffffffffffffffffffffffffffff1663181c1bc4856040518263ffffffff1660e01b8152600401610cc391815260200190565b60c060405180830381865afa158015610ce0573d6000803e3d6000fd5b505050506040513d601f19601f82011682018060405250810190610d049190611463565b5160405160e084901b7fffffffff0000000000000000000000000000000000000000000000000000000016815273ffffffffffffffffffffffffffffffffffffffff90921660048301526024820152604401602060405180830381865afa158015610d73573d6000803e3d6000fd5b505050506040513d601f19601f82011682018060405250810190610d9791906114fb565b610dfd576040517f08c379a000000000000000000000000000000000000000000000000000000000815260206004820152601560248201527f496e6672617374727563747572653a204f776e656400000000000000000000006044820152606401610767565b5050565b610e0a81610fc4565b431015610e73576040517f08c379a000000000000000000000000000000000000000000000000000000000815260206004820152601860248201527f496e6672617374727563747572653a20546f6f20736f6f6e00000000000000006044820152606401610767565b50565b606060006004805480602002602001604051908101604052809291908181526020018280548015610ec657602002820191906000526020600020905b815481526020019060010190808311610eb2575b5050505050905060005b8151811015610f8d5760028460058381548110610eef57610eef61116c565b9060005260206000200154610f0491906113a6565b610f0e91906113e3565b828281518110610f2057610f2061116c565b6020026020010151610f329190611154565b610f3c90856113a6565b828281518110610f4e57610f4e61116c565b6020026020010151610f609190611154565b828281518110610f7257610f7261116c565b6020908102919091010152610f868161119b565b9050610ed0565b5092915050565b6000610fa28261271061163d565b610fad836001611154565b600654610fba919061163d565b610af191906113e3565b600081815260016020526040812054600254610fe091906113a6565b60008381526001602081905260409091200154610af19190611154565b60006020828403121561100f57600080fd5b5035919050565b604080825283519082018190526000906020906060840190828701845b8281101561106557815173ffffffffffffffffffffffffffffffffffffffff1684529284019290840190600101611033565b5050508381038285015284518082528583019183019060005b8181101561109a5783518352928401929184019160010161107e565b5090979650505050505050565b73ffffffffffffffffffffffffffffffffffffffff81168114610e7357600080fd5b6000806000606084860312156110de57600080fd5b8335925060208401356110f0816110a7565b929592945050506040919091013590565b60006020828403121561111357600080fd5b813561111e816110a7565b9392505050565b7f4e487b7100000000000000000000000000000000000000000000000000000000600052601160045260246000fd5b6000821982111561116757611167611125565b500190565b7f4e487b7100000000000000000000000000000000000000000000000000000000600052603260045260246000fd5b60007fffffffffffffffffffffffffffffffffffffffffffffffffffffffffffffffff8214156111cd576111cd611125565b5060010190565b7f4e487b7100000000000000000000000000000000000000000000000000000000600052604160045260246000fd5b604051601f82017fffffffffffffffffffffffffffffffffffffffffffffffffffffffffffffffe016810167ffffffffffffffff8111828210171561124a5761124a6111d4565b604052919050565b600067ffffffffffffffff82111561126c5761126c6111d4565b5060051b60200190565b600082601f83011261128757600080fd5b8151602061129c61129783611252565b611203565b82815260059290921b840181019181810190868411156112bb57600080fd5b8286015b848110156112d657805183529183019183016112bf565b509695505050505050565b600080604083850312156112f457600080fd5b825167ffffffffffffffff8082111561130c57600080fd5b818501915085601f83011261132057600080fd5b8151602061133061129783611252565b82815260059290921b8401810191818101908984111561134f57600080fd5b948201945b83861015611376578551611367816110a7565b82529482019490820190611354565b9188015191965090935050508082111561138f57600080fd5b5061139c85828601611276565b9150509250929050565b6000817fffffffffffffffffffffffffffffffffffffffffffffffffffffffffffffffff04831182151516156113de576113de611125565b500290565b600082611419577f4e487b7100000000000000000000000000000000000000000000000000000000600052601260045260246000fd5b500490565b60006020828403121561143057600080fd5b815161111e816110a7565b8051600981900b811461144d57600080fd5b919050565b805160ff8116811461144d57600080fd5b600060c0828403121561147557600080fd5b60405160c0810181811067ffffffffffffffff82111715611498576114986111d4565b604052825181526114ab6020840161143b565b60208201526114bc6040840161143b565b60408201526114cd6060840161143b565b60608201526114de60808401611452565b60808201526114ef60a08401611452565b60a08201529392505050565b60006020828403121561150d57600080fd5b8151801515811461111e57600080fd5b600181815b8085111561157657817fffffffffffffffffffffffffffffffffffffffffffffffffffffffffffffffff0482111561155c5761155c611125565b8085161561156957918102915b93841c9390800290611522565b509250929050565b60008261158d57506001610af1565b8161159a57506000610af1565b81600181146115b057600281146115ba576115d6565b6001915050610af1565b60ff8411156115cb576115cb611125565b50506001821b610af1565b5060208310610133831016604e8410600b84101617156115f9575081810a610af1565b611603838361151d565b807fffffffffffffffffffffffffffffffffffffffffffffffffffffffffffffffff0482111561163557611635611125565b029392505050565b600061111e838361157e56fea26469706673582212207831a7481d9ab57969c3e0632422d27dceaa27276ba3f14e2418d143a00a75bc64736f6c634300080a0033",
    "linkReferences": {}
  }
}