{
  "abi": [
    {
      "inputs": [
        {
          "internalType": "contract ISanctis",
          "name": "sanctis",
          "type": "address"
        },
        {
          "internalType": "uint256",
          "name": "delay",
          "type": "uint256"
        },
        {
          "internalType": "contract IResource[]",
          "name": "costsResources",
          "type": "address[]"
        },
        {
          "internalType": "uint256[]",
          "name": "costsBase",
          "type": "uint256[]"
        },
        {
          "internalType": "uint256[]",
          "name": "costsRates",
          "type": "uint256[]"
        },
        {
          "internalType": "uint256",
          "name": "discount",
          "type": "uint256"
        }
      ],
      "stateMutability": "nonpayable",
      "type": "constructor"
    },
    {
      "inputs": [
        {
          "internalType": "address",
          "name": "infrastructure",
          "type": "address"
        },
        {
          "internalType": "uint256",
          "name": "planetId",
          "type": "uint256"
        }
      ],
      "name": "InfrastructureDoesNotExist",
      "type": "error"
    },
    {
      "inputs": [
        {
          "internalType": "address",
          "name": "sender",
          "type": "address"
        }
      ],
      "name": "NotAllowed",
      "type": "error"
    },
    {
      "inputs": [
        {
          "internalType": "uint256",
          "name": "planetId",
          "type": "uint256"
        },
        {
          "internalType": "contract IResource",
          "name": "resource",
          "type": "address"
        }
      ],
      "name": "NotEnoughResource",
      "type": "error"
    },
    {
      "inputs": [
        {
          "internalType": "address",
          "name": "sender",
          "type": "address"
        }
      ],
      "name": "NotTheExecutor",
      "type": "error"
    },
    {
      "inputs": [
        {
          "internalType": "address",
          "name": "sender",
          "type": "address"
        }
      ],
      "name": "NotTheSanctis",
      "type": "error"
    },
    {
      "inputs": [
        {
          "internalType": "uint256",
          "name": "planetId",
          "type": "uint256"
        }
      ],
      "name": "PlanetNotOwned",
      "type": "error"
    },
    {
      "inputs": [
        {
          "internalType": "uint256",
          "name": "planetId",
          "type": "uint256"
        },
        {
          "internalType": "contract IResource",
          "name": "resource",
          "type": "address"
        }
      ],
      "name": "ResourceNotOnPlanet",
      "type": "error"
    },
    {
      "inputs": [
        {
          "internalType": "uint256",
          "name": "planetId",
          "type": "uint256"
        },
        {
          "internalType": "uint256",
          "name": "soonestUpgrade",
          "type": "uint256"
        }
      ],
      "name": "TooSoonToUpgrade",
      "type": "error"
    },
    {
      "inputs": [
        {
          "internalType": "uint256",
          "name": "planetId",
          "type": "uint256"
        },
        {
          "internalType": "contract IShip",
          "name": "ship",
          "type": "address"
        },
        {
          "internalType": "uint256",
          "name": "amount",
          "type": "uint256"
        }
      ],
      "name": "build",
      "outputs": [],
      "stateMutability": "nonpayable",
      "type": "function"
    },
    {
      "inputs": [
        {
          "internalType": "contract ISanctis",
          "name": "newSanctis",
          "type": "address"
        }
      ],
      "name": "changeSanctis",
      "outputs": [],
      "stateMutability": "nonpayable",
      "type": "function"
    },
    {
      "inputs": [
        {
          "internalType": "uint256",
          "name": "planetId",
          "type": "uint256"
        }
      ],
      "name": "costs",
      "outputs": [
        {
          "internalType": "contract IResource[]",
          "name": "",
          "type": "address[]"
        },
        {
          "internalType": "uint256[]",
          "name": "",
          "type": "uint256[]"
        }
      ],
      "stateMutability": "view",
      "type": "function"
    },
    {
      "inputs": [
        {
          "internalType": "uint256",
          "name": "planetId",
          "type": "uint256"
        }
      ],
      "name": "create",
      "outputs": [],
      "stateMutability": "nonpayable",
      "type": "function"
    },
    {
      "inputs": [
        {
          "internalType": "uint256",
          "name": "planetId",
          "type": "uint256"
        }
      ],
      "name": "currentDiscount",
      "outputs": [
        {
          "internalType": "uint256",
          "name": "",
          "type": "uint256"
        }
      ],
      "stateMutability": "view",
      "type": "function"
    },
    {
      "inputs": [],
      "name": "discountFactor",
      "outputs": [
        {
          "internalType": "uint256",
          "name": "",
          "type": "uint256"
        }
      ],
      "stateMutability": "view",
      "type": "function"
    },
    {
      "inputs": [
        {
          "internalType": "uint256",
          "name": "planetId",
          "type": "uint256"
        }
      ],
      "name": "level",
      "outputs": [
        {
          "internalType": "uint256",
          "name": "",
          "type": "uint256"
        }
      ],
      "stateMutability": "view",
      "type": "function"
    },
    {
      "inputs": [
        {
          "internalType": "uint256",
          "name": "planetId",
          "type": "uint256"
        }
      ],
      "name": "nextDiscount",
      "outputs": [
        {
          "internalType": "uint256",
          "name": "",
          "type": "uint256"
        }
      ],
      "stateMutability": "view",
      "type": "function"
    },
    {
      "inputs": [
        {
          "internalType": "uint256",
          "name": "planetId",
          "type": "uint256"
        }
      ],
      "name": "nextUpgrade",
      "outputs": [
        {
          "internalType": "uint256",
          "name": "",
          "type": "uint256"
        }
      ],
      "stateMutability": "view",
      "type": "function"
    },
    {
      "inputs": [],
      "name": "s_sanctis",
      "outputs": [
        {
          "internalType": "contract ISanctis",
          "name": "",
          "type": "address"
        }
      ],
      "stateMutability": "view",
      "type": "function"
    },
    {
      "inputs": [],
      "name": "sanctis",
      "outputs": [
        {
          "internalType": "contract ISanctis",
          "name": "",
          "type": "address"
        }
      ],
      "stateMutability": "view",
      "type": "function"
    },
    {
      "inputs": [
        {
          "internalType": "uint256",
          "name": "planetId",
          "type": "uint256"
        }
      ],
      "name": "upgrade",
      "outputs": [],
      "stateMutability": "nonpayable",
      "type": "function"
    }
  ],
  "bytecode": {
    "object": "0x60806040523480156200001157600080fd5b50604051620019de380380620019de833981016040819052620000349162000253565b600080546001600160a01b0319166001600160a01b0388161781556002869055869086908690869086905b82518110156200014057600384828151811062000080576200008062000375565b60209081029190910181015182546001810184556000938452919092200180546001600160a01b0319166001600160a01b039092169190911790558251600490849083908110620000d557620000d562000375565b6020908102919091018101518254600181018455600093845291909220015581516005908390839081106200010e576200010e62000375565b6020908102919091018101518254600181018455600093845291909220015562000138816200038b565b90506200005f565b50505060069390935550620003b59650505050505050565b6001600160a01b03811681146200016e57600080fd5b50565b634e487b7160e01b600052604160045260246000fd5b604051601f8201601f191681016001600160401b0381118282101715620001b257620001b262000171565b604052919050565b60006001600160401b03821115620001d657620001d662000171565b5060051b60200190565b600082601f830112620001f257600080fd5b815160206200020b6200020583620001ba565b62000187565b82815260059290921b840181019181810190868411156200022b57600080fd5b8286015b848110156200024857805183529183019183016200022f565b509695505050505050565b60008060008060008060c087890312156200026d57600080fd5b86516200027a8162000158565b60208881015160408a01519298509650906001600160401b0380821115620002a157600080fd5b818a0191508a601f830112620002b657600080fd5b8151620002c76200020582620001ba565b81815260059190911b8301840190848101908d831115620002e757600080fd5b938501935b8285101562000312578451620003028162000158565b82529385019390850190620002ec565b60608d015190995094505050808311156200032c57600080fd5b6200033a8b848c01620001e0565b955060808a01519250808311156200035157600080fd5b50506200036189828a01620001e0565b92505060a087015190509295509295509295565b634e487b7160e01b600052603260045260246000fd5b6000600019821415620003ae57634e487b7160e01b600052601160045260246000fd5b5060010190565b61161980620003c56000396000f3fe608060405234801561001057600080fd5b50600436106100d45760003560e01c8063780900dc11610081578063d65fd1381161005b578063d65fd138146101d0578063e4bf40de146101e3578063f8cd1426146101f657600080fd5b8063780900dc1461018a5780639797efda1461019d578063bf206e45146101bd57600080fd5b80634bb70371116100b25780634bb70371146101425780635087883f146101555780635e4a1e011461018257600080fd5b806305c58df2146100d957806345977d031461010c57806349b3b29f14610121575b600080fd5b6100f96100e7366004610f97565b60009081526001602052604090205490565b6040519081526020015b60405180910390f35b61011f61011a366004610f97565b610209565b005b61013461012f366004610f97565b61036a565b604051610103929190610fb0565b61011f610150366004611063565b6103f8565b61015d610650565b60405173ffffffffffffffffffffffffffffffffffffffff9091168152602001610103565b6006546100f9565b61011f610198366004610f97565b610755565b60005461015d9073ffffffffffffffffffffffffffffffffffffffff1681565b61011f6101cb36600461109b565b61093e565b6100f96101de366004610f97565b610a67565b6100f96101f1366004610f97565b610a91565b6100f9610204366004610f97565b610aa9565b6102133382610ab4565b61021c81610d6e565b61022581610dbf565b60008181526001602052604081205461023d90610e10565b90506001806000848152602001908152602001600020600001600082825461026591906110ee565b909155505060008281526001602081905260408220439101555b8151811015610365576003818154811061029b5761029b611106565b9060005260206000200160009054906101000a900473ffffffffffffffffffffffffffffffffffffffff1673ffffffffffffffffffffffffffffffffffffffff1663b390c0ab848484815181106102f4576102f4611106565b60200260200101516040518363ffffffff1660e01b8152600401610322929190918252602082015260400190565b600060405180830381600087803b15801561033c57600080fd5b505af1158015610350573d6000803e3d6000fd5b505050508061035e90611135565b905061027f565b505050565b600081815260016020526040902054606090819060039061038a90610e10565b8154604080516020808402820181019092528281529184918301828280156103e857602002820191906000526020600020905b815473ffffffffffffffffffffffffffffffffffffffff1681526001909101906020018083116103bd575b5050505050915091509150915091565b61040183610dbf565b61040b3384610ab4565b6000808373ffffffffffffffffffffffffffffffffffffffff1663b086b2516040518163ffffffff1660e01b8152600401600060405180830381865afa158015610459573d6000803e3d6000fd5b505050506040513d6000823e601f3d9081017fffffffffffffffffffffffffffffffffffffffffffffffffffffffffffffffe016820160405261049f919081019061127b565b600087815260016020526040812054929450909250906104be90610f2e565b905060005b82518110156105c0578381815181106104de576104de611106565b602002602001015173ffffffffffffffffffffffffffffffffffffffff1663b390c0ab88612710858988878151811061051957610519611106565b602002602001015161052b9190611340565b6105359190611340565b61053f919061137d565b6040517fffffffff0000000000000000000000000000000000000000000000000000000060e085901b16815260048101929092526024820152604401600060405180830381600087803b15801561059557600080fd5b505af11580156105a9573d6000803e3d6000fd5b5050505080806105b890611135565b9150506104c3565b506040517f1b2ef1ca000000000000000000000000000000000000000000000000000000008152600481018790526024810185905273ffffffffffffffffffffffffffffffffffffffff861690631b2ef1ca90604401600060405180830381600087803b15801561063057600080fd5b505af1158015610644573d6000803e3d6000fd5b50505050505050505050565b60008054604080517f475853040000000000000000000000000000000000000000000000000000000081529051339273ffffffffffffffffffffffffffffffffffffffff169163475853049160048083019260209291908290030181865afa1580156106c0573d6000803e3d6000fd5b505050506040513d601f19601f820116820180604052508101906106e491906113b8565b73ffffffffffffffffffffffffffffffffffffffff1614610738576040517f968c45d90000000000000000000000000000000000000000000000000000000081523360048201526024015b60405180910390fd5b5060005473ffffffffffffffffffffffffffffffffffffffff1690565b600081815260016020526040902054156107cb576040517f08c379a000000000000000000000000000000000000000000000000000000000815260206004820152600e60248201527f416c726561647920657869737473000000000000000000000000000000000000604482015260640161072f565b6107d53382610ab4565b60408051808201825260018082524360208084019182526000868152838252858120945185559151939092019290925560048054845181840281018401909552808552929392909183018282801561084c57602002820191906000526020600020905b815481526020019060010190808311610838575b5050505050905060005b8151811015610365576003818154811061087257610872611106565b9060005260206000200160009054906101000a900473ffffffffffffffffffffffffffffffffffffffff1673ffffffffffffffffffffffffffffffffffffffff1663b390c0ab848484815181106108cb576108cb611106565b60200260200101516040518363ffffffff1660e01b81526004016108f9929190918252602082015260400190565b600060405180830381600087803b15801561091357600080fd5b505af1158015610927573d6000803e3d6000fd5b50505050808061093690611135565b915050610856565b600054604080517f475853040000000000000000000000000000000000000000000000000000000081529051339273ffffffffffffffffffffffffffffffffffffffff169163475853049160048083019260209291908290030181865afa1580156109ad573d6000803e3d6000fd5b505050506040513d601f19601f820116820180604052508101906109d191906113b8565b73ffffffffffffffffffffffffffffffffffffffff1614610a20576040517f968c45d900000000000000000000000000000000000000000000000000000000815233600482015260240161072f565b600080547fffffffffffffffffffffffff00000000000000000000000000000000000000001673ffffffffffffffffffffffffffffffffffffffff92909216919091179055565b6000818152600160208190526040822054610a8b91610a8691906110ee565b610f2e565b92915050565b600081815260016020526040812054610a8b90610f2e565b6000610a8b82610f5e565b6000546040517f8a5cde0a0000000000000000000000000000000000000000000000000000000081527f434f4d4d414e4445525300000000000000000000000000000000000000000000600482015273ffffffffffffffffffffffffffffffffffffffff90911690638a5cde0a90602401602060405180830381865afa158015610b42573d6000803e3d6000fd5b505050506040513d601f19601f82011682018060405250810190610b6691906113b8565b6000546040517f8a5cde0a0000000000000000000000000000000000000000000000000000000081527f504c414e45545300000000000000000000000000000000000000000000000000600482015273ffffffffffffffffffffffffffffffffffffffff92831692632a16cca4928692911690638a5cde0a90602401602060405180830381865afa158015610bff573d6000803e3d6000fd5b505050506040513d601f19601f82011682018060405250810190610c2391906113b8565b73ffffffffffffffffffffffffffffffffffffffff1663181c1bc4856040518263ffffffff1660e01b8152600401610c5d91815260200190565b60c060405180830381865afa158015610c7a573d6000803e3d6000fd5b505050506040513d601f19601f82011682018060405250810190610c9e91906113fd565b5160405160e084901b7fffffffff0000000000000000000000000000000000000000000000000000000016815273ffffffffffffffffffffffffffffffffffffffff90921660048301526024820152604401602060405180830381865afa158015610d0d573d6000803e3d6000fd5b505050506040513d601f19601f82011682018060405250810190610d319190611495565b610d6a576040517f9ea83e560000000000000000000000000000000000000000000000000000000081526004810182905260240161072f565b5050565b6000610d7982610f5e565b905080431015610d6a576040517fe0512699000000000000000000000000000000000000000000000000000000008152600481018390526024810182905260440161072f565b600081815260016020526040902054610e0d576040517f2a857f6c0000000000000000000000000000000000000000000000000000000081523060048201526024810182905260440161072f565b50565b606060006004805480602002602001604051908101604052809291908181526020018280548015610e6057602002820191906000526020600020905b815481526020019060010190808311610e4c575b5050505050905060005b8151811015610f275760028460058381548110610e8957610e89611106565b9060005260206000200154610e9e9190611340565b610ea8919061137d565b828281518110610eba57610eba611106565b6020026020010151610ecc91906110ee565b610ed69085611340565b828281518110610ee857610ee8611106565b6020026020010151610efa91906110ee565b828281518110610f0c57610f0c611106565b6020908102919091010152610f2081611135565b9050610e6a565b5092915050565b6000610f3c826127106115d7565b610f478360016110ee565b600654610f5491906115d7565b610a8b919061137d565b600081815260016020526040812054600254610f7a9190611340565b60008381526001602081905260409091200154610a8b91906110ee565b600060208284031215610fa957600080fd5b5035919050565b604080825283519082018190526000906020906060840190828701845b82811015610fff57815173ffffffffffffffffffffffffffffffffffffffff1684529284019290840190600101610fcd565b5050508381038285015284518082528583019183019060005b8181101561103457835183529284019291840191600101611018565b5090979650505050505050565b73ffffffffffffffffffffffffffffffffffffffff81168114610e0d57600080fd5b60008060006060848603121561107857600080fd5b83359250602084013561108a81611041565b929592945050506040919091013590565b6000602082840312156110ad57600080fd5b81356110b881611041565b9392505050565b7f4e487b7100000000000000000000000000000000000000000000000000000000600052601160045260246000fd5b60008219821115611101576111016110bf565b500190565b7f4e487b7100000000000000000000000000000000000000000000000000000000600052603260045260246000fd5b60007fffffffffffffffffffffffffffffffffffffffffffffffffffffffffffffffff821415611167576111676110bf565b5060010190565b7f4e487b7100000000000000000000000000000000000000000000000000000000600052604160045260246000fd5b604051601f82017fffffffffffffffffffffffffffffffffffffffffffffffffffffffffffffffe016810167ffffffffffffffff811182821017156111e4576111e461116e565b604052919050565b600067ffffffffffffffff8211156112065761120661116e565b5060051b60200190565b600082601f83011261122157600080fd5b81516020611236611231836111ec565b61119d565b82815260059290921b8401810191818101908684111561125557600080fd5b8286015b848110156112705780518352918301918301611259565b509695505050505050565b6000806040838503121561128e57600080fd5b825167ffffffffffffffff808211156112a657600080fd5b818501915085601f8301126112ba57600080fd5b815160206112ca611231836111ec565b82815260059290921b840181019181810190898411156112e957600080fd5b948201945b8386101561131057855161130181611041565b825294820194908201906112ee565b9188015191965090935050508082111561132957600080fd5b5061133685828601611210565b9150509250929050565b6000817fffffffffffffffffffffffffffffffffffffffffffffffffffffffffffffffff0483118215151615611378576113786110bf565b500290565b6000826113b3577f4e487b7100000000000000000000000000000000000000000000000000000000600052601260045260246000fd5b500490565b6000602082840312156113ca57600080fd5b81516110b881611041565b8051600981900b81146113e757600080fd5b919050565b805160ff811681146113e757600080fd5b600060c0828403121561140f57600080fd5b60405160c0810181811067ffffffffffffffff821117156114325761143261116e565b60405282518152611445602084016113d5565b6020820152611456604084016113d5565b6040820152611467606084016113d5565b6060820152611478608084016113ec565b608082015261148960a084016113ec565b60a08201529392505050565b6000602082840312156114a757600080fd5b815180151581146110b857600080fd5b600181815b8085111561151057817fffffffffffffffffffffffffffffffffffffffffffffffffffffffffffffffff048211156114f6576114f66110bf565b8085161561150357918102915b93841c93908002906114bc565b509250929050565b60008261152757506001610a8b565b8161153457506000610a8b565b816001811461154a576002811461155457611570565b6001915050610a8b565b60ff841115611565576115656110bf565b50506001821b610a8b565b5060208310610133831016604e8410600b8410161715611593575081810a610a8b565b61159d83836114b7565b807fffffffffffffffffffffffffffffffffffffffffffffffffffffffffffffffff048211156115cf576115cf6110bf565b029392505050565b60006110b8838361151856fea26469706673582212201d61cab2aab79e20e295b313f7c8541e3eb3aa03a166bd23bf421f2dbd5a9b8864736f6c634300080a0033",
    "linkReferences": {}
  }
}