{
  "abi": [
    {
      "inputs": [
        {
          "internalType": "contract ISanctis",
          "name": "sanctis",
          "type": "address"
        },
        {
          "internalType": "uint256",
          "name": "delay",
          "type": "uint256"
        },
        {
          "internalType": "contract IResource[]",
          "name": "costsResources",
          "type": "address[]"
        },
        {
          "internalType": "uint256[]",
          "name": "costsBase",
          "type": "uint256[]"
        },
        {
          "internalType": "uint256[]",
          "name": "costsRates",
          "type": "uint256[]"
        }
      ],
      "stateMutability": "nonpayable",
      "type": "constructor"
    },
    {
      "inputs": [
        {
          "internalType": "address",
          "name": "infrastructure",
          "type": "address"
        },
        {
          "internalType": "uint256",
          "name": "planetId",
          "type": "uint256"
        }
      ],
      "name": "InfrastructureDoesNotExist",
      "type": "error"
    },
    {
      "inputs": [
        {
          "internalType": "address",
          "name": "sender",
          "type": "address"
        }
      ],
      "name": "NotAllowed",
      "type": "error"
    },
    {
      "inputs": [
        {
          "internalType": "uint256",
          "name": "planetId",
          "type": "uint256"
        },
        {
          "internalType": "contract IResource",
          "name": "resource",
          "type": "address"
        }
      ],
      "name": "NotEnoughResource",
      "type": "error"
    },
    {
      "inputs": [
        {
          "internalType": "address",
          "name": "sender",
          "type": "address"
        }
      ],
      "name": "NotTheExecutor",
      "type": "error"
    },
    {
      "inputs": [
        {
          "internalType": "address",
          "name": "sender",
          "type": "address"
        }
      ],
      "name": "NotTheSanctis",
      "type": "error"
    },
    {
      "inputs": [
        {
          "internalType": "uint256",
          "name": "planetId",
          "type": "uint256"
        }
      ],
      "name": "PlanetNotOwned",
      "type": "error"
    },
    {
      "inputs": [
        {
          "internalType": "uint256",
          "name": "planetId",
          "type": "uint256"
        },
        {
          "internalType": "contract IResource",
          "name": "resource",
          "type": "address"
        }
      ],
      "name": "ResourceNotOnPlanet",
      "type": "error"
    },
    {
      "inputs": [
        {
          "internalType": "uint256",
          "name": "planetId",
          "type": "uint256"
        },
        {
          "internalType": "uint256",
          "name": "soonestUpgrade",
          "type": "uint256"
        }
      ],
      "name": "TooSoonToUpgrade",
      "type": "error"
    },
    {
      "inputs": [
        {
          "internalType": "uint256",
          "name": "planetId",
          "type": "uint256"
        },
        {
          "internalType": "contract IShip",
          "name": "ship",
          "type": "address"
        },
        {
          "internalType": "uint256",
          "name": "amount",
          "type": "uint256"
        }
      ],
      "name": "build",
      "outputs": [],
      "stateMutability": "nonpayable",
      "type": "function"
    },
    {
      "inputs": [
        {
          "internalType": "contract ISanctis",
          "name": "newSanctis",
          "type": "address"
        }
      ],
      "name": "changeSanctis",
      "outputs": [],
      "stateMutability": "nonpayable",
      "type": "function"
    },
    {
      "inputs": [
        {
          "internalType": "uint256",
          "name": "planetId",
          "type": "uint256"
        }
      ],
      "name": "costsNextLevel",
      "outputs": [
        {
          "internalType": "contract IResource[]",
          "name": "",
          "type": "address[]"
        },
        {
          "internalType": "uint256[]",
          "name": "",
          "type": "uint256[]"
        }
      ],
      "stateMutability": "view",
      "type": "function"
    },
    {
      "inputs": [
        {
          "internalType": "uint256",
          "name": "planetId",
          "type": "uint256"
        }
      ],
      "name": "create",
      "outputs": [],
      "stateMutability": "nonpayable",
      "type": "function"
    },
    {
      "inputs": [
        {
          "internalType": "uint256",
          "name": "planetId",
          "type": "uint256"
        }
      ],
      "name": "level",
      "outputs": [
        {
          "internalType": "uint256",
          "name": "",
          "type": "uint256"
        }
      ],
      "stateMutability": "view",
      "type": "function"
    },
    {
      "inputs": [],
      "name": "sanctis",
      "outputs": [
        {
          "internalType": "contract ISanctis",
          "name": "",
          "type": "address"
        }
      ],
      "stateMutability": "view",
      "type": "function"
    },
    {
      "inputs": [
        {
          "internalType": "uint256",
          "name": "planetId",
          "type": "uint256"
        }
      ],
      "name": "spatioport",
      "outputs": [
        {
          "components": [
            {
              "internalType": "uint256",
              "name": "level",
              "type": "uint256"
            },
            {
              "internalType": "contract IResource[]",
              "name": "costsResources",
              "type": "address[]"
            },
            {
              "internalType": "uint256[]",
              "name": "nextCosts",
              "type": "uint256[]"
            },
            {
              "internalType": "uint256",
              "name": "nextUpgrade",
              "type": "uint256"
            }
          ],
          "internalType": "struct ISpatioports.Spatioport",
          "name": "",
          "type": "tuple"
        }
      ],
      "stateMutability": "view",
      "type": "function"
    },
    {
      "inputs": [
        {
          "internalType": "uint256",
          "name": "planetId",
          "type": "uint256"
        }
      ],
      "name": "upgrade",
      "outputs": [],
      "stateMutability": "nonpayable",
      "type": "function"
    }
  ],
  "bytecode": {
    "object": "0x60806040523480156200001157600080fd5b50604051620013d6380380620013d683398101604081905262000034916200024c565b600080546001600160a01b0319166001600160a01b0387161781556002859055859085908590859085905b82518110156200014057600384828151811062000080576200008062000366565b60209081029190910181015182546001810184556000938452919092200180546001600160a01b0319166001600160a01b039092169190911790558251600490849083908110620000d557620000d562000366565b6020908102919091018101518254600181018455600093845291909220015581516005908390839081106200010e576200010e62000366565b6020908102919091018101518254600181018455600093845291909220015562000138816200037c565b90506200005f565b5050505050505050505050620003a6565b6001600160a01b03811681146200016757600080fd5b50565b634e487b7160e01b600052604160045260246000fd5b604051601f8201601f191681016001600160401b0381118282101715620001ab57620001ab6200016a565b604052919050565b60006001600160401b03821115620001cf57620001cf6200016a565b5060051b60200190565b600082601f830112620001eb57600080fd5b8151602062000204620001fe83620001b3565b62000180565b82815260059290921b840181019181810190868411156200022457600080fd5b8286015b8481101562000241578051835291830191830162000228565b509695505050505050565b600080600080600060a086880312156200026557600080fd5b8551620002728162000151565b60208781015160408901519297509550906001600160401b03808211156200029957600080fd5b818901915089601f830112620002ae57600080fd5b8151620002bf620001fe82620001b3565b81815260059190911b8301840190848101908c831115620002df57600080fd5b938501935b828510156200030a578451620002fa8162000151565b82529385019390850190620002e4565b60608c015190985094505050808311156200032457600080fd5b620003328a848b01620001d9565b945060808901519250808311156200034957600080fd5b50506200035988828901620001d9565b9150509295509295909350565b634e487b7160e01b600052603260045260246000fd5b60006000198214156200039f57634e487b7160e01b600052601160045260246000fd5b5060010190565b61102080620003b66000396000f3fe608060405234801561001057600080fd5b50600436106100885760003560e01c80635087883f1161005b5780635087883f14610108578063780900dc146101335780637ffc0dc714610146578063bf206e451461016757600080fd5b806305c58df21461008d57806345977d03146100c05780634bb70371146100d55780634e6f29ce146100e8575b600080fd5b6100ad61009b366004610c08565b60009081526001602052604090205490565b6040519081526020015b60405180910390f35b6100d36100ce366004610c08565b61017a565b005b6100d36100e3366004610c36565b6102de565b6100fb6100f6366004610c08565b610357565b6040516100b79190610c6e565b60005461011b906001600160a01b031681565b6040516001600160a01b0390911681526020016100b7565b6100d3610141366004610c08565b61043b565b610159610154366004610c08565b6105a0565b6040516100b7929190610d24565b6100d3610175366004610daa565b610621565b61018433826106de565b61018d81610a0e565b61019681610a74565b600081815260016020819052604082208054919290916101b7908490610de4565b909155505060008181526001602081905260408220439101555b6004548110156102da57600381815481106101ee576101ee610dfc565b60009182526020808320909101548483526001909152604090912054600580546001600160a01b039093169263b390c0ab92869290918690811061023457610234610dfc565b90600052602060002001546102499190610e12565b6004858154811061025c5761025c610dfc565b90600052602060002001546102719190610de4565b6040516001600160e01b031960e085901b16815260048101929092526024820152604401600060405180830381600087803b1580156102af57600080fd5b505af11580156102c3573d6000803e3d6000fd5b5050505080806102d290610e31565b9150506101d1565b5050565b6102e783610a74565b6102f133846106de565b60405163271acaf360e01b815260048101849052602481018290526001600160a01b0383169063271acaf390604401600060405180830381600087803b15801561033a57600080fd5b505af115801561034e573d6000803e3d6000fd5b50505050505050565b6103826040518060800160405280600081526020016060815260200160608152602001600081525090565b60408051608081018252600084815260016020908152908390205482526003805484518184028101840190955280855292938285019390928301828280156103f357602002820191906000526020600020905b81546001600160a01b031681526001909101906020018083116103d5575b5050505050815260200161041c6001600086815260200190815260200160002060000154610aac565b8152600093845260016020818152604090952001549301929092525090565b61044533826106de565b61044e81610a0e565b604080518082018252600180825260006020808401828152868352838252858320945185555193909201929092556004805484518184028101840190955280855292939290918301828280156104c357602002820191906000526020600020905b8154815260200190600101908083116104af575b5050505050905060005b815181101561059b57600381815481106104e9576104e9610dfc565b9060005260206000200160009054906101000a90046001600160a01b03166001600160a01b031663b390c0ab8484848151811061052857610528610dfc565b60200260200101516040518363ffffffff1660e01b8152600401610556929190918252602082015260400190565b600060405180830381600087803b15801561057057600080fd5b505af1158015610584573d6000803e3d6000fd5b50505050808061059390610e31565b9150506104cd565b505050565b60008181526001602052604090205460609081906003906105c090610aac565b81546040805160208084028201810190925282815291849183018282801561061157602002820191906000526020600020905b81546001600160a01b031681526001909101906020018083116105f3575b5050505050915091509150915091565b600054604080516311d614c160e21b8152905133926001600160a01b03169163475853049160048083019260209291908290030181865afa15801561066a573d6000803e3d6000fd5b505050506040513d601f19601f8201168201806040525081019061068e9190610e4c565b6001600160a01b0316146106bc5760405163968c45d960e01b81523360048201526024015b60405180910390fd5b600080546001600160a01b0319166001600160a01b0392909216919091179055565b600054604080518082018252600a815269434f4d4d414e4445525360b01b60208201529051633fde36b160e11b81526001600160a01b0390921691637fbc6d629161072b91600401610e69565b602060405180830381865afa158015610748573d6000803e3d6000fd5b505050506040513d601f19601f8201168201806040525081019061076c9190610e4c565b6000546040805180820182526007815266504c414e45545360c81b60208201529051633fde36b160e11b81526001600160a01b0393841693636352211e931691637fbc6d62916107bf9190600401610e69565b602060405180830381865afa1580156107dc573d6000803e3d6000fd5b505050506040513d601f19601f820116820180604052508101906108009190610e4c565b6001600160a01b031663181c1bc4846040518263ffffffff1660e01b815260040161082d91815260200190565b60c060405180830381865afa15801561084a573d6000803e3d6000fd5b505050506040513d601f19601f8201168201806040525081019061086e9190610f0b565b602001516040518263ffffffff1660e01b815260040161089091815260200190565b602060405180830381865afa1580156108ad573d6000803e3d6000fd5b505050506040513d601f19601f820116820180604052508101906108d19190610e4c565b6001600160a01b0316826001600160a01b0316141580156109ed5750600054604080518082018252600a815269434f4d4d414e4445525360b01b60208201529051633fde36b160e11b81526001600160a01b0390921691637fbc6d629161093a91600401610e69565b602060405180830381865afa158015610957573d6000803e3d6000fd5b505050506040513d601f19601f8201168201806040525081019061097b9190610e4c565b60405163e985e9c560e01b81526001600160a01b038481166004830152306024830152919091169063e985e9c590604401602060405180830381865afa1580156109c9573d6000803e3d6000fd5b505050506040513d601f19601f820116820180604052508101906109ed9190610fb1565b156102da57604051634f541f2b60e11b8152600481018290526024016106b3565b600081815260016020526040812054600254610a2a9190610e12565b60008381526001602081905260409091200154610a479190610de4565b9050804310156102da5760405163e051269960e01b815260048101839052602481018290526044016106b3565b600081815260016020526040902054610aa957604051630aa15fdb60e21b8152306004820152602481018290526044016106b3565b50565b606060006004805480602002602001604051908101604052809291908181526020018280548015610afc57602002820191906000526020600020905b815481526020019060010190808311610ae8575b50505050509050600083600014610b2557610b20610b1b600186610fd3565b610aac565b610b6a565b815167ffffffffffffffff811115610b3f57610b3f610ebe565b604051908082528060200260200182016040528015610b68578160200160208202803683370190505b505b905060005b8251811015610bff5781600081518110610b8b57610b8b610dfc565b602002602001015160058281548110610ba657610ba6610dfc565b906000526020600020015486610bbc9190610e12565b610bc69190610de4565b838281518110610bd857610bd8610dfc565b60200260200101818151610bec9190610de4565b905250610bf881610e31565b9050610b6f565b50909392505050565b600060208284031215610c1a57600080fd5b5035919050565b6001600160a01b0381168114610aa957600080fd5b600080600060608486031215610c4b57600080fd5b833592506020840135610c5d81610c21565b929592945050506040919091013590565b60208082528251828201528281015160806040840152805160a0840181905260009291820190839060c08601905b80831015610cc75783516001600160a01b031682526020820191508484019350600183019250610c9c565b506040870151868203601f190160608801528051808352908501935090840191506000905b80821015610d0c5783518352928401929184019160019190910190610cec565b50506060860151608086015280935050505092915050565b604080825283519082018190526000906020906060840190828701845b82811015610d685781516001600160a01b0316845260208401935090840190600101610d41565b5050508381038285015284518082528583019183019060005b81811015610d9d57835183529284019291840191600101610d81565b5090979650505050505050565b600060208284031215610dbc57600080fd5b8135610dc781610c21565b9392505050565b634e487b7160e01b600052601160045260246000fd5b60008219821115610df757610df7610dce565b500190565b634e487b7160e01b600052603260045260246000fd5b6000816000190483118215151615610e2c57610e2c610dce565b500290565b6000600019821415610e4557610e45610dce565b5060010190565b600060208284031215610e5e57600080fd5b8151610dc781610c21565b600060208083528351808285015260005b81811015610e9657858101830151858201604001528201610e7a565b81811115610ea8576000604083870101525b50601f01601f1916929092016040019392505050565b634e487b7160e01b600052604160045260246000fd5b805160048110610ee357600080fd5b919050565b8051600981900b8114610ee357600080fd5b805160ff81168114610ee357600080fd5b600060c08284031215610f1d57600080fd5b60405160c0810181811067ffffffffffffffff82111715610f4e57634e487b7160e01b600052604160045260246000fd5b604052610f5a83610ed4565b815260208301516020820152610f7260408401610ee8565b6040820152610f8360608401610ee8565b6060820152610f9460808401610ee8565b6080820152610fa560a08401610efa565b60a08201529392505050565b600060208284031215610fc357600080fd5b81518015158114610dc757600080fd5b600082821015610fe557610fe5610dce565b50039056fea2646970667358221220480f5f75c7263c9bf0c90234eae26268d29fd55067dddfb1a8a68f577b1b63a264736f6c634300080a0033",
    "linkReferences": {}
  }
}