{
  "abi": [
    {
      "inputs": [
        {
          "internalType": "contract ISanctis",
          "name": "sanctis_",
          "type": "address"
        },
        {
          "internalType": "string",
          "name": "name_",
          "type": "string"
        },
        {
          "internalType": "string",
          "name": "symbol_",
          "type": "string"
        }
      ],
      "stateMutability": "nonpayable",
      "type": "constructor"
    },
    {
      "inputs": [
        {
          "internalType": "address",
          "name": "sender",
          "type": "address"
        }
      ],
      "name": "NotAllowed",
      "type": "error"
    },
    {
      "inputs": [
        {
          "internalType": "address",
          "name": "sender",
          "type": "address"
        }
      ],
      "name": "NotTheExecutor",
      "type": "error"
    },
    {
      "inputs": [
        {
          "internalType": "address",
          "name": "sender",
          "type": "address"
        }
      ],
      "name": "NotTheSanctis",
      "type": "error"
    },
    {
      "inputs": [
        {
          "internalType": "address",
          "name": "sender",
          "type": "address"
        }
      ],
      "name": "Unallowed",
      "type": "error"
    },
    {
      "anonymous": false,
      "inputs": [
        {
          "indexed": false,
          "internalType": "uint256",
          "name": "planet",
          "type": "uint256"
        },
        {
          "indexed": false,
          "internalType": "uint256",
          "name": "amount",
          "type": "uint256"
        }
      ],
      "name": "Burn",
      "type": "event"
    },
    {
      "anonymous": false,
      "inputs": [
        {
          "indexed": false,
          "internalType": "uint256",
          "name": "planet",
          "type": "uint256"
        },
        {
          "indexed": false,
          "internalType": "uint256",
          "name": "amount",
          "type": "uint256"
        }
      ],
      "name": "Mint",
      "type": "event"
    },
    {
      "inputs": [
        {
          "internalType": "uint256",
          "name": "planetId",
          "type": "uint256"
        },
        {
          "internalType": "uint256",
          "name": "amount",
          "type": "uint256"
        }
      ],
      "name": "burn",
      "outputs": [],
      "stateMutability": "nonpayable",
      "type": "function"
    },
    {
      "inputs": [
        {
          "internalType": "contract ISanctis",
          "name": "newSanctis",
          "type": "address"
        }
      ],
      "name": "changeSanctis",
      "outputs": [],
      "stateMutability": "nonpayable",
      "type": "function"
    },
    {
      "inputs": [
        {
          "internalType": "uint256",
          "name": "",
          "type": "uint256"
        }
      ],
      "name": "isAvailableOnPlanet",
      "outputs": [
        {
          "internalType": "bool",
          "name": "",
          "type": "bool"
        }
      ],
      "stateMutability": "pure",
      "type": "function"
    },
    {
      "inputs": [
        {
          "internalType": "uint256",
          "name": "planetId",
          "type": "uint256"
        },
        {
          "internalType": "uint256",
          "name": "amount",
          "type": "uint256"
        }
      ],
      "name": "mint",
      "outputs": [],
      "stateMutability": "nonpayable",
      "type": "function"
    },
    {
      "inputs": [],
      "name": "name",
      "outputs": [
        {
          "internalType": "string",
          "name": "",
          "type": "string"
        }
      ],
      "stateMutability": "view",
      "type": "function"
    },
    {
      "inputs": [
        {
          "internalType": "uint256",
          "name": "planetId",
          "type": "uint256"
        }
      ],
      "name": "reserve",
      "outputs": [
        {
          "internalType": "uint256",
          "name": "",
          "type": "uint256"
        }
      ],
      "stateMutability": "view",
      "type": "function"
    },
    {
      "inputs": [],
      "name": "s_sanctis",
      "outputs": [
        {
          "internalType": "contract ISanctis",
          "name": "",
          "type": "address"
        }
      ],
      "stateMutability": "view",
      "type": "function"
    },
    {
      "inputs": [],
      "name": "sanctis",
      "outputs": [
        {
          "internalType": "contract ISanctis",
          "name": "",
          "type": "address"
        }
      ],
      "stateMutability": "view",
      "type": "function"
    },
    {
      "inputs": [],
      "name": "symbol",
      "outputs": [
        {
          "internalType": "string",
          "name": "",
          "type": "string"
        }
      ],
      "stateMutability": "view",
      "type": "function"
    }
  ],
  "bytecode": {
    "object": "0x60806040523480156200001157600080fd5b5060405162000bb138038062000bb18339810160408190526200003491620001f7565b600080546001600160a01b0319166001600160a01b03851617905581516200006490600290602085019062000084565b5080516200007a90600390602084019062000084565b50505050620002be565b828054620000929062000281565b90600052602060002090601f016020900481019282620000b6576000855562000101565b82601f10620000d157805160ff191683800117855562000101565b8280016001018555821562000101579182015b8281111562000101578251825591602001919060010190620000e4565b506200010f92915062000113565b5090565b5b808211156200010f576000815560010162000114565b634e487b7160e01b600052604160045260246000fd5b600082601f8301126200015257600080fd5b81516001600160401b03808211156200016f576200016f6200012a565b604051601f8301601f19908116603f011681019082821181831017156200019a576200019a6200012a565b81604052838152602092508683858801011115620001b757600080fd5b600091505b83821015620001db5785820183015181830184015290820190620001bc565b83821115620001ed5760008385830101525b9695505050505050565b6000806000606084860312156200020d57600080fd5b83516001600160a01b03811681146200022557600080fd5b60208501519093506001600160401b03808211156200024357600080fd5b620002518783880162000140565b935060408601519150808211156200026857600080fd5b50620002778682870162000140565b9150509250925092565b600181811c908216806200029657607f821691505b60208210811415620002b857634e487b7160e01b600052602260045260246000fd5b50919050565b6108e380620002ce6000396000f3fe608060405234801561001057600080fd5b50600436106100a35760003560e01c8063819b25ba116100765780639797efda1161005b5780639797efda14610162578063b390c0ab14610182578063bf206e451461019557600080fd5b8063819b25ba1461012c57806395d89b411461015a57600080fd5b806306fdde03146100a85780631b2ef1ca146100c65780635087883f146100db57806373199a7c14610108575b600080fd5b6100b06101a8565b6040516100bd91906106c5565b60405180910390f35b6100d96100d4366004610738565b61023a565b005b6100e361036a565b60405173ffffffffffffffffffffffffffffffffffffffff90911681526020016100bd565b61011c61011636600461075a565b50600190565b60405190151581526020016100bd565b61014c61013a36600461075a565b60009081526001602052604090205490565b6040519081526020016100bd565b6100b061046a565b6000546100e39073ffffffffffffffffffffffffffffffffffffffff1681565b6100d9610190366004610738565b610479565b6100d96101a3366004610798565b61059c565b6060600280546101b7906107bc565b80601f01602080910402602001604051908101604052809291908181526020018280546101e3906107bc565b80156102305780601f1061020557610100808354040283529160200191610230565b820191906000526020600020905b81548152906001019060200180831161021357829003601f168201915b5050505050905090565b6000546040517fd63a8e1100000000000000000000000000000000000000000000000000000000815233600482015273ffffffffffffffffffffffffffffffffffffffff9091169063d63a8e1190602401602060405180830381865afa1580156102a8573d6000803e3d6000fd5b505050506040513d601f19601f820116820180604052508101906102cc9190610810565b610309576040517ffa5cd00f0000000000000000000000000000000000000000000000000000000081523360048201526024015b60405180910390fd5b60008281526001602052604081208054839290610327908490610861565b909155505060408051838152602081018390527fcc9c58b575eabd3f6a1ee653e91fcea3ff546867ffc3782a3bbca1f9b6dbb8df91015b60405180910390a15050565b60008054604080517f475853040000000000000000000000000000000000000000000000000000000081529051339273ffffffffffffffffffffffffffffffffffffffff169163475853049160048083019260209291908290030181865afa1580156103da573d6000803e3d6000fd5b505050506040513d601f19601f820116820180604052508101906103fe9190610879565b73ffffffffffffffffffffffffffffffffffffffff161461044d576040517f968c45d9000000000000000000000000000000000000000000000000000000008152336004820152602401610300565b5060005473ffffffffffffffffffffffffffffffffffffffff1690565b6060600380546101b7906107bc565b6000546040517fd63a8e1100000000000000000000000000000000000000000000000000000000815233600482015273ffffffffffffffffffffffffffffffffffffffff9091169063d63a8e1190602401602060405180830381865afa1580156104e7573d6000803e3d6000fd5b505050506040513d601f19601f8201168201806040525081019061050b9190610810565b610543576040517ffa5cd00f000000000000000000000000000000000000000000000000000000008152336004820152602401610300565b60008281526001602052604081208054839290610561908490610896565b909155505060408051838152602081018390527f410c5c259085cde81fedf70c1aa308ec839373c26e9b7ada6560a2aca0254eb6910161035e565b600054604080517f475853040000000000000000000000000000000000000000000000000000000081529051339273ffffffffffffffffffffffffffffffffffffffff169163475853049160048083019260209291908290030181865afa15801561060b573d6000803e3d6000fd5b505050506040513d601f19601f8201168201806040525081019061062f9190610879565b73ffffffffffffffffffffffffffffffffffffffff161461067e576040517f968c45d9000000000000000000000000000000000000000000000000000000008152336004820152602401610300565b600080547fffffffffffffffffffffffff00000000000000000000000000000000000000001673ffffffffffffffffffffffffffffffffffffffff92909216919091179055565b600060208083528351808285015260005b818110156106f2578581018301518582016040015282016106d6565b81811115610704576000604083870101525b50601f017fffffffffffffffffffffffffffffffffffffffffffffffffffffffffffffffe016929092016040019392505050565b6000806040838503121561074b57600080fd5b50508035926020909101359150565b60006020828403121561076c57600080fd5b5035919050565b73ffffffffffffffffffffffffffffffffffffffff8116811461079557600080fd5b50565b6000602082840312156107aa57600080fd5b81356107b581610773565b9392505050565b600181811c908216806107d057607f821691505b6020821081141561080a577f4e487b7100000000000000000000000000000000000000000000000000000000600052602260045260246000fd5b50919050565b60006020828403121561082257600080fd5b815180151581146107b557600080fd5b7f4e487b7100000000000000000000000000000000000000000000000000000000600052601160045260246000fd5b6000821982111561087457610874610832565b500190565b60006020828403121561088b57600080fd5b81516107b581610773565b6000828210156108a8576108a8610832565b50039056fea2646970667358221220904e94c82bce4a2d37d814dc6491755dc4d778a9715bda4ef222c33fa20bcf4f64736f6c634300080a0033",
    "linkReferences": {}
  }
}