{
  "abi": [
    {
      "inputs": [
        {
          "internalType": "contract ISanctis",
          "name": "sanctis_",
          "type": "address"
        },
        {
          "internalType": "string",
          "name": "name_",
          "type": "string"
        },
        {
          "internalType": "string",
          "name": "symbol_",
          "type": "string"
        }
      ],
      "stateMutability": "nonpayable",
      "type": "constructor"
    },
    {
      "inputs": [
        {
          "internalType": "address",
          "name": "sender",
          "type": "address"
        }
      ],
      "name": "NotAllowed",
      "type": "error"
    },
    {
      "inputs": [
        {
          "internalType": "address",
          "name": "sender",
          "type": "address"
        }
      ],
      "name": "NotTheExecutor",
      "type": "error"
    },
    {
      "inputs": [
        {
          "internalType": "address",
          "name": "sender",
          "type": "address"
        }
      ],
      "name": "NotTheSanctis",
      "type": "error"
    },
    {
      "inputs": [
        {
          "internalType": "address",
          "name": "sender",
          "type": "address"
        }
      ],
      "name": "Unallowed",
      "type": "error"
    },
    {
      "inputs": [
        {
          "internalType": "uint256",
          "name": "planetId",
          "type": "uint256"
        },
        {
          "internalType": "uint256",
          "name": "amount",
          "type": "uint256"
        }
      ],
      "name": "burn",
      "outputs": [],
      "stateMutability": "nonpayable",
      "type": "function"
    },
    {
      "inputs": [
        {
          "internalType": "contract ISanctis",
          "name": "newSanctis",
          "type": "address"
        }
      ],
      "name": "changeSanctis",
      "outputs": [],
      "stateMutability": "nonpayable",
      "type": "function"
    },
    {
      "inputs": [
        {
          "internalType": "uint256",
          "name": "",
          "type": "uint256"
        }
      ],
      "name": "isAvailableOnPlanet",
      "outputs": [
        {
          "internalType": "bool",
          "name": "",
          "type": "bool"
        }
      ],
      "stateMutability": "pure",
      "type": "function"
    },
    {
      "inputs": [
        {
          "internalType": "uint256",
          "name": "planetId",
          "type": "uint256"
        },
        {
          "internalType": "uint256",
          "name": "amount",
          "type": "uint256"
        }
      ],
      "name": "mint",
      "outputs": [],
      "stateMutability": "nonpayable",
      "type": "function"
    },
    {
      "inputs": [],
      "name": "name",
      "outputs": [
        {
          "internalType": "string",
          "name": "",
          "type": "string"
        }
      ],
      "stateMutability": "view",
      "type": "function"
    },
    {
      "inputs": [
        {
          "internalType": "uint256",
          "name": "planetId",
          "type": "uint256"
        }
      ],
      "name": "reserve",
      "outputs": [
        {
          "internalType": "uint256",
          "name": "",
          "type": "uint256"
        }
      ],
      "stateMutability": "view",
      "type": "function"
    },
    {
      "inputs": [],
      "name": "sanctis",
      "outputs": [
        {
          "internalType": "contract ISanctis",
          "name": "",
          "type": "address"
        }
      ],
      "stateMutability": "view",
      "type": "function"
    },
    {
      "inputs": [],
      "name": "symbol",
      "outputs": [
        {
          "internalType": "string",
          "name": "",
          "type": "string"
        }
      ],
      "stateMutability": "view",
      "type": "function"
    }
  ],
  "bytecode": {
    "object": "0x608060405234801561001057600080fd5b5060405161088638038061088683398101604081905261002f916101d5565b600080546001600160a01b0319166001600160a01b038516179055815161005d90600290602085019061007a565b50805161007190600390602084019061007a565b50505050610292565b82805461008690610257565b90600052602060002090601f0160209004810192826100a857600085556100ee565b82601f106100c157805160ff19168380011785556100ee565b828001600101855582156100ee579182015b828111156100ee5782518255916020019190600101906100d3565b506100fa9291506100fe565b5090565b5b808211156100fa57600081556001016100ff565b634e487b7160e01b600052604160045260246000fd5b600082601f83011261013a57600080fd5b81516001600160401b038082111561015457610154610113565b604051601f8301601f19908116603f0116810190828211818310171561017c5761017c610113565b8160405283815260209250868385880101111561019857600080fd5b600091505b838210156101ba578582018301518183018401529082019061019d565b838211156101cb5760008385830101525b9695505050505050565b6000806000606084860312156101ea57600080fd5b83516001600160a01b038116811461020157600080fd5b60208501519093506001600160401b038082111561021e57600080fd5b61022a87838801610129565b9350604086015191508082111561024057600080fd5b5061024d86828701610129565b9150509250925092565b600181811c9082168061026b57607f821691505b6020821081141561028c57634e487b7160e01b600052602260045260246000fd5b50919050565b6105e5806102a16000396000f3fe608060405234801561001057600080fd5b50600436106100885760003560e01c8063819b25ba1161005b578063819b25ba1461010f57806395d89b411461013d578063b390c0ab14610145578063bf206e451461015857600080fd5b806306fdde031461008d5780631b2ef1ca146100ab5780635087883f146100c057806373199a7c146100eb575b600080fd5b61009561016b565b6040516100a29190610424565b60405180910390f35b6100be6100b9366004610479565b6101fd565b005b6000546100d3906001600160a01b031681565b6040516001600160a01b0390911681526020016100a2565b6100ff6100f936600461049b565b50600190565b60405190151581526020016100a2565b61012f61011d36600461049b565b60009081526001602052604090205490565b6040519081526020016100a2565b6100956102b4565b6100be610153366004610479565b6102c3565b6100be6101663660046104cc565b61036c565b60606002805461017a906104f0565b80601f01602080910402602001604051908101604052809291908181526020018280546101a6906104f0565b80156101f35780601f106101c8576101008083540402835291602001916101f3565b820191906000526020600020905b8154815290600101906020018083116101d657829003601f168201915b5050505050905090565b60005460405163d63a8e1160e01b81523360048201526001600160a01b039091169063d63a8e1190602401602060405180830381865afa158015610245573d6000803e3d6000fd5b505050506040513d601f19601f82011682018060405250810190610269919061052b565b61028d5760405163fa5cd00f60e01b81523360048201526024015b60405180910390fd5b600082815260016020526040812080548392906102ab908490610563565b90915550505050565b60606003805461017a906104f0565b60005460405163d63a8e1160e01b81523360048201526001600160a01b039091169063d63a8e1190602401602060405180830381865afa15801561030b573d6000803e3d6000fd5b505050506040513d601f19601f8201168201806040525081019061032f919061052b565b61034e5760405163fa5cd00f60e01b8152336004820152602401610284565b600082815260016020526040812080548392906102ab90849061057b565b600054604080516311d614c160e21b8152905133926001600160a01b03169163475853049160048083019260209291908290030181865afa1580156103b5573d6000803e3d6000fd5b505050506040513d601f19601f820116820180604052508101906103d99190610592565b6001600160a01b0316146104025760405163968c45d960e01b8152336004820152602401610284565b600080546001600160a01b0319166001600160a01b0392909216919091179055565b600060208083528351808285015260005b8181101561045157858101830151858201604001528201610435565b81811115610463576000604083870101525b50601f01601f1916929092016040019392505050565b6000806040838503121561048c57600080fd5b50508035926020909101359150565b6000602082840312156104ad57600080fd5b5035919050565b6001600160a01b03811681146104c957600080fd5b50565b6000602082840312156104de57600080fd5b81356104e9816104b4565b9392505050565b600181811c9082168061050457607f821691505b6020821081141561052557634e487b7160e01b600052602260045260246000fd5b50919050565b60006020828403121561053d57600080fd5b815180151581146104e957600080fd5b634e487b7160e01b600052601160045260246000fd5b600082198211156105765761057661054d565b500190565b60008282101561058d5761058d61054d565b500390565b6000602082840312156105a457600080fd5b81516104e9816104b456fea264697066735822122008a21e6e0d3afc82eb9a7fd5f564c173739cf3d3be651c1abb9539cbe29c93ee64736f6c634300080a0033",
    "linkReferences": {}
  }
}